{
	"contracts/Crypto.sol": {
		"PARTYCIPATION": {
			"abi": [
				{
					"inputs": [],
					"stateMutability": "nonpayable",
					"type": "constructor"
				},
				{
					"anonymous": false,
					"inputs": [
						{
							"indexed": true,
							"internalType": "address",
							"name": "owner",
							"type": "address"
						},
						{
							"indexed": true,
							"internalType": "address",
							"name": "approved",
							"type": "address"
						},
						{
							"indexed": true,
							"internalType": "uint256",
							"name": "tokenId",
							"type": "uint256"
						}
					],
					"name": "Approval",
					"type": "event"
				},
				{
					"anonymous": false,
					"inputs": [
						{
							"indexed": true,
							"internalType": "address",
							"name": "owner",
							"type": "address"
						},
						{
							"indexed": true,
							"internalType": "address",
							"name": "operator",
							"type": "address"
						},
						{
							"indexed": false,
							"internalType": "bool",
							"name": "approved",
							"type": "bool"
						}
					],
					"name": "ApprovalForAll",
					"type": "event"
				},
				{
					"anonymous": false,
					"inputs": [
						{
							"indexed": true,
							"internalType": "address",
							"name": "from",
							"type": "address"
						},
						{
							"indexed": true,
							"internalType": "address",
							"name": "to",
							"type": "address"
						},
						{
							"indexed": true,
							"internalType": "uint256",
							"name": "tokenId",
							"type": "uint256"
						}
					],
					"name": "Transfer",
					"type": "event"
				},
				{
					"inputs": [
						{
							"internalType": "address",
							"name": "to",
							"type": "address"
						},
						{
							"internalType": "uint256",
							"name": "tokenId",
							"type": "uint256"
						}
					],
					"name": "approve",
					"outputs": [],
					"stateMutability": "nonpayable",
					"type": "function"
				},
				{
					"inputs": [
						{
							"internalType": "address",
							"name": "owner",
							"type": "address"
						}
					],
					"name": "balanceOf",
					"outputs": [
						{
							"internalType": "uint256",
							"name": "",
							"type": "uint256"
						}
					],
					"stateMutability": "view",
					"type": "function"
				},
				{
					"inputs": [
						{
							"internalType": "uint256",
							"name": "tokenId",
							"type": "uint256"
						}
					],
					"name": "getApproved",
					"outputs": [
						{
							"internalType": "address",
							"name": "",
							"type": "address"
						}
					],
					"stateMutability": "view",
					"type": "function"
				},
				{
					"inputs": [
						{
							"internalType": "address",
							"name": "owner",
							"type": "address"
						},
						{
							"internalType": "address",
							"name": "operator",
							"type": "address"
						}
					],
					"name": "isApprovedForAll",
					"outputs": [
						{
							"internalType": "bool",
							"name": "",
							"type": "bool"
						}
					],
					"stateMutability": "view",
					"type": "function"
				},
				{
					"inputs": [],
					"name": "name",
					"outputs": [
						{
							"internalType": "string",
							"name": "",
							"type": "string"
						}
					],
					"stateMutability": "pure",
					"type": "function"
				},
				{
					"inputs": [
						{
							"internalType": "uint256",
							"name": "tokenId",
							"type": "uint256"
						}
					],
					"name": "ownerOf",
					"outputs": [
						{
							"internalType": "address",
							"name": "",
							"type": "address"
						}
					],
					"stateMutability": "view",
					"type": "function"
				},
				{
					"inputs": [
						{
							"internalType": "address",
							"name": "to",
							"type": "address"
						},
						{
							"internalType": "uint256",
							"name": "tokenId",
							"type": "uint256"
						}
					],
					"name": "safeMint",
					"outputs": [],
					"stateMutability": "nonpayable",
					"type": "function"
				},
				{
					"inputs": [
						{
							"internalType": "address",
							"name": "from",
							"type": "address"
						},
						{
							"internalType": "address",
							"name": "to",
							"type": "address"
						},
						{
							"internalType": "uint256",
							"name": "tokenId",
							"type": "uint256"
						}
					],
					"name": "safeTransferFrom",
					"outputs": [],
					"stateMutability": "nonpayable",
					"type": "function"
				},
				{
					"inputs": [
						{
							"internalType": "address",
							"name": "from",
							"type": "address"
						},
						{
							"internalType": "address",
							"name": "to",
							"type": "address"
						},
						{
							"internalType": "uint256",
							"name": "tokenId",
							"type": "uint256"
						},
						{
							"internalType": "bytes",
							"name": "data",
							"type": "bytes"
						}
					],
					"name": "safeTransferFrom",
					"outputs": [],
					"stateMutability": "nonpayable",
					"type": "function"
				},
				{
					"inputs": [
						{
							"internalType": "address",
							"name": "operator",
							"type": "address"
						},
						{
							"internalType": "bool",
							"name": "approved",
							"type": "bool"
						}
					],
					"name": "setApprovalForAll",
					"outputs": [],
					"stateMutability": "nonpayable",
					"type": "function"
				},
				{
					"inputs": [
						{
							"internalType": "bytes4",
							"name": "id",
							"type": "bytes4"
						}
					],
					"name": "supportsInterface",
					"outputs": [
						{
							"internalType": "bool",
							"name": "",
							"type": "bool"
						}
					],
					"stateMutability": "view",
					"type": "function"
				},
				{
					"inputs": [],
					"name": "symbol",
					"outputs": [
						{
							"internalType": "string",
							"name": "",
							"type": "string"
						}
					],
					"stateMutability": "pure",
					"type": "function"
				},
				{
					"inputs": [
						{
							"internalType": "uint256",
							"name": "tokenId",
							"type": "uint256"
						}
					],
					"name": "tokenURI",
					"outputs": [
						{
							"internalType": "string",
							"name": "",
							"type": "string"
						}
					],
					"stateMutability": "view",
					"type": "function"
				},
				{
					"inputs": [],
					"name": "totalSupply",
					"outputs": [
						{
							"internalType": "uint256",
							"name": "",
							"type": "uint256"
						}
					],
					"stateMutability": "pure",
					"type": "function"
				},
				{
					"inputs": [
						{
							"internalType": "address",
							"name": "from",
							"type": "address"
						},
						{
							"internalType": "address",
							"name": "to",
							"type": "address"
						},
						{
							"internalType": "uint256",
							"name": "tokenId",
							"type": "uint256"
						}
					],
					"name": "transferFrom",
					"outputs": [],
					"stateMutability": "nonpayable",
					"type": "function"
				}
			],
			"devdoc": {
				"kind": "dev",
				"methods": {},
				"version": 1
			},
			"evm": {
				"assembly": "    /* \"contracts/Crypto.sol\":476:9421  contract PARTYCIPATION {... */\n  mstore(0x40, 0x80)\n    /* \"contracts/Crypto.sol\":2038:2285  constructor() {... */\n  callvalue\n  dup1\n  iszero\n  tag_1\n  jumpi\n  0x00\n  dup1\n  revert\ntag_1:\n  pop\n    /* \"contracts/Crypto.sol\":2069:2070  0 */\n  0x00\n    /* \"contracts/Crypto.sol\":2059:2066  _minted */\n  0x01\n    /* \"contracts/Crypto.sol\":2059:2070  _minted = 0 */\n  dup2\n  swap1\n  sstore\n  pop\n    /* \"contracts/Crypto.sol\":2086:2096  msg.sender */\n  caller\n    /* \"contracts/Crypto.sol\":2077:2083  _owner */\n  0x00\n  dup1\n    /* \"contracts/Crypto.sol\":2077:2096  _owner = msg.sender */\n  0x0100\n  exp\n  dup2\n  sload\n  dup2\n  0xffffffffffffffffffffffffffffffffffffffff\n  mul\n  not\n  and\n  swap1\n  dup4\n  0xffffffffffffffffffffffffffffffffffffffff\n  and\n  mul\n  or\n  swap1\n  sstore\n  pop\n    /* \"contracts/Crypto.sol\":2138:2142  true */\n  0x01\n    /* \"contracts/Crypto.sol\":2103:2123  _supportedInterfaces */\n  0x05\n    /* \"contracts/Crypto.sol\":2103:2135  _supportedInterfaces[0x01ffc9a7] */\n  0x00\n    /* \"contracts/Crypto.sol\":2124:2134  0x01ffc9a7 */\n  0x01ffc9a7\n    /* \"contracts/Crypto.sol\":2103:2135  _supportedInterfaces[0x01ffc9a7] */\n  0xe0\n  shl\n  not(0xffffffffffffffffffffffffffffffffffffffffffffffffffffffff)\n  and\n  dup2\n  mstore\n  0x20\n  add\n  swap1\n  dup2\n  mstore\n  0x20\n  add\n  0x00\n  keccak256\n  0x00\n    /* \"contracts/Crypto.sol\":2103:2142  _supportedInterfaces[0x01ffc9a7] = true */\n  0x0100\n  exp\n  dup2\n  sload\n  dup2\n  0xff\n  mul\n  not\n  and\n  swap1\n  dup4\n  iszero\n  iszero\n  mul\n  or\n  swap1\n  sstore\n  pop\n    /* \"contracts/Crypto.sol\":2196:2200  true */\n  0x01\n    /* \"contracts/Crypto.sol\":2161:2181  _supportedInterfaces */\n  0x05\n    /* \"contracts/Crypto.sol\":2161:2193  _supportedInterfaces[0x80ac58cd] */\n  0x00\n    /* \"contracts/Crypto.sol\":2182:2192  0x80ac58cd */\n  0x80ac58cd\n    /* \"contracts/Crypto.sol\":2161:2193  _supportedInterfaces[0x80ac58cd] */\n  0xe0\n  shl\n  not(0xffffffffffffffffffffffffffffffffffffffffffffffffffffffff)\n  and\n  dup2\n  mstore\n  0x20\n  add\n  swap1\n  dup2\n  mstore\n  0x20\n  add\n  0x00\n  keccak256\n  0x00\n    /* \"contracts/Crypto.sol\":2161:2200  _supportedInterfaces[0x80ac58cd] = true */\n  0x0100\n  exp\n  dup2\n  sload\n  dup2\n  0xff\n  mul\n  not\n  and\n  swap1\n  dup4\n  iszero\n  iszero\n  mul\n  or\n  swap1\n  sstore\n  pop\n    /* \"contracts/Crypto.sol\":2254:2258  true */\n  0x01\n    /* \"contracts/Crypto.sol\":2219:2239  _supportedInterfaces */\n  0x05\n    /* \"contracts/Crypto.sol\":2219:2251  _supportedInterfaces[0x5b5e139f] */\n  0x00\n    /* \"contracts/Crypto.sol\":2240:2250  0x5b5e139f */\n  0x5b5e139f\n    /* \"contracts/Crypto.sol\":2219:2251  _supportedInterfaces[0x5b5e139f] */\n  0xe0\n  shl\n  not(0xffffffffffffffffffffffffffffffffffffffffffffffffffffffff)\n  and\n  dup2\n  mstore\n  0x20\n  add\n  swap1\n  dup2\n  mstore\n  0x20\n  add\n  0x00\n  keccak256\n  0x00\n    /* \"contracts/Crypto.sol\":2219:2258  _supportedInterfaces[0x5b5e139f] = true */\n  0x0100\n  exp\n  dup2\n  sload\n  dup2\n  0xff\n  mul\n  not\n  and\n  swap1\n  dup4\n  iszero\n  iszero\n  mul\n  or\n  swap1\n  sstore\n  pop\n    /* \"contracts/Crypto.sol\":476:9421  contract PARTYCIPATION {... */\n  dataSize(sub_0)\n  dup1\n  dataOffset(sub_0)\n  0x00\n  codecopy\n  0x00\n  return\nstop\n\nsub_0: assembly {\n        /* \"contracts/Crypto.sol\":476:9421  contract PARTYCIPATION {... */\n      mstore(0x40, 0x80)\n      callvalue\n      dup1\n      iszero\n      tag_1\n      jumpi\n      0x00\n      dup1\n      revert\n    tag_1:\n      pop\n      jumpi(tag_2, lt(calldatasize, 0x04))\n      shr(0xe0, calldataload(0x00))\n      dup1\n      0x6352211e\n      gt\n      tag_18\n      jumpi\n      dup1\n      0xa22cb465\n      gt\n      tag_19\n      jumpi\n      dup1\n      0xa22cb465\n      eq\n      tag_14\n      jumpi\n      dup1\n      0xb88d4fde\n      eq\n      tag_15\n      jumpi\n      dup1\n      0xc87b56dd\n      eq\n      tag_16\n      jumpi\n      dup1\n      0xe985e9c5\n      eq\n      tag_17\n      jumpi\n      jump(tag_2)\n    tag_19:\n      dup1\n      0x6352211e\n      eq\n      tag_10\n      jumpi\n      dup1\n      0x70a08231\n      eq\n      tag_11\n      jumpi\n      dup1\n      0x95d89b41\n      eq\n      tag_12\n      jumpi\n      dup1\n      0xa1448194\n      eq\n      tag_13\n      jumpi\n      jump(tag_2)\n    tag_18:\n      dup1\n      0x095ea7b3\n      gt\n      tag_20\n      jumpi\n      dup1\n      0x095ea7b3\n      eq\n      tag_6\n      jumpi\n      dup1\n      0x18160ddd\n      eq\n      tag_7\n      jumpi\n      dup1\n      0x23b872dd\n      eq\n      tag_8\n      jumpi\n      dup1\n      0x42842e0e\n      eq\n      tag_9\n      jumpi\n      jump(tag_2)\n    tag_20:\n      dup1\n      0x01ffc9a7\n      eq\n      tag_3\n      jumpi\n      dup1\n      0x06fdde03\n      eq\n      tag_4\n      jumpi\n      dup1\n      0x081812fc\n      eq\n      tag_5\n      jumpi\n    tag_2:\n      0x00\n      dup1\n      revert\n        /* \"contracts/Crypto.sol\":8458:8569  function supportsInterface(bytes4 id) external view returns (bool) {... */\n    tag_3:\n      tag_21\n      0x04\n      dup1\n      calldatasize\n      sub\n      dup2\n      add\n      swap1\n      tag_22\n      swap2\n      swap1\n      tag_23\n      jump\t// in\n    tag_22:\n      tag_24\n      jump\t// in\n    tag_21:\n      mload(0x40)\n      tag_25\n      swap2\n      swap1\n      tag_26\n      jump\t// in\n    tag_25:\n      mload(0x40)\n      dup1\n      swap2\n      sub\n      swap1\n      return\n        /* \"contracts/Crypto.sol\":7048:7119  function name() external pure returns (string memory) { return _name; } */\n    tag_4:\n      tag_27\n      tag_28\n      jump\t// in\n    tag_27:\n      mload(0x40)\n      tag_29\n      swap2\n      swap1\n      tag_30\n      jump\t// in\n    tag_29:\n      mload(0x40)\n      dup1\n      swap2\n      sub\n      swap1\n      return\n        /* \"contracts/Crypto.sol\":6564:6737  function getApproved(uint256 tokenId) public view returns (address) {... */\n    tag_5:\n      tag_31\n      0x04\n      dup1\n      calldatasize\n      sub\n      dup2\n      add\n      swap1\n      tag_32\n      swap2\n      swap1\n      tag_33\n      jump\t// in\n    tag_32:\n      tag_34\n      jump\t// in\n    tag_31:\n      mload(0x40)\n      tag_35\n      swap2\n      swap1\n      tag_36\n      jump\t// in\n    tag_35:\n      mload(0x40)\n      dup1\n      swap2\n      sub\n      swap1\n      return\n        /* \"contracts/Crypto.sol\":5946:6259  function approve(address to, uint256 tokenId) external {... */\n    tag_6:\n      tag_37\n      0x04\n      dup1\n      calldatasize\n      sub\n      dup2\n      add\n      swap1\n      tag_38\n      swap2\n      swap1\n      tag_39\n      jump\t// in\n    tag_38:\n      tag_40\n      jump\t// in\n    tag_37:\n      stop\n        /* \"contracts/Crypto.sol\":9063:9134  function totalSupply() external pure returns (uint256) { return _cap; } */\n    tag_7:\n      tag_41\n      tag_42\n      jump\t// in\n    tag_41:\n      mload(0x40)\n      tag_43\n      swap2\n      swap1\n      tag_44\n      jump\t// in\n    tag_43:\n      mload(0x40)\n      dup1\n      swap2\n      sub\n      swap1\n      return\n        /* \"contracts/Crypto.sol\":9222:9418  function transferFrom(address from, address to, uint256 tokenId) external {... */\n    tag_8:\n      tag_45\n      0x04\n      dup1\n      calldatasize\n      sub\n      dup2\n      add\n      swap1\n      tag_46\n      swap2\n      swap1\n      tag_47\n      jump\t// in\n    tag_46:\n      tag_48\n      jump\t// in\n    tag_45:\n      stop\n        /* \"contracts/Crypto.sol\":7567:7716  function safeTransferFrom(... */\n    tag_9:\n      tag_49\n      0x04\n      dup1\n      calldatasize\n      sub\n      dup2\n      add\n      swap1\n      tag_50\n      swap2\n      swap1\n      tag_47\n      jump\t// in\n    tag_50:\n      tag_51\n      jump\t// in\n    tag_49:\n      stop\n        /* \"contracts/Crypto.sol\":7185:7346  function ownerOf(uint256 tokenId) public view returns (address) {... */\n    tag_10:\n      tag_52\n      0x04\n      dup1\n      calldatasize\n      sub\n      dup2\n      add\n      swap1\n      tag_53\n      swap2\n      swap1\n      tag_33\n      jump\t// in\n    tag_53:\n      tag_54\n      jump\t// in\n    tag_52:\n      mload(0x40)\n      tag_55\n      swap2\n      swap1\n      tag_36\n      jump\t// in\n    tag_55:\n      mload(0x40)\n      dup1\n      swap2\n      sub\n      swap1\n      return\n        /* \"contracts/Crypto.sol\":6334:6511  function balanceOf(address owner) external view returns (uint256) {... */\n    tag_11:\n      tag_56\n      0x04\n      dup1\n      calldatasize\n      sub\n      dup2\n      add\n      swap1\n      tag_57\n      swap2\n      swap1\n      tag_58\n      jump\t// in\n    tag_57:\n      tag_59\n      jump\t// in\n    tag_56:\n      mload(0x40)\n      tag_60\n      swap2\n      swap1\n      tag_44\n      jump\t// in\n    tag_60:\n      mload(0x40)\n      dup1\n      swap2\n      sub\n      swap1\n      return\n        /* \"contracts/Crypto.sol\":8618:8693  function symbol() external pure returns (string memory) { return _symbol; } */\n    tag_12:\n      tag_61\n      tag_62\n      jump\t// in\n    tag_61:\n      mload(0x40)\n      tag_63\n      swap2\n      swap1\n      tag_30\n      jump\t// in\n    tag_63:\n      mload(0x40)\n      dup1\n      swap2\n      sub\n      swap1\n      return\n        /* \"contracts/Crypto.sol\":7382:7529  function safeMint(address to, uint256 tokenId) external {... */\n    tag_13:\n      tag_64\n      0x04\n      dup1\n      calldatasize\n      sub\n      dup2\n      add\n      swap1\n      tag_65\n      swap2\n      swap1\n      tag_39\n      jump\t// in\n    tag_65:\n      tag_66\n      jump\t// in\n    tag_64:\n      stop\n        /* \"contracts/Crypto.sol\":8100:8356  function setApprovalForAll(address operator, bool approved) external {... */\n    tag_14:\n      tag_67\n      0x04\n      dup1\n      calldatasize\n      sub\n      dup2\n      add\n      swap1\n      tag_68\n      swap2\n      swap1\n      tag_69\n      jump\t// in\n    tag_68:\n      tag_70\n      jump\t// in\n    tag_67:\n      stop\n        /* \"contracts/Crypto.sol\":7754:7999  function safeTransferFrom(... */\n    tag_15:\n      tag_71\n      0x04\n      dup1\n      calldatasize\n      sub\n      dup2\n      add\n      swap1\n      tag_72\n      swap2\n      swap1\n      tag_73\n      jump\t// in\n    tag_72:\n      tag_74\n      jump\t// in\n    tag_71:\n      stop\n        /* \"contracts/Crypto.sol\":8795:9017  function tokenURI(uint256 tokenId) external view returns (string memory) {... */\n    tag_16:\n      tag_75\n      0x04\n      dup1\n      calldatasize\n      sub\n      dup2\n      add\n      swap1\n      tag_76\n      swap2\n      swap1\n      tag_33\n      jump\t// in\n    tag_76:\n      tag_77\n      jump\t// in\n    tag_75:\n      mload(0x40)\n      tag_78\n      swap2\n      swap1\n      tag_30\n      jump\t// in\n    tag_78:\n      mload(0x40)\n      dup1\n      swap2\n      sub\n      swap1\n      return\n        /* \"contracts/Crypto.sol\":6840:7001  function isApprovedForAll(... */\n    tag_17:\n      tag_79\n      0x04\n      dup1\n      calldatasize\n      sub\n      dup2\n      add\n      swap1\n      tag_80\n      swap2\n      swap1\n      tag_81\n      jump\t// in\n    tag_80:\n      tag_82\n      jump\t// in\n    tag_79:\n      mload(0x40)\n      tag_83\n      swap2\n      swap1\n      tag_26\n      jump\t// in\n    tag_83:\n      mload(0x40)\n      dup1\n      swap2\n      sub\n      swap1\n      return\n        /* \"contracts/Crypto.sol\":8458:8569  function supportsInterface(bytes4 id) external view returns (bool) {... */\n    tag_24:\n        /* \"contracts/Crypto.sol\":8519:8523  bool */\n      0x00\n        /* \"contracts/Crypto.sol\":8539:8559  _supportedInterfaces */\n      0x05\n        /* \"contracts/Crypto.sol\":8539:8563  _supportedInterfaces[id] */\n      0x00\n        /* \"contracts/Crypto.sol\":8560:8562  id */\n      dup4\n        /* \"contracts/Crypto.sol\":8539:8563  _supportedInterfaces[id] */\n      not(0xffffffffffffffffffffffffffffffffffffffffffffffffffffffff)\n      and\n      not(0xffffffffffffffffffffffffffffffffffffffffffffffffffffffff)\n      and\n      dup2\n      mstore\n      0x20\n      add\n      swap1\n      dup2\n      mstore\n      0x20\n      add\n      0x00\n      keccak256\n      0x00\n      swap1\n      sload\n      swap1\n      0x0100\n      exp\n      swap1\n      div\n      0xff\n      and\n        /* \"contracts/Crypto.sol\":8532:8563  return _supportedInterfaces[id] */\n      swap1\n      pop\n        /* \"contracts/Crypto.sol\":8458:8569  function supportsInterface(bytes4 id) external view returns (bool) {... */\n      swap2\n      swap1\n      pop\n      jump\t// out\n        /* \"contracts/Crypto.sol\":7048:7119  function name() external pure returns (string memory) { return _name; } */\n    tag_28:\n        /* \"contracts/Crypto.sol\":7087:7100  string memory */\n      0x60\n        /* \"contracts/Crypto.sol\":7111:7116  _name */\n      mload(0x40)\n      dup1\n      0x40\n      add\n      0x40\n      mstore\n      dup1\n      0x0d\n      dup2\n      mstore\n      0x20\n      add\n      0x50415254594349504154494f4e00000000000000000000000000000000000000\n      dup2\n      mstore\n      pop\n        /* \"contracts/Crypto.sol\":7104:7116  return _name */\n      swap1\n      pop\n        /* \"contracts/Crypto.sol\":7048:7119  function name() external pure returns (string memory) { return _name; } */\n      swap1\n      jump\t// out\n        /* \"contracts/Crypto.sol\":6564:6737  function getApproved(uint256 tokenId) public view returns (address) {... */\n    tag_34:\n        /* \"contracts/Crypto.sol\":6623:6630  address */\n      0x00\n        /* \"contracts/Crypto.sol\":6647:6668  _tokenExists(tokenId) */\n      tag_87\n        /* \"contracts/Crypto.sol\":6660:6667  tokenId */\n      dup3\n        /* \"contracts/Crypto.sol\":6647:6659  _tokenExists */\n      tag_88\n        /* \"contracts/Crypto.sol\":6647:6668  _tokenExists(tokenId) */\n      jump\t// in\n    tag_87:\n        /* \"contracts/Crypto.sol\":6639:6693  require(_tokenExists(tokenId), \"token does not exist\") */\n      tag_89\n      jumpi\n      mload(0x40)\n      0x08c379a000000000000000000000000000000000000000000000000000000000\n      dup2\n      mstore\n      0x04\n      add\n      tag_90\n      swap1\n      tag_91\n      jump\t// in\n    tag_90:\n      mload(0x40)\n      dup1\n      swap2\n      sub\n      swap1\n      revert\n    tag_89:\n        /* \"contracts/Crypto.sol\":6707:6722  _tokenApprovals */\n      0x06\n        /* \"contracts/Crypto.sol\":6707:6731  _tokenApprovals[tokenId] */\n      0x00\n        /* \"contracts/Crypto.sol\":6723:6730  tokenId */\n      dup4\n        /* \"contracts/Crypto.sol\":6707:6731  _tokenApprovals[tokenId] */\n      dup2\n      mstore\n      0x20\n      add\n      swap1\n      dup2\n      mstore\n      0x20\n      add\n      0x00\n      keccak256\n      0x00\n      swap1\n      sload\n      swap1\n      0x0100\n      exp\n      swap1\n      div\n      0xffffffffffffffffffffffffffffffffffffffff\n      and\n        /* \"contracts/Crypto.sol\":6700:6731  return _tokenApprovals[tokenId] */\n      swap1\n      pop\n        /* \"contracts/Crypto.sol\":6564:6737  function getApproved(uint256 tokenId) public view returns (address) {... */\n      swap2\n      swap1\n      pop\n      jump\t// out\n        /* \"contracts/Crypto.sol\":5946:6259  function approve(address to, uint256 tokenId) external {... */\n    tag_40:\n        /* \"contracts/Crypto.sol\":6008:6021  address owner */\n      0x00\n        /* \"contracts/Crypto.sol\":6024:6040  ownerOf(tokenId) */\n      tag_93\n        /* \"contracts/Crypto.sol\":6032:6039  tokenId */\n      dup3\n        /* \"contracts/Crypto.sol\":6024:6031  ownerOf */\n      tag_54\n        /* \"contracts/Crypto.sol\":6024:6040  ownerOf(tokenId) */\n      jump\t// in\n    tag_93:\n        /* \"contracts/Crypto.sol\":6008:6040  address owner = ownerOf(tokenId) */\n      swap1\n      pop\n        /* \"contracts/Crypto.sol\":6061:6066  owner */\n      dup1\n        /* \"contracts/Crypto.sol\":6055:6066  to != owner */\n      0xffffffffffffffffffffffffffffffffffffffff\n      and\n        /* \"contracts/Crypto.sol\":6055:6057  to */\n      dup4\n        /* \"contracts/Crypto.sol\":6055:6066  to != owner */\n      0xffffffffffffffffffffffffffffffffffffffff\n      and\n      eq\n      iszero\n        /* \"contracts/Crypto.sol\":6047:6096  require(to != owner, \"approval to current owner\") */\n      tag_94\n      jumpi\n      mload(0x40)\n      0x08c379a000000000000000000000000000000000000000000000000000000000\n      dup2\n      mstore\n      0x04\n      add\n      tag_95\n      swap1\n      tag_96\n      jump\t// in\n    tag_95:\n      mload(0x40)\n      dup1\n      swap2\n      sub\n      swap1\n      revert\n    tag_94:\n        /* \"contracts/Crypto.sol\":6133:6138  owner */\n      dup1\n        /* \"contracts/Crypto.sol\":6119:6138  msg.sender == owner */\n      0xffffffffffffffffffffffffffffffffffffffff\n      and\n        /* \"contracts/Crypto.sol\":6119:6129  msg.sender */\n      caller\n        /* \"contracts/Crypto.sol\":6119:6138  msg.sender == owner */\n      0xffffffffffffffffffffffffffffffffffffffff\n      and\n      eq\n        /* \"contracts/Crypto.sol\":6119:6177  msg.sender == owner || isApprovedForAll(owner, msg.sender) */\n      dup1\n      tag_97\n      jumpi\n      pop\n        /* \"contracts/Crypto.sol\":6142:6177  isApprovedForAll(owner, msg.sender) */\n      tag_98\n        /* \"contracts/Crypto.sol\":6159:6164  owner */\n      dup2\n        /* \"contracts/Crypto.sol\":6166:6176  msg.sender */\n      caller\n        /* \"contracts/Crypto.sol\":6142:6158  isApprovedForAll */\n      tag_82\n        /* \"contracts/Crypto.sol\":6142:6177  isApprovedForAll(owner, msg.sender) */\n      jump\t// in\n    tag_98:\n        /* \"contracts/Crypto.sol\":6119:6177  msg.sender == owner || isApprovedForAll(owner, msg.sender) */\n    tag_97:\n        /* \"contracts/Crypto.sol\":6103:6225  require(... */\n      tag_99\n      jumpi\n      mload(0x40)\n      0x08c379a000000000000000000000000000000000000000000000000000000000\n      dup2\n      mstore\n      0x04\n      add\n      tag_100\n      swap1\n      tag_101\n      jump\t// in\n    tag_100:\n      mload(0x40)\n      dup1\n      swap2\n      sub\n      swap1\n      revert\n    tag_99:\n        /* \"contracts/Crypto.sol\":6232:6253  _approve(to, tokenId) */\n      tag_102\n        /* \"contracts/Crypto.sol\":6241:6243  to */\n      dup4\n        /* \"contracts/Crypto.sol\":6245:6252  tokenId */\n      dup4\n        /* \"contracts/Crypto.sol\":6232:6240  _approve */\n      tag_103\n        /* \"contracts/Crypto.sol\":6232:6253  _approve(to, tokenId) */\n      jump\t// in\n    tag_102:\n        /* \"contracts/Crypto.sol\":6001:6259  {... */\n      pop\n        /* \"contracts/Crypto.sol\":5946:6259  function approve(address to, uint256 tokenId) external {... */\n      pop\n      pop\n      jump\t// out\n        /* \"contracts/Crypto.sol\":9063:9134  function totalSupply() external pure returns (uint256) { return _cap; } */\n    tag_42:\n        /* \"contracts/Crypto.sol\":9109:9116  uint256 */\n      0x00\n        /* \"contracts/Crypto.sol\":584:585  1 */\n      0x01\n        /* \"contracts/Crypto.sol\":9120:9131  return _cap */\n      swap1\n      pop\n        /* \"contracts/Crypto.sol\":9063:9134  function totalSupply() external pure returns (uint256) { return _cap; } */\n      swap1\n      jump\t// out\n        /* \"contracts/Crypto.sol\":9222:9418  function transferFrom(address from, address to, uint256 tokenId) external {... */\n    tag_48:\n        /* \"contracts/Crypto.sol\":9311:9350  _isApprovedOrOwner(msg.sender, tokenId) */\n      tag_106\n        /* \"contracts/Crypto.sol\":9330:9340  msg.sender */\n      caller\n        /* \"contracts/Crypto.sol\":9342:9349  tokenId */\n      dup3\n        /* \"contracts/Crypto.sol\":9311:9329  _isApprovedOrOwner */\n      tag_107\n        /* \"contracts/Crypto.sol\":9311:9350  _isApprovedOrOwner(msg.sender, tokenId) */\n      jump\t// in\n    tag_106:\n        /* \"contracts/Crypto.sol\":9303:9377  require(_isApprovedOrOwner(msg.sender, tokenId), \"not owner nor approved\") */\n      tag_108\n      jumpi\n      mload(0x40)\n      0x08c379a000000000000000000000000000000000000000000000000000000000\n      dup2\n      mstore\n      0x04\n      add\n      tag_109\n      swap1\n      tag_110\n      jump\t// in\n    tag_109:\n      mload(0x40)\n      dup1\n      swap2\n      sub\n      swap1\n      revert\n    tag_108:\n        /* \"contracts/Crypto.sol\":9384:9412  _transfer(from, to, tokenId) */\n      tag_111\n        /* \"contracts/Crypto.sol\":9394:9398  from */\n      dup4\n        /* \"contracts/Crypto.sol\":9400:9402  to */\n      dup4\n        /* \"contracts/Crypto.sol\":9404:9411  tokenId */\n      dup4\n        /* \"contracts/Crypto.sol\":9384:9393  _transfer */\n      tag_112\n        /* \"contracts/Crypto.sol\":9384:9412  _transfer(from, to, tokenId) */\n      jump\t// in\n    tag_111:\n        /* \"contracts/Crypto.sol\":9222:9418  function transferFrom(address from, address to, uint256 tokenId) external {... */\n      pop\n      pop\n      pop\n      jump\t// out\n        /* \"contracts/Crypto.sol\":7567:7716  function safeTransferFrom(... */\n    tag_51:\n        /* \"contracts/Crypto.sol\":7671:7710  safeTransferFrom(from, to, tokenId, \"\") */\n      tag_114\n        /* \"contracts/Crypto.sol\":7688:7692  from */\n      dup4\n        /* \"contracts/Crypto.sol\":7694:7696  to */\n      dup4\n        /* \"contracts/Crypto.sol\":7698:7705  tokenId */\n      dup4\n        /* \"contracts/Crypto.sol\":7671:7710  safeTransferFrom(from, to, tokenId, \"\") */\n      mload(0x40)\n      dup1\n      0x20\n      add\n      0x40\n      mstore\n      dup1\n      0x00\n      dup2\n      mstore\n      pop\n        /* \"contracts/Crypto.sol\":7671:7687  safeTransferFrom */\n      tag_74\n        /* \"contracts/Crypto.sol\":7671:7710  safeTransferFrom(from, to, tokenId, \"\") */\n      jump\t// in\n    tag_114:\n        /* \"contracts/Crypto.sol\":7567:7716  function safeTransferFrom(... */\n      pop\n      pop\n      pop\n      jump\t// out\n        /* \"contracts/Crypto.sol\":7185:7346  function ownerOf(uint256 tokenId) public view returns (address) {... */\n    tag_54:\n        /* \"contracts/Crypto.sol\":7240:7247  address */\n      0x00\n        /* \"contracts/Crypto.sol\":7264:7285  _tokenExists(tokenId) */\n      tag_116\n        /* \"contracts/Crypto.sol\":7277:7284  tokenId */\n      dup3\n        /* \"contracts/Crypto.sol\":7264:7276  _tokenExists */\n      tag_88\n        /* \"contracts/Crypto.sol\":7264:7285  _tokenExists(tokenId) */\n      jump\t// in\n    tag_116:\n        /* \"contracts/Crypto.sol\":7256:7310  require(_tokenExists(tokenId), \"token does not exist\") */\n      tag_117\n      jumpi\n      mload(0x40)\n      0x08c379a000000000000000000000000000000000000000000000000000000000\n      dup2\n      mstore\n      0x04\n      add\n      tag_118\n      swap1\n      tag_91\n      jump\t// in\n    tag_118:\n      mload(0x40)\n      dup1\n      swap2\n      sub\n      swap1\n      revert\n    tag_117:\n        /* \"contracts/Crypto.sol\":7324:7331  _owners */\n      0x04\n        /* \"contracts/Crypto.sol\":7324:7340  _owners[tokenId] */\n      0x00\n        /* \"contracts/Crypto.sol\":7332:7339  tokenId */\n      dup4\n        /* \"contracts/Crypto.sol\":7324:7340  _owners[tokenId] */\n      dup2\n      mstore\n      0x20\n      add\n      swap1\n      dup2\n      mstore\n      0x20\n      add\n      0x00\n      keccak256\n      0x00\n      swap1\n      sload\n      swap1\n      0x0100\n      exp\n      swap1\n      div\n      0xffffffffffffffffffffffffffffffffffffffff\n      and\n        /* \"contracts/Crypto.sol\":7317:7340  return _owners[tokenId] */\n      swap1\n      pop\n        /* \"contracts/Crypto.sol\":7185:7346  function ownerOf(uint256 tokenId) public view returns (address) {... */\n      swap2\n      swap1\n      pop\n      jump\t// out\n        /* \"contracts/Crypto.sol\":6334:6511  function balanceOf(address owner) external view returns (uint256) {... */\n    tag_59:\n        /* \"contracts/Crypto.sol\":6391:6398  uint256 */\n      0x00\n        /* \"contracts/Crypto.sol\":6432:6433  0 */\n      dup1\n        /* \"contracts/Crypto.sol\":6415:6434  owner != address(0) */\n      0xffffffffffffffffffffffffffffffffffffffff\n      and\n        /* \"contracts/Crypto.sol\":6415:6420  owner */\n      dup3\n        /* \"contracts/Crypto.sol\":6415:6434  owner != address(0) */\n      0xffffffffffffffffffffffffffffffffffffffff\n      and\n      eq\n      iszero\n        /* \"contracts/Crypto.sol\":6407:6475  require(owner != address(0), \"queried balance for the zero address\") */\n      tag_120\n      jumpi\n      mload(0x40)\n      0x08c379a000000000000000000000000000000000000000000000000000000000\n      dup2\n      mstore\n      0x04\n      add\n      tag_121\n      swap1\n      tag_122\n      jump\t// in\n    tag_121:\n      mload(0x40)\n      dup1\n      swap2\n      sub\n      swap1\n      revert\n    tag_120:\n        /* \"contracts/Crypto.sol\":6489:6498  _balances */\n      0x02\n        /* \"contracts/Crypto.sol\":6489:6505  _balances[owner] */\n      0x00\n        /* \"contracts/Crypto.sol\":6499:6504  owner */\n      dup4\n        /* \"contracts/Crypto.sol\":6489:6505  _balances[owner] */\n      0xffffffffffffffffffffffffffffffffffffffff\n      and\n      0xffffffffffffffffffffffffffffffffffffffff\n      and\n      dup2\n      mstore\n      0x20\n      add\n      swap1\n      dup2\n      mstore\n      0x20\n      add\n      0x00\n      keccak256\n      sload\n        /* \"contracts/Crypto.sol\":6482:6505  return _balances[owner] */\n      swap1\n      pop\n        /* \"contracts/Crypto.sol\":6334:6511  function balanceOf(address owner) external view returns (uint256) {... */\n      swap2\n      swap1\n      pop\n      jump\t// out\n        /* \"contracts/Crypto.sol\":8618:8693  function symbol() external pure returns (string memory) { return _symbol; } */\n    tag_62:\n        /* \"contracts/Crypto.sol\":8659:8672  string memory */\n      0x60\n        /* \"contracts/Crypto.sol\":8683:8690  _symbol */\n      mload(0x40)\n      dup1\n      0x40\n      add\n      0x40\n      mstore\n      dup1\n      0x04\n      dup2\n      mstore\n      0x20\n      add\n      0xf09f8dbe00000000000000000000000000000000000000000000000000000000\n      dup2\n      mstore\n      pop\n        /* \"contracts/Crypto.sol\":8676:8690  return _symbol */\n      swap1\n      pop\n        /* \"contracts/Crypto.sol\":8618:8693  function symbol() external pure returns (string memory) { return _symbol; } */\n      swap1\n      jump\t// out\n        /* \"contracts/Crypto.sol\":7382:7529  function safeMint(address to, uint256 tokenId) external {... */\n    tag_66:\n        /* \"contracts/Crypto.sol\":7463:7473  msg.sender */\n      caller\n        /* \"contracts/Crypto.sol\":7453:7473  _owner == msg.sender */\n      0xffffffffffffffffffffffffffffffffffffffff\n      and\n        /* \"contracts/Crypto.sol\":7453:7459  _owner */\n      0x00\n      dup1\n      sload\n      swap1\n      0x0100\n      exp\n      swap1\n      div\n      0xffffffffffffffffffffffffffffffffffffffff\n      and\n        /* \"contracts/Crypto.sol\":7453:7473  _owner == msg.sender */\n      0xffffffffffffffffffffffffffffffffffffffff\n      and\n      eq\n        /* \"contracts/Crypto.sol\":7445:7494  require(_owner == msg.sender, \"caller not owner\") */\n      tag_125\n      jumpi\n      mload(0x40)\n      0x08c379a000000000000000000000000000000000000000000000000000000000\n      dup2\n      mstore\n      0x04\n      add\n      tag_126\n      swap1\n      tag_127\n      jump\t// in\n    tag_126:\n      mload(0x40)\n      dup1\n      swap2\n      sub\n      swap1\n      revert\n    tag_125:\n        /* \"contracts/Crypto.sol\":7501:7523  _safeMint(to, tokenId) */\n      tag_128\n        /* \"contracts/Crypto.sol\":7511:7513  to */\n      dup3\n        /* \"contracts/Crypto.sol\":7515:7522  tokenId */\n      dup3\n        /* \"contracts/Crypto.sol\":7501:7510  _safeMint */\n      tag_129\n        /* \"contracts/Crypto.sol\":7501:7523  _safeMint(to, tokenId) */\n      jump\t// in\n    tag_128:\n        /* \"contracts/Crypto.sol\":7382:7529  function safeMint(address to, uint256 tokenId) external {... */\n      pop\n      pop\n      jump\t// out\n        /* \"contracts/Crypto.sol\":8100:8356  function setApprovalForAll(address operator, bool approved) external {... */\n    tag_70:\n        /* \"contracts/Crypto.sol\":8196:8206  msg.sender */\n      caller\n        /* \"contracts/Crypto.sol\":8184:8206  operator != msg.sender */\n      0xffffffffffffffffffffffffffffffffffffffff\n      and\n        /* \"contracts/Crypto.sol\":8184:8192  operator */\n      dup3\n        /* \"contracts/Crypto.sol\":8184:8206  operator != msg.sender */\n      0xffffffffffffffffffffffffffffffffffffffff\n      and\n      eq\n      iszero\n        /* \"contracts/Crypto.sol\":8176:8234  require(operator != msg.sender, \"tried to approve caller\") */\n      tag_131\n      jumpi\n      mload(0x40)\n      0x08c379a000000000000000000000000000000000000000000000000000000000\n      dup2\n      mstore\n      0x04\n      add\n      tag_132\n      swap1\n      tag_133\n      jump\t// in\n    tag_132:\n      mload(0x40)\n      dup1\n      swap2\n      sub\n      swap1\n      revert\n    tag_131:\n        /* \"contracts/Crypto.sol\":8284:8292  approved */\n      dup1\n        /* \"contracts/Crypto.sol\":8241:8259  _operatorApprovals */\n      0x03\n        /* \"contracts/Crypto.sol\":8241:8271  _operatorApprovals[msg.sender] */\n      0x00\n        /* \"contracts/Crypto.sol\":8260:8270  msg.sender */\n      caller\n        /* \"contracts/Crypto.sol\":8241:8271  _operatorApprovals[msg.sender] */\n      0xffffffffffffffffffffffffffffffffffffffff\n      and\n      0xffffffffffffffffffffffffffffffffffffffff\n      and\n      dup2\n      mstore\n      0x20\n      add\n      swap1\n      dup2\n      mstore\n      0x20\n      add\n      0x00\n      keccak256\n        /* \"contracts/Crypto.sol\":8241:8281  _operatorApprovals[msg.sender][operator] */\n      0x00\n        /* \"contracts/Crypto.sol\":8272:8280  operator */\n      dup5\n        /* \"contracts/Crypto.sol\":8241:8281  _operatorApprovals[msg.sender][operator] */\n      0xffffffffffffffffffffffffffffffffffffffff\n      and\n      0xffffffffffffffffffffffffffffffffffffffff\n      and\n      dup2\n      mstore\n      0x20\n      add\n      swap1\n      dup2\n      mstore\n      0x20\n      add\n      0x00\n      keccak256\n      0x00\n        /* \"contracts/Crypto.sol\":8241:8292  _operatorApprovals[msg.sender][operator] = approved */\n      0x0100\n      exp\n      dup2\n      sload\n      dup2\n      0xff\n      mul\n      not\n      and\n      swap1\n      dup4\n      iszero\n      iszero\n      mul\n      or\n      swap1\n      sstore\n      pop\n        /* \"contracts/Crypto.sol\":8331:8339  operator */\n      dup2\n        /* \"contracts/Crypto.sol\":8304:8350  ApprovalForAll(msg.sender, operator, approved) */\n      0xffffffffffffffffffffffffffffffffffffffff\n      and\n        /* \"contracts/Crypto.sol\":8319:8329  msg.sender */\n      caller\n        /* \"contracts/Crypto.sol\":8304:8350  ApprovalForAll(msg.sender, operator, approved) */\n      0xffffffffffffffffffffffffffffffffffffffff\n      and\n      0x17307eab39ab6107e8899845ad3d59bd9653f200f220920489ca2b5937696c31\n        /* \"contracts/Crypto.sol\":8341:8349  approved */\n      dup4\n        /* \"contracts/Crypto.sol\":8304:8350  ApprovalForAll(msg.sender, operator, approved) */\n      mload(0x40)\n      tag_134\n      swap2\n      swap1\n      tag_26\n      jump\t// in\n    tag_134:\n      mload(0x40)\n      dup1\n      swap2\n      sub\n      swap1\n      log3\n        /* \"contracts/Crypto.sol\":8100:8356  function setApprovalForAll(address operator, bool approved) external {... */\n      pop\n      pop\n      jump\t// out\n        /* \"contracts/Crypto.sol\":7754:7999  function safeTransferFrom(... */\n    tag_74:\n        /* \"contracts/Crypto.sol\":7882:7921  _isApprovedOrOwner(msg.sender, tokenId) */\n      tag_136\n        /* \"contracts/Crypto.sol\":7901:7911  msg.sender */\n      caller\n        /* \"contracts/Crypto.sol\":7913:7920  tokenId */\n      dup4\n        /* \"contracts/Crypto.sol\":7882:7900  _isApprovedOrOwner */\n      tag_107\n        /* \"contracts/Crypto.sol\":7882:7921  _isApprovedOrOwner(msg.sender, tokenId) */\n      jump\t// in\n    tag_136:\n        /* \"contracts/Crypto.sol\":7874:7948  require(_isApprovedOrOwner(msg.sender, tokenId), \"not owner nor approved\") */\n      tag_137\n      jumpi\n      mload(0x40)\n      0x08c379a000000000000000000000000000000000000000000000000000000000\n      dup2\n      mstore\n      0x04\n      add\n      tag_138\n      swap1\n      tag_110\n      jump\t// in\n    tag_138:\n      mload(0x40)\n      dup1\n      swap2\n      sub\n      swap1\n      revert\n    tag_137:\n        /* \"contracts/Crypto.sol\":7955:7993  _safeTransfer(from, to, tokenId, data) */\n      tag_139\n        /* \"contracts/Crypto.sol\":7969:7973  from */\n      dup5\n        /* \"contracts/Crypto.sol\":7975:7977  to */\n      dup5\n        /* \"contracts/Crypto.sol\":7979:7986  tokenId */\n      dup5\n        /* \"contracts/Crypto.sol\":7988:7992  data */\n      dup5\n        /* \"contracts/Crypto.sol\":7955:7968  _safeTransfer */\n      tag_140\n        /* \"contracts/Crypto.sol\":7955:7993  _safeTransfer(from, to, tokenId, data) */\n      jump\t// in\n    tag_139:\n        /* \"contracts/Crypto.sol\":7754:7999  function safeTransferFrom(... */\n      pop\n      pop\n      pop\n      pop\n      jump\t// out\n        /* \"contracts/Crypto.sol\":8795:9017  function tokenURI(uint256 tokenId) external view returns (string memory) {... */\n    tag_77:\n        /* \"contracts/Crypto.sol\":8853:8866  string memory */\n      0x60\n        /* \"contracts/Crypto.sol\":8883:8904  _tokenExists(tokenId) */\n      tag_142\n        /* \"contracts/Crypto.sol\":8896:8903  tokenId */\n      dup3\n        /* \"contracts/Crypto.sol\":8883:8895  _tokenExists */\n      tag_88\n        /* \"contracts/Crypto.sol\":8883:8904  _tokenExists(tokenId) */\n      jump\t// in\n    tag_142:\n        /* \"contracts/Crypto.sol\":8875:8929  require(_tokenExists(tokenId), \"token does not exist\") */\n      tag_143\n      jumpi\n      mload(0x40)\n      0x08c379a000000000000000000000000000000000000000000000000000000000\n      dup2\n      mstore\n      0x04\n      add\n      tag_144\n      swap1\n      tag_91\n      jump\t// in\n    tag_144:\n      mload(0x40)\n      dup1\n      swap2\n      sub\n      swap1\n      revert\n    tag_143:\n        /* \"contracts/Crypto.sol\":8936:9011  return \"ipfs://bafkreicoka7fblv4ahckakz2fzxfmh47s6zal3zklhce65girajfxs7djy\" */\n      mload(0x40)\n      dup1\n      0x80\n      add\n      0x40\n      mstore\n      dup1\n      0x42\n      dup2\n      mstore\n      0x20\n      add\n      data_8c6276903114fde6ac459f8aa351565d598f1d7b0bfa8f496b8e7c89fe01855f\n      0x42\n      swap2\n      codecopy\n      swap1\n      pop\n        /* \"contracts/Crypto.sol\":8795:9017  function tokenURI(uint256 tokenId) external view returns (string memory) {... */\n      swap2\n      swap1\n      pop\n      jump\t// out\n        /* \"contracts/Crypto.sol\":6840:7001  function isApprovedForAll(... */\n    tag_82:\n        /* \"contracts/Crypto.sol\":6936:6940  bool */\n      0x00\n        /* \"contracts/Crypto.sol\":6960:6978  _operatorApprovals */\n      0x03\n        /* \"contracts/Crypto.sol\":6960:6985  _operatorApprovals[owner] */\n      0x00\n        /* \"contracts/Crypto.sol\":6979:6984  owner */\n      dup5\n        /* \"contracts/Crypto.sol\":6960:6985  _operatorApprovals[owner] */\n      0xffffffffffffffffffffffffffffffffffffffff\n      and\n      0xffffffffffffffffffffffffffffffffffffffff\n      and\n      dup2\n      mstore\n      0x20\n      add\n      swap1\n      dup2\n      mstore\n      0x20\n      add\n      0x00\n      keccak256\n        /* \"contracts/Crypto.sol\":6960:6995  _operatorApprovals[owner][operator] */\n      0x00\n        /* \"contracts/Crypto.sol\":6986:6994  operator */\n      dup4\n        /* \"contracts/Crypto.sol\":6960:6995  _operatorApprovals[owner][operator] */\n      0xffffffffffffffffffffffffffffffffffffffff\n      and\n      0xffffffffffffffffffffffffffffffffffffffff\n      and\n      dup2\n      mstore\n      0x20\n      add\n      swap1\n      dup2\n      mstore\n      0x20\n      add\n      0x00\n      keccak256\n      0x00\n      swap1\n      sload\n      swap1\n      0x0100\n      exp\n      swap1\n      div\n      0xff\n      and\n        /* \"contracts/Crypto.sol\":6953:6995  return _operatorApprovals[owner][operator] */\n      swap1\n      pop\n        /* \"contracts/Crypto.sol\":6840:7001  function isApprovedForAll(... */\n      swap3\n      swap2\n      pop\n      pop\n      jump\t// out\n        /* \"contracts/Crypto.sol\":5270:5444  function _tokenExists(uint256 tokenId) private view returns (bool) {... */\n    tag_88:\n        /* \"contracts/Crypto.sol\":5331:5335  bool */\n      0x00\n        /* \"contracts/Crypto.sol\":5436:5437  0 */\n      dup1\n        /* \"contracts/Crypto.sol\":5408:5438  _owners[tokenId] != address(0) */\n      0xffffffffffffffffffffffffffffffffffffffff\n      and\n        /* \"contracts/Crypto.sol\":5408:5415  _owners */\n      0x04\n        /* \"contracts/Crypto.sol\":5408:5424  _owners[tokenId] */\n      0x00\n        /* \"contracts/Crypto.sol\":5416:5423  tokenId */\n      dup5\n        /* \"contracts/Crypto.sol\":5408:5424  _owners[tokenId] */\n      dup2\n      mstore\n      0x20\n      add\n      swap1\n      dup2\n      mstore\n      0x20\n      add\n      0x00\n      keccak256\n      0x00\n      swap1\n      sload\n      swap1\n      0x0100\n      exp\n      swap1\n      div\n      0xffffffffffffffffffffffffffffffffffffffff\n      and\n        /* \"contracts/Crypto.sol\":5408:5438  _owners[tokenId] != address(0) */\n      0xffffffffffffffffffffffffffffffffffffffff\n      and\n      eq\n      iszero\n        /* \"contracts/Crypto.sol\":5401:5438  return _owners[tokenId] != address(0) */\n      swap1\n      pop\n        /* \"contracts/Crypto.sol\":5270:5444  function _tokenExists(uint256 tokenId) private view returns (bool) {... */\n      swap2\n      swap1\n      pop\n      jump\t// out\n        /* \"contracts/Crypto.sol\":2364:2512  function _approve(address to, uint256 tokenId) private {... */\n    tag_103:\n        /* \"contracts/Crypto.sol\":2453:2455  to */\n      dup2\n        /* \"contracts/Crypto.sol\":2426:2441  _tokenApprovals */\n      0x06\n        /* \"contracts/Crypto.sol\":2426:2450  _tokenApprovals[tokenId] */\n      0x00\n        /* \"contracts/Crypto.sol\":2442:2449  tokenId */\n      dup4\n        /* \"contracts/Crypto.sol\":2426:2450  _tokenApprovals[tokenId] */\n      dup2\n      mstore\n      0x20\n      add\n      swap1\n      dup2\n      mstore\n      0x20\n      add\n      0x00\n      keccak256\n      0x00\n        /* \"contracts/Crypto.sol\":2426:2455  _tokenApprovals[tokenId] = to */\n      0x0100\n      exp\n      dup2\n      sload\n      dup2\n      0xffffffffffffffffffffffffffffffffffffffff\n      mul\n      not\n      and\n      swap1\n      dup4\n      0xffffffffffffffffffffffffffffffffffffffff\n      and\n      mul\n      or\n      swap1\n      sstore\n      pop\n        /* \"contracts/Crypto.sol\":2498:2505  tokenId */\n      dup1\n        /* \"contracts/Crypto.sol\":2494:2496  to */\n      dup3\n        /* \"contracts/Crypto.sol\":2467:2506  Approval(ownerOf(tokenId), to, tokenId) */\n      0xffffffffffffffffffffffffffffffffffffffff\n      and\n        /* \"contracts/Crypto.sol\":2476:2492  ownerOf(tokenId) */\n      tag_148\n        /* \"contracts/Crypto.sol\":2484:2491  tokenId */\n      dup4\n        /* \"contracts/Crypto.sol\":2476:2483  ownerOf */\n      tag_54\n        /* \"contracts/Crypto.sol\":2476:2492  ownerOf(tokenId) */\n      jump\t// in\n    tag_148:\n        /* \"contracts/Crypto.sol\":2467:2506  Approval(ownerOf(tokenId), to, tokenId) */\n      0xffffffffffffffffffffffffffffffffffffffff\n      and\n      0x8c5be1e5ebec7d5bd14f71427d1e84f3dd0314c0f7b2291e5b200ac8c7c3b925\n      mload(0x40)\n      mload(0x40)\n      dup1\n      swap2\n      sub\n      swap1\n      log4\n        /* \"contracts/Crypto.sol\":2364:2512  function _approve(address to, uint256 tokenId) private {... */\n      pop\n      pop\n      jump\t// out\n        /* \"contracts/Crypto.sol\":3362:3689  function _isApprovedOrOwner(... */\n    tag_107:\n        /* \"contracts/Crypto.sol\":3462:3466  bool */\n      0x00\n        /* \"contracts/Crypto.sol\":3487:3508  _tokenExists(tokenId) */\n      tag_150\n        /* \"contracts/Crypto.sol\":3500:3507  tokenId */\n      dup3\n        /* \"contracts/Crypto.sol\":3487:3499  _tokenExists */\n      tag_88\n        /* \"contracts/Crypto.sol\":3487:3508  _tokenExists(tokenId) */\n      jump\t// in\n    tag_150:\n        /* \"contracts/Crypto.sol\":3479:3533  require(_tokenExists(tokenId), \"token does not exist\") */\n      tag_151\n      jumpi\n      mload(0x40)\n      0x08c379a000000000000000000000000000000000000000000000000000000000\n      dup2\n      mstore\n      0x04\n      add\n      tag_152\n      swap1\n      tag_91\n      jump\t// in\n    tag_152:\n      mload(0x40)\n      dup1\n      swap2\n      sub\n      swap1\n      revert\n    tag_151:\n        /* \"contracts/Crypto.sol\":3540:3553  address owner */\n      0x00\n        /* \"contracts/Crypto.sol\":3556:3572  ownerOf(tokenId) */\n      tag_153\n        /* \"contracts/Crypto.sol\":3564:3571  tokenId */\n      dup4\n        /* \"contracts/Crypto.sol\":3556:3563  ownerOf */\n      tag_54\n        /* \"contracts/Crypto.sol\":3556:3572  ownerOf(tokenId) */\n      jump\t// in\n    tag_153:\n        /* \"contracts/Crypto.sol\":3540:3572  address owner = ownerOf(tokenId) */\n      swap1\n      pop\n        /* \"contracts/Crypto.sol\":3598:3603  owner */\n      dup1\n        /* \"contracts/Crypto.sol\":3587:3603  spender == owner */\n      0xffffffffffffffffffffffffffffffffffffffff\n      and\n        /* \"contracts/Crypto.sol\":3587:3594  spender */\n      dup5\n        /* \"contracts/Crypto.sol\":3587:3603  spender == owner */\n      0xffffffffffffffffffffffffffffffffffffffff\n      and\n      eq\n        /* \"contracts/Crypto.sol\":3587:3638  spender == owner || getApproved(tokenId) == spender */\n      dup1\n      tag_154\n      jumpi\n      pop\n        /* \"contracts/Crypto.sol\":3631:3638  spender */\n      dup4\n        /* \"contracts/Crypto.sol\":3607:3638  getApproved(tokenId) == spender */\n      0xffffffffffffffffffffffffffffffffffffffff\n      and\n        /* \"contracts/Crypto.sol\":3607:3627  getApproved(tokenId) */\n      tag_155\n        /* \"contracts/Crypto.sol\":3619:3626  tokenId */\n      dup5\n        /* \"contracts/Crypto.sol\":3607:3618  getApproved */\n      tag_34\n        /* \"contracts/Crypto.sol\":3607:3627  getApproved(tokenId) */\n      jump\t// in\n    tag_155:\n        /* \"contracts/Crypto.sol\":3607:3638  getApproved(tokenId) == spender */\n      0xffffffffffffffffffffffffffffffffffffffff\n      and\n      eq\n        /* \"contracts/Crypto.sol\":3587:3638  spender == owner || getApproved(tokenId) == spender */\n    tag_154:\n        /* \"contracts/Crypto.sol\":3587:3682  spender == owner || getApproved(tokenId) == spender || ... */\n      dup1\n      tag_156\n      jumpi\n      pop\n        /* \"contracts/Crypto.sol\":3650:3682  isApprovedForAll(owner, spender) */\n      tag_157\n        /* \"contracts/Crypto.sol\":3667:3672  owner */\n      dup2\n        /* \"contracts/Crypto.sol\":3674:3681  spender */\n      dup6\n        /* \"contracts/Crypto.sol\":3650:3666  isApprovedForAll */\n      tag_82\n        /* \"contracts/Crypto.sol\":3650:3682  isApprovedForAll(owner, spender) */\n      jump\t// in\n    tag_157:\n        /* \"contracts/Crypto.sol\":3587:3682  spender == owner || getApproved(tokenId) == spender || ... */\n    tag_156:\n        /* \"contracts/Crypto.sol\":3579:3683  return (spender == owner || getApproved(tokenId) == spender || ... */\n      swap2\n      pop\n      pop\n        /* \"contracts/Crypto.sol\":3362:3689  function _isApprovedOrOwner(... */\n      swap3\n      swap2\n      pop\n      pop\n      jump\t// out\n        /* \"contracts/Crypto.sol\":5473:5847  function _transfer(address from, address to, uint256 tokenId) private {... */\n    tag_112:\n        /* \"contracts/Crypto.sol\":5578:5582  from */\n      dup3\n        /* \"contracts/Crypto.sol\":5558:5582  ownerOf(tokenId) == from */\n      0xffffffffffffffffffffffffffffffffffffffff\n      and\n        /* \"contracts/Crypto.sol\":5558:5574  ownerOf(tokenId) */\n      tag_159\n        /* \"contracts/Crypto.sol\":5566:5573  tokenId */\n      dup3\n        /* \"contracts/Crypto.sol\":5558:5565  ownerOf */\n      tag_54\n        /* \"contracts/Crypto.sol\":5558:5574  ownerOf(tokenId) */\n      jump\t// in\n    tag_159:\n        /* \"contracts/Crypto.sol\":5558:5582  ownerOf(tokenId) == from */\n      0xffffffffffffffffffffffffffffffffffffffff\n      and\n      eq\n        /* \"contracts/Crypto.sol\":5550:5613  require(ownerOf(tokenId) == from, \"address does not own token\") */\n      tag_160\n      jumpi\n      mload(0x40)\n      0x08c379a000000000000000000000000000000000000000000000000000000000\n      dup2\n      mstore\n      0x04\n      add\n      tag_161\n      swap1\n      tag_162\n      jump\t// in\n    tag_161:\n      mload(0x40)\n      dup1\n      swap2\n      sub\n      swap1\n      revert\n    tag_160:\n        /* \"contracts/Crypto.sol\":5642:5643  0 */\n      0x00\n        /* \"contracts/Crypto.sol\":5628:5644  to != address(0) */\n      0xffffffffffffffffffffffffffffffffffffffff\n      and\n        /* \"contracts/Crypto.sol\":5628:5630  to */\n      dup3\n        /* \"contracts/Crypto.sol\":5628:5644  to != address(0) */\n      0xffffffffffffffffffffffffffffffffffffffff\n      and\n      eq\n      iszero\n        /* \"contracts/Crypto.sol\":5620:5686  require(to != address(0), \"tried to transfer to the zero address\") */\n      tag_163\n      jumpi\n      mload(0x40)\n      0x08c379a000000000000000000000000000000000000000000000000000000000\n      dup2\n      mstore\n      0x04\n      add\n      tag_164\n      swap1\n      tag_165\n      jump\t// in\n    tag_164:\n      mload(0x40)\n      dup1\n      swap2\n      sub\n      swap1\n      revert\n    tag_163:\n        /* \"contracts/Crypto.sol\":5693:5722  _approve(address(0), tokenId) */\n      tag_166\n        /* \"contracts/Crypto.sol\":5710:5711  0 */\n      0x00\n        /* \"contracts/Crypto.sol\":5714:5721  tokenId */\n      dup3\n        /* \"contracts/Crypto.sol\":5693:5701  _approve */\n      tag_103\n        /* \"contracts/Crypto.sol\":5693:5722  _approve(address(0), tokenId) */\n      jump\t// in\n    tag_166:\n        /* \"contracts/Crypto.sol\":5748:5749  1 */\n      0x01\n        /* \"contracts/Crypto.sol\":5729:5738  _balances */\n      0x02\n        /* \"contracts/Crypto.sol\":5729:5744  _balances[from] */\n      0x00\n        /* \"contracts/Crypto.sol\":5739:5743  from */\n      dup6\n        /* \"contracts/Crypto.sol\":5729:5744  _balances[from] */\n      0xffffffffffffffffffffffffffffffffffffffff\n      and\n      0xffffffffffffffffffffffffffffffffffffffff\n      and\n      dup2\n      mstore\n      0x20\n      add\n      swap1\n      dup2\n      mstore\n      0x20\n      add\n      0x00\n      keccak256\n      0x00\n        /* \"contracts/Crypto.sol\":5729:5749  _balances[from] -= 1 */\n      dup3\n      dup3\n      sload\n      tag_167\n      swap2\n      swap1\n      tag_168\n      jump\t// in\n    tag_167:\n      swap3\n      pop\n      pop\n      dup2\n      swap1\n      sstore\n      pop\n        /* \"contracts/Crypto.sol\":5773:5774  1 */\n      0x01\n        /* \"contracts/Crypto.sol\":5756:5765  _balances */\n      0x02\n        /* \"contracts/Crypto.sol\":5756:5769  _balances[to] */\n      0x00\n        /* \"contracts/Crypto.sol\":5766:5768  to */\n      dup5\n        /* \"contracts/Crypto.sol\":5756:5769  _balances[to] */\n      0xffffffffffffffffffffffffffffffffffffffff\n      and\n      0xffffffffffffffffffffffffffffffffffffffff\n      and\n      dup2\n      mstore\n      0x20\n      add\n      swap1\n      dup2\n      mstore\n      0x20\n      add\n      0x00\n      keccak256\n      0x00\n        /* \"contracts/Crypto.sol\":5756:5774  _balances[to] += 1 */\n      dup3\n      dup3\n      sload\n      tag_169\n      swap2\n      swap1\n      tag_170\n      jump\t// in\n    tag_169:\n      swap3\n      pop\n      pop\n      dup2\n      swap1\n      sstore\n      pop\n        /* \"contracts/Crypto.sol\":5800:5802  to */\n      dup2\n        /* \"contracts/Crypto.sol\":5781:5788  _owners */\n      0x04\n        /* \"contracts/Crypto.sol\":5781:5797  _owners[tokenId] */\n      0x00\n        /* \"contracts/Crypto.sol\":5789:5796  tokenId */\n      dup4\n        /* \"contracts/Crypto.sol\":5781:5797  _owners[tokenId] */\n      dup2\n      mstore\n      0x20\n      add\n      swap1\n      dup2\n      mstore\n      0x20\n      add\n      0x00\n      keccak256\n      0x00\n        /* \"contracts/Crypto.sol\":5781:5802  _owners[tokenId] = to */\n      0x0100\n      exp\n      dup2\n      sload\n      dup2\n      0xffffffffffffffffffffffffffffffffffffffff\n      mul\n      not\n      and\n      swap1\n      dup4\n      0xffffffffffffffffffffffffffffffffffffffff\n      and\n      mul\n      or\n      swap1\n      sstore\n      pop\n        /* \"contracts/Crypto.sol\":5833:5840  tokenId */\n      dup1\n        /* \"contracts/Crypto.sol\":5829:5831  to */\n      dup3\n        /* \"contracts/Crypto.sol\":5814:5841  Transfer(from, to, tokenId) */\n      0xffffffffffffffffffffffffffffffffffffffff\n      and\n        /* \"contracts/Crypto.sol\":5823:5827  from */\n      dup5\n        /* \"contracts/Crypto.sol\":5814:5841  Transfer(from, to, tokenId) */\n      0xffffffffffffffffffffffffffffffffffffffff\n      and\n      0xddf252ad1be2c89b69c2b068fc378daa952ba7f163c4a11628f55a4df523b3ef\n      mload(0x40)\n      mload(0x40)\n      dup1\n      swap2\n      sub\n      swap1\n      log4\n        /* \"contracts/Crypto.sol\":5473:5847  function _transfer(address from, address to, uint256 tokenId) private {... */\n      pop\n      pop\n      pop\n      jump\t// out\n        /* \"contracts/Crypto.sol\":4532:4740  function _safeMint(address to, uint256 tokenId) private {... */\n    tag_129:\n        /* \"contracts/Crypto.sol\":4595:4613  _mint(to, tokenId) */\n      tag_172\n        /* \"contracts/Crypto.sol\":4601:4603  to */\n      dup3\n        /* \"contracts/Crypto.sol\":4605:4612  tokenId */\n      dup3\n        /* \"contracts/Crypto.sol\":4595:4600  _mint */\n      tag_173\n        /* \"contracts/Crypto.sol\":4595:4613  _mint(to, tokenId) */\n      jump\t// in\n    tag_172:\n        /* \"contracts/Crypto.sol\":4636:4685  _checkOnZcopReceived(address(0), to, tokenId, \"\") */\n      tag_174\n        /* \"contracts/Crypto.sol\":4665:4666  0 */\n      0x00\n        /* \"contracts/Crypto.sol\":4669:4671  to */\n      dup4\n        /* \"contracts/Crypto.sol\":4673:4680  tokenId */\n      dup4\n        /* \"contracts/Crypto.sol\":4636:4685  _checkOnZcopReceived(address(0), to, tokenId, \"\") */\n      mload(0x40)\n      dup1\n      0x20\n      add\n      0x40\n      mstore\n      dup1\n      0x00\n      dup2\n      mstore\n      pop\n        /* \"contracts/Crypto.sol\":4636:4656  _checkOnZcopReceived */\n      tag_175\n        /* \"contracts/Crypto.sol\":4636:4685  _checkOnZcopReceived(address(0), to, tokenId, \"\") */\n      jump\t// in\n    tag_174:\n        /* \"contracts/Crypto.sol\":4620:4734  require(... */\n      tag_176\n      jumpi\n      mload(0x40)\n      0x08c379a000000000000000000000000000000000000000000000000000000000\n      dup2\n      mstore\n      0x04\n      add\n      tag_177\n      swap1\n      tag_178\n      jump\t// in\n    tag_177:\n      mload(0x40)\n      dup1\n      swap2\n      sub\n      swap1\n      revert\n    tag_176:\n        /* \"contracts/Crypto.sol\":4532:4740  function _safeMint(address to, uint256 tokenId) private {... */\n      pop\n      pop\n      jump\t// out\n        /* \"contracts/Crypto.sol\":4926:5203  function _safeTransfer(... */\n    tag_140:\n        /* \"contracts/Crypto.sol\":5046:5074  _transfer(from, to, tokenId) */\n      tag_180\n        /* \"contracts/Crypto.sol\":5056:5060  from */\n      dup5\n        /* \"contracts/Crypto.sol\":5062:5064  to */\n      dup5\n        /* \"contracts/Crypto.sol\":5066:5073  tokenId */\n      dup5\n        /* \"contracts/Crypto.sol\":5046:5055  _transfer */\n      tag_112\n        /* \"contracts/Crypto.sol\":5046:5074  _transfer(from, to, tokenId) */\n      jump\t// in\n    tag_180:\n        /* \"contracts/Crypto.sol\":5097:5142  _checkOnZcopReceived(from, to, tokenId, data) */\n      tag_181\n        /* \"contracts/Crypto.sol\":5118:5122  from */\n      dup5\n        /* \"contracts/Crypto.sol\":5124:5126  to */\n      dup5\n        /* \"contracts/Crypto.sol\":5128:5135  tokenId */\n      dup5\n        /* \"contracts/Crypto.sol\":5137:5141  data */\n      dup5\n        /* \"contracts/Crypto.sol\":5097:5117  _checkOnZcopReceived */\n      tag_175\n        /* \"contracts/Crypto.sol\":5097:5142  _checkOnZcopReceived(from, to, tokenId, data) */\n      jump\t// in\n    tag_181:\n        /* \"contracts/Crypto.sol\":5081:5197  require(... */\n      tag_182\n      jumpi\n      mload(0x40)\n      0x08c379a000000000000000000000000000000000000000000000000000000000\n      dup2\n      mstore\n      0x04\n      add\n      tag_183\n      swap1\n      tag_184\n      jump\t// in\n    tag_183:\n      mload(0x40)\n      dup1\n      swap2\n      sub\n      swap1\n      revert\n    tag_182:\n        /* \"contracts/Crypto.sol\":4926:5203  function _safeTransfer(... */\n      pop\n      pop\n      pop\n      pop\n      jump\t// out\n        /* \"contracts/Crypto.sol\":4111:4483  function _mint(address to, uint256 tokenId) private {... */\n    tag_173:\n        /* \"contracts/Crypto.sol\":584:585  1 */\n      0x01\n        /* \"contracts/Crypto.sol\":4178:4185  _minted */\n      dup1\n      sload\n        /* \"contracts/Crypto.sol\":4178:4193  _minted <= _cap */\n      gt\n      iszero\n        /* \"contracts/Crypto.sol\":4170:4229  require(_minted <= _cap, \"maximum amount of tokens minted\") */\n      tag_186\n      jumpi\n      mload(0x40)\n      0x08c379a000000000000000000000000000000000000000000000000000000000\n      dup2\n      mstore\n      0x04\n      add\n      tag_187\n      swap1\n      tag_188\n      jump\t// in\n    tag_187:\n      mload(0x40)\n      dup1\n      swap2\n      sub\n      swap1\n      revert\n    tag_186:\n        /* \"contracts/Crypto.sol\":4258:4259  0 */\n      0x00\n        /* \"contracts/Crypto.sol\":4244:4260  to != address(0) */\n      0xffffffffffffffffffffffffffffffffffffffff\n      and\n        /* \"contracts/Crypto.sol\":4244:4246  to */\n      dup3\n        /* \"contracts/Crypto.sol\":4244:4260  to != address(0) */\n      0xffffffffffffffffffffffffffffffffffffffff\n      and\n      eq\n      iszero\n        /* \"contracts/Crypto.sol\":4236:4298  require(to != address(0), \"tried to mint to the zero address\") */\n      tag_189\n      jumpi\n      mload(0x40)\n      0x08c379a000000000000000000000000000000000000000000000000000000000\n      dup2\n      mstore\n      0x04\n      add\n      tag_190\n      swap1\n      tag_191\n      jump\t// in\n    tag_190:\n      mload(0x40)\n      dup1\n      swap2\n      sub\n      swap1\n      revert\n    tag_189:\n        /* \"contracts/Crypto.sol\":4314:4335  _tokenExists(tokenId) */\n      tag_192\n        /* \"contracts/Crypto.sol\":4327:4334  tokenId */\n      dup2\n        /* \"contracts/Crypto.sol\":4314:4326  _tokenExists */\n      tag_88\n        /* \"contracts/Crypto.sol\":4314:4335  _tokenExists(tokenId) */\n      jump\t// in\n    tag_192:\n        /* \"contracts/Crypto.sol\":4313:4335  !_tokenExists(tokenId) */\n      iszero\n        /* \"contracts/Crypto.sol\":4305:4360  require(!_tokenExists(tokenId), \"token already exists\") */\n      tag_193\n      jumpi\n      mload(0x40)\n      0x08c379a000000000000000000000000000000000000000000000000000000000\n      dup2\n      mstore\n      0x04\n      add\n      tag_194\n      swap1\n      tag_195\n      jump\t// in\n    tag_194:\n      mload(0x40)\n      dup1\n      swap2\n      sub\n      swap1\n      revert\n    tag_193:\n        /* \"contracts/Crypto.sol\":4384:4385  1 */\n      0x01\n        /* \"contracts/Crypto.sol\":4367:4376  _balances */\n      0x02\n        /* \"contracts/Crypto.sol\":4367:4380  _balances[to] */\n      0x00\n        /* \"contracts/Crypto.sol\":4377:4379  to */\n      dup5\n        /* \"contracts/Crypto.sol\":4367:4380  _balances[to] */\n      0xffffffffffffffffffffffffffffffffffffffff\n      and\n      0xffffffffffffffffffffffffffffffffffffffff\n      and\n      dup2\n      mstore\n      0x20\n      add\n      swap1\n      dup2\n      mstore\n      0x20\n      add\n      0x00\n      keccak256\n      0x00\n        /* \"contracts/Crypto.sol\":4367:4385  _balances[to] += 1 */\n      dup3\n      dup3\n      sload\n      tag_196\n      swap2\n      swap1\n      tag_170\n      jump\t// in\n    tag_196:\n      swap3\n      pop\n      pop\n      dup2\n      swap1\n      sstore\n      pop\n        /* \"contracts/Crypto.sol\":4411:4413  to */\n      dup2\n        /* \"contracts/Crypto.sol\":4392:4399  _owners */\n      0x04\n        /* \"contracts/Crypto.sol\":4392:4408  _owners[tokenId] */\n      0x00\n        /* \"contracts/Crypto.sol\":4400:4407  tokenId */\n      dup4\n        /* \"contracts/Crypto.sol\":4392:4408  _owners[tokenId] */\n      dup2\n      mstore\n      0x20\n      add\n      swap1\n      dup2\n      mstore\n      0x20\n      add\n      0x00\n      keccak256\n      0x00\n        /* \"contracts/Crypto.sol\":4392:4413  _owners[tokenId] = to */\n      0x0100\n      exp\n      dup2\n      sload\n      dup2\n      0xffffffffffffffffffffffffffffffffffffffff\n      mul\n      not\n      and\n      swap1\n      dup4\n      0xffffffffffffffffffffffffffffffffffffffff\n      and\n      mul\n      or\n      swap1\n      sstore\n      pop\n        /* \"contracts/Crypto.sol\":4431:4432  1 */\n      0x01\n        /* \"contracts/Crypto.sol\":4420:4427  _minted */\n      dup1\n      0x00\n        /* \"contracts/Crypto.sol\":4420:4432  _minted += 1 */\n      dup3\n      dup3\n      sload\n      tag_197\n      swap2\n      swap1\n      tag_170\n      jump\t// in\n    tag_197:\n      swap3\n      pop\n      pop\n      dup2\n      swap1\n      sstore\n      pop\n        /* \"contracts/Crypto.sol\":4469:4476  tokenId */\n      dup1\n        /* \"contracts/Crypto.sol\":4465:4467  to */\n      dup3\n        /* \"contracts/Crypto.sol\":4444:4477  Transfer(address(0), to, tokenId) */\n      0xffffffffffffffffffffffffffffffffffffffff\n      and\n        /* \"contracts/Crypto.sol\":4461:4462  0 */\n      0x00\n        /* \"contracts/Crypto.sol\":4444:4477  Transfer(address(0), to, tokenId) */\n      0xffffffffffffffffffffffffffffffffffffffff\n      and\n      0xddf252ad1be2c89b69c2b068fc378daa952ba7f163c4a11628f55a4df523b3ef\n      mload(0x40)\n      mload(0x40)\n      dup1\n      swap2\n      sub\n      swap1\n      log4\n        /* \"contracts/Crypto.sol\":4111:4483  function _mint(address to, uint256 tokenId) private {... */\n      pop\n      pop\n      jump\t// out\n        /* \"contracts/Crypto.sol\":2604:3262  function _checkOnZcopReceived(... */\n    tag_175:\n        /* \"contracts/Crypto.sol\":2729:2733  bool */\n      0x00\n        /* \"contracts/Crypto.sol\":2750:2765  _isContract(to) */\n      tag_199\n        /* \"contracts/Crypto.sol\":2762:2764  to */\n      dup5\n        /* \"contracts/Crypto.sol\":2750:2761  _isContract */\n      tag_200\n        /* \"contracts/Crypto.sol\":2750:2765  _isContract(to) */\n      jump\t// in\n    tag_199:\n        /* \"contracts/Crypto.sol\":2746:3257  if (_isContract(to)) {... */\n      iszero\n      tag_201\n      jumpi\n        /* \"contracts/Crypto.sol\":2798:2800  to */\n      dup4\n        /* \"contracts/Crypto.sol\":2780:2816  ZcopTokenReceiver(to).onZcopReceived */\n      0xffffffffffffffffffffffffffffffffffffffff\n      and\n      0xc5115af5\n        /* \"contracts/Crypto.sol\":2827:2837  msg.sender */\n      caller\n        /* \"contracts/Crypto.sol\":2839:2843  from */\n      dup8\n        /* \"contracts/Crypto.sol\":2845:2852  tokenId */\n      dup7\n        /* \"contracts/Crypto.sol\":2854:2858  data */\n      dup7\n        /* \"contracts/Crypto.sol\":2780:2867  ZcopTokenReceiver(to).onZcopReceived(... */\n      mload(0x40)\n      dup6\n      0xffffffff\n      and\n      0xe0\n      shl\n      dup2\n      mstore\n      0x04\n      add\n      tag_202\n      swap5\n      swap4\n      swap3\n      swap2\n      swap1\n      tag_203\n      jump\t// in\n    tag_202:\n      0x20\n      mload(0x40)\n      dup1\n      dup4\n      sub\n      dup2\n      0x00\n      dup8\n      gas\n      call\n      swap3\n      pop\n      pop\n      pop\n      dup1\n      iszero\n      tag_204\n      jumpi\n      pop\n      mload(0x40)\n      returndatasize\n      not(0x1f)\n      0x1f\n      dup3\n      add\n      and\n      dup3\n      add\n      dup1\n      0x40\n      mstore\n      pop\n      dup2\n      add\n      swap1\n      tag_205\n      swap2\n      swap1\n      tag_206\n      jump\t// in\n    tag_205:\n      0x01\n    tag_204:\n        /* \"contracts/Crypto.sol\":2776:3216  try ZcopTokenReceiver(to).onZcopReceived(... */\n      tag_207\n      jumpi\n      returndatasize\n      dup1\n      0x00\n      dup2\n      eq\n      tag_212\n      jumpi\n      mload(0x40)\n      swap2\n      pop\n      and(add(returndatasize, 0x3f), not(0x1f))\n      dup3\n      add\n      0x40\n      mstore\n      returndatasize\n      dup3\n      mstore\n      returndatasize\n      0x00\n      0x20\n      dup5\n      add\n      returndatacopy\n      jump(tag_211)\n    tag_212:\n      0x60\n      swap2\n      pop\n    tag_211:\n      pop\n        /* \"contracts/Crypto.sol\":3050:3051  0 */\n      0x00\n        /* \"contracts/Crypto.sol\":3033:3039  reason */\n      dup2\n        /* \"contracts/Crypto.sol\":3033:3046  reason.length */\n      mload\n        /* \"contracts/Crypto.sol\":3033:3051  reason.length == 0 */\n      eq\n        /* \"contracts/Crypto.sol\":3029:3207  if (reason.length == 0) {... */\n      iszero\n      tag_213\n      jumpi\n        /* \"contracts/Crypto.sol\":3066:3114  revert(\"client does not implement ZcopReceiver\") */\n      mload(0x40)\n      0x08c379a000000000000000000000000000000000000000000000000000000000\n      dup2\n      mstore\n      0x04\n      add\n      tag_214\n      swap1\n      tag_215\n      jump\t// in\n    tag_214:\n      mload(0x40)\n      dup1\n      swap2\n      sub\n      swap1\n      revert\n        /* \"contracts/Crypto.sol\":3029:3207  if (reason.length == 0) {... */\n    tag_213:\n        /* \"contracts/Crypto.sol\":3186:3192  reason */\n      dup1\n        /* \"contracts/Crypto.sol\":3180:3193  mload(reason) */\n      mload\n        /* \"contracts/Crypto.sol\":3171:3177  reason */\n      dup2\n        /* \"contracts/Crypto.sol\":3167:3169  32 */\n      0x20\n        /* \"contracts/Crypto.sol\":3163:3178  add(32, reason) */\n      add\n        /* \"contracts/Crypto.sol\":3156:3194  revert(add(32, reason), mload(reason)) */\n      revert\n        /* \"contracts/Crypto.sol\":2776:3216  try ZcopTokenReceiver(to).onZcopReceived(... */\n    tag_207:\n        /* \"contracts/Crypto.sol\":2938:2979  ZcopTokenReceiver.onZcopReceived.selector */\n      shl(0xe0, 0xc5115af5)\n        /* \"contracts/Crypto.sol\":2928:2979  retval == ZcopTokenReceiver.onZcopReceived.selector */\n      not(0xffffffffffffffffffffffffffffffffffffffffffffffffffffffff)\n      and\n        /* \"contracts/Crypto.sol\":2928:2934  retval */\n      dup2\n        /* \"contracts/Crypto.sol\":2928:2979  retval == ZcopTokenReceiver.onZcopReceived.selector */\n      not(0xffffffffffffffffffffffffffffffffffffffffffffffffffffffff)\n      and\n      eq\n        /* \"contracts/Crypto.sol\":2921:2979  return retval == ZcopTokenReceiver.onZcopReceived.selector */\n      swap2\n      pop\n      pop\n      jump(tag_198)\n        /* \"contracts/Crypto.sol\":2746:3257  if (_isContract(to)) {... */\n    tag_201:\n        /* \"contracts/Crypto.sol\":3245:3249  true */\n      0x01\n        /* \"contracts/Crypto.sol\":3238:3249  return true */\n      swap1\n      pop\n        /* \"contracts/Crypto.sol\":2604:3262  function _checkOnZcopReceived(... */\n    tag_198:\n      swap5\n      swap4\n      pop\n      pop\n      pop\n      pop\n      jump\t// out\n        /* \"contracts/Crypto.sol\":3745:4082  function _isContract(address account) private view returns (bool) {... */\n    tag_200:\n        /* \"contracts/Crypto.sol\":3805:3809  bool */\n      0x00\n        /* \"contracts/Crypto.sol\":3995:4007  uint256 size */\n      dup1\n        /* \"contracts/Crypto.sol\":4045:4052  account */\n      dup3\n        /* \"contracts/Crypto.sol\":4033:4053  extcodesize(account) */\n      extcodesize\n        /* \"contracts/Crypto.sol\":4025:4053  size := extcodesize(account) */\n      swap1\n      pop\n        /* \"contracts/Crypto.sol\":4075:4076  0 */\n      0x00\n        /* \"contracts/Crypto.sol\":4068:4072  size */\n      dup2\n        /* \"contracts/Crypto.sol\":4068:4076  size > 0 */\n      gt\n        /* \"contracts/Crypto.sol\":4061:4076  return size > 0 */\n      swap2\n      pop\n      pop\n        /* \"contracts/Crypto.sol\":3745:4082  function _isContract(address account) private view returns (bool) {... */\n      swap2\n      swap1\n      pop\n      jump\t// out\n        /* \"#utility.yul\":7:82   */\n    tag_220:\n        /* \"#utility.yul\":40:46   */\n      0x00\n        /* \"#utility.yul\":73:75   */\n      0x40\n        /* \"#utility.yul\":67:76   */\n      mload\n        /* \"#utility.yul\":57:76   */\n      swap1\n      pop\n        /* \"#utility.yul\":7:82   */\n      swap1\n      jump\t// out\n        /* \"#utility.yul\":88:205   */\n    tag_221:\n        /* \"#utility.yul\":197:198   */\n      0x00\n        /* \"#utility.yul\":194:195   */\n      dup1\n        /* \"#utility.yul\":187:199   */\n      revert\n        /* \"#utility.yul\":211:328   */\n    tag_222:\n        /* \"#utility.yul\":320:321   */\n      0x00\n        /* \"#utility.yul\":317:318   */\n      dup1\n        /* \"#utility.yul\":310:322   */\n      revert\n        /* \"#utility.yul\":334:483   */\n    tag_223:\n        /* \"#utility.yul\":370:377   */\n      0x00\n        /* \"#utility.yul\":410:476   */\n      0xffffffff00000000000000000000000000000000000000000000000000000000\n        /* \"#utility.yul\":403:408   */\n      dup3\n        /* \"#utility.yul\":399:477   */\n      and\n        /* \"#utility.yul\":388:477   */\n      swap1\n      pop\n        /* \"#utility.yul\":334:483   */\n      swap2\n      swap1\n      pop\n      jump\t// out\n        /* \"#utility.yul\":489:609   */\n    tag_224:\n        /* \"#utility.yul\":561:584   */\n      tag_294\n        /* \"#utility.yul\":578:583   */\n      dup2\n        /* \"#utility.yul\":561:584   */\n      tag_223\n      jump\t// in\n    tag_294:\n        /* \"#utility.yul\":554:559   */\n      dup2\n        /* \"#utility.yul\":551:585   */\n      eq\n        /* \"#utility.yul\":541:603   */\n      tag_295\n      jumpi\n        /* \"#utility.yul\":599:600   */\n      0x00\n        /* \"#utility.yul\":596:597   */\n      dup1\n        /* \"#utility.yul\":589:601   */\n      revert\n        /* \"#utility.yul\":541:603   */\n    tag_295:\n        /* \"#utility.yul\":489:609   */\n      pop\n      jump\t// out\n        /* \"#utility.yul\":615:752   */\n    tag_225:\n        /* \"#utility.yul\":660:665   */\n      0x00\n        /* \"#utility.yul\":698:704   */\n      dup2\n        /* \"#utility.yul\":685:705   */\n      calldataload\n        /* \"#utility.yul\":676:705   */\n      swap1\n      pop\n        /* \"#utility.yul\":714:746   */\n      tag_297\n        /* \"#utility.yul\":740:745   */\n      dup2\n        /* \"#utility.yul\":714:746   */\n      tag_224\n      jump\t// in\n    tag_297:\n        /* \"#utility.yul\":615:752   */\n      swap3\n      swap2\n      pop\n      pop\n      jump\t// out\n        /* \"#utility.yul\":758:1085   */\n    tag_23:\n        /* \"#utility.yul\":816:822   */\n      0x00\n        /* \"#utility.yul\":865:867   */\n      0x20\n        /* \"#utility.yul\":853:862   */\n      dup3\n        /* \"#utility.yul\":844:851   */\n      dup5\n        /* \"#utility.yul\":840:863   */\n      sub\n        /* \"#utility.yul\":836:868   */\n      slt\n        /* \"#utility.yul\":833:952   */\n      iszero\n      tag_299\n      jumpi\n        /* \"#utility.yul\":871:950   */\n      tag_300\n      tag_221\n      jump\t// in\n    tag_300:\n        /* \"#utility.yul\":833:952   */\n    tag_299:\n        /* \"#utility.yul\":991:992   */\n      0x00\n        /* \"#utility.yul\":1016:1068   */\n      tag_301\n        /* \"#utility.yul\":1060:1067   */\n      dup5\n        /* \"#utility.yul\":1051:1057   */\n      dup3\n        /* \"#utility.yul\":1040:1049   */\n      dup6\n        /* \"#utility.yul\":1036:1058   */\n      add\n        /* \"#utility.yul\":1016:1068   */\n      tag_225\n      jump\t// in\n    tag_301:\n        /* \"#utility.yul\":1006:1068   */\n      swap2\n      pop\n        /* \"#utility.yul\":962:1078   */\n      pop\n        /* \"#utility.yul\":758:1085   */\n      swap3\n      swap2\n      pop\n      pop\n      jump\t// out\n        /* \"#utility.yul\":1091:1181   */\n    tag_226:\n        /* \"#utility.yul\":1125:1132   */\n      0x00\n        /* \"#utility.yul\":1168:1173   */\n      dup2\n        /* \"#utility.yul\":1161:1174   */\n      iszero\n        /* \"#utility.yul\":1154:1175   */\n      iszero\n        /* \"#utility.yul\":1143:1175   */\n      swap1\n      pop\n        /* \"#utility.yul\":1091:1181   */\n      swap2\n      swap1\n      pop\n      jump\t// out\n        /* \"#utility.yul\":1187:1296   */\n    tag_227:\n        /* \"#utility.yul\":1268:1289   */\n      tag_304\n        /* \"#utility.yul\":1283:1288   */\n      dup2\n        /* \"#utility.yul\":1268:1289   */\n      tag_226\n      jump\t// in\n    tag_304:\n        /* \"#utility.yul\":1263:1266   */\n      dup3\n        /* \"#utility.yul\":1256:1290   */\n      mstore\n        /* \"#utility.yul\":1187:1296   */\n      pop\n      pop\n      jump\t// out\n        /* \"#utility.yul\":1302:1512   */\n    tag_26:\n        /* \"#utility.yul\":1389:1393   */\n      0x00\n        /* \"#utility.yul\":1427:1429   */\n      0x20\n        /* \"#utility.yul\":1416:1425   */\n      dup3\n        /* \"#utility.yul\":1412:1430   */\n      add\n        /* \"#utility.yul\":1404:1430   */\n      swap1\n      pop\n        /* \"#utility.yul\":1440:1505   */\n      tag_306\n        /* \"#utility.yul\":1502:1503   */\n      0x00\n        /* \"#utility.yul\":1491:1500   */\n      dup4\n        /* \"#utility.yul\":1487:1504   */\n      add\n        /* \"#utility.yul\":1478:1484   */\n      dup5\n        /* \"#utility.yul\":1440:1505   */\n      tag_227\n      jump\t// in\n    tag_306:\n        /* \"#utility.yul\":1302:1512   */\n      swap3\n      swap2\n      pop\n      pop\n      jump\t// out\n        /* \"#utility.yul\":1518:1617   */\n    tag_228:\n        /* \"#utility.yul\":1570:1576   */\n      0x00\n        /* \"#utility.yul\":1604:1609   */\n      dup2\n        /* \"#utility.yul\":1598:1610   */\n      mload\n        /* \"#utility.yul\":1588:1610   */\n      swap1\n      pop\n        /* \"#utility.yul\":1518:1617   */\n      swap2\n      swap1\n      pop\n      jump\t// out\n        /* \"#utility.yul\":1623:1792   */\n    tag_229:\n        /* \"#utility.yul\":1707:1718   */\n      0x00\n        /* \"#utility.yul\":1741:1747   */\n      dup3\n        /* \"#utility.yul\":1736:1739   */\n      dup3\n        /* \"#utility.yul\":1729:1748   */\n      mstore\n        /* \"#utility.yul\":1781:1785   */\n      0x20\n        /* \"#utility.yul\":1776:1779   */\n      dup3\n        /* \"#utility.yul\":1772:1786   */\n      add\n        /* \"#utility.yul\":1757:1786   */\n      swap1\n      pop\n        /* \"#utility.yul\":1623:1792   */\n      swap3\n      swap2\n      pop\n      pop\n      jump\t// out\n        /* \"#utility.yul\":1798:2105   */\n    tag_230:\n        /* \"#utility.yul\":1866:1867   */\n      0x00\n        /* \"#utility.yul\":1876:1989   */\n    tag_310:\n        /* \"#utility.yul\":1890:1896   */\n      dup4\n        /* \"#utility.yul\":1887:1888   */\n      dup2\n        /* \"#utility.yul\":1884:1897   */\n      lt\n        /* \"#utility.yul\":1876:1989   */\n      iszero\n      tag_312\n      jumpi\n        /* \"#utility.yul\":1975:1976   */\n      dup1\n        /* \"#utility.yul\":1970:1973   */\n      dup3\n        /* \"#utility.yul\":1966:1977   */\n      add\n        /* \"#utility.yul\":1960:1978   */\n      mload\n        /* \"#utility.yul\":1956:1957   */\n      dup2\n        /* \"#utility.yul\":1951:1954   */\n      dup5\n        /* \"#utility.yul\":1947:1958   */\n      add\n        /* \"#utility.yul\":1940:1979   */\n      mstore\n        /* \"#utility.yul\":1912:1914   */\n      0x20\n        /* \"#utility.yul\":1909:1910   */\n      dup2\n        /* \"#utility.yul\":1905:1915   */\n      add\n        /* \"#utility.yul\":1900:1915   */\n      swap1\n      pop\n        /* \"#utility.yul\":1876:1989   */\n      jump(tag_310)\n    tag_312:\n        /* \"#utility.yul\":2007:2013   */\n      dup4\n        /* \"#utility.yul\":2004:2005   */\n      dup2\n        /* \"#utility.yul\":2001:2014   */\n      gt\n        /* \"#utility.yul\":1998:2099   */\n      iszero\n      tag_313\n      jumpi\n        /* \"#utility.yul\":2087:2088   */\n      0x00\n        /* \"#utility.yul\":2078:2084   */\n      dup5\n        /* \"#utility.yul\":2073:2076   */\n      dup5\n        /* \"#utility.yul\":2069:2085   */\n      add\n        /* \"#utility.yul\":2062:2089   */\n      mstore\n        /* \"#utility.yul\":1998:2099   */\n    tag_313:\n        /* \"#utility.yul\":1847:2105   */\n      pop\n        /* \"#utility.yul\":1798:2105   */\n      pop\n      pop\n      pop\n      jump\t// out\n        /* \"#utility.yul\":2111:2213   */\n    tag_231:\n        /* \"#utility.yul\":2152:2158   */\n      0x00\n        /* \"#utility.yul\":2203:2205   */\n      0x1f\n        /* \"#utility.yul\":2199:2206   */\n      not\n        /* \"#utility.yul\":2194:2196   */\n      0x1f\n        /* \"#utility.yul\":2187:2192   */\n      dup4\n        /* \"#utility.yul\":2183:2197   */\n      add\n        /* \"#utility.yul\":2179:2207   */\n      and\n        /* \"#utility.yul\":2169:2207   */\n      swap1\n      pop\n        /* \"#utility.yul\":2111:2213   */\n      swap2\n      swap1\n      pop\n      jump\t// out\n        /* \"#utility.yul\":2219:2583   */\n    tag_232:\n        /* \"#utility.yul\":2307:2310   */\n      0x00\n        /* \"#utility.yul\":2335:2374   */\n      tag_316\n        /* \"#utility.yul\":2368:2373   */\n      dup3\n        /* \"#utility.yul\":2335:2374   */\n      tag_228\n      jump\t// in\n    tag_316:\n        /* \"#utility.yul\":2390:2461   */\n      tag_317\n        /* \"#utility.yul\":2454:2460   */\n      dup2\n        /* \"#utility.yul\":2449:2452   */\n      dup6\n        /* \"#utility.yul\":2390:2461   */\n      tag_229\n      jump\t// in\n    tag_317:\n        /* \"#utility.yul\":2383:2461   */\n      swap4\n      pop\n        /* \"#utility.yul\":2470:2522   */\n      tag_318\n        /* \"#utility.yul\":2515:2521   */\n      dup2\n        /* \"#utility.yul\":2510:2513   */\n      dup6\n        /* \"#utility.yul\":2503:2507   */\n      0x20\n        /* \"#utility.yul\":2496:2501   */\n      dup7\n        /* \"#utility.yul\":2492:2508   */\n      add\n        /* \"#utility.yul\":2470:2522   */\n      tag_230\n      jump\t// in\n    tag_318:\n        /* \"#utility.yul\":2547:2576   */\n      tag_319\n        /* \"#utility.yul\":2569:2575   */\n      dup2\n        /* \"#utility.yul\":2547:2576   */\n      tag_231\n      jump\t// in\n    tag_319:\n        /* \"#utility.yul\":2542:2545   */\n      dup5\n        /* \"#utility.yul\":2538:2577   */\n      add\n        /* \"#utility.yul\":2531:2577   */\n      swap2\n      pop\n        /* \"#utility.yul\":2311:2583   */\n      pop\n        /* \"#utility.yul\":2219:2583   */\n      swap3\n      swap2\n      pop\n      pop\n      jump\t// out\n        /* \"#utility.yul\":2589:2902   */\n    tag_30:\n        /* \"#utility.yul\":2702:2706   */\n      0x00\n        /* \"#utility.yul\":2740:2742   */\n      0x20\n        /* \"#utility.yul\":2729:2738   */\n      dup3\n        /* \"#utility.yul\":2725:2743   */\n      add\n        /* \"#utility.yul\":2717:2743   */\n      swap1\n      pop\n        /* \"#utility.yul\":2789:2798   */\n      dup2\n        /* \"#utility.yul\":2783:2787   */\n      dup2\n        /* \"#utility.yul\":2779:2799   */\n      sub\n        /* \"#utility.yul\":2775:2776   */\n      0x00\n        /* \"#utility.yul\":2764:2773   */\n      dup4\n        /* \"#utility.yul\":2760:2777   */\n      add\n        /* \"#utility.yul\":2753:2800   */\n      mstore\n        /* \"#utility.yul\":2817:2895   */\n      tag_321\n        /* \"#utility.yul\":2890:2894   */\n      dup2\n        /* \"#utility.yul\":2881:2887   */\n      dup5\n        /* \"#utility.yul\":2817:2895   */\n      tag_232\n      jump\t// in\n    tag_321:\n        /* \"#utility.yul\":2809:2895   */\n      swap1\n      pop\n        /* \"#utility.yul\":2589:2902   */\n      swap3\n      swap2\n      pop\n      pop\n      jump\t// out\n        /* \"#utility.yul\":2908:2985   */\n    tag_233:\n        /* \"#utility.yul\":2945:2952   */\n      0x00\n        /* \"#utility.yul\":2974:2979   */\n      dup2\n        /* \"#utility.yul\":2963:2979   */\n      swap1\n      pop\n        /* \"#utility.yul\":2908:2985   */\n      swap2\n      swap1\n      pop\n      jump\t// out\n        /* \"#utility.yul\":2991:3113   */\n    tag_234:\n        /* \"#utility.yul\":3064:3088   */\n      tag_324\n        /* \"#utility.yul\":3082:3087   */\n      dup2\n        /* \"#utility.yul\":3064:3088   */\n      tag_233\n      jump\t// in\n    tag_324:\n        /* \"#utility.yul\":3057:3062   */\n      dup2\n        /* \"#utility.yul\":3054:3089   */\n      eq\n        /* \"#utility.yul\":3044:3107   */\n      tag_325\n      jumpi\n        /* \"#utility.yul\":3103:3104   */\n      0x00\n        /* \"#utility.yul\":3100:3101   */\n      dup1\n        /* \"#utility.yul\":3093:3105   */\n      revert\n        /* \"#utility.yul\":3044:3107   */\n    tag_325:\n        /* \"#utility.yul\":2991:3113   */\n      pop\n      jump\t// out\n        /* \"#utility.yul\":3119:3258   */\n    tag_235:\n        /* \"#utility.yul\":3165:3170   */\n      0x00\n        /* \"#utility.yul\":3203:3209   */\n      dup2\n        /* \"#utility.yul\":3190:3210   */\n      calldataload\n        /* \"#utility.yul\":3181:3210   */\n      swap1\n      pop\n        /* \"#utility.yul\":3219:3252   */\n      tag_327\n        /* \"#utility.yul\":3246:3251   */\n      dup2\n        /* \"#utility.yul\":3219:3252   */\n      tag_234\n      jump\t// in\n    tag_327:\n        /* \"#utility.yul\":3119:3258   */\n      swap3\n      swap2\n      pop\n      pop\n      jump\t// out\n        /* \"#utility.yul\":3264:3593   */\n    tag_33:\n        /* \"#utility.yul\":3323:3329   */\n      0x00\n        /* \"#utility.yul\":3372:3374   */\n      0x20\n        /* \"#utility.yul\":3360:3369   */\n      dup3\n        /* \"#utility.yul\":3351:3358   */\n      dup5\n        /* \"#utility.yul\":3347:3370   */\n      sub\n        /* \"#utility.yul\":3343:3375   */\n      slt\n        /* \"#utility.yul\":3340:3459   */\n      iszero\n      tag_329\n      jumpi\n        /* \"#utility.yul\":3378:3457   */\n      tag_330\n      tag_221\n      jump\t// in\n    tag_330:\n        /* \"#utility.yul\":3340:3459   */\n    tag_329:\n        /* \"#utility.yul\":3498:3499   */\n      0x00\n        /* \"#utility.yul\":3523:3576   */\n      tag_331\n        /* \"#utility.yul\":3568:3575   */\n      dup5\n        /* \"#utility.yul\":3559:3565   */\n      dup3\n        /* \"#utility.yul\":3548:3557   */\n      dup6\n        /* \"#utility.yul\":3544:3566   */\n      add\n        /* \"#utility.yul\":3523:3576   */\n      tag_235\n      jump\t// in\n    tag_331:\n        /* \"#utility.yul\":3513:3576   */\n      swap2\n      pop\n        /* \"#utility.yul\":3469:3586   */\n      pop\n        /* \"#utility.yul\":3264:3593   */\n      swap3\n      swap2\n      pop\n      pop\n      jump\t// out\n        /* \"#utility.yul\":3599:3725   */\n    tag_236:\n        /* \"#utility.yul\":3636:3643   */\n      0x00\n        /* \"#utility.yul\":3676:3718   */\n      0xffffffffffffffffffffffffffffffffffffffff\n        /* \"#utility.yul\":3669:3674   */\n      dup3\n        /* \"#utility.yul\":3665:3719   */\n      and\n        /* \"#utility.yul\":3654:3719   */\n      swap1\n      pop\n        /* \"#utility.yul\":3599:3725   */\n      swap2\n      swap1\n      pop\n      jump\t// out\n        /* \"#utility.yul\":3731:3827   */\n    tag_237:\n        /* \"#utility.yul\":3768:3775   */\n      0x00\n        /* \"#utility.yul\":3797:3821   */\n      tag_334\n        /* \"#utility.yul\":3815:3820   */\n      dup3\n        /* \"#utility.yul\":3797:3821   */\n      tag_236\n      jump\t// in\n    tag_334:\n        /* \"#utility.yul\":3786:3821   */\n      swap1\n      pop\n        /* \"#utility.yul\":3731:3827   */\n      swap2\n      swap1\n      pop\n      jump\t// out\n        /* \"#utility.yul\":3833:3951   */\n    tag_238:\n        /* \"#utility.yul\":3920:3944   */\n      tag_336\n        /* \"#utility.yul\":3938:3943   */\n      dup2\n        /* \"#utility.yul\":3920:3944   */\n      tag_237\n      jump\t// in\n    tag_336:\n        /* \"#utility.yul\":3915:3918   */\n      dup3\n        /* \"#utility.yul\":3908:3945   */\n      mstore\n        /* \"#utility.yul\":3833:3951   */\n      pop\n      pop\n      jump\t// out\n        /* \"#utility.yul\":3957:4179   */\n    tag_36:\n        /* \"#utility.yul\":4050:4054   */\n      0x00\n        /* \"#utility.yul\":4088:4090   */\n      0x20\n        /* \"#utility.yul\":4077:4086   */\n      dup3\n        /* \"#utility.yul\":4073:4091   */\n      add\n        /* \"#utility.yul\":4065:4091   */\n      swap1\n      pop\n        /* \"#utility.yul\":4101:4172   */\n      tag_338\n        /* \"#utility.yul\":4169:4170   */\n      0x00\n        /* \"#utility.yul\":4158:4167   */\n      dup4\n        /* \"#utility.yul\":4154:4171   */\n      add\n        /* \"#utility.yul\":4145:4151   */\n      dup5\n        /* \"#utility.yul\":4101:4172   */\n      tag_238\n      jump\t// in\n    tag_338:\n        /* \"#utility.yul\":3957:4179   */\n      swap3\n      swap2\n      pop\n      pop\n      jump\t// out\n        /* \"#utility.yul\":4185:4307   */\n    tag_239:\n        /* \"#utility.yul\":4258:4282   */\n      tag_340\n        /* \"#utility.yul\":4276:4281   */\n      dup2\n        /* \"#utility.yul\":4258:4282   */\n      tag_237\n      jump\t// in\n    tag_340:\n        /* \"#utility.yul\":4251:4256   */\n      dup2\n        /* \"#utility.yul\":4248:4283   */\n      eq\n        /* \"#utility.yul\":4238:4301   */\n      tag_341\n      jumpi\n        /* \"#utility.yul\":4297:4298   */\n      0x00\n        /* \"#utility.yul\":4294:4295   */\n      dup1\n        /* \"#utility.yul\":4287:4299   */\n      revert\n        /* \"#utility.yul\":4238:4301   */\n    tag_341:\n        /* \"#utility.yul\":4185:4307   */\n      pop\n      jump\t// out\n        /* \"#utility.yul\":4313:4452   */\n    tag_240:\n        /* \"#utility.yul\":4359:4364   */\n      0x00\n        /* \"#utility.yul\":4397:4403   */\n      dup2\n        /* \"#utility.yul\":4384:4404   */\n      calldataload\n        /* \"#utility.yul\":4375:4404   */\n      swap1\n      pop\n        /* \"#utility.yul\":4413:4446   */\n      tag_343\n        /* \"#utility.yul\":4440:4445   */\n      dup2\n        /* \"#utility.yul\":4413:4446   */\n      tag_239\n      jump\t// in\n    tag_343:\n        /* \"#utility.yul\":4313:4452   */\n      swap3\n      swap2\n      pop\n      pop\n      jump\t// out\n        /* \"#utility.yul\":4458:4932   */\n    tag_39:\n        /* \"#utility.yul\":4526:4532   */\n      0x00\n        /* \"#utility.yul\":4534:4540   */\n      dup1\n        /* \"#utility.yul\":4583:4585   */\n      0x40\n        /* \"#utility.yul\":4571:4580   */\n      dup4\n        /* \"#utility.yul\":4562:4569   */\n      dup6\n        /* \"#utility.yul\":4558:4581   */\n      sub\n        /* \"#utility.yul\":4554:4586   */\n      slt\n        /* \"#utility.yul\":4551:4670   */\n      iszero\n      tag_345\n      jumpi\n        /* \"#utility.yul\":4589:4668   */\n      tag_346\n      tag_221\n      jump\t// in\n    tag_346:\n        /* \"#utility.yul\":4551:4670   */\n    tag_345:\n        /* \"#utility.yul\":4709:4710   */\n      0x00\n        /* \"#utility.yul\":4734:4787   */\n      tag_347\n        /* \"#utility.yul\":4779:4786   */\n      dup6\n        /* \"#utility.yul\":4770:4776   */\n      dup3\n        /* \"#utility.yul\":4759:4768   */\n      dup7\n        /* \"#utility.yul\":4755:4777   */\n      add\n        /* \"#utility.yul\":4734:4787   */\n      tag_240\n      jump\t// in\n    tag_347:\n        /* \"#utility.yul\":4724:4787   */\n      swap3\n      pop\n        /* \"#utility.yul\":4680:4797   */\n      pop\n        /* \"#utility.yul\":4836:4838   */\n      0x20\n        /* \"#utility.yul\":4862:4915   */\n      tag_348\n        /* \"#utility.yul\":4907:4914   */\n      dup6\n        /* \"#utility.yul\":4898:4904   */\n      dup3\n        /* \"#utility.yul\":4887:4896   */\n      dup7\n        /* \"#utility.yul\":4883:4905   */\n      add\n        /* \"#utility.yul\":4862:4915   */\n      tag_235\n      jump\t// in\n    tag_348:\n        /* \"#utility.yul\":4852:4915   */\n      swap2\n      pop\n        /* \"#utility.yul\":4807:4925   */\n      pop\n        /* \"#utility.yul\":4458:4932   */\n      swap3\n      pop\n      swap3\n      swap1\n      pop\n      jump\t// out\n        /* \"#utility.yul\":4938:5056   */\n    tag_241:\n        /* \"#utility.yul\":5025:5049   */\n      tag_350\n        /* \"#utility.yul\":5043:5048   */\n      dup2\n        /* \"#utility.yul\":5025:5049   */\n      tag_233\n      jump\t// in\n    tag_350:\n        /* \"#utility.yul\":5020:5023   */\n      dup3\n        /* \"#utility.yul\":5013:5050   */\n      mstore\n        /* \"#utility.yul\":4938:5056   */\n      pop\n      pop\n      jump\t// out\n        /* \"#utility.yul\":5062:5284   */\n    tag_44:\n        /* \"#utility.yul\":5155:5159   */\n      0x00\n        /* \"#utility.yul\":5193:5195   */\n      0x20\n        /* \"#utility.yul\":5182:5191   */\n      dup3\n        /* \"#utility.yul\":5178:5196   */\n      add\n        /* \"#utility.yul\":5170:5196   */\n      swap1\n      pop\n        /* \"#utility.yul\":5206:5277   */\n      tag_352\n        /* \"#utility.yul\":5274:5275   */\n      0x00\n        /* \"#utility.yul\":5263:5272   */\n      dup4\n        /* \"#utility.yul\":5259:5276   */\n      add\n        /* \"#utility.yul\":5250:5256   */\n      dup5\n        /* \"#utility.yul\":5206:5277   */\n      tag_241\n      jump\t// in\n    tag_352:\n        /* \"#utility.yul\":5062:5284   */\n      swap3\n      swap2\n      pop\n      pop\n      jump\t// out\n        /* \"#utility.yul\":5290:5909   */\n    tag_47:\n        /* \"#utility.yul\":5367:5373   */\n      0x00\n        /* \"#utility.yul\":5375:5381   */\n      dup1\n        /* \"#utility.yul\":5383:5389   */\n      0x00\n        /* \"#utility.yul\":5432:5434   */\n      0x60\n        /* \"#utility.yul\":5420:5429   */\n      dup5\n        /* \"#utility.yul\":5411:5418   */\n      dup7\n        /* \"#utility.yul\":5407:5430   */\n      sub\n        /* \"#utility.yul\":5403:5435   */\n      slt\n        /* \"#utility.yul\":5400:5519   */\n      iszero\n      tag_354\n      jumpi\n        /* \"#utility.yul\":5438:5517   */\n      tag_355\n      tag_221\n      jump\t// in\n    tag_355:\n        /* \"#utility.yul\":5400:5519   */\n    tag_354:\n        /* \"#utility.yul\":5558:5559   */\n      0x00\n        /* \"#utility.yul\":5583:5636   */\n      tag_356\n        /* \"#utility.yul\":5628:5635   */\n      dup7\n        /* \"#utility.yul\":5619:5625   */\n      dup3\n        /* \"#utility.yul\":5608:5617   */\n      dup8\n        /* \"#utility.yul\":5604:5626   */\n      add\n        /* \"#utility.yul\":5583:5636   */\n      tag_240\n      jump\t// in\n    tag_356:\n        /* \"#utility.yul\":5573:5636   */\n      swap4\n      pop\n        /* \"#utility.yul\":5529:5646   */\n      pop\n        /* \"#utility.yul\":5685:5687   */\n      0x20\n        /* \"#utility.yul\":5711:5764   */\n      tag_357\n        /* \"#utility.yul\":5756:5763   */\n      dup7\n        /* \"#utility.yul\":5747:5753   */\n      dup3\n        /* \"#utility.yul\":5736:5745   */\n      dup8\n        /* \"#utility.yul\":5732:5754   */\n      add\n        /* \"#utility.yul\":5711:5764   */\n      tag_240\n      jump\t// in\n    tag_357:\n        /* \"#utility.yul\":5701:5764   */\n      swap3\n      pop\n        /* \"#utility.yul\":5656:5774   */\n      pop\n        /* \"#utility.yul\":5813:5815   */\n      0x40\n        /* \"#utility.yul\":5839:5892   */\n      tag_358\n        /* \"#utility.yul\":5884:5891   */\n      dup7\n        /* \"#utility.yul\":5875:5881   */\n      dup3\n        /* \"#utility.yul\":5864:5873   */\n      dup8\n        /* \"#utility.yul\":5860:5882   */\n      add\n        /* \"#utility.yul\":5839:5892   */\n      tag_235\n      jump\t// in\n    tag_358:\n        /* \"#utility.yul\":5829:5892   */\n      swap2\n      pop\n        /* \"#utility.yul\":5784:5902   */\n      pop\n        /* \"#utility.yul\":5290:5909   */\n      swap3\n      pop\n      swap3\n      pop\n      swap3\n      jump\t// out\n        /* \"#utility.yul\":5915:6244   */\n    tag_58:\n        /* \"#utility.yul\":5974:5980   */\n      0x00\n        /* \"#utility.yul\":6023:6025   */\n      0x20\n        /* \"#utility.yul\":6011:6020   */\n      dup3\n        /* \"#utility.yul\":6002:6009   */\n      dup5\n        /* \"#utility.yul\":5998:6021   */\n      sub\n        /* \"#utility.yul\":5994:6026   */\n      slt\n        /* \"#utility.yul\":5991:6110   */\n      iszero\n      tag_360\n      jumpi\n        /* \"#utility.yul\":6029:6108   */\n      tag_361\n      tag_221\n      jump\t// in\n    tag_361:\n        /* \"#utility.yul\":5991:6110   */\n    tag_360:\n        /* \"#utility.yul\":6149:6150   */\n      0x00\n        /* \"#utility.yul\":6174:6227   */\n      tag_362\n        /* \"#utility.yul\":6219:6226   */\n      dup5\n        /* \"#utility.yul\":6210:6216   */\n      dup3\n        /* \"#utility.yul\":6199:6208   */\n      dup6\n        /* \"#utility.yul\":6195:6217   */\n      add\n        /* \"#utility.yul\":6174:6227   */\n      tag_240\n      jump\t// in\n    tag_362:\n        /* \"#utility.yul\":6164:6227   */\n      swap2\n      pop\n        /* \"#utility.yul\":6120:6237   */\n      pop\n        /* \"#utility.yul\":5915:6244   */\n      swap3\n      swap2\n      pop\n      pop\n      jump\t// out\n        /* \"#utility.yul\":6250:6366   */\n    tag_242:\n        /* \"#utility.yul\":6320:6341   */\n      tag_364\n        /* \"#utility.yul\":6335:6340   */\n      dup2\n        /* \"#utility.yul\":6320:6341   */\n      tag_226\n      jump\t// in\n    tag_364:\n        /* \"#utility.yul\":6313:6318   */\n      dup2\n        /* \"#utility.yul\":6310:6342   */\n      eq\n        /* \"#utility.yul\":6300:6360   */\n      tag_365\n      jumpi\n        /* \"#utility.yul\":6356:6357   */\n      0x00\n        /* \"#utility.yul\":6353:6354   */\n      dup1\n        /* \"#utility.yul\":6346:6358   */\n      revert\n        /* \"#utility.yul\":6300:6360   */\n    tag_365:\n        /* \"#utility.yul\":6250:6366   */\n      pop\n      jump\t// out\n        /* \"#utility.yul\":6372:6505   */\n    tag_243:\n        /* \"#utility.yul\":6415:6420   */\n      0x00\n        /* \"#utility.yul\":6453:6459   */\n      dup2\n        /* \"#utility.yul\":6440:6460   */\n      calldataload\n        /* \"#utility.yul\":6431:6460   */\n      swap1\n      pop\n        /* \"#utility.yul\":6469:6499   */\n      tag_367\n        /* \"#utility.yul\":6493:6498   */\n      dup2\n        /* \"#utility.yul\":6469:6499   */\n      tag_242\n      jump\t// in\n    tag_367:\n        /* \"#utility.yul\":6372:6505   */\n      swap3\n      swap2\n      pop\n      pop\n      jump\t// out\n        /* \"#utility.yul\":6511:6979   */\n    tag_69:\n        /* \"#utility.yul\":6576:6582   */\n      0x00\n        /* \"#utility.yul\":6584:6590   */\n      dup1\n        /* \"#utility.yul\":6633:6635   */\n      0x40\n        /* \"#utility.yul\":6621:6630   */\n      dup4\n        /* \"#utility.yul\":6612:6619   */\n      dup6\n        /* \"#utility.yul\":6608:6631   */\n      sub\n        /* \"#utility.yul\":6604:6636   */\n      slt\n        /* \"#utility.yul\":6601:6720   */\n      iszero\n      tag_369\n      jumpi\n        /* \"#utility.yul\":6639:6718   */\n      tag_370\n      tag_221\n      jump\t// in\n    tag_370:\n        /* \"#utility.yul\":6601:6720   */\n    tag_369:\n        /* \"#utility.yul\":6759:6760   */\n      0x00\n        /* \"#utility.yul\":6784:6837   */\n      tag_371\n        /* \"#utility.yul\":6829:6836   */\n      dup6\n        /* \"#utility.yul\":6820:6826   */\n      dup3\n        /* \"#utility.yul\":6809:6818   */\n      dup7\n        /* \"#utility.yul\":6805:6827   */\n      add\n        /* \"#utility.yul\":6784:6837   */\n      tag_240\n      jump\t// in\n    tag_371:\n        /* \"#utility.yul\":6774:6837   */\n      swap3\n      pop\n        /* \"#utility.yul\":6730:6847   */\n      pop\n        /* \"#utility.yul\":6886:6888   */\n      0x20\n        /* \"#utility.yul\":6912:6962   */\n      tag_372\n        /* \"#utility.yul\":6954:6961   */\n      dup6\n        /* \"#utility.yul\":6945:6951   */\n      dup3\n        /* \"#utility.yul\":6934:6943   */\n      dup7\n        /* \"#utility.yul\":6930:6952   */\n      add\n        /* \"#utility.yul\":6912:6962   */\n      tag_243\n      jump\t// in\n    tag_372:\n        /* \"#utility.yul\":6902:6962   */\n      swap2\n      pop\n        /* \"#utility.yul\":6857:6972   */\n      pop\n        /* \"#utility.yul\":6511:6979   */\n      swap3\n      pop\n      swap3\n      swap1\n      pop\n      jump\t// out\n        /* \"#utility.yul\":6985:7102   */\n    tag_244:\n        /* \"#utility.yul\":7094:7095   */\n      0x00\n        /* \"#utility.yul\":7091:7092   */\n      dup1\n        /* \"#utility.yul\":7084:7096   */\n      revert\n        /* \"#utility.yul\":7108:7225   */\n    tag_245:\n        /* \"#utility.yul\":7217:7218   */\n      0x00\n        /* \"#utility.yul\":7214:7215   */\n      dup1\n        /* \"#utility.yul\":7207:7219   */\n      revert\n        /* \"#utility.yul\":7231:7411   */\n    tag_246:\n        /* \"#utility.yul\":7279:7356   */\n      0x4e487b7100000000000000000000000000000000000000000000000000000000\n        /* \"#utility.yul\":7276:7277   */\n      0x00\n        /* \"#utility.yul\":7269:7357   */\n      mstore\n        /* \"#utility.yul\":7376:7380   */\n      0x41\n        /* \"#utility.yul\":7373:7374   */\n      0x04\n        /* \"#utility.yul\":7366:7381   */\n      mstore\n        /* \"#utility.yul\":7400:7404   */\n      0x24\n        /* \"#utility.yul\":7397:7398   */\n      0x00\n        /* \"#utility.yul\":7390:7405   */\n      revert\n        /* \"#utility.yul\":7417:7698   */\n    tag_247:\n        /* \"#utility.yul\":7500:7527   */\n      tag_377\n        /* \"#utility.yul\":7522:7526   */\n      dup3\n        /* \"#utility.yul\":7500:7527   */\n      tag_231\n      jump\t// in\n    tag_377:\n        /* \"#utility.yul\":7492:7498   */\n      dup2\n        /* \"#utility.yul\":7488:7528   */\n      add\n        /* \"#utility.yul\":7630:7636   */\n      dup2\n        /* \"#utility.yul\":7618:7628   */\n      dup2\n        /* \"#utility.yul\":7615:7637   */\n      lt\n        /* \"#utility.yul\":7594:7612   */\n      0xffffffffffffffff\n        /* \"#utility.yul\":7582:7592   */\n      dup3\n        /* \"#utility.yul\":7579:7613   */\n      gt\n        /* \"#utility.yul\":7576:7638   */\n      or\n        /* \"#utility.yul\":7573:7661   */\n      iszero\n      tag_378\n      jumpi\n        /* \"#utility.yul\":7641:7659   */\n      tag_379\n      tag_246\n      jump\t// in\n    tag_379:\n        /* \"#utility.yul\":7573:7661   */\n    tag_378:\n        /* \"#utility.yul\":7681:7691   */\n      dup1\n        /* \"#utility.yul\":7677:7679   */\n      0x40\n        /* \"#utility.yul\":7670:7692   */\n      mstore\n        /* \"#utility.yul\":7460:7698   */\n      pop\n        /* \"#utility.yul\":7417:7698   */\n      pop\n      pop\n      jump\t// out\n        /* \"#utility.yul\":7704:7833   */\n    tag_248:\n        /* \"#utility.yul\":7738:7744   */\n      0x00\n        /* \"#utility.yul\":7765:7785   */\n      tag_381\n      tag_220\n      jump\t// in\n    tag_381:\n        /* \"#utility.yul\":7755:7785   */\n      swap1\n      pop\n        /* \"#utility.yul\":7794:7827   */\n      tag_382\n        /* \"#utility.yul\":7822:7826   */\n      dup3\n        /* \"#utility.yul\":7814:7820   */\n      dup3\n        /* \"#utility.yul\":7794:7827   */\n      tag_247\n      jump\t// in\n    tag_382:\n        /* \"#utility.yul\":7704:7833   */\n      swap2\n      swap1\n      pop\n      jump\t// out\n        /* \"#utility.yul\":7839:8146   */\n    tag_249:\n        /* \"#utility.yul\":7900:7904   */\n      0x00\n        /* \"#utility.yul\":7990:8008   */\n      0xffffffffffffffff\n        /* \"#utility.yul\":7982:7988   */\n      dup3\n        /* \"#utility.yul\":7979:8009   */\n      gt\n        /* \"#utility.yul\":7976:8032   */\n      iszero\n      tag_384\n      jumpi\n        /* \"#utility.yul\":8012:8030   */\n      tag_385\n      tag_246\n      jump\t// in\n    tag_385:\n        /* \"#utility.yul\":7976:8032   */\n    tag_384:\n        /* \"#utility.yul\":8050:8079   */\n      tag_386\n        /* \"#utility.yul\":8072:8078   */\n      dup3\n        /* \"#utility.yul\":8050:8079   */\n      tag_231\n      jump\t// in\n    tag_386:\n        /* \"#utility.yul\":8042:8079   */\n      swap1\n      pop\n        /* \"#utility.yul\":8134:8138   */\n      0x20\n        /* \"#utility.yul\":8128:8132   */\n      dup2\n        /* \"#utility.yul\":8124:8139   */\n      add\n        /* \"#utility.yul\":8116:8139   */\n      swap1\n      pop\n        /* \"#utility.yul\":7839:8146   */\n      swap2\n      swap1\n      pop\n      jump\t// out\n        /* \"#utility.yul\":8152:8306   */\n    tag_250:\n        /* \"#utility.yul\":8236:8242   */\n      dup3\n        /* \"#utility.yul\":8231:8234   */\n      dup2\n        /* \"#utility.yul\":8226:8229   */\n      dup4\n        /* \"#utility.yul\":8213:8243   */\n      calldatacopy\n        /* \"#utility.yul\":8298:8299   */\n      0x00\n        /* \"#utility.yul\":8289:8295   */\n      dup4\n        /* \"#utility.yul\":8284:8287   */\n      dup4\n        /* \"#utility.yul\":8280:8296   */\n      add\n        /* \"#utility.yul\":8273:8300   */\n      mstore\n        /* \"#utility.yul\":8152:8306   */\n      pop\n      pop\n      pop\n      jump\t// out\n        /* \"#utility.yul\":8312:8722   */\n    tag_251:\n        /* \"#utility.yul\":8389:8394   */\n      0x00\n        /* \"#utility.yul\":8414:8479   */\n      tag_389\n        /* \"#utility.yul\":8430:8478   */\n      tag_390\n        /* \"#utility.yul\":8471:8477   */\n      dup5\n        /* \"#utility.yul\":8430:8478   */\n      tag_249\n      jump\t// in\n    tag_390:\n        /* \"#utility.yul\":8414:8479   */\n      tag_248\n      jump\t// in\n    tag_389:\n        /* \"#utility.yul\":8405:8479   */\n      swap1\n      pop\n        /* \"#utility.yul\":8502:8508   */\n      dup3\n        /* \"#utility.yul\":8495:8500   */\n      dup2\n        /* \"#utility.yul\":8488:8509   */\n      mstore\n        /* \"#utility.yul\":8540:8544   */\n      0x20\n        /* \"#utility.yul\":8533:8538   */\n      dup2\n        /* \"#utility.yul\":8529:8545   */\n      add\n        /* \"#utility.yul\":8578:8581   */\n      dup5\n        /* \"#utility.yul\":8569:8575   */\n      dup5\n        /* \"#utility.yul\":8564:8567   */\n      dup5\n        /* \"#utility.yul\":8560:8576   */\n      add\n        /* \"#utility.yul\":8557:8582   */\n      gt\n        /* \"#utility.yul\":8554:8666   */\n      iszero\n      tag_391\n      jumpi\n        /* \"#utility.yul\":8585:8664   */\n      tag_392\n      tag_245\n      jump\t// in\n    tag_392:\n        /* \"#utility.yul\":8554:8666   */\n    tag_391:\n        /* \"#utility.yul\":8675:8716   */\n      tag_393\n        /* \"#utility.yul\":8709:8715   */\n      dup5\n        /* \"#utility.yul\":8704:8707   */\n      dup3\n        /* \"#utility.yul\":8699:8702   */\n      dup6\n        /* \"#utility.yul\":8675:8716   */\n      tag_250\n      jump\t// in\n    tag_393:\n        /* \"#utility.yul\":8395:8722   */\n      pop\n        /* \"#utility.yul\":8312:8722   */\n      swap4\n      swap3\n      pop\n      pop\n      pop\n      jump\t// out\n        /* \"#utility.yul\":8741:9079   */\n    tag_252:\n        /* \"#utility.yul\":8796:8801   */\n      0x00\n        /* \"#utility.yul\":8845:8848   */\n      dup3\n        /* \"#utility.yul\":8838:8842   */\n      0x1f\n        /* \"#utility.yul\":8830:8836   */\n      dup4\n        /* \"#utility.yul\":8826:8843   */\n      add\n        /* \"#utility.yul\":8822:8849   */\n      slt\n        /* \"#utility.yul\":8812:8934   */\n      tag_395\n      jumpi\n        /* \"#utility.yul\":8853:8932   */\n      tag_396\n      tag_244\n      jump\t// in\n    tag_396:\n        /* \"#utility.yul\":8812:8934   */\n    tag_395:\n        /* \"#utility.yul\":8970:8976   */\n      dup2\n        /* \"#utility.yul\":8957:8977   */\n      calldataload\n        /* \"#utility.yul\":8995:9073   */\n      tag_397\n        /* \"#utility.yul\":9069:9072   */\n      dup5\n        /* \"#utility.yul\":9061:9067   */\n      dup3\n        /* \"#utility.yul\":9054:9058   */\n      0x20\n        /* \"#utility.yul\":9046:9052   */\n      dup7\n        /* \"#utility.yul\":9042:9059   */\n      add\n        /* \"#utility.yul\":8995:9073   */\n      tag_251\n      jump\t// in\n    tag_397:\n        /* \"#utility.yul\":8986:9073   */\n      swap2\n      pop\n        /* \"#utility.yul\":8802:9079   */\n      pop\n        /* \"#utility.yul\":8741:9079   */\n      swap3\n      swap2\n      pop\n      pop\n      jump\t// out\n        /* \"#utility.yul\":9085:10028   */\n    tag_73:\n        /* \"#utility.yul\":9180:9186   */\n      0x00\n        /* \"#utility.yul\":9188:9194   */\n      dup1\n        /* \"#utility.yul\":9196:9202   */\n      0x00\n        /* \"#utility.yul\":9204:9210   */\n      dup1\n        /* \"#utility.yul\":9253:9256   */\n      0x80\n        /* \"#utility.yul\":9241:9250   */\n      dup6\n        /* \"#utility.yul\":9232:9239   */\n      dup8\n        /* \"#utility.yul\":9228:9251   */\n      sub\n        /* \"#utility.yul\":9224:9257   */\n      slt\n        /* \"#utility.yul\":9221:9341   */\n      iszero\n      tag_399\n      jumpi\n        /* \"#utility.yul\":9260:9339   */\n      tag_400\n      tag_221\n      jump\t// in\n    tag_400:\n        /* \"#utility.yul\":9221:9341   */\n    tag_399:\n        /* \"#utility.yul\":9380:9381   */\n      0x00\n        /* \"#utility.yul\":9405:9458   */\n      tag_401\n        /* \"#utility.yul\":9450:9457   */\n      dup8\n        /* \"#utility.yul\":9441:9447   */\n      dup3\n        /* \"#utility.yul\":9430:9439   */\n      dup9\n        /* \"#utility.yul\":9426:9448   */\n      add\n        /* \"#utility.yul\":9405:9458   */\n      tag_240\n      jump\t// in\n    tag_401:\n        /* \"#utility.yul\":9395:9458   */\n      swap5\n      pop\n        /* \"#utility.yul\":9351:9468   */\n      pop\n        /* \"#utility.yul\":9507:9509   */\n      0x20\n        /* \"#utility.yul\":9533:9586   */\n      tag_402\n        /* \"#utility.yul\":9578:9585   */\n      dup8\n        /* \"#utility.yul\":9569:9575   */\n      dup3\n        /* \"#utility.yul\":9558:9567   */\n      dup9\n        /* \"#utility.yul\":9554:9576   */\n      add\n        /* \"#utility.yul\":9533:9586   */\n      tag_240\n      jump\t// in\n    tag_402:\n        /* \"#utility.yul\":9523:9586   */\n      swap4\n      pop\n        /* \"#utility.yul\":9478:9596   */\n      pop\n        /* \"#utility.yul\":9635:9637   */\n      0x40\n        /* \"#utility.yul\":9661:9714   */\n      tag_403\n        /* \"#utility.yul\":9706:9713   */\n      dup8\n        /* \"#utility.yul\":9697:9703   */\n      dup3\n        /* \"#utility.yul\":9686:9695   */\n      dup9\n        /* \"#utility.yul\":9682:9704   */\n      add\n        /* \"#utility.yul\":9661:9714   */\n      tag_235\n      jump\t// in\n    tag_403:\n        /* \"#utility.yul\":9651:9714   */\n      swap3\n      pop\n        /* \"#utility.yul\":9606:9724   */\n      pop\n        /* \"#utility.yul\":9791:9793   */\n      0x60\n        /* \"#utility.yul\":9780:9789   */\n      dup6\n        /* \"#utility.yul\":9776:9794   */\n      add\n        /* \"#utility.yul\":9763:9795   */\n      calldataload\n        /* \"#utility.yul\":9822:9840   */\n      0xffffffffffffffff\n        /* \"#utility.yul\":9814:9820   */\n      dup2\n        /* \"#utility.yul\":9811:9841   */\n      gt\n        /* \"#utility.yul\":9808:9925   */\n      iszero\n      tag_404\n      jumpi\n        /* \"#utility.yul\":9844:9923   */\n      tag_405\n      tag_222\n      jump\t// in\n    tag_405:\n        /* \"#utility.yul\":9808:9925   */\n    tag_404:\n        /* \"#utility.yul\":9949:10011   */\n      tag_406\n        /* \"#utility.yul\":10003:10010   */\n      dup8\n        /* \"#utility.yul\":9994:10000   */\n      dup3\n        /* \"#utility.yul\":9983:9992   */\n      dup9\n        /* \"#utility.yul\":9979:10001   */\n      add\n        /* \"#utility.yul\":9949:10011   */\n      tag_252\n      jump\t// in\n    tag_406:\n        /* \"#utility.yul\":9939:10011   */\n      swap2\n      pop\n        /* \"#utility.yul\":9734:10021   */\n      pop\n        /* \"#utility.yul\":9085:10028   */\n      swap3\n      swap6\n      swap2\n      swap5\n      pop\n      swap3\n      pop\n      jump\t// out\n        /* \"#utility.yul\":10034:10508   */\n    tag_81:\n        /* \"#utility.yul\":10102:10108   */\n      0x00\n        /* \"#utility.yul\":10110:10116   */\n      dup1\n        /* \"#utility.yul\":10159:10161   */\n      0x40\n        /* \"#utility.yul\":10147:10156   */\n      dup4\n        /* \"#utility.yul\":10138:10145   */\n      dup6\n        /* \"#utility.yul\":10134:10157   */\n      sub\n        /* \"#utility.yul\":10130:10162   */\n      slt\n        /* \"#utility.yul\":10127:10246   */\n      iszero\n      tag_408\n      jumpi\n        /* \"#utility.yul\":10165:10244   */\n      tag_409\n      tag_221\n      jump\t// in\n    tag_409:\n        /* \"#utility.yul\":10127:10246   */\n    tag_408:\n        /* \"#utility.yul\":10285:10286   */\n      0x00\n        /* \"#utility.yul\":10310:10363   */\n      tag_410\n        /* \"#utility.yul\":10355:10362   */\n      dup6\n        /* \"#utility.yul\":10346:10352   */\n      dup3\n        /* \"#utility.yul\":10335:10344   */\n      dup7\n        /* \"#utility.yul\":10331:10353   */\n      add\n        /* \"#utility.yul\":10310:10363   */\n      tag_240\n      jump\t// in\n    tag_410:\n        /* \"#utility.yul\":10300:10363   */\n      swap3\n      pop\n        /* \"#utility.yul\":10256:10373   */\n      pop\n        /* \"#utility.yul\":10412:10414   */\n      0x20\n        /* \"#utility.yul\":10438:10491   */\n      tag_411\n        /* \"#utility.yul\":10483:10490   */\n      dup6\n        /* \"#utility.yul\":10474:10480   */\n      dup3\n        /* \"#utility.yul\":10463:10472   */\n      dup7\n        /* \"#utility.yul\":10459:10481   */\n      add\n        /* \"#utility.yul\":10438:10491   */\n      tag_240\n      jump\t// in\n    tag_411:\n        /* \"#utility.yul\":10428:10491   */\n      swap2\n      pop\n        /* \"#utility.yul\":10383:10501   */\n      pop\n        /* \"#utility.yul\":10034:10508   */\n      swap3\n      pop\n      swap3\n      swap1\n      pop\n      jump\t// out\n        /* \"#utility.yul\":10514:10684   */\n    tag_253:\n        /* \"#utility.yul\":10654:10676   */\n      0x746f6b656e20646f6573206e6f74206578697374000000000000000000000000\n        /* \"#utility.yul\":10650:10651   */\n      0x00\n        /* \"#utility.yul\":10642:10648   */\n      dup3\n        /* \"#utility.yul\":10638:10652   */\n      add\n        /* \"#utility.yul\":10631:10677   */\n      mstore\n        /* \"#utility.yul\":10514:10684   */\n      pop\n      jump\t// out\n        /* \"#utility.yul\":10690:11056   */\n    tag_254:\n        /* \"#utility.yul\":10832:10835   */\n      0x00\n        /* \"#utility.yul\":10853:10920   */\n      tag_414\n        /* \"#utility.yul\":10917:10919   */\n      0x14\n        /* \"#utility.yul\":10912:10915   */\n      dup4\n        /* \"#utility.yul\":10853:10920   */\n      tag_229\n      jump\t// in\n    tag_414:\n        /* \"#utility.yul\":10846:10920   */\n      swap2\n      pop\n        /* \"#utility.yul\":10929:11022   */\n      tag_415\n        /* \"#utility.yul\":11018:11021   */\n      dup3\n        /* \"#utility.yul\":10929:11022   */\n      tag_253\n      jump\t// in\n    tag_415:\n        /* \"#utility.yul\":11047:11049   */\n      0x20\n        /* \"#utility.yul\":11042:11045   */\n      dup3\n        /* \"#utility.yul\":11038:11050   */\n      add\n        /* \"#utility.yul\":11031:11050   */\n      swap1\n      pop\n        /* \"#utility.yul\":10690:11056   */\n      swap2\n      swap1\n      pop\n      jump\t// out\n        /* \"#utility.yul\":11062:11481   */\n    tag_91:\n        /* \"#utility.yul\":11228:11232   */\n      0x00\n        /* \"#utility.yul\":11266:11268   */\n      0x20\n        /* \"#utility.yul\":11255:11264   */\n      dup3\n        /* \"#utility.yul\":11251:11269   */\n      add\n        /* \"#utility.yul\":11243:11269   */\n      swap1\n      pop\n        /* \"#utility.yul\":11315:11324   */\n      dup2\n        /* \"#utility.yul\":11309:11313   */\n      dup2\n        /* \"#utility.yul\":11305:11325   */\n      sub\n        /* \"#utility.yul\":11301:11302   */\n      0x00\n        /* \"#utility.yul\":11290:11299   */\n      dup4\n        /* \"#utility.yul\":11286:11303   */\n      add\n        /* \"#utility.yul\":11279:11326   */\n      mstore\n        /* \"#utility.yul\":11343:11474   */\n      tag_417\n        /* \"#utility.yul\":11469:11473   */\n      dup2\n        /* \"#utility.yul\":11343:11474   */\n      tag_254\n      jump\t// in\n    tag_417:\n        /* \"#utility.yul\":11335:11474   */\n      swap1\n      pop\n        /* \"#utility.yul\":11062:11481   */\n      swap2\n      swap1\n      pop\n      jump\t// out\n        /* \"#utility.yul\":11487:11662   */\n    tag_255:\n        /* \"#utility.yul\":11627:11654   */\n      0x617070726f76616c20746f2063757272656e74206f776e657200000000000000\n        /* \"#utility.yul\":11623:11624   */\n      0x00\n        /* \"#utility.yul\":11615:11621   */\n      dup3\n        /* \"#utility.yul\":11611:11625   */\n      add\n        /* \"#utility.yul\":11604:11655   */\n      mstore\n        /* \"#utility.yul\":11487:11662   */\n      pop\n      jump\t// out\n        /* \"#utility.yul\":11668:12034   */\n    tag_256:\n        /* \"#utility.yul\":11810:11813   */\n      0x00\n        /* \"#utility.yul\":11831:11898   */\n      tag_420\n        /* \"#utility.yul\":11895:11897   */\n      0x19\n        /* \"#utility.yul\":11890:11893   */\n      dup4\n        /* \"#utility.yul\":11831:11898   */\n      tag_229\n      jump\t// in\n    tag_420:\n        /* \"#utility.yul\":11824:11898   */\n      swap2\n      pop\n        /* \"#utility.yul\":11907:12000   */\n      tag_421\n        /* \"#utility.yul\":11996:11999   */\n      dup3\n        /* \"#utility.yul\":11907:12000   */\n      tag_255\n      jump\t// in\n    tag_421:\n        /* \"#utility.yul\":12025:12027   */\n      0x20\n        /* \"#utility.yul\":12020:12023   */\n      dup3\n        /* \"#utility.yul\":12016:12028   */\n      add\n        /* \"#utility.yul\":12009:12028   */\n      swap1\n      pop\n        /* \"#utility.yul\":11668:12034   */\n      swap2\n      swap1\n      pop\n      jump\t// out\n        /* \"#utility.yul\":12040:12459   */\n    tag_96:\n        /* \"#utility.yul\":12206:12210   */\n      0x00\n        /* \"#utility.yul\":12244:12246   */\n      0x20\n        /* \"#utility.yul\":12233:12242   */\n      dup3\n        /* \"#utility.yul\":12229:12247   */\n      add\n        /* \"#utility.yul\":12221:12247   */\n      swap1\n      pop\n        /* \"#utility.yul\":12293:12302   */\n      dup2\n        /* \"#utility.yul\":12287:12291   */\n      dup2\n        /* \"#utility.yul\":12283:12303   */\n      sub\n        /* \"#utility.yul\":12279:12280   */\n      0x00\n        /* \"#utility.yul\":12268:12277   */\n      dup4\n        /* \"#utility.yul\":12264:12281   */\n      add\n        /* \"#utility.yul\":12257:12304   */\n      mstore\n        /* \"#utility.yul\":12321:12452   */\n      tag_423\n        /* \"#utility.yul\":12447:12451   */\n      dup2\n        /* \"#utility.yul\":12321:12452   */\n      tag_256\n      jump\t// in\n    tag_423:\n        /* \"#utility.yul\":12313:12452   */\n      swap1\n      pop\n        /* \"#utility.yul\":12040:12459   */\n      swap2\n      swap1\n      pop\n      jump\t// out\n        /* \"#utility.yul\":12465:12645   */\n    tag_257:\n        /* \"#utility.yul\":12605:12637   */\n      0x6e6f74206f776e6572206e6f7220617070726f76656420666f7220616c6c0000\n        /* \"#utility.yul\":12601:12602   */\n      0x00\n        /* \"#utility.yul\":12593:12599   */\n      dup3\n        /* \"#utility.yul\":12589:12603   */\n      add\n        /* \"#utility.yul\":12582:12638   */\n      mstore\n        /* \"#utility.yul\":12465:12645   */\n      pop\n      jump\t// out\n        /* \"#utility.yul\":12651:13017   */\n    tag_258:\n        /* \"#utility.yul\":12793:12796   */\n      0x00\n        /* \"#utility.yul\":12814:12881   */\n      tag_426\n        /* \"#utility.yul\":12878:12880   */\n      0x1e\n        /* \"#utility.yul\":12873:12876   */\n      dup4\n        /* \"#utility.yul\":12814:12881   */\n      tag_229\n      jump\t// in\n    tag_426:\n        /* \"#utility.yul\":12807:12881   */\n      swap2\n      pop\n        /* \"#utility.yul\":12890:12983   */\n      tag_427\n        /* \"#utility.yul\":12979:12982   */\n      dup3\n        /* \"#utility.yul\":12890:12983   */\n      tag_257\n      jump\t// in\n    tag_427:\n        /* \"#utility.yul\":13008:13010   */\n      0x20\n        /* \"#utility.yul\":13003:13006   */\n      dup3\n        /* \"#utility.yul\":12999:13011   */\n      add\n        /* \"#utility.yul\":12992:13011   */\n      swap1\n      pop\n        /* \"#utility.yul\":12651:13017   */\n      swap2\n      swap1\n      pop\n      jump\t// out\n        /* \"#utility.yul\":13023:13442   */\n    tag_101:\n        /* \"#utility.yul\":13189:13193   */\n      0x00\n        /* \"#utility.yul\":13227:13229   */\n      0x20\n        /* \"#utility.yul\":13216:13225   */\n      dup3\n        /* \"#utility.yul\":13212:13230   */\n      add\n        /* \"#utility.yul\":13204:13230   */\n      swap1\n      pop\n        /* \"#utility.yul\":13276:13285   */\n      dup2\n        /* \"#utility.yul\":13270:13274   */\n      dup2\n        /* \"#utility.yul\":13266:13286   */\n      sub\n        /* \"#utility.yul\":13262:13263   */\n      0x00\n        /* \"#utility.yul\":13251:13260   */\n      dup4\n        /* \"#utility.yul\":13247:13264   */\n      add\n        /* \"#utility.yul\":13240:13287   */\n      mstore\n        /* \"#utility.yul\":13304:13435   */\n      tag_429\n        /* \"#utility.yul\":13430:13434   */\n      dup2\n        /* \"#utility.yul\":13304:13435   */\n      tag_258\n      jump\t// in\n    tag_429:\n        /* \"#utility.yul\":13296:13435   */\n      swap1\n      pop\n        /* \"#utility.yul\":13023:13442   */\n      swap2\n      swap1\n      pop\n      jump\t// out\n        /* \"#utility.yul\":13448:13620   */\n    tag_259:\n        /* \"#utility.yul\":13588:13612   */\n      0x6e6f74206f776e6572206e6f7220617070726f76656400000000000000000000\n        /* \"#utility.yul\":13584:13585   */\n      0x00\n        /* \"#utility.yul\":13576:13582   */\n      dup3\n        /* \"#utility.yul\":13572:13586   */\n      add\n        /* \"#utility.yul\":13565:13613   */\n      mstore\n        /* \"#utility.yul\":13448:13620   */\n      pop\n      jump\t// out\n        /* \"#utility.yul\":13626:13992   */\n    tag_260:\n        /* \"#utility.yul\":13768:13771   */\n      0x00\n        /* \"#utility.yul\":13789:13856   */\n      tag_432\n        /* \"#utility.yul\":13853:13855   */\n      0x16\n        /* \"#utility.yul\":13848:13851   */\n      dup4\n        /* \"#utility.yul\":13789:13856   */\n      tag_229\n      jump\t// in\n    tag_432:\n        /* \"#utility.yul\":13782:13856   */\n      swap2\n      pop\n        /* \"#utility.yul\":13865:13958   */\n      tag_433\n        /* \"#utility.yul\":13954:13957   */\n      dup3\n        /* \"#utility.yul\":13865:13958   */\n      tag_259\n      jump\t// in\n    tag_433:\n        /* \"#utility.yul\":13983:13985   */\n      0x20\n        /* \"#utility.yul\":13978:13981   */\n      dup3\n        /* \"#utility.yul\":13974:13986   */\n      add\n        /* \"#utility.yul\":13967:13986   */\n      swap1\n      pop\n        /* \"#utility.yul\":13626:13992   */\n      swap2\n      swap1\n      pop\n      jump\t// out\n        /* \"#utility.yul\":13998:14417   */\n    tag_110:\n        /* \"#utility.yul\":14164:14168   */\n      0x00\n        /* \"#utility.yul\":14202:14204   */\n      0x20\n        /* \"#utility.yul\":14191:14200   */\n      dup3\n        /* \"#utility.yul\":14187:14205   */\n      add\n        /* \"#utility.yul\":14179:14205   */\n      swap1\n      pop\n        /* \"#utility.yul\":14251:14260   */\n      dup2\n        /* \"#utility.yul\":14245:14249   */\n      dup2\n        /* \"#utility.yul\":14241:14261   */\n      sub\n        /* \"#utility.yul\":14237:14238   */\n      0x00\n        /* \"#utility.yul\":14226:14235   */\n      dup4\n        /* \"#utility.yul\":14222:14239   */\n      add\n        /* \"#utility.yul\":14215:14262   */\n      mstore\n        /* \"#utility.yul\":14279:14410   */\n      tag_435\n        /* \"#utility.yul\":14405:14409   */\n      dup2\n        /* \"#utility.yul\":14279:14410   */\n      tag_260\n      jump\t// in\n    tag_435:\n        /* \"#utility.yul\":14271:14410   */\n      swap1\n      pop\n        /* \"#utility.yul\":13998:14417   */\n      swap2\n      swap1\n      pop\n      jump\t// out\n        /* \"#utility.yul\":14423:14646   */\n    tag_261:\n        /* \"#utility.yul\":14563:14597   */\n      0x717565726965642062616c616e636520666f7220746865207a65726f20616464\n        /* \"#utility.yul\":14559:14560   */\n      0x00\n        /* \"#utility.yul\":14551:14557   */\n      dup3\n        /* \"#utility.yul\":14547:14561   */\n      add\n        /* \"#utility.yul\":14540:14598   */\n      mstore\n        /* \"#utility.yul\":14632:14638   */\n      0x7265737300000000000000000000000000000000000000000000000000000000\n        /* \"#utility.yul\":14627:14629   */\n      0x20\n        /* \"#utility.yul\":14619:14625   */\n      dup3\n        /* \"#utility.yul\":14615:14630   */\n      add\n        /* \"#utility.yul\":14608:14639   */\n      mstore\n        /* \"#utility.yul\":14423:14646   */\n      pop\n      jump\t// out\n        /* \"#utility.yul\":14652:15018   */\n    tag_262:\n        /* \"#utility.yul\":14794:14797   */\n      0x00\n        /* \"#utility.yul\":14815:14882   */\n      tag_438\n        /* \"#utility.yul\":14879:14881   */\n      0x24\n        /* \"#utility.yul\":14874:14877   */\n      dup4\n        /* \"#utility.yul\":14815:14882   */\n      tag_229\n      jump\t// in\n    tag_438:\n        /* \"#utility.yul\":14808:14882   */\n      swap2\n      pop\n        /* \"#utility.yul\":14891:14984   */\n      tag_439\n        /* \"#utility.yul\":14980:14983   */\n      dup3\n        /* \"#utility.yul\":14891:14984   */\n      tag_261\n      jump\t// in\n    tag_439:\n        /* \"#utility.yul\":15009:15011   */\n      0x40\n        /* \"#utility.yul\":15004:15007   */\n      dup3\n        /* \"#utility.yul\":15000:15012   */\n      add\n        /* \"#utility.yul\":14993:15012   */\n      swap1\n      pop\n        /* \"#utility.yul\":14652:15018   */\n      swap2\n      swap1\n      pop\n      jump\t// out\n        /* \"#utility.yul\":15024:15443   */\n    tag_122:\n        /* \"#utility.yul\":15190:15194   */\n      0x00\n        /* \"#utility.yul\":15228:15230   */\n      0x20\n        /* \"#utility.yul\":15217:15226   */\n      dup3\n        /* \"#utility.yul\":15213:15231   */\n      add\n        /* \"#utility.yul\":15205:15231   */\n      swap1\n      pop\n        /* \"#utility.yul\":15277:15286   */\n      dup2\n        /* \"#utility.yul\":15271:15275   */\n      dup2\n        /* \"#utility.yul\":15267:15287   */\n      sub\n        /* \"#utility.yul\":15263:15264   */\n      0x00\n        /* \"#utility.yul\":15252:15261   */\n      dup4\n        /* \"#utility.yul\":15248:15265   */\n      add\n        /* \"#utility.yul\":15241:15288   */\n      mstore\n        /* \"#utility.yul\":15305:15436   */\n      tag_441\n        /* \"#utility.yul\":15431:15435   */\n      dup2\n        /* \"#utility.yul\":15305:15436   */\n      tag_262\n      jump\t// in\n    tag_441:\n        /* \"#utility.yul\":15297:15436   */\n      swap1\n      pop\n        /* \"#utility.yul\":15024:15443   */\n      swap2\n      swap1\n      pop\n      jump\t// out\n        /* \"#utility.yul\":15449:15615   */\n    tag_263:\n        /* \"#utility.yul\":15589:15607   */\n      0x63616c6c6572206e6f74206f776e657200000000000000000000000000000000\n        /* \"#utility.yul\":15585:15586   */\n      0x00\n        /* \"#utility.yul\":15577:15583   */\n      dup3\n        /* \"#utility.yul\":15573:15587   */\n      add\n        /* \"#utility.yul\":15566:15608   */\n      mstore\n        /* \"#utility.yul\":15449:15615   */\n      pop\n      jump\t// out\n        /* \"#utility.yul\":15621:15987   */\n    tag_264:\n        /* \"#utility.yul\":15763:15766   */\n      0x00\n        /* \"#utility.yul\":15784:15851   */\n      tag_444\n        /* \"#utility.yul\":15848:15850   */\n      0x10\n        /* \"#utility.yul\":15843:15846   */\n      dup4\n        /* \"#utility.yul\":15784:15851   */\n      tag_229\n      jump\t// in\n    tag_444:\n        /* \"#utility.yul\":15777:15851   */\n      swap2\n      pop\n        /* \"#utility.yul\":15860:15953   */\n      tag_445\n        /* \"#utility.yul\":15949:15952   */\n      dup3\n        /* \"#utility.yul\":15860:15953   */\n      tag_263\n      jump\t// in\n    tag_445:\n        /* \"#utility.yul\":15978:15980   */\n      0x20\n        /* \"#utility.yul\":15973:15976   */\n      dup3\n        /* \"#utility.yul\":15969:15981   */\n      add\n        /* \"#utility.yul\":15962:15981   */\n      swap1\n      pop\n        /* \"#utility.yul\":15621:15987   */\n      swap2\n      swap1\n      pop\n      jump\t// out\n        /* \"#utility.yul\":15993:16412   */\n    tag_127:\n        /* \"#utility.yul\":16159:16163   */\n      0x00\n        /* \"#utility.yul\":16197:16199   */\n      0x20\n        /* \"#utility.yul\":16186:16195   */\n      dup3\n        /* \"#utility.yul\":16182:16200   */\n      add\n        /* \"#utility.yul\":16174:16200   */\n      swap1\n      pop\n        /* \"#utility.yul\":16246:16255   */\n      dup2\n        /* \"#utility.yul\":16240:16244   */\n      dup2\n        /* \"#utility.yul\":16236:16256   */\n      sub\n        /* \"#utility.yul\":16232:16233   */\n      0x00\n        /* \"#utility.yul\":16221:16230   */\n      dup4\n        /* \"#utility.yul\":16217:16234   */\n      add\n        /* \"#utility.yul\":16210:16257   */\n      mstore\n        /* \"#utility.yul\":16274:16405   */\n      tag_447\n        /* \"#utility.yul\":16400:16404   */\n      dup2\n        /* \"#utility.yul\":16274:16405   */\n      tag_264\n      jump\t// in\n    tag_447:\n        /* \"#utility.yul\":16266:16405   */\n      swap1\n      pop\n        /* \"#utility.yul\":15993:16412   */\n      swap2\n      swap1\n      pop\n      jump\t// out\n        /* \"#utility.yul\":16418:16591   */\n    tag_265:\n        /* \"#utility.yul\":16558:16583   */\n      0x747269656420746f20617070726f76652063616c6c6572000000000000000000\n        /* \"#utility.yul\":16554:16555   */\n      0x00\n        /* \"#utility.yul\":16546:16552   */\n      dup3\n        /* \"#utility.yul\":16542:16556   */\n      add\n        /* \"#utility.yul\":16535:16584   */\n      mstore\n        /* \"#utility.yul\":16418:16591   */\n      pop\n      jump\t// out\n        /* \"#utility.yul\":16597:16963   */\n    tag_266:\n        /* \"#utility.yul\":16739:16742   */\n      0x00\n        /* \"#utility.yul\":16760:16827   */\n      tag_450\n        /* \"#utility.yul\":16824:16826   */\n      0x17\n        /* \"#utility.yul\":16819:16822   */\n      dup4\n        /* \"#utility.yul\":16760:16827   */\n      tag_229\n      jump\t// in\n    tag_450:\n        /* \"#utility.yul\":16753:16827   */\n      swap2\n      pop\n        /* \"#utility.yul\":16836:16929   */\n      tag_451\n        /* \"#utility.yul\":16925:16928   */\n      dup3\n        /* \"#utility.yul\":16836:16929   */\n      tag_265\n      jump\t// in\n    tag_451:\n        /* \"#utility.yul\":16954:16956   */\n      0x20\n        /* \"#utility.yul\":16949:16952   */\n      dup3\n        /* \"#utility.yul\":16945:16957   */\n      add\n        /* \"#utility.yul\":16938:16957   */\n      swap1\n      pop\n        /* \"#utility.yul\":16597:16963   */\n      swap2\n      swap1\n      pop\n      jump\t// out\n        /* \"#utility.yul\":16969:17388   */\n    tag_133:\n        /* \"#utility.yul\":17135:17139   */\n      0x00\n        /* \"#utility.yul\":17173:17175   */\n      0x20\n        /* \"#utility.yul\":17162:17171   */\n      dup3\n        /* \"#utility.yul\":17158:17176   */\n      add\n        /* \"#utility.yul\":17150:17176   */\n      swap1\n      pop\n        /* \"#utility.yul\":17222:17231   */\n      dup2\n        /* \"#utility.yul\":17216:17220   */\n      dup2\n        /* \"#utility.yul\":17212:17232   */\n      sub\n        /* \"#utility.yul\":17208:17209   */\n      0x00\n        /* \"#utility.yul\":17197:17206   */\n      dup4\n        /* \"#utility.yul\":17193:17210   */\n      add\n        /* \"#utility.yul\":17186:17233   */\n      mstore\n        /* \"#utility.yul\":17250:17381   */\n      tag_453\n        /* \"#utility.yul\":17376:17380   */\n      dup2\n        /* \"#utility.yul\":17250:17381   */\n      tag_266\n      jump\t// in\n    tag_453:\n        /* \"#utility.yul\":17242:17381   */\n      swap1\n      pop\n        /* \"#utility.yul\":16969:17388   */\n      swap2\n      swap1\n      pop\n      jump\t// out\n        /* \"#utility.yul\":17394:17570   */\n    tag_267:\n        /* \"#utility.yul\":17534:17562   */\n      0x6164647265737320646f6573206e6f74206f776e20746f6b656e000000000000\n        /* \"#utility.yul\":17530:17531   */\n      0x00\n        /* \"#utility.yul\":17522:17528   */\n      dup3\n        /* \"#utility.yul\":17518:17532   */\n      add\n        /* \"#utility.yul\":17511:17563   */\n      mstore\n        /* \"#utility.yul\":17394:17570   */\n      pop\n      jump\t// out\n        /* \"#utility.yul\":17576:17942   */\n    tag_268:\n        /* \"#utility.yul\":17718:17721   */\n      0x00\n        /* \"#utility.yul\":17739:17806   */\n      tag_456\n        /* \"#utility.yul\":17803:17805   */\n      0x1a\n        /* \"#utility.yul\":17798:17801   */\n      dup4\n        /* \"#utility.yul\":17739:17806   */\n      tag_229\n      jump\t// in\n    tag_456:\n        /* \"#utility.yul\":17732:17806   */\n      swap2\n      pop\n        /* \"#utility.yul\":17815:17908   */\n      tag_457\n        /* \"#utility.yul\":17904:17907   */\n      dup3\n        /* \"#utility.yul\":17815:17908   */\n      tag_267\n      jump\t// in\n    tag_457:\n        /* \"#utility.yul\":17933:17935   */\n      0x20\n        /* \"#utility.yul\":17928:17931   */\n      dup3\n        /* \"#utility.yul\":17924:17936   */\n      add\n        /* \"#utility.yul\":17917:17936   */\n      swap1\n      pop\n        /* \"#utility.yul\":17576:17942   */\n      swap2\n      swap1\n      pop\n      jump\t// out\n        /* \"#utility.yul\":17948:18367   */\n    tag_162:\n        /* \"#utility.yul\":18114:18118   */\n      0x00\n        /* \"#utility.yul\":18152:18154   */\n      0x20\n        /* \"#utility.yul\":18141:18150   */\n      dup3\n        /* \"#utility.yul\":18137:18155   */\n      add\n        /* \"#utility.yul\":18129:18155   */\n      swap1\n      pop\n        /* \"#utility.yul\":18201:18210   */\n      dup2\n        /* \"#utility.yul\":18195:18199   */\n      dup2\n        /* \"#utility.yul\":18191:18211   */\n      sub\n        /* \"#utility.yul\":18187:18188   */\n      0x00\n        /* \"#utility.yul\":18176:18185   */\n      dup4\n        /* \"#utility.yul\":18172:18189   */\n      add\n        /* \"#utility.yul\":18165:18212   */\n      mstore\n        /* \"#utility.yul\":18229:18360   */\n      tag_459\n        /* \"#utility.yul\":18355:18359   */\n      dup2\n        /* \"#utility.yul\":18229:18360   */\n      tag_268\n      jump\t// in\n    tag_459:\n        /* \"#utility.yul\":18221:18360   */\n      swap1\n      pop\n        /* \"#utility.yul\":17948:18367   */\n      swap2\n      swap1\n      pop\n      jump\t// out\n        /* \"#utility.yul\":18373:18597   */\n    tag_269:\n        /* \"#utility.yul\":18513:18547   */\n      0x747269656420746f207472616e7366657220746f20746865207a65726f206164\n        /* \"#utility.yul\":18509:18510   */\n      0x00\n        /* \"#utility.yul\":18501:18507   */\n      dup3\n        /* \"#utility.yul\":18497:18511   */\n      add\n        /* \"#utility.yul\":18490:18548   */\n      mstore\n        /* \"#utility.yul\":18582:18589   */\n      0x6472657373000000000000000000000000000000000000000000000000000000\n        /* \"#utility.yul\":18577:18579   */\n      0x20\n        /* \"#utility.yul\":18569:18575   */\n      dup3\n        /* \"#utility.yul\":18565:18580   */\n      add\n        /* \"#utility.yul\":18558:18590   */\n      mstore\n        /* \"#utility.yul\":18373:18597   */\n      pop\n      jump\t// out\n        /* \"#utility.yul\":18603:18969   */\n    tag_270:\n        /* \"#utility.yul\":18745:18748   */\n      0x00\n        /* \"#utility.yul\":18766:18833   */\n      tag_462\n        /* \"#utility.yul\":18830:18832   */\n      0x25\n        /* \"#utility.yul\":18825:18828   */\n      dup4\n        /* \"#utility.yul\":18766:18833   */\n      tag_229\n      jump\t// in\n    tag_462:\n        /* \"#utility.yul\":18759:18833   */\n      swap2\n      pop\n        /* \"#utility.yul\":18842:18935   */\n      tag_463\n        /* \"#utility.yul\":18931:18934   */\n      dup3\n        /* \"#utility.yul\":18842:18935   */\n      tag_269\n      jump\t// in\n    tag_463:\n        /* \"#utility.yul\":18960:18962   */\n      0x40\n        /* \"#utility.yul\":18955:18958   */\n      dup3\n        /* \"#utility.yul\":18951:18963   */\n      add\n        /* \"#utility.yul\":18944:18963   */\n      swap1\n      pop\n        /* \"#utility.yul\":18603:18969   */\n      swap2\n      swap1\n      pop\n      jump\t// out\n        /* \"#utility.yul\":18975:19394   */\n    tag_165:\n        /* \"#utility.yul\":19141:19145   */\n      0x00\n        /* \"#utility.yul\":19179:19181   */\n      0x20\n        /* \"#utility.yul\":19168:19177   */\n      dup3\n        /* \"#utility.yul\":19164:19182   */\n      add\n        /* \"#utility.yul\":19156:19182   */\n      swap1\n      pop\n        /* \"#utility.yul\":19228:19237   */\n      dup2\n        /* \"#utility.yul\":19222:19226   */\n      dup2\n        /* \"#utility.yul\":19218:19238   */\n      sub\n        /* \"#utility.yul\":19214:19215   */\n      0x00\n        /* \"#utility.yul\":19203:19212   */\n      dup4\n        /* \"#utility.yul\":19199:19216   */\n      add\n        /* \"#utility.yul\":19192:19239   */\n      mstore\n        /* \"#utility.yul\":19256:19387   */\n      tag_465\n        /* \"#utility.yul\":19382:19386   */\n      dup2\n        /* \"#utility.yul\":19256:19387   */\n      tag_270\n      jump\t// in\n    tag_465:\n        /* \"#utility.yul\":19248:19387   */\n      swap1\n      pop\n        /* \"#utility.yul\":18975:19394   */\n      swap2\n      swap1\n      pop\n      jump\t// out\n        /* \"#utility.yul\":19400:19580   */\n    tag_271:\n        /* \"#utility.yul\":19448:19525   */\n      0x4e487b7100000000000000000000000000000000000000000000000000000000\n        /* \"#utility.yul\":19445:19446   */\n      0x00\n        /* \"#utility.yul\":19438:19526   */\n      mstore\n        /* \"#utility.yul\":19545:19549   */\n      0x11\n        /* \"#utility.yul\":19542:19543   */\n      0x04\n        /* \"#utility.yul\":19535:19550   */\n      mstore\n        /* \"#utility.yul\":19569:19573   */\n      0x24\n        /* \"#utility.yul\":19566:19567   */\n      0x00\n        /* \"#utility.yul\":19559:19574   */\n      revert\n        /* \"#utility.yul\":19586:19777   */\n    tag_168:\n        /* \"#utility.yul\":19626:19630   */\n      0x00\n        /* \"#utility.yul\":19646:19666   */\n      tag_468\n        /* \"#utility.yul\":19664:19665   */\n      dup3\n        /* \"#utility.yul\":19646:19666   */\n      tag_233\n      jump\t// in\n    tag_468:\n        /* \"#utility.yul\":19641:19666   */\n      swap2\n      pop\n        /* \"#utility.yul\":19680:19700   */\n      tag_469\n        /* \"#utility.yul\":19698:19699   */\n      dup4\n        /* \"#utility.yul\":19680:19700   */\n      tag_233\n      jump\t// in\n    tag_469:\n        /* \"#utility.yul\":19675:19700   */\n      swap3\n      pop\n        /* \"#utility.yul\":19719:19720   */\n      dup3\n        /* \"#utility.yul\":19716:19717   */\n      dup3\n        /* \"#utility.yul\":19713:19721   */\n      lt\n        /* \"#utility.yul\":19710:19744   */\n      iszero\n      tag_470\n      jumpi\n        /* \"#utility.yul\":19724:19742   */\n      tag_471\n      tag_271\n      jump\t// in\n    tag_471:\n        /* \"#utility.yul\":19710:19744   */\n    tag_470:\n        /* \"#utility.yul\":19769:19770   */\n      dup3\n        /* \"#utility.yul\":19766:19767   */\n      dup3\n        /* \"#utility.yul\":19762:19771   */\n      sub\n        /* \"#utility.yul\":19754:19771   */\n      swap1\n      pop\n        /* \"#utility.yul\":19586:19777   */\n      swap3\n      swap2\n      pop\n      pop\n      jump\t// out\n        /* \"#utility.yul\":19783:20088   */\n    tag_170:\n        /* \"#utility.yul\":19823:19826   */\n      0x00\n        /* \"#utility.yul\":19842:19862   */\n      tag_473\n        /* \"#utility.yul\":19860:19861   */\n      dup3\n        /* \"#utility.yul\":19842:19862   */\n      tag_233\n      jump\t// in\n    tag_473:\n        /* \"#utility.yul\":19837:19862   */\n      swap2\n      pop\n        /* \"#utility.yul\":19876:19896   */\n      tag_474\n        /* \"#utility.yul\":19894:19895   */\n      dup4\n        /* \"#utility.yul\":19876:19896   */\n      tag_233\n      jump\t// in\n    tag_474:\n        /* \"#utility.yul\":19871:19896   */\n      swap3\n      pop\n        /* \"#utility.yul\":20030:20031   */\n      dup3\n        /* \"#utility.yul\":19962:20028   */\n      0xffffffffffffffffffffffffffffffffffffffffffffffffffffffffffffffff\n        /* \"#utility.yul\":19958:20032   */\n      sub\n        /* \"#utility.yul\":19955:19956   */\n      dup3\n        /* \"#utility.yul\":19952:20033   */\n      gt\n        /* \"#utility.yul\":19949:20056   */\n      iszero\n      tag_475\n      jumpi\n        /* \"#utility.yul\":20036:20054   */\n      tag_476\n      tag_271\n      jump\t// in\n    tag_476:\n        /* \"#utility.yul\":19949:20056   */\n    tag_475:\n        /* \"#utility.yul\":20080:20081   */\n      dup3\n        /* \"#utility.yul\":20077:20078   */\n      dup3\n        /* \"#utility.yul\":20073:20082   */\n      add\n        /* \"#utility.yul\":20066:20082   */\n      swap1\n      pop\n        /* \"#utility.yul\":19783:20088   */\n      swap3\n      swap2\n      pop\n      pop\n      jump\t// out\n        /* \"#utility.yul\":20094:20275   */\n    tag_272:\n        /* \"#utility.yul\":20234:20267   */\n      0x646f6573206e6f7420696d706c656d656e74205a636f70526563656976657200\n        /* \"#utility.yul\":20230:20231   */\n      0x00\n        /* \"#utility.yul\":20222:20228   */\n      dup3\n        /* \"#utility.yul\":20218:20232   */\n      add\n        /* \"#utility.yul\":20211:20268   */\n      mstore\n        /* \"#utility.yul\":20094:20275   */\n      pop\n      jump\t// out\n        /* \"#utility.yul\":20281:20647   */\n    tag_273:\n        /* \"#utility.yul\":20423:20426   */\n      0x00\n        /* \"#utility.yul\":20444:20511   */\n      tag_479\n        /* \"#utility.yul\":20508:20510   */\n      0x1f\n        /* \"#utility.yul\":20503:20506   */\n      dup4\n        /* \"#utility.yul\":20444:20511   */\n      tag_229\n      jump\t// in\n    tag_479:\n        /* \"#utility.yul\":20437:20511   */\n      swap2\n      pop\n        /* \"#utility.yul\":20520:20613   */\n      tag_480\n        /* \"#utility.yul\":20609:20612   */\n      dup3\n        /* \"#utility.yul\":20520:20613   */\n      tag_272\n      jump\t// in\n    tag_480:\n        /* \"#utility.yul\":20638:20640   */\n      0x20\n        /* \"#utility.yul\":20633:20636   */\n      dup3\n        /* \"#utility.yul\":20629:20641   */\n      add\n        /* \"#utility.yul\":20622:20641   */\n      swap1\n      pop\n        /* \"#utility.yul\":20281:20647   */\n      swap2\n      swap1\n      pop\n      jump\t// out\n        /* \"#utility.yul\":20653:21072   */\n    tag_178:\n        /* \"#utility.yul\":20819:20823   */\n      0x00\n        /* \"#utility.yul\":20857:20859   */\n      0x20\n        /* \"#utility.yul\":20846:20855   */\n      dup3\n        /* \"#utility.yul\":20842:20860   */\n      add\n        /* \"#utility.yul\":20834:20860   */\n      swap1\n      pop\n        /* \"#utility.yul\":20906:20915   */\n      dup2\n        /* \"#utility.yul\":20900:20904   */\n      dup2\n        /* \"#utility.yul\":20896:20916   */\n      sub\n        /* \"#utility.yul\":20892:20893   */\n      0x00\n        /* \"#utility.yul\":20881:20890   */\n      dup4\n        /* \"#utility.yul\":20877:20894   */\n      add\n        /* \"#utility.yul\":20870:20917   */\n      mstore\n        /* \"#utility.yul\":20934:21065   */\n      tag_482\n        /* \"#utility.yul\":21060:21064   */\n      dup2\n        /* \"#utility.yul\":20934:21065   */\n      tag_273\n      jump\t// in\n    tag_482:\n        /* \"#utility.yul\":20926:21065   */\n      swap1\n      pop\n        /* \"#utility.yul\":20653:21072   */\n      swap2\n      swap1\n      pop\n      jump\t// out\n        /* \"#utility.yul\":21078:21302   */\n    tag_274:\n        /* \"#utility.yul\":21218:21252   */\n      0x636c69656e7420646f6573206e6f7420696d706c656d656e745a636f70526563\n        /* \"#utility.yul\":21214:21215   */\n      0x00\n        /* \"#utility.yul\":21206:21212   */\n      dup3\n        /* \"#utility.yul\":21202:21216   */\n      add\n        /* \"#utility.yul\":21195:21253   */\n      mstore\n        /* \"#utility.yul\":21287:21294   */\n      0x6569766572000000000000000000000000000000000000000000000000000000\n        /* \"#utility.yul\":21282:21284   */\n      0x20\n        /* \"#utility.yul\":21274:21280   */\n      dup3\n        /* \"#utility.yul\":21270:21285   */\n      add\n        /* \"#utility.yul\":21263:21295   */\n      mstore\n        /* \"#utility.yul\":21078:21302   */\n      pop\n      jump\t// out\n        /* \"#utility.yul\":21308:21674   */\n    tag_275:\n        /* \"#utility.yul\":21450:21453   */\n      0x00\n        /* \"#utility.yul\":21471:21538   */\n      tag_485\n        /* \"#utility.yul\":21535:21537   */\n      0x25\n        /* \"#utility.yul\":21530:21533   */\n      dup4\n        /* \"#utility.yul\":21471:21538   */\n      tag_229\n      jump\t// in\n    tag_485:\n        /* \"#utility.yul\":21464:21538   */\n      swap2\n      pop\n        /* \"#utility.yul\":21547:21640   */\n      tag_486\n        /* \"#utility.yul\":21636:21639   */\n      dup3\n        /* \"#utility.yul\":21547:21640   */\n      tag_274\n      jump\t// in\n    tag_486:\n        /* \"#utility.yul\":21665:21667   */\n      0x40\n        /* \"#utility.yul\":21660:21663   */\n      dup3\n        /* \"#utility.yul\":21656:21668   */\n      add\n        /* \"#utility.yul\":21649:21668   */\n      swap1\n      pop\n        /* \"#utility.yul\":21308:21674   */\n      swap2\n      swap1\n      pop\n      jump\t// out\n        /* \"#utility.yul\":21680:22099   */\n    tag_184:\n        /* \"#utility.yul\":21846:21850   */\n      0x00\n        /* \"#utility.yul\":21884:21886   */\n      0x20\n        /* \"#utility.yul\":21873:21882   */\n      dup3\n        /* \"#utility.yul\":21869:21887   */\n      add\n        /* \"#utility.yul\":21861:21887   */\n      swap1\n      pop\n        /* \"#utility.yul\":21933:21942   */\n      dup2\n        /* \"#utility.yul\":21927:21931   */\n      dup2\n        /* \"#utility.yul\":21923:21943   */\n      sub\n        /* \"#utility.yul\":21919:21920   */\n      0x00\n        /* \"#utility.yul\":21908:21917   */\n      dup4\n        /* \"#utility.yul\":21904:21921   */\n      add\n        /* \"#utility.yul\":21897:21944   */\n      mstore\n        /* \"#utility.yul\":21961:22092   */\n      tag_488\n        /* \"#utility.yul\":22087:22091   */\n      dup2\n        /* \"#utility.yul\":21961:22092   */\n      tag_275\n      jump\t// in\n    tag_488:\n        /* \"#utility.yul\":21953:22092   */\n      swap1\n      pop\n        /* \"#utility.yul\":21680:22099   */\n      swap2\n      swap1\n      pop\n      jump\t// out\n        /* \"#utility.yul\":22105:22286   */\n    tag_276:\n        /* \"#utility.yul\":22245:22278   */\n      0x6d6178696d756d20616d6f756e74206f6620746f6b656e73206d696e74656400\n        /* \"#utility.yul\":22241:22242   */\n      0x00\n        /* \"#utility.yul\":22233:22239   */\n      dup3\n        /* \"#utility.yul\":22229:22243   */\n      add\n        /* \"#utility.yul\":22222:22279   */\n      mstore\n        /* \"#utility.yul\":22105:22286   */\n      pop\n      jump\t// out\n        /* \"#utility.yul\":22292:22658   */\n    tag_277:\n        /* \"#utility.yul\":22434:22437   */\n      0x00\n        /* \"#utility.yul\":22455:22522   */\n      tag_491\n        /* \"#utility.yul\":22519:22521   */\n      0x1f\n        /* \"#utility.yul\":22514:22517   */\n      dup4\n        /* \"#utility.yul\":22455:22522   */\n      tag_229\n      jump\t// in\n    tag_491:\n        /* \"#utility.yul\":22448:22522   */\n      swap2\n      pop\n        /* \"#utility.yul\":22531:22624   */\n      tag_492\n        /* \"#utility.yul\":22620:22623   */\n      dup3\n        /* \"#utility.yul\":22531:22624   */\n      tag_276\n      jump\t// in\n    tag_492:\n        /* \"#utility.yul\":22649:22651   */\n      0x20\n        /* \"#utility.yul\":22644:22647   */\n      dup3\n        /* \"#utility.yul\":22640:22652   */\n      add\n        /* \"#utility.yul\":22633:22652   */\n      swap1\n      pop\n        /* \"#utility.yul\":22292:22658   */\n      swap2\n      swap1\n      pop\n      jump\t// out\n        /* \"#utility.yul\":22664:23083   */\n    tag_188:\n        /* \"#utility.yul\":22830:22834   */\n      0x00\n        /* \"#utility.yul\":22868:22870   */\n      0x20\n        /* \"#utility.yul\":22857:22866   */\n      dup3\n        /* \"#utility.yul\":22853:22871   */\n      add\n        /* \"#utility.yul\":22845:22871   */\n      swap1\n      pop\n        /* \"#utility.yul\":22917:22926   */\n      dup2\n        /* \"#utility.yul\":22911:22915   */\n      dup2\n        /* \"#utility.yul\":22907:22927   */\n      sub\n        /* \"#utility.yul\":22903:22904   */\n      0x00\n        /* \"#utility.yul\":22892:22901   */\n      dup4\n        /* \"#utility.yul\":22888:22905   */\n      add\n        /* \"#utility.yul\":22881:22928   */\n      mstore\n        /* \"#utility.yul\":22945:23076   */\n      tag_494\n        /* \"#utility.yul\":23071:23075   */\n      dup2\n        /* \"#utility.yul\":22945:23076   */\n      tag_277\n      jump\t// in\n    tag_494:\n        /* \"#utility.yul\":22937:23076   */\n      swap1\n      pop\n        /* \"#utility.yul\":22664:23083   */\n      swap2\n      swap1\n      pop\n      jump\t// out\n        /* \"#utility.yul\":23089:23309   */\n    tag_278:\n        /* \"#utility.yul\":23229:23263   */\n      0x747269656420746f206d696e7420746f20746865207a65726f20616464726573\n        /* \"#utility.yul\":23225:23226   */\n      0x00\n        /* \"#utility.yul\":23217:23223   */\n      dup3\n        /* \"#utility.yul\":23213:23227   */\n      add\n        /* \"#utility.yul\":23206:23264   */\n      mstore\n        /* \"#utility.yul\":23298:23301   */\n      0x7300000000000000000000000000000000000000000000000000000000000000\n        /* \"#utility.yul\":23293:23295   */\n      0x20\n        /* \"#utility.yul\":23285:23291   */\n      dup3\n        /* \"#utility.yul\":23281:23296   */\n      add\n        /* \"#utility.yul\":23274:23302   */\n      mstore\n        /* \"#utility.yul\":23089:23309   */\n      pop\n      jump\t// out\n        /* \"#utility.yul\":23315:23681   */\n    tag_279:\n        /* \"#utility.yul\":23457:23460   */\n      0x00\n        /* \"#utility.yul\":23478:23545   */\n      tag_497\n        /* \"#utility.yul\":23542:23544   */\n      0x21\n        /* \"#utility.yul\":23537:23540   */\n      dup4\n        /* \"#utility.yul\":23478:23545   */\n      tag_229\n      jump\t// in\n    tag_497:\n        /* \"#utility.yul\":23471:23545   */\n      swap2\n      pop\n        /* \"#utility.yul\":23554:23647   */\n      tag_498\n        /* \"#utility.yul\":23643:23646   */\n      dup3\n        /* \"#utility.yul\":23554:23647   */\n      tag_278\n      jump\t// in\n    tag_498:\n        /* \"#utility.yul\":23672:23674   */\n      0x40\n        /* \"#utility.yul\":23667:23670   */\n      dup3\n        /* \"#utility.yul\":23663:23675   */\n      add\n        /* \"#utility.yul\":23656:23675   */\n      swap1\n      pop\n        /* \"#utility.yul\":23315:23681   */\n      swap2\n      swap1\n      pop\n      jump\t// out\n        /* \"#utility.yul\":23687:24106   */\n    tag_191:\n        /* \"#utility.yul\":23853:23857   */\n      0x00\n        /* \"#utility.yul\":23891:23893   */\n      0x20\n        /* \"#utility.yul\":23880:23889   */\n      dup3\n        /* \"#utility.yul\":23876:23894   */\n      add\n        /* \"#utility.yul\":23868:23894   */\n      swap1\n      pop\n        /* \"#utility.yul\":23940:23949   */\n      dup2\n        /* \"#utility.yul\":23934:23938   */\n      dup2\n        /* \"#utility.yul\":23930:23950   */\n      sub\n        /* \"#utility.yul\":23926:23927   */\n      0x00\n        /* \"#utility.yul\":23915:23924   */\n      dup4\n        /* \"#utility.yul\":23911:23928   */\n      add\n        /* \"#utility.yul\":23904:23951   */\n      mstore\n        /* \"#utility.yul\":23968:24099   */\n      tag_500\n        /* \"#utility.yul\":24094:24098   */\n      dup2\n        /* \"#utility.yul\":23968:24099   */\n      tag_279\n      jump\t// in\n    tag_500:\n        /* \"#utility.yul\":23960:24099   */\n      swap1\n      pop\n        /* \"#utility.yul\":23687:24106   */\n      swap2\n      swap1\n      pop\n      jump\t// out\n        /* \"#utility.yul\":24112:24282   */\n    tag_280:\n        /* \"#utility.yul\":24252:24274   */\n      0x746f6b656e20616c726561647920657869737473000000000000000000000000\n        /* \"#utility.yul\":24248:24249   */\n      0x00\n        /* \"#utility.yul\":24240:24246   */\n      dup3\n        /* \"#utility.yul\":24236:24250   */\n      add\n        /* \"#utility.yul\":24229:24275   */\n      mstore\n        /* \"#utility.yul\":24112:24282   */\n      pop\n      jump\t// out\n        /* \"#utility.yul\":24288:24654   */\n    tag_281:\n        /* \"#utility.yul\":24430:24433   */\n      0x00\n        /* \"#utility.yul\":24451:24518   */\n      tag_503\n        /* \"#utility.yul\":24515:24517   */\n      0x14\n        /* \"#utility.yul\":24510:24513   */\n      dup4\n        /* \"#utility.yul\":24451:24518   */\n      tag_229\n      jump\t// in\n    tag_503:\n        /* \"#utility.yul\":24444:24518   */\n      swap2\n      pop\n        /* \"#utility.yul\":24527:24620   */\n      tag_504\n        /* \"#utility.yul\":24616:24619   */\n      dup3\n        /* \"#utility.yul\":24527:24620   */\n      tag_280\n      jump\t// in\n    tag_504:\n        /* \"#utility.yul\":24645:24647   */\n      0x20\n        /* \"#utility.yul\":24640:24643   */\n      dup3\n        /* \"#utility.yul\":24636:24648   */\n      add\n        /* \"#utility.yul\":24629:24648   */\n      swap1\n      pop\n        /* \"#utility.yul\":24288:24654   */\n      swap2\n      swap1\n      pop\n      jump\t// out\n        /* \"#utility.yul\":24660:25079   */\n    tag_195:\n        /* \"#utility.yul\":24826:24830   */\n      0x00\n        /* \"#utility.yul\":24864:24866   */\n      0x20\n        /* \"#utility.yul\":24853:24862   */\n      dup3\n        /* \"#utility.yul\":24849:24867   */\n      add\n        /* \"#utility.yul\":24841:24867   */\n      swap1\n      pop\n        /* \"#utility.yul\":24913:24922   */\n      dup2\n        /* \"#utility.yul\":24907:24911   */\n      dup2\n        /* \"#utility.yul\":24903:24923   */\n      sub\n        /* \"#utility.yul\":24899:24900   */\n      0x00\n        /* \"#utility.yul\":24888:24897   */\n      dup4\n        /* \"#utility.yul\":24884:24901   */\n      add\n        /* \"#utility.yul\":24877:24924   */\n      mstore\n        /* \"#utility.yul\":24941:25072   */\n      tag_506\n        /* \"#utility.yul\":25067:25071   */\n      dup2\n        /* \"#utility.yul\":24941:25072   */\n      tag_281\n      jump\t// in\n    tag_506:\n        /* \"#utility.yul\":24933:25072   */\n      swap1\n      pop\n        /* \"#utility.yul\":24660:25079   */\n      swap2\n      swap1\n      pop\n      jump\t// out\n        /* \"#utility.yul\":25085:25183   */\n    tag_282:\n        /* \"#utility.yul\":25136:25142   */\n      0x00\n        /* \"#utility.yul\":25170:25175   */\n      dup2\n        /* \"#utility.yul\":25164:25176   */\n      mload\n        /* \"#utility.yul\":25154:25176   */\n      swap1\n      pop\n        /* \"#utility.yul\":25085:25183   */\n      swap2\n      swap1\n      pop\n      jump\t// out\n        /* \"#utility.yul\":25189:25357   */\n    tag_283:\n        /* \"#utility.yul\":25272:25283   */\n      0x00\n        /* \"#utility.yul\":25306:25312   */\n      dup3\n        /* \"#utility.yul\":25301:25304   */\n      dup3\n        /* \"#utility.yul\":25294:25313   */\n      mstore\n        /* \"#utility.yul\":25346:25350   */\n      0x20\n        /* \"#utility.yul\":25341:25344   */\n      dup3\n        /* \"#utility.yul\":25337:25351   */\n      add\n        /* \"#utility.yul\":25322:25351   */\n      swap1\n      pop\n        /* \"#utility.yul\":25189:25357   */\n      swap3\n      swap2\n      pop\n      pop\n      jump\t// out\n        /* \"#utility.yul\":25363:25723   */\n    tag_284:\n        /* \"#utility.yul\":25449:25452   */\n      0x00\n        /* \"#utility.yul\":25477:25515   */\n      tag_510\n        /* \"#utility.yul\":25509:25514   */\n      dup3\n        /* \"#utility.yul\":25477:25515   */\n      tag_282\n      jump\t// in\n    tag_510:\n        /* \"#utility.yul\":25531:25601   */\n      tag_511\n        /* \"#utility.yul\":25594:25600   */\n      dup2\n        /* \"#utility.yul\":25589:25592   */\n      dup6\n        /* \"#utility.yul\":25531:25601   */\n      tag_283\n      jump\t// in\n    tag_511:\n        /* \"#utility.yul\":25524:25601   */\n      swap4\n      pop\n        /* \"#utility.yul\":25610:25662   */\n      tag_512\n        /* \"#utility.yul\":25655:25661   */\n      dup2\n        /* \"#utility.yul\":25650:25653   */\n      dup6\n        /* \"#utility.yul\":25643:25647   */\n      0x20\n        /* \"#utility.yul\":25636:25641   */\n      dup7\n        /* \"#utility.yul\":25632:25648   */\n      add\n        /* \"#utility.yul\":25610:25662   */\n      tag_230\n      jump\t// in\n    tag_512:\n        /* \"#utility.yul\":25687:25716   */\n      tag_513\n        /* \"#utility.yul\":25709:25715   */\n      dup2\n        /* \"#utility.yul\":25687:25716   */\n      tag_231\n      jump\t// in\n    tag_513:\n        /* \"#utility.yul\":25682:25685   */\n      dup5\n        /* \"#utility.yul\":25678:25717   */\n      add\n        /* \"#utility.yul\":25671:25717   */\n      swap2\n      pop\n        /* \"#utility.yul\":25453:25723   */\n      pop\n        /* \"#utility.yul\":25363:25723   */\n      swap3\n      swap2\n      pop\n      pop\n      jump\t// out\n        /* \"#utility.yul\":25729:26369   */\n    tag_203:\n        /* \"#utility.yul\":25924:25928   */\n      0x00\n        /* \"#utility.yul\":25962:25965   */\n      0x80\n        /* \"#utility.yul\":25951:25960   */\n      dup3\n        /* \"#utility.yul\":25947:25966   */\n      add\n        /* \"#utility.yul\":25939:25966   */\n      swap1\n      pop\n        /* \"#utility.yul\":25976:26047   */\n      tag_515\n        /* \"#utility.yul\":26044:26045   */\n      0x00\n        /* \"#utility.yul\":26033:26042   */\n      dup4\n        /* \"#utility.yul\":26029:26046   */\n      add\n        /* \"#utility.yul\":26020:26026   */\n      dup8\n        /* \"#utility.yul\":25976:26047   */\n      tag_238\n      jump\t// in\n    tag_515:\n        /* \"#utility.yul\":26057:26129   */\n      tag_516\n        /* \"#utility.yul\":26125:26127   */\n      0x20\n        /* \"#utility.yul\":26114:26123   */\n      dup4\n        /* \"#utility.yul\":26110:26128   */\n      add\n        /* \"#utility.yul\":26101:26107   */\n      dup7\n        /* \"#utility.yul\":26057:26129   */\n      tag_238\n      jump\t// in\n    tag_516:\n        /* \"#utility.yul\":26139:26211   */\n      tag_517\n        /* \"#utility.yul\":26207:26209   */\n      0x40\n        /* \"#utility.yul\":26196:26205   */\n      dup4\n        /* \"#utility.yul\":26192:26210   */\n      add\n        /* \"#utility.yul\":26183:26189   */\n      dup6\n        /* \"#utility.yul\":26139:26211   */\n      tag_241\n      jump\t// in\n    tag_517:\n        /* \"#utility.yul\":26258:26267   */\n      dup2\n        /* \"#utility.yul\":26252:26256   */\n      dup2\n        /* \"#utility.yul\":26248:26268   */\n      sub\n        /* \"#utility.yul\":26243:26245   */\n      0x60\n        /* \"#utility.yul\":26232:26241   */\n      dup4\n        /* \"#utility.yul\":26228:26246   */\n      add\n        /* \"#utility.yul\":26221:26269   */\n      mstore\n        /* \"#utility.yul\":26286:26362   */\n      tag_518\n        /* \"#utility.yul\":26357:26361   */\n      dup2\n        /* \"#utility.yul\":26348:26354   */\n      dup5\n        /* \"#utility.yul\":26286:26362   */\n      tag_284\n      jump\t// in\n    tag_518:\n        /* \"#utility.yul\":26278:26362   */\n      swap1\n      pop\n        /* \"#utility.yul\":25729:26369   */\n      swap6\n      swap5\n      pop\n      pop\n      pop\n      pop\n      pop\n      jump\t// out\n        /* \"#utility.yul\":26375:26516   */\n    tag_285:\n        /* \"#utility.yul\":26431:26436   */\n      0x00\n        /* \"#utility.yul\":26462:26468   */\n      dup2\n        /* \"#utility.yul\":26456:26469   */\n      mload\n        /* \"#utility.yul\":26447:26469   */\n      swap1\n      pop\n        /* \"#utility.yul\":26478:26510   */\n      tag_520\n        /* \"#utility.yul\":26504:26509   */\n      dup2\n        /* \"#utility.yul\":26478:26510   */\n      tag_224\n      jump\t// in\n    tag_520:\n        /* \"#utility.yul\":26375:26516   */\n      swap3\n      swap2\n      pop\n      pop\n      jump\t// out\n        /* \"#utility.yul\":26522:26871   */\n    tag_206:\n        /* \"#utility.yul\":26591:26597   */\n      0x00\n        /* \"#utility.yul\":26640:26642   */\n      0x20\n        /* \"#utility.yul\":26628:26637   */\n      dup3\n        /* \"#utility.yul\":26619:26626   */\n      dup5\n        /* \"#utility.yul\":26615:26638   */\n      sub\n        /* \"#utility.yul\":26611:26643   */\n      slt\n        /* \"#utility.yul\":26608:26727   */\n      iszero\n      tag_522\n      jumpi\n        /* \"#utility.yul\":26646:26725   */\n      tag_523\n      tag_221\n      jump\t// in\n    tag_523:\n        /* \"#utility.yul\":26608:26727   */\n    tag_522:\n        /* \"#utility.yul\":26766:26767   */\n      0x00\n        /* \"#utility.yul\":26791:26854   */\n      tag_524\n        /* \"#utility.yul\":26846:26853   */\n      dup5\n        /* \"#utility.yul\":26837:26843   */\n      dup3\n        /* \"#utility.yul\":26826:26835   */\n      dup6\n        /* \"#utility.yul\":26822:26844   */\n      add\n        /* \"#utility.yul\":26791:26854   */\n      tag_285\n      jump\t// in\n    tag_524:\n        /* \"#utility.yul\":26781:26854   */\n      swap2\n      pop\n        /* \"#utility.yul\":26737:26864   */\n      pop\n        /* \"#utility.yul\":26522:26871   */\n      swap3\n      swap2\n      pop\n      pop\n      jump\t// out\n        /* \"#utility.yul\":26877:27102   */\n    tag_286:\n        /* \"#utility.yul\":27017:27051   */\n      0x636c69656e7420646f6573206e6f7420696d706c656d656e74205a636f705265\n        /* \"#utility.yul\":27013:27014   */\n      0x00\n        /* \"#utility.yul\":27005:27011   */\n      dup3\n        /* \"#utility.yul\":27001:27015   */\n      add\n        /* \"#utility.yul\":26994:27052   */\n      mstore\n        /* \"#utility.yul\":27086:27094   */\n      0x6365697665720000000000000000000000000000000000000000000000000000\n        /* \"#utility.yul\":27081:27083   */\n      0x20\n        /* \"#utility.yul\":27073:27079   */\n      dup3\n        /* \"#utility.yul\":27069:27084   */\n      add\n        /* \"#utility.yul\":27062:27095   */\n      mstore\n        /* \"#utility.yul\":26877:27102   */\n      pop\n      jump\t// out\n        /* \"#utility.yul\":27108:27474   */\n    tag_287:\n        /* \"#utility.yul\":27250:27253   */\n      0x00\n        /* \"#utility.yul\":27271:27338   */\n      tag_527\n        /* \"#utility.yul\":27335:27337   */\n      0x26\n        /* \"#utility.yul\":27330:27333   */\n      dup4\n        /* \"#utility.yul\":27271:27338   */\n      tag_229\n      jump\t// in\n    tag_527:\n        /* \"#utility.yul\":27264:27338   */\n      swap2\n      pop\n        /* \"#utility.yul\":27347:27440   */\n      tag_528\n        /* \"#utility.yul\":27436:27439   */\n      dup3\n        /* \"#utility.yul\":27347:27440   */\n      tag_286\n      jump\t// in\n    tag_528:\n        /* \"#utility.yul\":27465:27467   */\n      0x40\n        /* \"#utility.yul\":27460:27463   */\n      dup3\n        /* \"#utility.yul\":27456:27468   */\n      add\n        /* \"#utility.yul\":27449:27468   */\n      swap1\n      pop\n        /* \"#utility.yul\":27108:27474   */\n      swap2\n      swap1\n      pop\n      jump\t// out\n        /* \"#utility.yul\":27480:27899   */\n    tag_215:\n        /* \"#utility.yul\":27646:27650   */\n      0x00\n        /* \"#utility.yul\":27684:27686   */\n      0x20\n        /* \"#utility.yul\":27673:27682   */\n      dup3\n        /* \"#utility.yul\":27669:27687   */\n      add\n        /* \"#utility.yul\":27661:27687   */\n      swap1\n      pop\n        /* \"#utility.yul\":27733:27742   */\n      dup2\n        /* \"#utility.yul\":27727:27731   */\n      dup2\n        /* \"#utility.yul\":27723:27743   */\n      sub\n        /* \"#utility.yul\":27719:27720   */\n      0x00\n        /* \"#utility.yul\":27708:27717   */\n      dup4\n        /* \"#utility.yul\":27704:27721   */\n      add\n        /* \"#utility.yul\":27697:27744   */\n      mstore\n        /* \"#utility.yul\":27761:27892   */\n      tag_530\n        /* \"#utility.yul\":27887:27891   */\n      dup2\n        /* \"#utility.yul\":27761:27892   */\n      tag_287\n      jump\t// in\n    tag_530:\n        /* \"#utility.yul\":27753:27892   */\n      swap1\n      pop\n        /* \"#utility.yul\":27480:27899   */\n      swap2\n      swap1\n      pop\n      jump\t// out\n    stop\n    data_8c6276903114fde6ac459f8aa351565d598f1d7b0bfa8f496b8e7c89fe01855f 697066733a2f2f6261666b726569636f6b613766626c76346168636b616b7a32667a78666d68343773367a616c337a6b6c6863653635676972616a66787337646a79\n\n    auxdata: 0xa26469706673582212207ba0863f9c25fea2c8d577b320c18b15ee02451e95240e47f385268484e6b21f64736f6c634300080b0033\n}\n",
				"bytecode": {
					"linkReferences": {},
					"object": "608060405234801561001057600080fd5b506000600181905550336000806101000a81548173ffffffffffffffffffffffffffffffffffffffff021916908373ffffffffffffffffffffffffffffffffffffffff1602179055506001600560006301ffc9a760e01b7bffffffffffffffffffffffffffffffffffffffffffffffffffffffff1916815260200190815260200160002060006101000a81548160ff0219169083151502179055506001600560006380ac58cd60e01b7bffffffffffffffffffffffffffffffffffffffffffffffffffffffff1916815260200190815260200160002060006101000a81548160ff021916908315150217905550600160056000635b5e139f60e01b7bffffffffffffffffffffffffffffffffffffffffffffffffffffffff1916815260200190815260200160002060006101000a81548160ff02191690831515021790555061224d8061015e6000396000f3fe608060405234801561001057600080fd5b50600436106100f55760003560e01c80636352211e11610097578063a22cb46511610066578063a22cb46514610284578063b88d4fde146102a0578063c87b56dd146102bc578063e985e9c5146102ec576100f5565b80636352211e146101ea57806370a082311461021a57806395d89b411461024a578063a144819414610268576100f5565b8063095ea7b3116100d3578063095ea7b31461017857806318160ddd1461019457806323b872dd146101b257806342842e0e146101ce576100f5565b806301ffc9a7146100fa57806306fdde031461012a578063081812fc14610148575b600080fd5b610114600480360381019061010f91906113d0565b61031c565b6040516101219190611418565b60405180910390f35b610132610384565b60405161013f91906114cc565b60405180910390f35b610162600480360381019061015d9190611524565b6103c1565b60405161016f9190611592565b60405180910390f35b610192600480360381019061018d91906115d9565b610446565b005b61019c610550565b6040516101a99190611628565b60405180910390f35b6101cc60048036038101906101c79190611643565b610559565b005b6101e860048036038101906101e39190611643565b6105b2565b005b61020460048036038101906101ff9190611524565b6105d2565b6040516102119190611592565b60405180910390f35b610234600480360381019061022f9190611696565b610657565b6040516102419190611628565b60405180910390f35b61025261070f565b60405161025f91906114cc565b60405180910390f35b610282600480360381019061027d91906115d9565b61074c565b005b61029e600480360381019061029991906116ef565b6107e8565b005b6102ba60048036038101906102b59190611864565b610954565b005b6102d660048036038101906102d19190611524565b6109af565b6040516102e391906114cc565b60405180910390f35b610306600480360381019061030191906118e7565b610a19565b6040516103139190611418565b60405180910390f35b600060056000837bffffffffffffffffffffffffffffffffffffffffffffffffffffffff19167bffffffffffffffffffffffffffffffffffffffffffffffffffffffff1916815260200190815260200160002060009054906101000a900460ff169050919050565b60606040518060400160405280600d81526020017f50415254594349504154494f4e00000000000000000000000000000000000000815250905090565b60006103cc82610aad565b61040b576040517f08c379a000000000000000000000000000000000000000000000000000000000815260040161040290611973565b60405180910390fd5b6006600083815260200190815260200160002060009054906101000a900473ffffffffffffffffffffffffffffffffffffffff169050919050565b6000610451826105d2565b90508073ffffffffffffffffffffffffffffffffffffffff168373ffffffffffffffffffffffffffffffffffffffff1614156104c2576040517f08c379a00000000000000000000000000000000000000000000000000000000081526004016104b9906119df565b60405180910390fd5b8073ffffffffffffffffffffffffffffffffffffffff163373ffffffffffffffffffffffffffffffffffffffff16148061050257506105018133610a19565b5b610541576040517f08c379a000000000000000000000000000000000000000000000000000000000815260040161053890611a4b565b60405180910390fd5b61054b8383610b19565b505050565b60006001905090565b6105633382610bd2565b6105a2576040517f08c379a000000000000000000000000000000000000000000000000000000000815260040161059990611ab7565b60405180910390fd5b6105ad838383610cb0565b505050565b6105cd83838360405180602001604052806000815250610954565b505050565b60006105dd82610aad565b61061c576040517f08c379a000000000000000000000000000000000000000000000000000000000815260040161061390611973565b60405180910390fd5b6004600083815260200190815260200160002060009054906101000a900473ffffffffffffffffffffffffffffffffffffffff169050919050565b60008073ffffffffffffffffffffffffffffffffffffffff168273ffffffffffffffffffffffffffffffffffffffff1614156106c8576040517f08c379a00000000000000000000000000000000000000000000000000000000081526004016106bf90611b49565b60405180910390fd5b600260008373ffffffffffffffffffffffffffffffffffffffff1673ffffffffffffffffffffffffffffffffffffffff168152602001908152602001600020549050919050565b60606040518060400160405280600481526020017ff09f8dbe00000000000000000000000000000000000000000000000000000000815250905090565b3373ffffffffffffffffffffffffffffffffffffffff1660008054906101000a900473ffffffffffffffffffffffffffffffffffffffff1673ffffffffffffffffffffffffffffffffffffffff16146107da576040517f08c379a00000000000000000000000000000000000000000000000000000000081526004016107d190611bb5565b60405180910390fd5b6107e48282610f01565b5050565b3373ffffffffffffffffffffffffffffffffffffffff168273ffffffffffffffffffffffffffffffffffffffff161415610857576040517f08c379a000000000000000000000000000000000000000000000000000000000815260040161084e90611c21565b60405180910390fd5b80600360003373ffffffffffffffffffffffffffffffffffffffff1673ffffffffffffffffffffffffffffffffffffffff16815260200190815260200160002060008473ffffffffffffffffffffffffffffffffffffffff1673ffffffffffffffffffffffffffffffffffffffff16815260200190815260200160002060006101000a81548160ff0219169083151502179055508173ffffffffffffffffffffffffffffffffffffffff163373ffffffffffffffffffffffffffffffffffffffff167f17307eab39ab6107e8899845ad3d59bd9653f200f220920489ca2b5937696c31836040516109489190611418565b60405180910390a35050565b61095e3383610bd2565b61099d576040517f08c379a000000000000000000000000000000000000000000000000000000000815260040161099490611ab7565b60405180910390fd5b6109a984848484610f6a565b50505050565b60606109ba82610aad565b6109f9576040517f08c379a00000000000000000000000000000000000000000000000000000000081526004016109f090611973565b60405180910390fd5b6040518060800160405280604281526020016121d6604291399050919050565b6000600360008473ffffffffffffffffffffffffffffffffffffffff1673ffffffffffffffffffffffffffffffffffffffff16815260200190815260200160002060008373ffffffffffffffffffffffffffffffffffffffff1673ffffffffffffffffffffffffffffffffffffffff16815260200190815260200160002060009054906101000a900460ff16905092915050565b60008073ffffffffffffffffffffffffffffffffffffffff166004600084815260200190815260200160002060009054906101000a900473ffffffffffffffffffffffffffffffffffffffff1673ffffffffffffffffffffffffffffffffffffffff1614159050919050565b816006600083815260200190815260200160002060006101000a81548173ffffffffffffffffffffffffffffffffffffffff021916908373ffffffffffffffffffffffffffffffffffffffff160217905550808273ffffffffffffffffffffffffffffffffffffffff16610b8c836105d2565b73ffffffffffffffffffffffffffffffffffffffff167f8c5be1e5ebec7d5bd14f71427d1e84f3dd0314c0f7b2291e5b200ac8c7c3b92560405160405180910390a45050565b6000610bdd82610aad565b610c1c576040517f08c379a0000000000000000000000000000000000000000000000000000000008152600401610c1390611973565b60405180910390fd5b6000610c27836105d2565b90508073ffffffffffffffffffffffffffffffffffffffff168473ffffffffffffffffffffffffffffffffffffffff161480610c9657508373ffffffffffffffffffffffffffffffffffffffff16610c7e846103c1565b73ffffffffffffffffffffffffffffffffffffffff16145b80610ca75750610ca68185610a19565b5b91505092915050565b8273ffffffffffffffffffffffffffffffffffffffff16610cd0826105d2565b73ffffffffffffffffffffffffffffffffffffffff1614610d26576040517f08c379a0000000000000000000000000000000000000000000000000000000008152600401610d1d90611c8d565b60405180910390fd5b600073ffffffffffffffffffffffffffffffffffffffff168273ffffffffffffffffffffffffffffffffffffffff161415610d96576040517f08c379a0000000000000000000000000000000000000000000000000000000008152600401610d8d90611d1f565b60405180910390fd5b610da1600082610b19565b6001600260008573ffffffffffffffffffffffffffffffffffffffff1673ffffffffffffffffffffffffffffffffffffffff1681526020019081526020016000206000828254610df19190611d6e565b925050819055506001600260008473ffffffffffffffffffffffffffffffffffffffff1673ffffffffffffffffffffffffffffffffffffffff1681526020019081526020016000206000828254610e489190611da2565b92505081905550816004600083815260200190815260200160002060006101000a81548173ffffffffffffffffffffffffffffffffffffffff021916908373ffffffffffffffffffffffffffffffffffffffff160217905550808273ffffffffffffffffffffffffffffffffffffffff168473ffffffffffffffffffffffffffffffffffffffff167fddf252ad1be2c89b69c2b068fc378daa952ba7f163c4a11628f55a4df523b3ef60405160405180910390a4505050565b610f0b8282610fc6565b610f2760008383604051806020016040528060008152506111e6565b610f66576040517f08c379a0000000000000000000000000000000000000000000000000000000008152600401610f5d90611e44565b60405180910390fd5b5050565b610f75848484610cb0565b610f81848484846111e6565b610fc0576040517f08c379a0000000000000000000000000000000000000000000000000000000008152600401610fb790611ed6565b60405180910390fd5b50505050565b60018054111561100b576040517f08c379a000000000000000000000000000000000000000000000000000000000815260040161100290611f42565b60405180910390fd5b600073ffffffffffffffffffffffffffffffffffffffff168273ffffffffffffffffffffffffffffffffffffffff16141561107b576040517f08c379a000000000000000000000000000000000000000000000000000000000815260040161107290611fd4565b60405180910390fd5b61108481610aad565b156110c4576040517f08c379a00000000000000000000000000000000000000000000000000000000081526004016110bb90612040565b60405180910390fd5b6001600260008473ffffffffffffffffffffffffffffffffffffffff1673ffffffffffffffffffffffffffffffffffffffff16815260200190815260200160002060008282546111149190611da2565b92505081905550816004600083815260200190815260200160002060006101000a81548173ffffffffffffffffffffffffffffffffffffffff021916908373ffffffffffffffffffffffffffffffffffffffff160217905550600180600082825461117f9190611da2565b92505081905550808273ffffffffffffffffffffffffffffffffffffffff16600073ffffffffffffffffffffffffffffffffffffffff167fddf252ad1be2c89b69c2b068fc378daa952ba7f163c4a11628f55a4df523b3ef60405160405180910390a45050565b60006111f184611351565b15611344578373ffffffffffffffffffffffffffffffffffffffff1663c5115af5338786866040518563ffffffff1660e01b815260040161123594939291906120b5565b6020604051808303816000875af192505050801561127157506040513d601f19601f8201168201806040525081019061126e9190612116565b60015b6112f4573d80600081146112a1576040519150601f19603f3d011682016040523d82523d6000602084013e6112a6565b606091505b506000815114156112ec576040517f08c379a00000000000000000000000000000000000000000000000000000000081526004016112e3906121b5565b60405180910390fd5b805181602001fd5b63c5115af560e01b7bffffffffffffffffffffffffffffffffffffffffffffffffffffffff1916817bffffffffffffffffffffffffffffffffffffffffffffffffffffffff191614915050611349565b600190505b949350505050565b600080823b905060008111915050919050565b6000604051905090565b600080fd5b600080fd5b60007fffffffff0000000000000000000000000000000000000000000000000000000082169050919050565b6113ad81611378565b81146113b857600080fd5b50565b6000813590506113ca816113a4565b92915050565b6000602082840312156113e6576113e561136e565b5b60006113f4848285016113bb565b91505092915050565b60008115159050919050565b611412816113fd565b82525050565b600060208201905061142d6000830184611409565b92915050565b600081519050919050565b600082825260208201905092915050565b60005b8381101561146d578082015181840152602081019050611452565b8381111561147c576000848401525b50505050565b6000601f19601f8301169050919050565b600061149e82611433565b6114a8818561143e565b93506114b881856020860161144f565b6114c181611482565b840191505092915050565b600060208201905081810360008301526114e68184611493565b905092915050565b6000819050919050565b611501816114ee565b811461150c57600080fd5b50565b60008135905061151e816114f8565b92915050565b60006020828403121561153a5761153961136e565b5b60006115488482850161150f565b91505092915050565b600073ffffffffffffffffffffffffffffffffffffffff82169050919050565b600061157c82611551565b9050919050565b61158c81611571565b82525050565b60006020820190506115a76000830184611583565b92915050565b6115b681611571565b81146115c157600080fd5b50565b6000813590506115d3816115ad565b92915050565b600080604083850312156115f0576115ef61136e565b5b60006115fe858286016115c4565b925050602061160f8582860161150f565b9150509250929050565b611622816114ee565b82525050565b600060208201905061163d6000830184611619565b92915050565b60008060006060848603121561165c5761165b61136e565b5b600061166a868287016115c4565b935050602061167b868287016115c4565b925050604061168c8682870161150f565b9150509250925092565b6000602082840312156116ac576116ab61136e565b5b60006116ba848285016115c4565b91505092915050565b6116cc816113fd565b81146116d757600080fd5b50565b6000813590506116e9816116c3565b92915050565b600080604083850312156117065761170561136e565b5b6000611714858286016115c4565b9250506020611725858286016116da565b9150509250929050565b600080fd5b600080fd5b7f4e487b7100000000000000000000000000000000000000000000000000000000600052604160045260246000fd5b61177182611482565b810181811067ffffffffffffffff821117156117905761178f611739565b5b80604052505050565b60006117a3611364565b90506117af8282611768565b919050565b600067ffffffffffffffff8211156117cf576117ce611739565b5b6117d882611482565b9050602081019050919050565b82818337600083830152505050565b6000611807611802846117b4565b611799565b90508281526020810184848401111561182357611822611734565b5b61182e8482856117e5565b509392505050565b600082601f83011261184b5761184a61172f565b5b813561185b8482602086016117f4565b91505092915050565b6000806000806080858703121561187e5761187d61136e565b5b600061188c878288016115c4565b945050602061189d878288016115c4565b93505060406118ae8782880161150f565b925050606085013567ffffffffffffffff8111156118cf576118ce611373565b5b6118db87828801611836565b91505092959194509250565b600080604083850312156118fe576118fd61136e565b5b600061190c858286016115c4565b925050602061191d858286016115c4565b9150509250929050565b7f746f6b656e20646f6573206e6f74206578697374000000000000000000000000600082015250565b600061195d60148361143e565b915061196882611927565b602082019050919050565b6000602082019050818103600083015261198c81611950565b9050919050565b7f617070726f76616c20746f2063757272656e74206f776e657200000000000000600082015250565b60006119c960198361143e565b91506119d482611993565b602082019050919050565b600060208201905081810360008301526119f8816119bc565b9050919050565b7f6e6f74206f776e6572206e6f7220617070726f76656420666f7220616c6c0000600082015250565b6000611a35601e8361143e565b9150611a40826119ff565b602082019050919050565b60006020820190508181036000830152611a6481611a28565b9050919050565b7f6e6f74206f776e6572206e6f7220617070726f76656400000000000000000000600082015250565b6000611aa160168361143e565b9150611aac82611a6b565b602082019050919050565b60006020820190508181036000830152611ad081611a94565b9050919050565b7f717565726965642062616c616e636520666f7220746865207a65726f2061646460008201527f7265737300000000000000000000000000000000000000000000000000000000602082015250565b6000611b3360248361143e565b9150611b3e82611ad7565b604082019050919050565b60006020820190508181036000830152611b6281611b26565b9050919050565b7f63616c6c6572206e6f74206f776e657200000000000000000000000000000000600082015250565b6000611b9f60108361143e565b9150611baa82611b69565b602082019050919050565b60006020820190508181036000830152611bce81611b92565b9050919050565b7f747269656420746f20617070726f76652063616c6c6572000000000000000000600082015250565b6000611c0b60178361143e565b9150611c1682611bd5565b602082019050919050565b60006020820190508181036000830152611c3a81611bfe565b9050919050565b7f6164647265737320646f6573206e6f74206f776e20746f6b656e000000000000600082015250565b6000611c77601a8361143e565b9150611c8282611c41565b602082019050919050565b60006020820190508181036000830152611ca681611c6a565b9050919050565b7f747269656420746f207472616e7366657220746f20746865207a65726f20616460008201527f6472657373000000000000000000000000000000000000000000000000000000602082015250565b6000611d0960258361143e565b9150611d1482611cad565b604082019050919050565b60006020820190508181036000830152611d3881611cfc565b9050919050565b7f4e487b7100000000000000000000000000000000000000000000000000000000600052601160045260246000fd5b6000611d79826114ee565b9150611d84836114ee565b925082821015611d9757611d96611d3f565b5b828203905092915050565b6000611dad826114ee565b9150611db8836114ee565b9250827fffffffffffffffffffffffffffffffffffffffffffffffffffffffffffffffff03821115611ded57611dec611d3f565b5b828201905092915050565b7f646f6573206e6f7420696d706c656d656e74205a636f70526563656976657200600082015250565b6000611e2e601f8361143e565b9150611e3982611df8565b602082019050919050565b60006020820190508181036000830152611e5d81611e21565b9050919050565b7f636c69656e7420646f6573206e6f7420696d706c656d656e745a636f7052656360008201527f6569766572000000000000000000000000000000000000000000000000000000602082015250565b6000611ec060258361143e565b9150611ecb82611e64565b604082019050919050565b60006020820190508181036000830152611eef81611eb3565b9050919050565b7f6d6178696d756d20616d6f756e74206f6620746f6b656e73206d696e74656400600082015250565b6000611f2c601f8361143e565b9150611f3782611ef6565b602082019050919050565b60006020820190508181036000830152611f5b81611f1f565b9050919050565b7f747269656420746f206d696e7420746f20746865207a65726f2061646472657360008201527f7300000000000000000000000000000000000000000000000000000000000000602082015250565b6000611fbe60218361143e565b9150611fc982611f62565b604082019050919050565b60006020820190508181036000830152611fed81611fb1565b9050919050565b7f746f6b656e20616c726561647920657869737473000000000000000000000000600082015250565b600061202a60148361143e565b915061203582611ff4565b602082019050919050565b600060208201905081810360008301526120598161201d565b9050919050565b600081519050919050565b600082825260208201905092915050565b600061208782612060565b612091818561206b565b93506120a181856020860161144f565b6120aa81611482565b840191505092915050565b60006080820190506120ca6000830187611583565b6120d76020830186611583565b6120e46040830185611619565b81810360608301526120f6818461207c565b905095945050505050565b600081519050612110816113a4565b92915050565b60006020828403121561212c5761212b61136e565b5b600061213a84828501612101565b91505092915050565b7f636c69656e7420646f6573206e6f7420696d706c656d656e74205a636f70526560008201527f6365697665720000000000000000000000000000000000000000000000000000602082015250565b600061219f60268361143e565b91506121aa82612143565b604082019050919050565b600060208201905081810360008301526121ce81612192565b905091905056fe697066733a2f2f6261666b726569636f6b613766626c76346168636b616b7a32667a78666d68343773367a616c337a6b6c6863653635676972616a66787337646a79a26469706673582212207ba0863f9c25fea2c8d577b320c18b15ee02451e95240e47f385268484e6b21f64736f6c634300080b0033",
					"opcodes": "PUSH1 0x80 PUSH1 0x40 MSTORE CALLVALUE DUP1 ISZERO PUSH2 0x10 JUMPI PUSH1 0x0 DUP1 REVERT JUMPDEST POP PUSH1 0x0 PUSH1 0x1 DUP2 SWAP1 SSTORE POP CALLER PUSH1 0x0 DUP1 PUSH2 0x100 EXP DUP2 SLOAD DUP2 PUSH20 0xFFFFFFFFFFFFFFFFFFFFFFFFFFFFFFFFFFFFFFFF MUL NOT AND SWAP1 DUP4 PUSH20 0xFFFFFFFFFFFFFFFFFFFFFFFFFFFFFFFFFFFFFFFF AND MUL OR SWAP1 SSTORE POP PUSH1 0x1 PUSH1 0x5 PUSH1 0x0 PUSH4 0x1FFC9A7 PUSH1 0xE0 SHL PUSH28 0xFFFFFFFFFFFFFFFFFFFFFFFFFFFFFFFFFFFFFFFFFFFFFFFFFFFFFFFF NOT AND DUP2 MSTORE PUSH1 0x20 ADD SWAP1 DUP2 MSTORE PUSH1 0x20 ADD PUSH1 0x0 KECCAK256 PUSH1 0x0 PUSH2 0x100 EXP DUP2 SLOAD DUP2 PUSH1 0xFF MUL NOT AND SWAP1 DUP4 ISZERO ISZERO MUL OR SWAP1 SSTORE POP PUSH1 0x1 PUSH1 0x5 PUSH1 0x0 PUSH4 0x80AC58CD PUSH1 0xE0 SHL PUSH28 0xFFFFFFFFFFFFFFFFFFFFFFFFFFFFFFFFFFFFFFFFFFFFFFFFFFFFFFFF NOT AND DUP2 MSTORE PUSH1 0x20 ADD SWAP1 DUP2 MSTORE PUSH1 0x20 ADD PUSH1 0x0 KECCAK256 PUSH1 0x0 PUSH2 0x100 EXP DUP2 SLOAD DUP2 PUSH1 0xFF MUL NOT AND SWAP1 DUP4 ISZERO ISZERO MUL OR SWAP1 SSTORE POP PUSH1 0x1 PUSH1 0x5 PUSH1 0x0 PUSH4 0x5B5E139F PUSH1 0xE0 SHL PUSH28 0xFFFFFFFFFFFFFFFFFFFFFFFFFFFFFFFFFFFFFFFFFFFFFFFFFFFFFFFF NOT AND DUP2 MSTORE PUSH1 0x20 ADD SWAP1 DUP2 MSTORE PUSH1 0x20 ADD PUSH1 0x0 KECCAK256 PUSH1 0x0 PUSH2 0x100 EXP DUP2 SLOAD DUP2 PUSH1 0xFF MUL NOT AND SWAP1 DUP4 ISZERO ISZERO MUL OR SWAP1 SSTORE POP PUSH2 0x224D DUP1 PUSH2 0x15E PUSH1 0x0 CODECOPY PUSH1 0x0 RETURN INVALID PUSH1 0x80 PUSH1 0x40 MSTORE CALLVALUE DUP1 ISZERO PUSH2 0x10 JUMPI PUSH1 0x0 DUP1 REVERT JUMPDEST POP PUSH1 0x4 CALLDATASIZE LT PUSH2 0xF5 JUMPI PUSH1 0x0 CALLDATALOAD PUSH1 0xE0 SHR DUP1 PUSH4 0x6352211E GT PUSH2 0x97 JUMPI DUP1 PUSH4 0xA22CB465 GT PUSH2 0x66 JUMPI DUP1 PUSH4 0xA22CB465 EQ PUSH2 0x284 JUMPI DUP1 PUSH4 0xB88D4FDE EQ PUSH2 0x2A0 JUMPI DUP1 PUSH4 0xC87B56DD EQ PUSH2 0x2BC JUMPI DUP1 PUSH4 0xE985E9C5 EQ PUSH2 0x2EC JUMPI PUSH2 0xF5 JUMP JUMPDEST DUP1 PUSH4 0x6352211E EQ PUSH2 0x1EA JUMPI DUP1 PUSH4 0x70A08231 EQ PUSH2 0x21A JUMPI DUP1 PUSH4 0x95D89B41 EQ PUSH2 0x24A JUMPI DUP1 PUSH4 0xA1448194 EQ PUSH2 0x268 JUMPI PUSH2 0xF5 JUMP JUMPDEST DUP1 PUSH4 0x95EA7B3 GT PUSH2 0xD3 JUMPI DUP1 PUSH4 0x95EA7B3 EQ PUSH2 0x178 JUMPI DUP1 PUSH4 0x18160DDD EQ PUSH2 0x194 JUMPI DUP1 PUSH4 0x23B872DD EQ PUSH2 0x1B2 JUMPI DUP1 PUSH4 0x42842E0E EQ PUSH2 0x1CE JUMPI PUSH2 0xF5 JUMP JUMPDEST DUP1 PUSH4 0x1FFC9A7 EQ PUSH2 0xFA JUMPI DUP1 PUSH4 0x6FDDE03 EQ PUSH2 0x12A JUMPI DUP1 PUSH4 0x81812FC EQ PUSH2 0x148 JUMPI JUMPDEST PUSH1 0x0 DUP1 REVERT JUMPDEST PUSH2 0x114 PUSH1 0x4 DUP1 CALLDATASIZE SUB DUP2 ADD SWAP1 PUSH2 0x10F SWAP2 SWAP1 PUSH2 0x13D0 JUMP JUMPDEST PUSH2 0x31C JUMP JUMPDEST PUSH1 0x40 MLOAD PUSH2 0x121 SWAP2 SWAP1 PUSH2 0x1418 JUMP JUMPDEST PUSH1 0x40 MLOAD DUP1 SWAP2 SUB SWAP1 RETURN JUMPDEST PUSH2 0x132 PUSH2 0x384 JUMP JUMPDEST PUSH1 0x40 MLOAD PUSH2 0x13F SWAP2 SWAP1 PUSH2 0x14CC JUMP JUMPDEST PUSH1 0x40 MLOAD DUP1 SWAP2 SUB SWAP1 RETURN JUMPDEST PUSH2 0x162 PUSH1 0x4 DUP1 CALLDATASIZE SUB DUP2 ADD SWAP1 PUSH2 0x15D SWAP2 SWAP1 PUSH2 0x1524 JUMP JUMPDEST PUSH2 0x3C1 JUMP JUMPDEST PUSH1 0x40 MLOAD PUSH2 0x16F SWAP2 SWAP1 PUSH2 0x1592 JUMP JUMPDEST PUSH1 0x40 MLOAD DUP1 SWAP2 SUB SWAP1 RETURN JUMPDEST PUSH2 0x192 PUSH1 0x4 DUP1 CALLDATASIZE SUB DUP2 ADD SWAP1 PUSH2 0x18D SWAP2 SWAP1 PUSH2 0x15D9 JUMP JUMPDEST PUSH2 0x446 JUMP JUMPDEST STOP JUMPDEST PUSH2 0x19C PUSH2 0x550 JUMP JUMPDEST PUSH1 0x40 MLOAD PUSH2 0x1A9 SWAP2 SWAP1 PUSH2 0x1628 JUMP JUMPDEST PUSH1 0x40 MLOAD DUP1 SWAP2 SUB SWAP1 RETURN JUMPDEST PUSH2 0x1CC PUSH1 0x4 DUP1 CALLDATASIZE SUB DUP2 ADD SWAP1 PUSH2 0x1C7 SWAP2 SWAP1 PUSH2 0x1643 JUMP JUMPDEST PUSH2 0x559 JUMP JUMPDEST STOP JUMPDEST PUSH2 0x1E8 PUSH1 0x4 DUP1 CALLDATASIZE SUB DUP2 ADD SWAP1 PUSH2 0x1E3 SWAP2 SWAP1 PUSH2 0x1643 JUMP JUMPDEST PUSH2 0x5B2 JUMP JUMPDEST STOP JUMPDEST PUSH2 0x204 PUSH1 0x4 DUP1 CALLDATASIZE SUB DUP2 ADD SWAP1 PUSH2 0x1FF SWAP2 SWAP1 PUSH2 0x1524 JUMP JUMPDEST PUSH2 0x5D2 JUMP JUMPDEST PUSH1 0x40 MLOAD PUSH2 0x211 SWAP2 SWAP1 PUSH2 0x1592 JUMP JUMPDEST PUSH1 0x40 MLOAD DUP1 SWAP2 SUB SWAP1 RETURN JUMPDEST PUSH2 0x234 PUSH1 0x4 DUP1 CALLDATASIZE SUB DUP2 ADD SWAP1 PUSH2 0x22F SWAP2 SWAP1 PUSH2 0x1696 JUMP JUMPDEST PUSH2 0x657 JUMP JUMPDEST PUSH1 0x40 MLOAD PUSH2 0x241 SWAP2 SWAP1 PUSH2 0x1628 JUMP JUMPDEST PUSH1 0x40 MLOAD DUP1 SWAP2 SUB SWAP1 RETURN JUMPDEST PUSH2 0x252 PUSH2 0x70F JUMP JUMPDEST PUSH1 0x40 MLOAD PUSH2 0x25F SWAP2 SWAP1 PUSH2 0x14CC JUMP JUMPDEST PUSH1 0x40 MLOAD DUP1 SWAP2 SUB SWAP1 RETURN JUMPDEST PUSH2 0x282 PUSH1 0x4 DUP1 CALLDATASIZE SUB DUP2 ADD SWAP1 PUSH2 0x27D SWAP2 SWAP1 PUSH2 0x15D9 JUMP JUMPDEST PUSH2 0x74C JUMP JUMPDEST STOP JUMPDEST PUSH2 0x29E PUSH1 0x4 DUP1 CALLDATASIZE SUB DUP2 ADD SWAP1 PUSH2 0x299 SWAP2 SWAP1 PUSH2 0x16EF JUMP JUMPDEST PUSH2 0x7E8 JUMP JUMPDEST STOP JUMPDEST PUSH2 0x2BA PUSH1 0x4 DUP1 CALLDATASIZE SUB DUP2 ADD SWAP1 PUSH2 0x2B5 SWAP2 SWAP1 PUSH2 0x1864 JUMP JUMPDEST PUSH2 0x954 JUMP JUMPDEST STOP JUMPDEST PUSH2 0x2D6 PUSH1 0x4 DUP1 CALLDATASIZE SUB DUP2 ADD SWAP1 PUSH2 0x2D1 SWAP2 SWAP1 PUSH2 0x1524 JUMP JUMPDEST PUSH2 0x9AF JUMP JUMPDEST PUSH1 0x40 MLOAD PUSH2 0x2E3 SWAP2 SWAP1 PUSH2 0x14CC JUMP JUMPDEST PUSH1 0x40 MLOAD DUP1 SWAP2 SUB SWAP1 RETURN JUMPDEST PUSH2 0x306 PUSH1 0x4 DUP1 CALLDATASIZE SUB DUP2 ADD SWAP1 PUSH2 0x301 SWAP2 SWAP1 PUSH2 0x18E7 JUMP JUMPDEST PUSH2 0xA19 JUMP JUMPDEST PUSH1 0x40 MLOAD PUSH2 0x313 SWAP2 SWAP1 PUSH2 0x1418 JUMP JUMPDEST PUSH1 0x40 MLOAD DUP1 SWAP2 SUB SWAP1 RETURN JUMPDEST PUSH1 0x0 PUSH1 0x5 PUSH1 0x0 DUP4 PUSH28 0xFFFFFFFFFFFFFFFFFFFFFFFFFFFFFFFFFFFFFFFFFFFFFFFFFFFFFFFF NOT AND PUSH28 0xFFFFFFFFFFFFFFFFFFFFFFFFFFFFFFFFFFFFFFFFFFFFFFFFFFFFFFFF NOT AND DUP2 MSTORE PUSH1 0x20 ADD SWAP1 DUP2 MSTORE PUSH1 0x20 ADD PUSH1 0x0 KECCAK256 PUSH1 0x0 SWAP1 SLOAD SWAP1 PUSH2 0x100 EXP SWAP1 DIV PUSH1 0xFF AND SWAP1 POP SWAP2 SWAP1 POP JUMP JUMPDEST PUSH1 0x60 PUSH1 0x40 MLOAD DUP1 PUSH1 0x40 ADD PUSH1 0x40 MSTORE DUP1 PUSH1 0xD DUP2 MSTORE PUSH1 0x20 ADD PUSH32 0x50415254594349504154494F4E00000000000000000000000000000000000000 DUP2 MSTORE POP SWAP1 POP SWAP1 JUMP JUMPDEST PUSH1 0x0 PUSH2 0x3CC DUP3 PUSH2 0xAAD JUMP JUMPDEST PUSH2 0x40B JUMPI PUSH1 0x40 MLOAD PUSH32 0x8C379A000000000000000000000000000000000000000000000000000000000 DUP2 MSTORE PUSH1 0x4 ADD PUSH2 0x402 SWAP1 PUSH2 0x1973 JUMP JUMPDEST PUSH1 0x40 MLOAD DUP1 SWAP2 SUB SWAP1 REVERT JUMPDEST PUSH1 0x6 PUSH1 0x0 DUP4 DUP2 MSTORE PUSH1 0x20 ADD SWAP1 DUP2 MSTORE PUSH1 0x20 ADD PUSH1 0x0 KECCAK256 PUSH1 0x0 SWAP1 SLOAD SWAP1 PUSH2 0x100 EXP SWAP1 DIV PUSH20 0xFFFFFFFFFFFFFFFFFFFFFFFFFFFFFFFFFFFFFFFF AND SWAP1 POP SWAP2 SWAP1 POP JUMP JUMPDEST PUSH1 0x0 PUSH2 0x451 DUP3 PUSH2 0x5D2 JUMP JUMPDEST SWAP1 POP DUP1 PUSH20 0xFFFFFFFFFFFFFFFFFFFFFFFFFFFFFFFFFFFFFFFF AND DUP4 PUSH20 0xFFFFFFFFFFFFFFFFFFFFFFFFFFFFFFFFFFFFFFFF AND EQ ISZERO PUSH2 0x4C2 JUMPI PUSH1 0x40 MLOAD PUSH32 0x8C379A000000000000000000000000000000000000000000000000000000000 DUP2 MSTORE PUSH1 0x4 ADD PUSH2 0x4B9 SWAP1 PUSH2 0x19DF JUMP JUMPDEST PUSH1 0x40 MLOAD DUP1 SWAP2 SUB SWAP1 REVERT JUMPDEST DUP1 PUSH20 0xFFFFFFFFFFFFFFFFFFFFFFFFFFFFFFFFFFFFFFFF AND CALLER PUSH20 0xFFFFFFFFFFFFFFFFFFFFFFFFFFFFFFFFFFFFFFFF AND EQ DUP1 PUSH2 0x502 JUMPI POP PUSH2 0x501 DUP2 CALLER PUSH2 0xA19 JUMP JUMPDEST JUMPDEST PUSH2 0x541 JUMPI PUSH1 0x40 MLOAD PUSH32 0x8C379A000000000000000000000000000000000000000000000000000000000 DUP2 MSTORE PUSH1 0x4 ADD PUSH2 0x538 SWAP1 PUSH2 0x1A4B JUMP JUMPDEST PUSH1 0x40 MLOAD DUP1 SWAP2 SUB SWAP1 REVERT JUMPDEST PUSH2 0x54B DUP4 DUP4 PUSH2 0xB19 JUMP JUMPDEST POP POP POP JUMP JUMPDEST PUSH1 0x0 PUSH1 0x1 SWAP1 POP SWAP1 JUMP JUMPDEST PUSH2 0x563 CALLER DUP3 PUSH2 0xBD2 JUMP JUMPDEST PUSH2 0x5A2 JUMPI PUSH1 0x40 MLOAD PUSH32 0x8C379A000000000000000000000000000000000000000000000000000000000 DUP2 MSTORE PUSH1 0x4 ADD PUSH2 0x599 SWAP1 PUSH2 0x1AB7 JUMP JUMPDEST PUSH1 0x40 MLOAD DUP1 SWAP2 SUB SWAP1 REVERT JUMPDEST PUSH2 0x5AD DUP4 DUP4 DUP4 PUSH2 0xCB0 JUMP JUMPDEST POP POP POP JUMP JUMPDEST PUSH2 0x5CD DUP4 DUP4 DUP4 PUSH1 0x40 MLOAD DUP1 PUSH1 0x20 ADD PUSH1 0x40 MSTORE DUP1 PUSH1 0x0 DUP2 MSTORE POP PUSH2 0x954 JUMP JUMPDEST POP POP POP JUMP JUMPDEST PUSH1 0x0 PUSH2 0x5DD DUP3 PUSH2 0xAAD JUMP JUMPDEST PUSH2 0x61C JUMPI PUSH1 0x40 MLOAD PUSH32 0x8C379A000000000000000000000000000000000000000000000000000000000 DUP2 MSTORE PUSH1 0x4 ADD PUSH2 0x613 SWAP1 PUSH2 0x1973 JUMP JUMPDEST PUSH1 0x40 MLOAD DUP1 SWAP2 SUB SWAP1 REVERT JUMPDEST PUSH1 0x4 PUSH1 0x0 DUP4 DUP2 MSTORE PUSH1 0x20 ADD SWAP1 DUP2 MSTORE PUSH1 0x20 ADD PUSH1 0x0 KECCAK256 PUSH1 0x0 SWAP1 SLOAD SWAP1 PUSH2 0x100 EXP SWAP1 DIV PUSH20 0xFFFFFFFFFFFFFFFFFFFFFFFFFFFFFFFFFFFFFFFF AND SWAP1 POP SWAP2 SWAP1 POP JUMP JUMPDEST PUSH1 0x0 DUP1 PUSH20 0xFFFFFFFFFFFFFFFFFFFFFFFFFFFFFFFFFFFFFFFF AND DUP3 PUSH20 0xFFFFFFFFFFFFFFFFFFFFFFFFFFFFFFFFFFFFFFFF AND EQ ISZERO PUSH2 0x6C8 JUMPI PUSH1 0x40 MLOAD PUSH32 0x8C379A000000000000000000000000000000000000000000000000000000000 DUP2 MSTORE PUSH1 0x4 ADD PUSH2 0x6BF SWAP1 PUSH2 0x1B49 JUMP JUMPDEST PUSH1 0x40 MLOAD DUP1 SWAP2 SUB SWAP1 REVERT JUMPDEST PUSH1 0x2 PUSH1 0x0 DUP4 PUSH20 0xFFFFFFFFFFFFFFFFFFFFFFFFFFFFFFFFFFFFFFFF AND PUSH20 0xFFFFFFFFFFFFFFFFFFFFFFFFFFFFFFFFFFFFFFFF AND DUP2 MSTORE PUSH1 0x20 ADD SWAP1 DUP2 MSTORE PUSH1 0x20 ADD PUSH1 0x0 KECCAK256 SLOAD SWAP1 POP SWAP2 SWAP1 POP JUMP JUMPDEST PUSH1 0x60 PUSH1 0x40 MLOAD DUP1 PUSH1 0x40 ADD PUSH1 0x40 MSTORE DUP1 PUSH1 0x4 DUP2 MSTORE PUSH1 0x20 ADD PUSH32 0xF09F8DBE00000000000000000000000000000000000000000000000000000000 DUP2 MSTORE POP SWAP1 POP SWAP1 JUMP JUMPDEST CALLER PUSH20 0xFFFFFFFFFFFFFFFFFFFFFFFFFFFFFFFFFFFFFFFF AND PUSH1 0x0 DUP1 SLOAD SWAP1 PUSH2 0x100 EXP SWAP1 DIV PUSH20 0xFFFFFFFFFFFFFFFFFFFFFFFFFFFFFFFFFFFFFFFF AND PUSH20 0xFFFFFFFFFFFFFFFFFFFFFFFFFFFFFFFFFFFFFFFF AND EQ PUSH2 0x7DA JUMPI PUSH1 0x40 MLOAD PUSH32 0x8C379A000000000000000000000000000000000000000000000000000000000 DUP2 MSTORE PUSH1 0x4 ADD PUSH2 0x7D1 SWAP1 PUSH2 0x1BB5 JUMP JUMPDEST PUSH1 0x40 MLOAD DUP1 SWAP2 SUB SWAP1 REVERT JUMPDEST PUSH2 0x7E4 DUP3 DUP3 PUSH2 0xF01 JUMP JUMPDEST POP POP JUMP JUMPDEST CALLER PUSH20 0xFFFFFFFFFFFFFFFFFFFFFFFFFFFFFFFFFFFFFFFF AND DUP3 PUSH20 0xFFFFFFFFFFFFFFFFFFFFFFFFFFFFFFFFFFFFFFFF AND EQ ISZERO PUSH2 0x857 JUMPI PUSH1 0x40 MLOAD PUSH32 0x8C379A000000000000000000000000000000000000000000000000000000000 DUP2 MSTORE PUSH1 0x4 ADD PUSH2 0x84E SWAP1 PUSH2 0x1C21 JUMP JUMPDEST PUSH1 0x40 MLOAD DUP1 SWAP2 SUB SWAP1 REVERT JUMPDEST DUP1 PUSH1 0x3 PUSH1 0x0 CALLER PUSH20 0xFFFFFFFFFFFFFFFFFFFFFFFFFFFFFFFFFFFFFFFF AND PUSH20 0xFFFFFFFFFFFFFFFFFFFFFFFFFFFFFFFFFFFFFFFF AND DUP2 MSTORE PUSH1 0x20 ADD SWAP1 DUP2 MSTORE PUSH1 0x20 ADD PUSH1 0x0 KECCAK256 PUSH1 0x0 DUP5 PUSH20 0xFFFFFFFFFFFFFFFFFFFFFFFFFFFFFFFFFFFFFFFF AND PUSH20 0xFFFFFFFFFFFFFFFFFFFFFFFFFFFFFFFFFFFFFFFF AND DUP2 MSTORE PUSH1 0x20 ADD SWAP1 DUP2 MSTORE PUSH1 0x20 ADD PUSH1 0x0 KECCAK256 PUSH1 0x0 PUSH2 0x100 EXP DUP2 SLOAD DUP2 PUSH1 0xFF MUL NOT AND SWAP1 DUP4 ISZERO ISZERO MUL OR SWAP1 SSTORE POP DUP2 PUSH20 0xFFFFFFFFFFFFFFFFFFFFFFFFFFFFFFFFFFFFFFFF AND CALLER PUSH20 0xFFFFFFFFFFFFFFFFFFFFFFFFFFFFFFFFFFFFFFFF AND PUSH32 0x17307EAB39AB6107E8899845AD3D59BD9653F200F220920489CA2B5937696C31 DUP4 PUSH1 0x40 MLOAD PUSH2 0x948 SWAP2 SWAP1 PUSH2 0x1418 JUMP JUMPDEST PUSH1 0x40 MLOAD DUP1 SWAP2 SUB SWAP1 LOG3 POP POP JUMP JUMPDEST PUSH2 0x95E CALLER DUP4 PUSH2 0xBD2 JUMP JUMPDEST PUSH2 0x99D JUMPI PUSH1 0x40 MLOAD PUSH32 0x8C379A000000000000000000000000000000000000000000000000000000000 DUP2 MSTORE PUSH1 0x4 ADD PUSH2 0x994 SWAP1 PUSH2 0x1AB7 JUMP JUMPDEST PUSH1 0x40 MLOAD DUP1 SWAP2 SUB SWAP1 REVERT JUMPDEST PUSH2 0x9A9 DUP5 DUP5 DUP5 DUP5 PUSH2 0xF6A JUMP JUMPDEST POP POP POP POP JUMP JUMPDEST PUSH1 0x60 PUSH2 0x9BA DUP3 PUSH2 0xAAD JUMP JUMPDEST PUSH2 0x9F9 JUMPI PUSH1 0x40 MLOAD PUSH32 0x8C379A000000000000000000000000000000000000000000000000000000000 DUP2 MSTORE PUSH1 0x4 ADD PUSH2 0x9F0 SWAP1 PUSH2 0x1973 JUMP JUMPDEST PUSH1 0x40 MLOAD DUP1 SWAP2 SUB SWAP1 REVERT JUMPDEST PUSH1 0x40 MLOAD DUP1 PUSH1 0x80 ADD PUSH1 0x40 MSTORE DUP1 PUSH1 0x42 DUP2 MSTORE PUSH1 0x20 ADD PUSH2 0x21D6 PUSH1 0x42 SWAP2 CODECOPY SWAP1 POP SWAP2 SWAP1 POP JUMP JUMPDEST PUSH1 0x0 PUSH1 0x3 PUSH1 0x0 DUP5 PUSH20 0xFFFFFFFFFFFFFFFFFFFFFFFFFFFFFFFFFFFFFFFF AND PUSH20 0xFFFFFFFFFFFFFFFFFFFFFFFFFFFFFFFFFFFFFFFF AND DUP2 MSTORE PUSH1 0x20 ADD SWAP1 DUP2 MSTORE PUSH1 0x20 ADD PUSH1 0x0 KECCAK256 PUSH1 0x0 DUP4 PUSH20 0xFFFFFFFFFFFFFFFFFFFFFFFFFFFFFFFFFFFFFFFF AND PUSH20 0xFFFFFFFFFFFFFFFFFFFFFFFFFFFFFFFFFFFFFFFF AND DUP2 MSTORE PUSH1 0x20 ADD SWAP1 DUP2 MSTORE PUSH1 0x20 ADD PUSH1 0x0 KECCAK256 PUSH1 0x0 SWAP1 SLOAD SWAP1 PUSH2 0x100 EXP SWAP1 DIV PUSH1 0xFF AND SWAP1 POP SWAP3 SWAP2 POP POP JUMP JUMPDEST PUSH1 0x0 DUP1 PUSH20 0xFFFFFFFFFFFFFFFFFFFFFFFFFFFFFFFFFFFFFFFF AND PUSH1 0x4 PUSH1 0x0 DUP5 DUP2 MSTORE PUSH1 0x20 ADD SWAP1 DUP2 MSTORE PUSH1 0x20 ADD PUSH1 0x0 KECCAK256 PUSH1 0x0 SWAP1 SLOAD SWAP1 PUSH2 0x100 EXP SWAP1 DIV PUSH20 0xFFFFFFFFFFFFFFFFFFFFFFFFFFFFFFFFFFFFFFFF AND PUSH20 0xFFFFFFFFFFFFFFFFFFFFFFFFFFFFFFFFFFFFFFFF AND EQ ISZERO SWAP1 POP SWAP2 SWAP1 POP JUMP JUMPDEST DUP2 PUSH1 0x6 PUSH1 0x0 DUP4 DUP2 MSTORE PUSH1 0x20 ADD SWAP1 DUP2 MSTORE PUSH1 0x20 ADD PUSH1 0x0 KECCAK256 PUSH1 0x0 PUSH2 0x100 EXP DUP2 SLOAD DUP2 PUSH20 0xFFFFFFFFFFFFFFFFFFFFFFFFFFFFFFFFFFFFFFFF MUL NOT AND SWAP1 DUP4 PUSH20 0xFFFFFFFFFFFFFFFFFFFFFFFFFFFFFFFFFFFFFFFF AND MUL OR SWAP1 SSTORE POP DUP1 DUP3 PUSH20 0xFFFFFFFFFFFFFFFFFFFFFFFFFFFFFFFFFFFFFFFF AND PUSH2 0xB8C DUP4 PUSH2 0x5D2 JUMP JUMPDEST PUSH20 0xFFFFFFFFFFFFFFFFFFFFFFFFFFFFFFFFFFFFFFFF AND PUSH32 0x8C5BE1E5EBEC7D5BD14F71427D1E84F3DD0314C0F7B2291E5B200AC8C7C3B925 PUSH1 0x40 MLOAD PUSH1 0x40 MLOAD DUP1 SWAP2 SUB SWAP1 LOG4 POP POP JUMP JUMPDEST PUSH1 0x0 PUSH2 0xBDD DUP3 PUSH2 0xAAD JUMP JUMPDEST PUSH2 0xC1C JUMPI PUSH1 0x40 MLOAD PUSH32 0x8C379A000000000000000000000000000000000000000000000000000000000 DUP2 MSTORE PUSH1 0x4 ADD PUSH2 0xC13 SWAP1 PUSH2 0x1973 JUMP JUMPDEST PUSH1 0x40 MLOAD DUP1 SWAP2 SUB SWAP1 REVERT JUMPDEST PUSH1 0x0 PUSH2 0xC27 DUP4 PUSH2 0x5D2 JUMP JUMPDEST SWAP1 POP DUP1 PUSH20 0xFFFFFFFFFFFFFFFFFFFFFFFFFFFFFFFFFFFFFFFF AND DUP5 PUSH20 0xFFFFFFFFFFFFFFFFFFFFFFFFFFFFFFFFFFFFFFFF AND EQ DUP1 PUSH2 0xC96 JUMPI POP DUP4 PUSH20 0xFFFFFFFFFFFFFFFFFFFFFFFFFFFFFFFFFFFFFFFF AND PUSH2 0xC7E DUP5 PUSH2 0x3C1 JUMP JUMPDEST PUSH20 0xFFFFFFFFFFFFFFFFFFFFFFFFFFFFFFFFFFFFFFFF AND EQ JUMPDEST DUP1 PUSH2 0xCA7 JUMPI POP PUSH2 0xCA6 DUP2 DUP6 PUSH2 0xA19 JUMP JUMPDEST JUMPDEST SWAP2 POP POP SWAP3 SWAP2 POP POP JUMP JUMPDEST DUP3 PUSH20 0xFFFFFFFFFFFFFFFFFFFFFFFFFFFFFFFFFFFFFFFF AND PUSH2 0xCD0 DUP3 PUSH2 0x5D2 JUMP JUMPDEST PUSH20 0xFFFFFFFFFFFFFFFFFFFFFFFFFFFFFFFFFFFFFFFF AND EQ PUSH2 0xD26 JUMPI PUSH1 0x40 MLOAD PUSH32 0x8C379A000000000000000000000000000000000000000000000000000000000 DUP2 MSTORE PUSH1 0x4 ADD PUSH2 0xD1D SWAP1 PUSH2 0x1C8D JUMP JUMPDEST PUSH1 0x40 MLOAD DUP1 SWAP2 SUB SWAP1 REVERT JUMPDEST PUSH1 0x0 PUSH20 0xFFFFFFFFFFFFFFFFFFFFFFFFFFFFFFFFFFFFFFFF AND DUP3 PUSH20 0xFFFFFFFFFFFFFFFFFFFFFFFFFFFFFFFFFFFFFFFF AND EQ ISZERO PUSH2 0xD96 JUMPI PUSH1 0x40 MLOAD PUSH32 0x8C379A000000000000000000000000000000000000000000000000000000000 DUP2 MSTORE PUSH1 0x4 ADD PUSH2 0xD8D SWAP1 PUSH2 0x1D1F JUMP JUMPDEST PUSH1 0x40 MLOAD DUP1 SWAP2 SUB SWAP1 REVERT JUMPDEST PUSH2 0xDA1 PUSH1 0x0 DUP3 PUSH2 0xB19 JUMP JUMPDEST PUSH1 0x1 PUSH1 0x2 PUSH1 0x0 DUP6 PUSH20 0xFFFFFFFFFFFFFFFFFFFFFFFFFFFFFFFFFFFFFFFF AND PUSH20 0xFFFFFFFFFFFFFFFFFFFFFFFFFFFFFFFFFFFFFFFF AND DUP2 MSTORE PUSH1 0x20 ADD SWAP1 DUP2 MSTORE PUSH1 0x20 ADD PUSH1 0x0 KECCAK256 PUSH1 0x0 DUP3 DUP3 SLOAD PUSH2 0xDF1 SWAP2 SWAP1 PUSH2 0x1D6E JUMP JUMPDEST SWAP3 POP POP DUP2 SWAP1 SSTORE POP PUSH1 0x1 PUSH1 0x2 PUSH1 0x0 DUP5 PUSH20 0xFFFFFFFFFFFFFFFFFFFFFFFFFFFFFFFFFFFFFFFF AND PUSH20 0xFFFFFFFFFFFFFFFFFFFFFFFFFFFFFFFFFFFFFFFF AND DUP2 MSTORE PUSH1 0x20 ADD SWAP1 DUP2 MSTORE PUSH1 0x20 ADD PUSH1 0x0 KECCAK256 PUSH1 0x0 DUP3 DUP3 SLOAD PUSH2 0xE48 SWAP2 SWAP1 PUSH2 0x1DA2 JUMP JUMPDEST SWAP3 POP POP DUP2 SWAP1 SSTORE POP DUP2 PUSH1 0x4 PUSH1 0x0 DUP4 DUP2 MSTORE PUSH1 0x20 ADD SWAP1 DUP2 MSTORE PUSH1 0x20 ADD PUSH1 0x0 KECCAK256 PUSH1 0x0 PUSH2 0x100 EXP DUP2 SLOAD DUP2 PUSH20 0xFFFFFFFFFFFFFFFFFFFFFFFFFFFFFFFFFFFFFFFF MUL NOT AND SWAP1 DUP4 PUSH20 0xFFFFFFFFFFFFFFFFFFFFFFFFFFFFFFFFFFFFFFFF AND MUL OR SWAP1 SSTORE POP DUP1 DUP3 PUSH20 0xFFFFFFFFFFFFFFFFFFFFFFFFFFFFFFFFFFFFFFFF AND DUP5 PUSH20 0xFFFFFFFFFFFFFFFFFFFFFFFFFFFFFFFFFFFFFFFF AND PUSH32 0xDDF252AD1BE2C89B69C2B068FC378DAA952BA7F163C4A11628F55A4DF523B3EF PUSH1 0x40 MLOAD PUSH1 0x40 MLOAD DUP1 SWAP2 SUB SWAP1 LOG4 POP POP POP JUMP JUMPDEST PUSH2 0xF0B DUP3 DUP3 PUSH2 0xFC6 JUMP JUMPDEST PUSH2 0xF27 PUSH1 0x0 DUP4 DUP4 PUSH1 0x40 MLOAD DUP1 PUSH1 0x20 ADD PUSH1 0x40 MSTORE DUP1 PUSH1 0x0 DUP2 MSTORE POP PUSH2 0x11E6 JUMP JUMPDEST PUSH2 0xF66 JUMPI PUSH1 0x40 MLOAD PUSH32 0x8C379A000000000000000000000000000000000000000000000000000000000 DUP2 MSTORE PUSH1 0x4 ADD PUSH2 0xF5D SWAP1 PUSH2 0x1E44 JUMP JUMPDEST PUSH1 0x40 MLOAD DUP1 SWAP2 SUB SWAP1 REVERT JUMPDEST POP POP JUMP JUMPDEST PUSH2 0xF75 DUP5 DUP5 DUP5 PUSH2 0xCB0 JUMP JUMPDEST PUSH2 0xF81 DUP5 DUP5 DUP5 DUP5 PUSH2 0x11E6 JUMP JUMPDEST PUSH2 0xFC0 JUMPI PUSH1 0x40 MLOAD PUSH32 0x8C379A000000000000000000000000000000000000000000000000000000000 DUP2 MSTORE PUSH1 0x4 ADD PUSH2 0xFB7 SWAP1 PUSH2 0x1ED6 JUMP JUMPDEST PUSH1 0x40 MLOAD DUP1 SWAP2 SUB SWAP1 REVERT JUMPDEST POP POP POP POP JUMP JUMPDEST PUSH1 0x1 DUP1 SLOAD GT ISZERO PUSH2 0x100B JUMPI PUSH1 0x40 MLOAD PUSH32 0x8C379A000000000000000000000000000000000000000000000000000000000 DUP2 MSTORE PUSH1 0x4 ADD PUSH2 0x1002 SWAP1 PUSH2 0x1F42 JUMP JUMPDEST PUSH1 0x40 MLOAD DUP1 SWAP2 SUB SWAP1 REVERT JUMPDEST PUSH1 0x0 PUSH20 0xFFFFFFFFFFFFFFFFFFFFFFFFFFFFFFFFFFFFFFFF AND DUP3 PUSH20 0xFFFFFFFFFFFFFFFFFFFFFFFFFFFFFFFFFFFFFFFF AND EQ ISZERO PUSH2 0x107B JUMPI PUSH1 0x40 MLOAD PUSH32 0x8C379A000000000000000000000000000000000000000000000000000000000 DUP2 MSTORE PUSH1 0x4 ADD PUSH2 0x1072 SWAP1 PUSH2 0x1FD4 JUMP JUMPDEST PUSH1 0x40 MLOAD DUP1 SWAP2 SUB SWAP1 REVERT JUMPDEST PUSH2 0x1084 DUP2 PUSH2 0xAAD JUMP JUMPDEST ISZERO PUSH2 0x10C4 JUMPI PUSH1 0x40 MLOAD PUSH32 0x8C379A000000000000000000000000000000000000000000000000000000000 DUP2 MSTORE PUSH1 0x4 ADD PUSH2 0x10BB SWAP1 PUSH2 0x2040 JUMP JUMPDEST PUSH1 0x40 MLOAD DUP1 SWAP2 SUB SWAP1 REVERT JUMPDEST PUSH1 0x1 PUSH1 0x2 PUSH1 0x0 DUP5 PUSH20 0xFFFFFFFFFFFFFFFFFFFFFFFFFFFFFFFFFFFFFFFF AND PUSH20 0xFFFFFFFFFFFFFFFFFFFFFFFFFFFFFFFFFFFFFFFF AND DUP2 MSTORE PUSH1 0x20 ADD SWAP1 DUP2 MSTORE PUSH1 0x20 ADD PUSH1 0x0 KECCAK256 PUSH1 0x0 DUP3 DUP3 SLOAD PUSH2 0x1114 SWAP2 SWAP1 PUSH2 0x1DA2 JUMP JUMPDEST SWAP3 POP POP DUP2 SWAP1 SSTORE POP DUP2 PUSH1 0x4 PUSH1 0x0 DUP4 DUP2 MSTORE PUSH1 0x20 ADD SWAP1 DUP2 MSTORE PUSH1 0x20 ADD PUSH1 0x0 KECCAK256 PUSH1 0x0 PUSH2 0x100 EXP DUP2 SLOAD DUP2 PUSH20 0xFFFFFFFFFFFFFFFFFFFFFFFFFFFFFFFFFFFFFFFF MUL NOT AND SWAP1 DUP4 PUSH20 0xFFFFFFFFFFFFFFFFFFFFFFFFFFFFFFFFFFFFFFFF AND MUL OR SWAP1 SSTORE POP PUSH1 0x1 DUP1 PUSH1 0x0 DUP3 DUP3 SLOAD PUSH2 0x117F SWAP2 SWAP1 PUSH2 0x1DA2 JUMP JUMPDEST SWAP3 POP POP DUP2 SWAP1 SSTORE POP DUP1 DUP3 PUSH20 0xFFFFFFFFFFFFFFFFFFFFFFFFFFFFFFFFFFFFFFFF AND PUSH1 0x0 PUSH20 0xFFFFFFFFFFFFFFFFFFFFFFFFFFFFFFFFFFFFFFFF AND PUSH32 0xDDF252AD1BE2C89B69C2B068FC378DAA952BA7F163C4A11628F55A4DF523B3EF PUSH1 0x40 MLOAD PUSH1 0x40 MLOAD DUP1 SWAP2 SUB SWAP1 LOG4 POP POP JUMP JUMPDEST PUSH1 0x0 PUSH2 0x11F1 DUP5 PUSH2 0x1351 JUMP JUMPDEST ISZERO PUSH2 0x1344 JUMPI DUP4 PUSH20 0xFFFFFFFFFFFFFFFFFFFFFFFFFFFFFFFFFFFFFFFF AND PUSH4 0xC5115AF5 CALLER DUP8 DUP7 DUP7 PUSH1 0x40 MLOAD DUP6 PUSH4 0xFFFFFFFF AND PUSH1 0xE0 SHL DUP2 MSTORE PUSH1 0x4 ADD PUSH2 0x1235 SWAP5 SWAP4 SWAP3 SWAP2 SWAP1 PUSH2 0x20B5 JUMP JUMPDEST PUSH1 0x20 PUSH1 0x40 MLOAD DUP1 DUP4 SUB DUP2 PUSH1 0x0 DUP8 GAS CALL SWAP3 POP POP POP DUP1 ISZERO PUSH2 0x1271 JUMPI POP PUSH1 0x40 MLOAD RETURNDATASIZE PUSH1 0x1F NOT PUSH1 0x1F DUP3 ADD AND DUP3 ADD DUP1 PUSH1 0x40 MSTORE POP DUP2 ADD SWAP1 PUSH2 0x126E SWAP2 SWAP1 PUSH2 0x2116 JUMP JUMPDEST PUSH1 0x1 JUMPDEST PUSH2 0x12F4 JUMPI RETURNDATASIZE DUP1 PUSH1 0x0 DUP2 EQ PUSH2 0x12A1 JUMPI PUSH1 0x40 MLOAD SWAP2 POP PUSH1 0x1F NOT PUSH1 0x3F RETURNDATASIZE ADD AND DUP3 ADD PUSH1 0x40 MSTORE RETURNDATASIZE DUP3 MSTORE RETURNDATASIZE PUSH1 0x0 PUSH1 0x20 DUP5 ADD RETURNDATACOPY PUSH2 0x12A6 JUMP JUMPDEST PUSH1 0x60 SWAP2 POP JUMPDEST POP PUSH1 0x0 DUP2 MLOAD EQ ISZERO PUSH2 0x12EC JUMPI PUSH1 0x40 MLOAD PUSH32 0x8C379A000000000000000000000000000000000000000000000000000000000 DUP2 MSTORE PUSH1 0x4 ADD PUSH2 0x12E3 SWAP1 PUSH2 0x21B5 JUMP JUMPDEST PUSH1 0x40 MLOAD DUP1 SWAP2 SUB SWAP1 REVERT JUMPDEST DUP1 MLOAD DUP2 PUSH1 0x20 ADD REVERT JUMPDEST PUSH4 0xC5115AF5 PUSH1 0xE0 SHL PUSH28 0xFFFFFFFFFFFFFFFFFFFFFFFFFFFFFFFFFFFFFFFFFFFFFFFFFFFFFFFF NOT AND DUP2 PUSH28 0xFFFFFFFFFFFFFFFFFFFFFFFFFFFFFFFFFFFFFFFFFFFFFFFFFFFFFFFF NOT AND EQ SWAP2 POP POP PUSH2 0x1349 JUMP JUMPDEST PUSH1 0x1 SWAP1 POP JUMPDEST SWAP5 SWAP4 POP POP POP POP JUMP JUMPDEST PUSH1 0x0 DUP1 DUP3 EXTCODESIZE SWAP1 POP PUSH1 0x0 DUP2 GT SWAP2 POP POP SWAP2 SWAP1 POP JUMP JUMPDEST PUSH1 0x0 PUSH1 0x40 MLOAD SWAP1 POP SWAP1 JUMP JUMPDEST PUSH1 0x0 DUP1 REVERT JUMPDEST PUSH1 0x0 DUP1 REVERT JUMPDEST PUSH1 0x0 PUSH32 0xFFFFFFFF00000000000000000000000000000000000000000000000000000000 DUP3 AND SWAP1 POP SWAP2 SWAP1 POP JUMP JUMPDEST PUSH2 0x13AD DUP2 PUSH2 0x1378 JUMP JUMPDEST DUP2 EQ PUSH2 0x13B8 JUMPI PUSH1 0x0 DUP1 REVERT JUMPDEST POP JUMP JUMPDEST PUSH1 0x0 DUP2 CALLDATALOAD SWAP1 POP PUSH2 0x13CA DUP2 PUSH2 0x13A4 JUMP JUMPDEST SWAP3 SWAP2 POP POP JUMP JUMPDEST PUSH1 0x0 PUSH1 0x20 DUP3 DUP5 SUB SLT ISZERO PUSH2 0x13E6 JUMPI PUSH2 0x13E5 PUSH2 0x136E JUMP JUMPDEST JUMPDEST PUSH1 0x0 PUSH2 0x13F4 DUP5 DUP3 DUP6 ADD PUSH2 0x13BB JUMP JUMPDEST SWAP2 POP POP SWAP3 SWAP2 POP POP JUMP JUMPDEST PUSH1 0x0 DUP2 ISZERO ISZERO SWAP1 POP SWAP2 SWAP1 POP JUMP JUMPDEST PUSH2 0x1412 DUP2 PUSH2 0x13FD JUMP JUMPDEST DUP3 MSTORE POP POP JUMP JUMPDEST PUSH1 0x0 PUSH1 0x20 DUP3 ADD SWAP1 POP PUSH2 0x142D PUSH1 0x0 DUP4 ADD DUP5 PUSH2 0x1409 JUMP JUMPDEST SWAP3 SWAP2 POP POP JUMP JUMPDEST PUSH1 0x0 DUP2 MLOAD SWAP1 POP SWAP2 SWAP1 POP JUMP JUMPDEST PUSH1 0x0 DUP3 DUP3 MSTORE PUSH1 0x20 DUP3 ADD SWAP1 POP SWAP3 SWAP2 POP POP JUMP JUMPDEST PUSH1 0x0 JUMPDEST DUP4 DUP2 LT ISZERO PUSH2 0x146D JUMPI DUP1 DUP3 ADD MLOAD DUP2 DUP5 ADD MSTORE PUSH1 0x20 DUP2 ADD SWAP1 POP PUSH2 0x1452 JUMP JUMPDEST DUP4 DUP2 GT ISZERO PUSH2 0x147C JUMPI PUSH1 0x0 DUP5 DUP5 ADD MSTORE JUMPDEST POP POP POP POP JUMP JUMPDEST PUSH1 0x0 PUSH1 0x1F NOT PUSH1 0x1F DUP4 ADD AND SWAP1 POP SWAP2 SWAP1 POP JUMP JUMPDEST PUSH1 0x0 PUSH2 0x149E DUP3 PUSH2 0x1433 JUMP JUMPDEST PUSH2 0x14A8 DUP2 DUP6 PUSH2 0x143E JUMP JUMPDEST SWAP4 POP PUSH2 0x14B8 DUP2 DUP6 PUSH1 0x20 DUP7 ADD PUSH2 0x144F JUMP JUMPDEST PUSH2 0x14C1 DUP2 PUSH2 0x1482 JUMP JUMPDEST DUP5 ADD SWAP2 POP POP SWAP3 SWAP2 POP POP JUMP JUMPDEST PUSH1 0x0 PUSH1 0x20 DUP3 ADD SWAP1 POP DUP2 DUP2 SUB PUSH1 0x0 DUP4 ADD MSTORE PUSH2 0x14E6 DUP2 DUP5 PUSH2 0x1493 JUMP JUMPDEST SWAP1 POP SWAP3 SWAP2 POP POP JUMP JUMPDEST PUSH1 0x0 DUP2 SWAP1 POP SWAP2 SWAP1 POP JUMP JUMPDEST PUSH2 0x1501 DUP2 PUSH2 0x14EE JUMP JUMPDEST DUP2 EQ PUSH2 0x150C JUMPI PUSH1 0x0 DUP1 REVERT JUMPDEST POP JUMP JUMPDEST PUSH1 0x0 DUP2 CALLDATALOAD SWAP1 POP PUSH2 0x151E DUP2 PUSH2 0x14F8 JUMP JUMPDEST SWAP3 SWAP2 POP POP JUMP JUMPDEST PUSH1 0x0 PUSH1 0x20 DUP3 DUP5 SUB SLT ISZERO PUSH2 0x153A JUMPI PUSH2 0x1539 PUSH2 0x136E JUMP JUMPDEST JUMPDEST PUSH1 0x0 PUSH2 0x1548 DUP5 DUP3 DUP6 ADD PUSH2 0x150F JUMP JUMPDEST SWAP2 POP POP SWAP3 SWAP2 POP POP JUMP JUMPDEST PUSH1 0x0 PUSH20 0xFFFFFFFFFFFFFFFFFFFFFFFFFFFFFFFFFFFFFFFF DUP3 AND SWAP1 POP SWAP2 SWAP1 POP JUMP JUMPDEST PUSH1 0x0 PUSH2 0x157C DUP3 PUSH2 0x1551 JUMP JUMPDEST SWAP1 POP SWAP2 SWAP1 POP JUMP JUMPDEST PUSH2 0x158C DUP2 PUSH2 0x1571 JUMP JUMPDEST DUP3 MSTORE POP POP JUMP JUMPDEST PUSH1 0x0 PUSH1 0x20 DUP3 ADD SWAP1 POP PUSH2 0x15A7 PUSH1 0x0 DUP4 ADD DUP5 PUSH2 0x1583 JUMP JUMPDEST SWAP3 SWAP2 POP POP JUMP JUMPDEST PUSH2 0x15B6 DUP2 PUSH2 0x1571 JUMP JUMPDEST DUP2 EQ PUSH2 0x15C1 JUMPI PUSH1 0x0 DUP1 REVERT JUMPDEST POP JUMP JUMPDEST PUSH1 0x0 DUP2 CALLDATALOAD SWAP1 POP PUSH2 0x15D3 DUP2 PUSH2 0x15AD JUMP JUMPDEST SWAP3 SWAP2 POP POP JUMP JUMPDEST PUSH1 0x0 DUP1 PUSH1 0x40 DUP4 DUP6 SUB SLT ISZERO PUSH2 0x15F0 JUMPI PUSH2 0x15EF PUSH2 0x136E JUMP JUMPDEST JUMPDEST PUSH1 0x0 PUSH2 0x15FE DUP6 DUP3 DUP7 ADD PUSH2 0x15C4 JUMP JUMPDEST SWAP3 POP POP PUSH1 0x20 PUSH2 0x160F DUP6 DUP3 DUP7 ADD PUSH2 0x150F JUMP JUMPDEST SWAP2 POP POP SWAP3 POP SWAP3 SWAP1 POP JUMP JUMPDEST PUSH2 0x1622 DUP2 PUSH2 0x14EE JUMP JUMPDEST DUP3 MSTORE POP POP JUMP JUMPDEST PUSH1 0x0 PUSH1 0x20 DUP3 ADD SWAP1 POP PUSH2 0x163D PUSH1 0x0 DUP4 ADD DUP5 PUSH2 0x1619 JUMP JUMPDEST SWAP3 SWAP2 POP POP JUMP JUMPDEST PUSH1 0x0 DUP1 PUSH1 0x0 PUSH1 0x60 DUP5 DUP7 SUB SLT ISZERO PUSH2 0x165C JUMPI PUSH2 0x165B PUSH2 0x136E JUMP JUMPDEST JUMPDEST PUSH1 0x0 PUSH2 0x166A DUP7 DUP3 DUP8 ADD PUSH2 0x15C4 JUMP JUMPDEST SWAP4 POP POP PUSH1 0x20 PUSH2 0x167B DUP7 DUP3 DUP8 ADD PUSH2 0x15C4 JUMP JUMPDEST SWAP3 POP POP PUSH1 0x40 PUSH2 0x168C DUP7 DUP3 DUP8 ADD PUSH2 0x150F JUMP JUMPDEST SWAP2 POP POP SWAP3 POP SWAP3 POP SWAP3 JUMP JUMPDEST PUSH1 0x0 PUSH1 0x20 DUP3 DUP5 SUB SLT ISZERO PUSH2 0x16AC JUMPI PUSH2 0x16AB PUSH2 0x136E JUMP JUMPDEST JUMPDEST PUSH1 0x0 PUSH2 0x16BA DUP5 DUP3 DUP6 ADD PUSH2 0x15C4 JUMP JUMPDEST SWAP2 POP POP SWAP3 SWAP2 POP POP JUMP JUMPDEST PUSH2 0x16CC DUP2 PUSH2 0x13FD JUMP JUMPDEST DUP2 EQ PUSH2 0x16D7 JUMPI PUSH1 0x0 DUP1 REVERT JUMPDEST POP JUMP JUMPDEST PUSH1 0x0 DUP2 CALLDATALOAD SWAP1 POP PUSH2 0x16E9 DUP2 PUSH2 0x16C3 JUMP JUMPDEST SWAP3 SWAP2 POP POP JUMP JUMPDEST PUSH1 0x0 DUP1 PUSH1 0x40 DUP4 DUP6 SUB SLT ISZERO PUSH2 0x1706 JUMPI PUSH2 0x1705 PUSH2 0x136E JUMP JUMPDEST JUMPDEST PUSH1 0x0 PUSH2 0x1714 DUP6 DUP3 DUP7 ADD PUSH2 0x15C4 JUMP JUMPDEST SWAP3 POP POP PUSH1 0x20 PUSH2 0x1725 DUP6 DUP3 DUP7 ADD PUSH2 0x16DA JUMP JUMPDEST SWAP2 POP POP SWAP3 POP SWAP3 SWAP1 POP JUMP JUMPDEST PUSH1 0x0 DUP1 REVERT JUMPDEST PUSH1 0x0 DUP1 REVERT JUMPDEST PUSH32 0x4E487B7100000000000000000000000000000000000000000000000000000000 PUSH1 0x0 MSTORE PUSH1 0x41 PUSH1 0x4 MSTORE PUSH1 0x24 PUSH1 0x0 REVERT JUMPDEST PUSH2 0x1771 DUP3 PUSH2 0x1482 JUMP JUMPDEST DUP2 ADD DUP2 DUP2 LT PUSH8 0xFFFFFFFFFFFFFFFF DUP3 GT OR ISZERO PUSH2 0x1790 JUMPI PUSH2 0x178F PUSH2 0x1739 JUMP JUMPDEST JUMPDEST DUP1 PUSH1 0x40 MSTORE POP POP POP JUMP JUMPDEST PUSH1 0x0 PUSH2 0x17A3 PUSH2 0x1364 JUMP JUMPDEST SWAP1 POP PUSH2 0x17AF DUP3 DUP3 PUSH2 0x1768 JUMP JUMPDEST SWAP2 SWAP1 POP JUMP JUMPDEST PUSH1 0x0 PUSH8 0xFFFFFFFFFFFFFFFF DUP3 GT ISZERO PUSH2 0x17CF JUMPI PUSH2 0x17CE PUSH2 0x1739 JUMP JUMPDEST JUMPDEST PUSH2 0x17D8 DUP3 PUSH2 0x1482 JUMP JUMPDEST SWAP1 POP PUSH1 0x20 DUP2 ADD SWAP1 POP SWAP2 SWAP1 POP JUMP JUMPDEST DUP3 DUP2 DUP4 CALLDATACOPY PUSH1 0x0 DUP4 DUP4 ADD MSTORE POP POP POP JUMP JUMPDEST PUSH1 0x0 PUSH2 0x1807 PUSH2 0x1802 DUP5 PUSH2 0x17B4 JUMP JUMPDEST PUSH2 0x1799 JUMP JUMPDEST SWAP1 POP DUP3 DUP2 MSTORE PUSH1 0x20 DUP2 ADD DUP5 DUP5 DUP5 ADD GT ISZERO PUSH2 0x1823 JUMPI PUSH2 0x1822 PUSH2 0x1734 JUMP JUMPDEST JUMPDEST PUSH2 0x182E DUP5 DUP3 DUP6 PUSH2 0x17E5 JUMP JUMPDEST POP SWAP4 SWAP3 POP POP POP JUMP JUMPDEST PUSH1 0x0 DUP3 PUSH1 0x1F DUP4 ADD SLT PUSH2 0x184B JUMPI PUSH2 0x184A PUSH2 0x172F JUMP JUMPDEST JUMPDEST DUP2 CALLDATALOAD PUSH2 0x185B DUP5 DUP3 PUSH1 0x20 DUP7 ADD PUSH2 0x17F4 JUMP JUMPDEST SWAP2 POP POP SWAP3 SWAP2 POP POP JUMP JUMPDEST PUSH1 0x0 DUP1 PUSH1 0x0 DUP1 PUSH1 0x80 DUP6 DUP8 SUB SLT ISZERO PUSH2 0x187E JUMPI PUSH2 0x187D PUSH2 0x136E JUMP JUMPDEST JUMPDEST PUSH1 0x0 PUSH2 0x188C DUP8 DUP3 DUP9 ADD PUSH2 0x15C4 JUMP JUMPDEST SWAP5 POP POP PUSH1 0x20 PUSH2 0x189D DUP8 DUP3 DUP9 ADD PUSH2 0x15C4 JUMP JUMPDEST SWAP4 POP POP PUSH1 0x40 PUSH2 0x18AE DUP8 DUP3 DUP9 ADD PUSH2 0x150F JUMP JUMPDEST SWAP3 POP POP PUSH1 0x60 DUP6 ADD CALLDATALOAD PUSH8 0xFFFFFFFFFFFFFFFF DUP2 GT ISZERO PUSH2 0x18CF JUMPI PUSH2 0x18CE PUSH2 0x1373 JUMP JUMPDEST JUMPDEST PUSH2 0x18DB DUP8 DUP3 DUP9 ADD PUSH2 0x1836 JUMP JUMPDEST SWAP2 POP POP SWAP3 SWAP6 SWAP2 SWAP5 POP SWAP3 POP JUMP JUMPDEST PUSH1 0x0 DUP1 PUSH1 0x40 DUP4 DUP6 SUB SLT ISZERO PUSH2 0x18FE JUMPI PUSH2 0x18FD PUSH2 0x136E JUMP JUMPDEST JUMPDEST PUSH1 0x0 PUSH2 0x190C DUP6 DUP3 DUP7 ADD PUSH2 0x15C4 JUMP JUMPDEST SWAP3 POP POP PUSH1 0x20 PUSH2 0x191D DUP6 DUP3 DUP7 ADD PUSH2 0x15C4 JUMP JUMPDEST SWAP2 POP POP SWAP3 POP SWAP3 SWAP1 POP JUMP JUMPDEST PUSH32 0x746F6B656E20646F6573206E6F74206578697374000000000000000000000000 PUSH1 0x0 DUP3 ADD MSTORE POP JUMP JUMPDEST PUSH1 0x0 PUSH2 0x195D PUSH1 0x14 DUP4 PUSH2 0x143E JUMP JUMPDEST SWAP2 POP PUSH2 0x1968 DUP3 PUSH2 0x1927 JUMP JUMPDEST PUSH1 0x20 DUP3 ADD SWAP1 POP SWAP2 SWAP1 POP JUMP JUMPDEST PUSH1 0x0 PUSH1 0x20 DUP3 ADD SWAP1 POP DUP2 DUP2 SUB PUSH1 0x0 DUP4 ADD MSTORE PUSH2 0x198C DUP2 PUSH2 0x1950 JUMP JUMPDEST SWAP1 POP SWAP2 SWAP1 POP JUMP JUMPDEST PUSH32 0x617070726F76616C20746F2063757272656E74206F776E657200000000000000 PUSH1 0x0 DUP3 ADD MSTORE POP JUMP JUMPDEST PUSH1 0x0 PUSH2 0x19C9 PUSH1 0x19 DUP4 PUSH2 0x143E JUMP JUMPDEST SWAP2 POP PUSH2 0x19D4 DUP3 PUSH2 0x1993 JUMP JUMPDEST PUSH1 0x20 DUP3 ADD SWAP1 POP SWAP2 SWAP1 POP JUMP JUMPDEST PUSH1 0x0 PUSH1 0x20 DUP3 ADD SWAP1 POP DUP2 DUP2 SUB PUSH1 0x0 DUP4 ADD MSTORE PUSH2 0x19F8 DUP2 PUSH2 0x19BC JUMP JUMPDEST SWAP1 POP SWAP2 SWAP1 POP JUMP JUMPDEST PUSH32 0x6E6F74206F776E6572206E6F7220617070726F76656420666F7220616C6C0000 PUSH1 0x0 DUP3 ADD MSTORE POP JUMP JUMPDEST PUSH1 0x0 PUSH2 0x1A35 PUSH1 0x1E DUP4 PUSH2 0x143E JUMP JUMPDEST SWAP2 POP PUSH2 0x1A40 DUP3 PUSH2 0x19FF JUMP JUMPDEST PUSH1 0x20 DUP3 ADD SWAP1 POP SWAP2 SWAP1 POP JUMP JUMPDEST PUSH1 0x0 PUSH1 0x20 DUP3 ADD SWAP1 POP DUP2 DUP2 SUB PUSH1 0x0 DUP4 ADD MSTORE PUSH2 0x1A64 DUP2 PUSH2 0x1A28 JUMP JUMPDEST SWAP1 POP SWAP2 SWAP1 POP JUMP JUMPDEST PUSH32 0x6E6F74206F776E6572206E6F7220617070726F76656400000000000000000000 PUSH1 0x0 DUP3 ADD MSTORE POP JUMP JUMPDEST PUSH1 0x0 PUSH2 0x1AA1 PUSH1 0x16 DUP4 PUSH2 0x143E JUMP JUMPDEST SWAP2 POP PUSH2 0x1AAC DUP3 PUSH2 0x1A6B JUMP JUMPDEST PUSH1 0x20 DUP3 ADD SWAP1 POP SWAP2 SWAP1 POP JUMP JUMPDEST PUSH1 0x0 PUSH1 0x20 DUP3 ADD SWAP1 POP DUP2 DUP2 SUB PUSH1 0x0 DUP4 ADD MSTORE PUSH2 0x1AD0 DUP2 PUSH2 0x1A94 JUMP JUMPDEST SWAP1 POP SWAP2 SWAP1 POP JUMP JUMPDEST PUSH32 0x717565726965642062616C616E636520666F7220746865207A65726F20616464 PUSH1 0x0 DUP3 ADD MSTORE PUSH32 0x7265737300000000000000000000000000000000000000000000000000000000 PUSH1 0x20 DUP3 ADD MSTORE POP JUMP JUMPDEST PUSH1 0x0 PUSH2 0x1B33 PUSH1 0x24 DUP4 PUSH2 0x143E JUMP JUMPDEST SWAP2 POP PUSH2 0x1B3E DUP3 PUSH2 0x1AD7 JUMP JUMPDEST PUSH1 0x40 DUP3 ADD SWAP1 POP SWAP2 SWAP1 POP JUMP JUMPDEST PUSH1 0x0 PUSH1 0x20 DUP3 ADD SWAP1 POP DUP2 DUP2 SUB PUSH1 0x0 DUP4 ADD MSTORE PUSH2 0x1B62 DUP2 PUSH2 0x1B26 JUMP JUMPDEST SWAP1 POP SWAP2 SWAP1 POP JUMP JUMPDEST PUSH32 0x63616C6C6572206E6F74206F776E657200000000000000000000000000000000 PUSH1 0x0 DUP3 ADD MSTORE POP JUMP JUMPDEST PUSH1 0x0 PUSH2 0x1B9F PUSH1 0x10 DUP4 PUSH2 0x143E JUMP JUMPDEST SWAP2 POP PUSH2 0x1BAA DUP3 PUSH2 0x1B69 JUMP JUMPDEST PUSH1 0x20 DUP3 ADD SWAP1 POP SWAP2 SWAP1 POP JUMP JUMPDEST PUSH1 0x0 PUSH1 0x20 DUP3 ADD SWAP1 POP DUP2 DUP2 SUB PUSH1 0x0 DUP4 ADD MSTORE PUSH2 0x1BCE DUP2 PUSH2 0x1B92 JUMP JUMPDEST SWAP1 POP SWAP2 SWAP1 POP JUMP JUMPDEST PUSH32 0x747269656420746F20617070726F76652063616C6C6572000000000000000000 PUSH1 0x0 DUP3 ADD MSTORE POP JUMP JUMPDEST PUSH1 0x0 PUSH2 0x1C0B PUSH1 0x17 DUP4 PUSH2 0x143E JUMP JUMPDEST SWAP2 POP PUSH2 0x1C16 DUP3 PUSH2 0x1BD5 JUMP JUMPDEST PUSH1 0x20 DUP3 ADD SWAP1 POP SWAP2 SWAP1 POP JUMP JUMPDEST PUSH1 0x0 PUSH1 0x20 DUP3 ADD SWAP1 POP DUP2 DUP2 SUB PUSH1 0x0 DUP4 ADD MSTORE PUSH2 0x1C3A DUP2 PUSH2 0x1BFE JUMP JUMPDEST SWAP1 POP SWAP2 SWAP1 POP JUMP JUMPDEST PUSH32 0x6164647265737320646F6573206E6F74206F776E20746F6B656E000000000000 PUSH1 0x0 DUP3 ADD MSTORE POP JUMP JUMPDEST PUSH1 0x0 PUSH2 0x1C77 PUSH1 0x1A DUP4 PUSH2 0x143E JUMP JUMPDEST SWAP2 POP PUSH2 0x1C82 DUP3 PUSH2 0x1C41 JUMP JUMPDEST PUSH1 0x20 DUP3 ADD SWAP1 POP SWAP2 SWAP1 POP JUMP JUMPDEST PUSH1 0x0 PUSH1 0x20 DUP3 ADD SWAP1 POP DUP2 DUP2 SUB PUSH1 0x0 DUP4 ADD MSTORE PUSH2 0x1CA6 DUP2 PUSH2 0x1C6A JUMP JUMPDEST SWAP1 POP SWAP2 SWAP1 POP JUMP JUMPDEST PUSH32 0x747269656420746F207472616E7366657220746F20746865207A65726F206164 PUSH1 0x0 DUP3 ADD MSTORE PUSH32 0x6472657373000000000000000000000000000000000000000000000000000000 PUSH1 0x20 DUP3 ADD MSTORE POP JUMP JUMPDEST PUSH1 0x0 PUSH2 0x1D09 PUSH1 0x25 DUP4 PUSH2 0x143E JUMP JUMPDEST SWAP2 POP PUSH2 0x1D14 DUP3 PUSH2 0x1CAD JUMP JUMPDEST PUSH1 0x40 DUP3 ADD SWAP1 POP SWAP2 SWAP1 POP JUMP JUMPDEST PUSH1 0x0 PUSH1 0x20 DUP3 ADD SWAP1 POP DUP2 DUP2 SUB PUSH1 0x0 DUP4 ADD MSTORE PUSH2 0x1D38 DUP2 PUSH2 0x1CFC JUMP JUMPDEST SWAP1 POP SWAP2 SWAP1 POP JUMP JUMPDEST PUSH32 0x4E487B7100000000000000000000000000000000000000000000000000000000 PUSH1 0x0 MSTORE PUSH1 0x11 PUSH1 0x4 MSTORE PUSH1 0x24 PUSH1 0x0 REVERT JUMPDEST PUSH1 0x0 PUSH2 0x1D79 DUP3 PUSH2 0x14EE JUMP JUMPDEST SWAP2 POP PUSH2 0x1D84 DUP4 PUSH2 0x14EE JUMP JUMPDEST SWAP3 POP DUP3 DUP3 LT ISZERO PUSH2 0x1D97 JUMPI PUSH2 0x1D96 PUSH2 0x1D3F JUMP JUMPDEST JUMPDEST DUP3 DUP3 SUB SWAP1 POP SWAP3 SWAP2 POP POP JUMP JUMPDEST PUSH1 0x0 PUSH2 0x1DAD DUP3 PUSH2 0x14EE JUMP JUMPDEST SWAP2 POP PUSH2 0x1DB8 DUP4 PUSH2 0x14EE JUMP JUMPDEST SWAP3 POP DUP3 PUSH32 0xFFFFFFFFFFFFFFFFFFFFFFFFFFFFFFFFFFFFFFFFFFFFFFFFFFFFFFFFFFFFFFFF SUB DUP3 GT ISZERO PUSH2 0x1DED JUMPI PUSH2 0x1DEC PUSH2 0x1D3F JUMP JUMPDEST JUMPDEST DUP3 DUP3 ADD SWAP1 POP SWAP3 SWAP2 POP POP JUMP JUMPDEST PUSH32 0x646F6573206E6F7420696D706C656D656E74205A636F70526563656976657200 PUSH1 0x0 DUP3 ADD MSTORE POP JUMP JUMPDEST PUSH1 0x0 PUSH2 0x1E2E PUSH1 0x1F DUP4 PUSH2 0x143E JUMP JUMPDEST SWAP2 POP PUSH2 0x1E39 DUP3 PUSH2 0x1DF8 JUMP JUMPDEST PUSH1 0x20 DUP3 ADD SWAP1 POP SWAP2 SWAP1 POP JUMP JUMPDEST PUSH1 0x0 PUSH1 0x20 DUP3 ADD SWAP1 POP DUP2 DUP2 SUB PUSH1 0x0 DUP4 ADD MSTORE PUSH2 0x1E5D DUP2 PUSH2 0x1E21 JUMP JUMPDEST SWAP1 POP SWAP2 SWAP1 POP JUMP JUMPDEST PUSH32 0x636C69656E7420646F6573206E6F7420696D706C656D656E745A636F70526563 PUSH1 0x0 DUP3 ADD MSTORE PUSH32 0x6569766572000000000000000000000000000000000000000000000000000000 PUSH1 0x20 DUP3 ADD MSTORE POP JUMP JUMPDEST PUSH1 0x0 PUSH2 0x1EC0 PUSH1 0x25 DUP4 PUSH2 0x143E JUMP JUMPDEST SWAP2 POP PUSH2 0x1ECB DUP3 PUSH2 0x1E64 JUMP JUMPDEST PUSH1 0x40 DUP3 ADD SWAP1 POP SWAP2 SWAP1 POP JUMP JUMPDEST PUSH1 0x0 PUSH1 0x20 DUP3 ADD SWAP1 POP DUP2 DUP2 SUB PUSH1 0x0 DUP4 ADD MSTORE PUSH2 0x1EEF DUP2 PUSH2 0x1EB3 JUMP JUMPDEST SWAP1 POP SWAP2 SWAP1 POP JUMP JUMPDEST PUSH32 0x6D6178696D756D20616D6F756E74206F6620746F6B656E73206D696E74656400 PUSH1 0x0 DUP3 ADD MSTORE POP JUMP JUMPDEST PUSH1 0x0 PUSH2 0x1F2C PUSH1 0x1F DUP4 PUSH2 0x143E JUMP JUMPDEST SWAP2 POP PUSH2 0x1F37 DUP3 PUSH2 0x1EF6 JUMP JUMPDEST PUSH1 0x20 DUP3 ADD SWAP1 POP SWAP2 SWAP1 POP JUMP JUMPDEST PUSH1 0x0 PUSH1 0x20 DUP3 ADD SWAP1 POP DUP2 DUP2 SUB PUSH1 0x0 DUP4 ADD MSTORE PUSH2 0x1F5B DUP2 PUSH2 0x1F1F JUMP JUMPDEST SWAP1 POP SWAP2 SWAP1 POP JUMP JUMPDEST PUSH32 0x747269656420746F206D696E7420746F20746865207A65726F20616464726573 PUSH1 0x0 DUP3 ADD MSTORE PUSH32 0x7300000000000000000000000000000000000000000000000000000000000000 PUSH1 0x20 DUP3 ADD MSTORE POP JUMP JUMPDEST PUSH1 0x0 PUSH2 0x1FBE PUSH1 0x21 DUP4 PUSH2 0x143E JUMP JUMPDEST SWAP2 POP PUSH2 0x1FC9 DUP3 PUSH2 0x1F62 JUMP JUMPDEST PUSH1 0x40 DUP3 ADD SWAP1 POP SWAP2 SWAP1 POP JUMP JUMPDEST PUSH1 0x0 PUSH1 0x20 DUP3 ADD SWAP1 POP DUP2 DUP2 SUB PUSH1 0x0 DUP4 ADD MSTORE PUSH2 0x1FED DUP2 PUSH2 0x1FB1 JUMP JUMPDEST SWAP1 POP SWAP2 SWAP1 POP JUMP JUMPDEST PUSH32 0x746F6B656E20616C726561647920657869737473000000000000000000000000 PUSH1 0x0 DUP3 ADD MSTORE POP JUMP JUMPDEST PUSH1 0x0 PUSH2 0x202A PUSH1 0x14 DUP4 PUSH2 0x143E JUMP JUMPDEST SWAP2 POP PUSH2 0x2035 DUP3 PUSH2 0x1FF4 JUMP JUMPDEST PUSH1 0x20 DUP3 ADD SWAP1 POP SWAP2 SWAP1 POP JUMP JUMPDEST PUSH1 0x0 PUSH1 0x20 DUP3 ADD SWAP1 POP DUP2 DUP2 SUB PUSH1 0x0 DUP4 ADD MSTORE PUSH2 0x2059 DUP2 PUSH2 0x201D JUMP JUMPDEST SWAP1 POP SWAP2 SWAP1 POP JUMP JUMPDEST PUSH1 0x0 DUP2 MLOAD SWAP1 POP SWAP2 SWAP1 POP JUMP JUMPDEST PUSH1 0x0 DUP3 DUP3 MSTORE PUSH1 0x20 DUP3 ADD SWAP1 POP SWAP3 SWAP2 POP POP JUMP JUMPDEST PUSH1 0x0 PUSH2 0x2087 DUP3 PUSH2 0x2060 JUMP JUMPDEST PUSH2 0x2091 DUP2 DUP6 PUSH2 0x206B JUMP JUMPDEST SWAP4 POP PUSH2 0x20A1 DUP2 DUP6 PUSH1 0x20 DUP7 ADD PUSH2 0x144F JUMP JUMPDEST PUSH2 0x20AA DUP2 PUSH2 0x1482 JUMP JUMPDEST DUP5 ADD SWAP2 POP POP SWAP3 SWAP2 POP POP JUMP JUMPDEST PUSH1 0x0 PUSH1 0x80 DUP3 ADD SWAP1 POP PUSH2 0x20CA PUSH1 0x0 DUP4 ADD DUP8 PUSH2 0x1583 JUMP JUMPDEST PUSH2 0x20D7 PUSH1 0x20 DUP4 ADD DUP7 PUSH2 0x1583 JUMP JUMPDEST PUSH2 0x20E4 PUSH1 0x40 DUP4 ADD DUP6 PUSH2 0x1619 JUMP JUMPDEST DUP2 DUP2 SUB PUSH1 0x60 DUP4 ADD MSTORE PUSH2 0x20F6 DUP2 DUP5 PUSH2 0x207C JUMP JUMPDEST SWAP1 POP SWAP6 SWAP5 POP POP POP POP POP JUMP JUMPDEST PUSH1 0x0 DUP2 MLOAD SWAP1 POP PUSH2 0x2110 DUP2 PUSH2 0x13A4 JUMP JUMPDEST SWAP3 SWAP2 POP POP JUMP JUMPDEST PUSH1 0x0 PUSH1 0x20 DUP3 DUP5 SUB SLT ISZERO PUSH2 0x212C JUMPI PUSH2 0x212B PUSH2 0x136E JUMP JUMPDEST JUMPDEST PUSH1 0x0 PUSH2 0x213A DUP5 DUP3 DUP6 ADD PUSH2 0x2101 JUMP JUMPDEST SWAP2 POP POP SWAP3 SWAP2 POP POP JUMP JUMPDEST PUSH32 0x636C69656E7420646F6573206E6F7420696D706C656D656E74205A636F705265 PUSH1 0x0 DUP3 ADD MSTORE PUSH32 0x6365697665720000000000000000000000000000000000000000000000000000 PUSH1 0x20 DUP3 ADD MSTORE POP JUMP JUMPDEST PUSH1 0x0 PUSH2 0x219F PUSH1 0x26 DUP4 PUSH2 0x143E JUMP JUMPDEST SWAP2 POP PUSH2 0x21AA DUP3 PUSH2 0x2143 JUMP JUMPDEST PUSH1 0x40 DUP3 ADD SWAP1 POP SWAP2 SWAP1 POP JUMP JUMPDEST PUSH1 0x0 PUSH1 0x20 DUP3 ADD SWAP1 POP DUP2 DUP2 SUB PUSH1 0x0 DUP4 ADD MSTORE PUSH2 0x21CE DUP2 PUSH2 0x2192 JUMP JUMPDEST SWAP1 POP SWAP2 SWAP1 POP JUMP INVALID PUSH10 0x7066733A2F2F6261666B PUSH19 0x6569636F6B613766626C76346168636B616B7A ORIGIN PUSH7 0x7A78666D683437 PUSH20 0x367A616C337A6B6C6863653635676972616A6678 PUSH20 0x37646A79A26469706673582212207BA0863F9C25 INVALID LOG2 0xC8 0xD5 PUSH24 0xB320C18B15EE02451E95240E47F385268484E6B21F64736F PUSH13 0x634300080B0033000000000000 "
				},
				"gasEstimates": {
					"creation": {
						"codeDepositCost": "1756200",
						"executionCost": "104208",
						"totalCost": "1860408"
					},
					"external": {
						"approve(address,uint256)": "infinite",
						"balanceOf(address)": "2924",
						"getApproved(uint256)": "5228",
						"isApprovedForAll(address,address)": "infinite",
						"name()": "infinite",
						"ownerOf(uint256)": "5183",
						"safeMint(address,uint256)": "infinite",
						"safeTransferFrom(address,address,uint256)": "infinite",
						"safeTransferFrom(address,address,uint256,bytes)": "infinite",
						"setApprovalForAll(address,bool)": "infinite",
						"supportsInterface(bytes4)": "2870",
						"symbol()": "infinite",
						"tokenURI(uint256)": "infinite",
						"totalSupply()": "382",
						"transferFrom(address,address,uint256)": "infinite"
					},
					"internal": {
						"_approve(address,uint256)": "infinite",
						"_checkOnZcopReceived(address,address,uint256,bytes memory)": "infinite",
						"_isApprovedOrOwner(address,uint256)": "infinite",
						"_isContract(address)": "2647",
						"_mint(address,uint256)": "infinite",
						"_safeMint(address,uint256)": "infinite",
						"_safeTransfer(address,address,uint256,bytes memory)": "infinite",
						"_tokenExists(uint256)": "2269",
						"_transfer(address,address,uint256)": "infinite"
					}
				},
				"methodIdentifiers": {
					"approve(address,uint256)": "095ea7b3",
					"balanceOf(address)": "70a08231",
					"getApproved(uint256)": "081812fc",
					"isApprovedForAll(address,address)": "e985e9c5",
					"name()": "06fdde03",
					"ownerOf(uint256)": "6352211e",
					"safeMint(address,uint256)": "a1448194",
					"safeTransferFrom(address,address,uint256)": "42842e0e",
					"safeTransferFrom(address,address,uint256,bytes)": "b88d4fde",
					"setApprovalForAll(address,bool)": "a22cb465",
					"supportsInterface(bytes4)": "01ffc9a7",
					"symbol()": "95d89b41",
					"tokenURI(uint256)": "c87b56dd",
					"totalSupply()": "18160ddd",
					"transferFrom(address,address,uint256)": "23b872dd"
				}
			},
			"storageLayout": {
				"storage": [
					{
						"astId": 23,
						"contract": "contracts/Crypto.sol:PARTYCIPATION",
						"label": "_owner",
						"offset": 0,
						"slot": "0",
						"type": "t_address"
					},
					{
						"astId": 28,
						"contract": "contracts/Crypto.sol:PARTYCIPATION",
						"label": "_minted",
						"offset": 0,
						"slot": "1",
						"type": "t_uint256"
					},
					{
						"astId": 56,
						"contract": "contracts/Crypto.sol:PARTYCIPATION",
						"label": "_balances",
						"offset": 0,
						"slot": "2",
						"type": "t_mapping(t_address,t_uint256)"
					},
					{
						"astId": 62,
						"contract": "contracts/Crypto.sol:PARTYCIPATION",
						"label": "_operatorApprovals",
						"offset": 0,
						"slot": "3",
						"type": "t_mapping(t_address,t_mapping(t_address,t_bool))"
					},
					{
						"astId": 66,
						"contract": "contracts/Crypto.sol:PARTYCIPATION",
						"label": "_owners",
						"offset": 0,
						"slot": "4",
						"type": "t_mapping(t_uint256,t_address)"
					},
					{
						"astId": 70,
						"contract": "contracts/Crypto.sol:PARTYCIPATION",
						"label": "_supportedInterfaces",
						"offset": 0,
						"slot": "5",
						"type": "t_mapping(t_bytes4,t_bool)"
					},
					{
						"astId": 74,
						"contract": "contracts/Crypto.sol:PARTYCIPATION",
						"label": "_tokenApprovals",
						"offset": 0,
						"slot": "6",
						"type": "t_mapping(t_uint256,t_address)"
					}
				],
				"types": {
					"t_address": {
						"encoding": "inplace",
						"label": "address",
						"numberOfBytes": "20"
					},
					"t_bool": {
						"encoding": "inplace",
						"label": "bool",
						"numberOfBytes": "1"
					},
					"t_bytes4": {
						"encoding": "inplace",
						"label": "bytes4",
						"numberOfBytes": "4"
					},
					"t_mapping(t_address,t_bool)": {
						"encoding": "mapping",
						"key": "t_address",
						"label": "mapping(address => bool)",
						"numberOfBytes": "32",
						"value": "t_bool"
					},
					"t_mapping(t_address,t_mapping(t_address,t_bool))": {
						"encoding": "mapping",
						"key": "t_address",
						"label": "mapping(address => mapping(address => bool))",
						"numberOfBytes": "32",
						"value": "t_mapping(t_address,t_bool)"
					},
					"t_mapping(t_address,t_uint256)": {
						"encoding": "mapping",
						"key": "t_address",
						"label": "mapping(address => uint256)",
						"numberOfBytes": "32",
						"value": "t_uint256"
					},
					"t_mapping(t_bytes4,t_bool)": {
						"encoding": "mapping",
						"key": "t_bytes4",
						"label": "mapping(bytes4 => bool)",
						"numberOfBytes": "32",
						"value": "t_bool"
					},
					"t_mapping(t_uint256,t_address)": {
						"encoding": "mapping",
						"key": "t_uint256",
						"label": "mapping(uint256 => address)",
						"numberOfBytes": "32",
						"value": "t_address"
					},
					"t_uint256": {
						"encoding": "inplace",
						"label": "uint256",
						"numberOfBytes": "32"
					}
				}
			},
			"userdoc": {
				"kind": "user",
				"methods": {},
				"version": 1
			}
		}
	}
}