{
	"contracts/Solid.sol": {
		"AnyswapV6ERC20": {
			"abi": [
				{
					"inputs": [
						{
							"internalType": "string",
							"name": "_name",
							"type": "string"
						},
						{
							"internalType": "string",
							"name": "_symbol",
							"type": "string"
						},
						{
							"internalType": "uint8",
							"name": "_decimals",
							"type": "uint8"
						},
						{
							"internalType": "address",
							"name": "_vault",
							"type": "address"
						}
					],
					"stateMutability": "nonpayable",
					"type": "constructor"
				},
				{
					"anonymous": false,
					"inputs": [
						{
							"indexed": true,
							"internalType": "address",
							"name": "owner",
							"type": "address"
						},
						{
							"indexed": true,
							"internalType": "address",
							"name": "spender",
							"type": "address"
						},
						{
							"indexed": false,
							"internalType": "uint256",
							"name": "value",
							"type": "uint256"
						}
					],
					"name": "Approval",
					"type": "event"
				},
				{
					"anonymous": false,
					"inputs": [
						{
							"indexed": true,
							"internalType": "address",
							"name": "from",
							"type": "address"
						},
						{
							"indexed": true,
							"internalType": "address",
							"name": "to",
							"type": "address"
						},
						{
							"indexed": false,
							"internalType": "uint256",
							"name": "value",
							"type": "uint256"
						}
					],
					"name": "Transfer",
					"type": "event"
				},
				{
					"inputs": [],
					"name": "DOMAIN_SEPARATOR",
					"outputs": [
						{
							"internalType": "bytes32",
							"name": "",
							"type": "bytes32"
						}
					],
					"stateMutability": "view",
					"type": "function"
				},
				{
					"inputs": [],
					"name": "PERMIT_TYPEHASH",
					"outputs": [
						{
							"internalType": "bytes32",
							"name": "",
							"type": "bytes32"
						}
					],
					"stateMutability": "view",
					"type": "function"
				},
				{
					"inputs": [],
					"name": "TRANSFER_TYPEHASH",
					"outputs": [
						{
							"internalType": "bytes32",
							"name": "",
							"type": "bytes32"
						}
					],
					"stateMutability": "view",
					"type": "function"
				},
				{
					"inputs": [
						{
							"internalType": "address",
							"name": "",
							"type": "address"
						},
						{
							"internalType": "address",
							"name": "",
							"type": "address"
						}
					],
					"name": "allowance",
					"outputs": [
						{
							"internalType": "uint256",
							"name": "",
							"type": "uint256"
						}
					],
					"stateMutability": "view",
					"type": "function"
				},
				{
					"inputs": [],
					"name": "applyMinter",
					"outputs": [],
					"stateMutability": "nonpayable",
					"type": "function"
				},
				{
					"inputs": [],
					"name": "applyVault",
					"outputs": [],
					"stateMutability": "nonpayable",
					"type": "function"
				},
				{
					"inputs": [
						{
							"internalType": "address",
							"name": "spender",
							"type": "address"
						},
						{
							"internalType": "uint256",
							"name": "value",
							"type": "uint256"
						}
					],
					"name": "approve",
					"outputs": [
						{
							"internalType": "bool",
							"name": "",
							"type": "bool"
						}
					],
					"stateMutability": "nonpayable",
					"type": "function"
				},
				{
					"inputs": [
						{
							"internalType": "address",
							"name": "spender",
							"type": "address"
						},
						{
							"internalType": "uint256",
							"name": "value",
							"type": "uint256"
						},
						{
							"internalType": "bytes",
							"name": "data",
							"type": "bytes"
						}
					],
					"name": "approveAndCall",
					"outputs": [
						{
							"internalType": "bool",
							"name": "",
							"type": "bool"
						}
					],
					"stateMutability": "nonpayable",
					"type": "function"
				},
				{
					"inputs": [
						{
							"internalType": "address",
							"name": "",
							"type": "address"
						}
					],
					"name": "balanceOf",
					"outputs": [
						{
							"internalType": "uint256",
							"name": "",
							"type": "uint256"
						}
					],
					"stateMutability": "view",
					"type": "function"
				},
				{
					"inputs": [
						{
							"internalType": "address",
							"name": "from",
							"type": "address"
						},
						{
							"internalType": "uint256",
							"name": "amount",
							"type": "uint256"
						}
					],
					"name": "burn",
					"outputs": [
						{
							"internalType": "bool",
							"name": "",
							"type": "bool"
						}
					],
					"stateMutability": "nonpayable",
					"type": "function"
				},
				{
					"inputs": [],
					"name": "decimals",
					"outputs": [
						{
							"internalType": "uint8",
							"name": "",
							"type": "uint8"
						}
					],
					"stateMutability": "view",
					"type": "function"
				},
				{
					"inputs": [],
					"name": "delay",
					"outputs": [
						{
							"internalType": "uint256",
							"name": "",
							"type": "uint256"
						}
					],
					"stateMutability": "view",
					"type": "function"
				},
				{
					"inputs": [],
					"name": "delayMinter",
					"outputs": [
						{
							"internalType": "uint256",
							"name": "",
							"type": "uint256"
						}
					],
					"stateMutability": "view",
					"type": "function"
				},
				{
					"inputs": [],
					"name": "delayVault",
					"outputs": [
						{
							"internalType": "uint256",
							"name": "",
							"type": "uint256"
						}
					],
					"stateMutability": "view",
					"type": "function"
				},
				{
					"inputs": [],
					"name": "getAllMinters",
					"outputs": [
						{
							"internalType": "address[]",
							"name": "",
							"type": "address[]"
						}
					],
					"stateMutability": "view",
					"type": "function"
				},
				{
					"inputs": [
						{
							"internalType": "address",
							"name": "",
							"type": "address"
						}
					],
					"name": "isMinter",
					"outputs": [
						{
							"internalType": "bool",
							"name": "",
							"type": "bool"
						}
					],
					"stateMutability": "view",
					"type": "function"
				},
				{
					"inputs": [
						{
							"internalType": "address",
							"name": "to",
							"type": "address"
						},
						{
							"internalType": "uint256",
							"name": "amount",
							"type": "uint256"
						}
					],
					"name": "mint",
					"outputs": [
						{
							"internalType": "bool",
							"name": "",
							"type": "bool"
						}
					],
					"stateMutability": "nonpayable",
					"type": "function"
				},
				{
					"inputs": [
						{
							"internalType": "uint256",
							"name": "",
							"type": "uint256"
						}
					],
					"name": "minters",
					"outputs": [
						{
							"internalType": "address",
							"name": "",
							"type": "address"
						}
					],
					"stateMutability": "view",
					"type": "function"
				},
				{
					"inputs": [],
					"name": "mpc",
					"outputs": [
						{
							"internalType": "address",
							"name": "",
							"type": "address"
						}
					],
					"stateMutability": "view",
					"type": "function"
				},
				{
					"inputs": [],
					"name": "name",
					"outputs": [
						{
							"internalType": "string",
							"name": "",
							"type": "string"
						}
					],
					"stateMutability": "view",
					"type": "function"
				},
				{
					"inputs": [
						{
							"internalType": "address",
							"name": "",
							"type": "address"
						}
					],
					"name": "nonces",
					"outputs": [
						{
							"internalType": "uint256",
							"name": "",
							"type": "uint256"
						}
					],
					"stateMutability": "view",
					"type": "function"
				},
				{
					"inputs": [],
					"name": "owner",
					"outputs": [
						{
							"internalType": "address",
							"name": "",
							"type": "address"
						}
					],
					"stateMutability": "view",
					"type": "function"
				},
				{
					"inputs": [],
					"name": "pendingMinter",
					"outputs": [
						{
							"internalType": "address",
							"name": "",
							"type": "address"
						}
					],
					"stateMutability": "view",
					"type": "function"
				},
				{
					"inputs": [],
					"name": "pendingVault",
					"outputs": [
						{
							"internalType": "address",
							"name": "",
							"type": "address"
						}
					],
					"stateMutability": "view",
					"type": "function"
				},
				{
					"inputs": [
						{
							"internalType": "address",
							"name": "target",
							"type": "address"
						},
						{
							"internalType": "address",
							"name": "spender",
							"type": "address"
						},
						{
							"internalType": "uint256",
							"name": "value",
							"type": "uint256"
						},
						{
							"internalType": "uint256",
							"name": "deadline",
							"type": "uint256"
						},
						{
							"internalType": "uint8",
							"name": "v",
							"type": "uint8"
						},
						{
							"internalType": "bytes32",
							"name": "r",
							"type": "bytes32"
						},
						{
							"internalType": "bytes32",
							"name": "s",
							"type": "bytes32"
						}
					],
					"name": "permit",
					"outputs": [],
					"stateMutability": "nonpayable",
					"type": "function"
				},
				{
					"inputs": [
						{
							"internalType": "address",
							"name": "_auth",
							"type": "address"
						}
					],
					"name": "revokeMinter",
					"outputs": [],
					"stateMutability": "nonpayable",
					"type": "function"
				},
				{
					"inputs": [
						{
							"internalType": "address",
							"name": "_auth",
							"type": "address"
						}
					],
					"name": "setMinter",
					"outputs": [],
					"stateMutability": "nonpayable",
					"type": "function"
				},
				{
					"inputs": [
						{
							"internalType": "address",
							"name": "_vault",
							"type": "address"
						}
					],
					"name": "setVault",
					"outputs": [],
					"stateMutability": "nonpayable",
					"type": "function"
				},
				{
					"inputs": [],
					"name": "symbol",
					"outputs": [
						{
							"internalType": "string",
							"name": "",
							"type": "string"
						}
					],
					"stateMutability": "view",
					"type": "function"
				},
				{
					"inputs": [],
					"name": "totalSupply",
					"outputs": [
						{
							"internalType": "uint256",
							"name": "",
							"type": "uint256"
						}
					],
					"stateMutability": "view",
					"type": "function"
				},
				{
					"inputs": [
						{
							"internalType": "address",
							"name": "to",
							"type": "address"
						},
						{
							"internalType": "uint256",
							"name": "value",
							"type": "uint256"
						}
					],
					"name": "transfer",
					"outputs": [
						{
							"internalType": "bool",
							"name": "",
							"type": "bool"
						}
					],
					"stateMutability": "nonpayable",
					"type": "function"
				},
				{
					"inputs": [
						{
							"internalType": "address",
							"name": "to",
							"type": "address"
						},
						{
							"internalType": "uint256",
							"name": "value",
							"type": "uint256"
						},
						{
							"internalType": "bytes",
							"name": "data",
							"type": "bytes"
						}
					],
					"name": "transferAndCall",
					"outputs": [
						{
							"internalType": "bool",
							"name": "",
							"type": "bool"
						}
					],
					"stateMutability": "nonpayable",
					"type": "function"
				},
				{
					"inputs": [
						{
							"internalType": "address",
							"name": "from",
							"type": "address"
						},
						{
							"internalType": "address",
							"name": "to",
							"type": "address"
						},
						{
							"internalType": "uint256",
							"name": "value",
							"type": "uint256"
						}
					],
					"name": "transferFrom",
					"outputs": [
						{
							"internalType": "bool",
							"name": "",
							"type": "bool"
						}
					],
					"stateMutability": "nonpayable",
					"type": "function"
				},
				{
					"inputs": [
						{
							"internalType": "address",
							"name": "target",
							"type": "address"
						},
						{
							"internalType": "address",
							"name": "to",
							"type": "address"
						},
						{
							"internalType": "uint256",
							"name": "value",
							"type": "uint256"
						},
						{
							"internalType": "uint256",
							"name": "deadline",
							"type": "uint256"
						},
						{
							"internalType": "uint8",
							"name": "v",
							"type": "uint8"
						},
						{
							"internalType": "bytes32",
							"name": "r",
							"type": "bytes32"
						},
						{
							"internalType": "bytes32",
							"name": "s",
							"type": "bytes32"
						}
					],
					"name": "transferWithPermit",
					"outputs": [
						{
							"internalType": "bool",
							"name": "",
							"type": "bool"
						}
					],
					"stateMutability": "nonpayable",
					"type": "function"
				},
				{
					"inputs": [],
					"name": "vault",
					"outputs": [
						{
							"internalType": "address",
							"name": "",
							"type": "address"
						}
					],
					"stateMutability": "view",
					"type": "function"
				}
			],
			"devdoc": {
				"kind": "dev",
				"methods": {
					"approve(address,uint256)": {
						"details": "Sets `value` as allowance of `spender` account over caller account's AnyswapV3ERC20 token. Emits {Approval} event. Returns boolean value indicating whether operation succeeded."
					},
					"approveAndCall(address,uint256,bytes)": {
						"details": "Sets `value` as allowance of `spender` account over caller account's AnyswapV3ERC20 token, after which a call is executed to an ERC677-compliant contract with the `data` parameter. Emits {Approval} event. Returns boolean value indicating whether operation succeeded. For more information on approveAndCall format, see https://github.com/ethereum/EIPs/issues/677."
					},
					"permit(address,address,uint256,uint256,uint8,bytes32,bytes32)": {
						"details": "Sets `value` as allowance of `spender` account over `owner` account's AnyswapV3ERC20 token, given `owner` account's signed approval. Emits {Approval} event. Requirements:   - `deadline` must be timestamp in future.   - `v`, `r` and `s` must be valid `secp256k1` signature from `owner` account over EIP712-formatted function arguments.   - the signature must use `owner` account's current nonce (see {nonces}).   - the signer cannot be zero address and must be `owner` account. For more information on signature format, see https://eips.ethereum.org/EIPS/eip-2612#specification[relevant EIP section]. AnyswapV3ERC20 token implementation adapted from https://github.com/albertocuestacanada/ERC20Permit/blob/master/contracts/ERC20Permit.sol."
					},
					"totalSupply()": {
						"details": "Returns the total supply of AnyswapV3ERC20 token as the ETH held in this contract."
					},
					"transfer(address,uint256)": {
						"details": "Moves `value` AnyswapV3ERC20 token from caller's account to account (`to`). A transfer to `address(0)` triggers an ETH withdraw matching the sent AnyswapV3ERC20 token in favor of caller. Emits {Transfer} event. Returns boolean value indicating whether operation succeeded. Requirements:   - caller account must have at least `value` AnyswapV3ERC20 token."
					},
					"transferAndCall(address,uint256,bytes)": {
						"details": "Moves `value` AnyswapV3ERC20 token from caller's account to account (`to`), after which a call is executed to an ERC677-compliant contract with the `data` parameter. A transfer to `address(0)` triggers an ETH withdraw matching the sent AnyswapV3ERC20 token in favor of caller. Emits {Transfer} event. Returns boolean value indicating whether operation succeeded. Requirements:   - caller account must have at least `value` AnyswapV3ERC20 token. For more information on transferAndCall format, see https://github.com/ethereum/EIPs/issues/677."
					},
					"transferFrom(address,address,uint256)": {
						"details": "Moves `value` AnyswapV3ERC20 token from account (`from`) to account (`to`) using allowance mechanism. `value` is then deducted from caller account's allowance, unless set to `type(uint256).max`. A transfer to `address(0)` triggers an ETH withdraw matching the sent AnyswapV3ERC20 token in favor of caller. Emits {Approval} event to reflect reduced allowance `value` for caller account to spend from account (`from`), unless allowance is set to `type(uint256).max` Emits {Transfer} event. Returns boolean value indicating whether operation succeeded. Requirements:   - `from` account must have at least `value` balance of AnyswapV3ERC20 token.   - `from` account must have approved caller to spend at least `value` of AnyswapV3ERC20 token, unless `from` and caller are the same account."
					}
				},
				"stateVariables": {
					"allowance": {
						"details": "Records number of AnyswapV3ERC20 token that account (second) will be allowed to spend on behalf of another account (first) through {transferFrom}."
					},
					"balanceOf": {
						"details": "Records amount of AnyswapV3ERC20 token owned by account."
					},
					"nonces": {
						"details": "Records current ERC2612 nonce for account. This value must be included whenever signature is generated for {permit}. Every successful call to {permit} increases account's nonce by one. This prevents signature from being used multiple times."
					}
				},
				"version": 1
			},
			"evm": {
				"assembly": "    /* \"contracts/Solid.sol\":5685:20876  contract AnyswapV6ERC20 is IAnyswapV3ERC20 {... */\n  mstore(0x40, 0xc0)\n    /* \"contracts/Solid.sol\":6555:6564  2*24*3600 */\n  0x02a300\n    /* \"contracts/Solid.sol\":6535:6564  uint public delay = 2*24*3600 */\n  0x05\n  sstore\n    /* \"contracts/Solid.sol\":10326:11082  constructor(string memory _name, string memory _symbol, uint8 _decimals, address _vault) {... */\n  callvalue\n  dup1\n  iszero\n  tag_1\n  jumpi\n  0x00\n  dup1\n  revert\ntag_1:\n  pop\n  mload(0x40)\n  sub(codesize, bytecodeSize)\n  dup1\n  bytecodeSize\n  dup4\n  codecopy\n  dup2\n  dup2\n  add\n  0x40\n  mstore\n  dup2\n  add\n  swap1\n  tag_2\n  swap2\n  swap1\n  tag_3\n  jump\t// in\ntag_2:\n    /* \"contracts/Solid.sol\":10433:10438  _name */\n  dup4\n    /* \"contracts/Solid.sol\":10426:10430  name */\n  0x00\n    /* \"contracts/Solid.sol\":10426:10438  name = _name */\n  swap1\n  dup1\n  mload\n  swap1\n  0x20\n  add\n  swap1\n  tag_6\n  swap3\n  swap2\n  swap1\n  tag_7\n  jump\t// in\ntag_6:\n  pop\n    /* \"contracts/Solid.sol\":10458:10465  _symbol */\n  dup3\n    /* \"contracts/Solid.sol\":10449:10455  symbol */\n  0x01\n    /* \"contracts/Solid.sol\":10449:10465  symbol = _symbol */\n  swap1\n  dup1\n  mload\n  swap1\n  0x20\n  add\n  swap1\n  tag_8\n  swap3\n  swap2\n  swap1\n  tag_7\n  jump\t// in\ntag_8:\n  pop\n    /* \"contracts/Solid.sol\":10487:10496  _decimals */\n  dup2\n    /* \"contracts/Solid.sol\":10476:10496  decimals = _decimals */\n  0xff\n  and\n  0x80\n  dup2\n  0xff\n  and\n  dup2\n  mstore\n  pop\n  pop\n    /* \"contracts/Solid.sol\":10580:10584  true */\n  0x01\n    /* \"contracts/Solid.sol\":10572:10577  _init */\n  0x04\n  0x00\n    /* \"contracts/Solid.sol\":10572:10584  _init = true */\n  0x0100\n  exp\n  dup2\n  sload\n  dup2\n  0xff\n  mul\n  not\n  and\n  swap1\n  dup4\n  iszero\n  iszero\n  mul\n  or\n  swap1\n  sstore\n  pop\n    /* \"contracts/Solid.sol\":10609:10615  _vault */\n  dup1\n    /* \"contracts/Solid.sol\":10601:10606  vault */\n  0x08\n  0x00\n    /* \"contracts/Solid.sol\":10601:10615  vault = _vault */\n  0x0100\n  exp\n  dup2\n  sload\n  dup2\n  0xffffffffffffffffffffffffffffffffffffffff\n  mul\n  not\n  and\n  swap1\n  dup4\n  0xffffffffffffffffffffffffffffffffffffffff\n  and\n  mul\n  or\n  swap1\n  sstore\n  pop\n    /* \"contracts/Solid.sol\":10641:10647  _vault */\n  dup1\n    /* \"contracts/Solid.sol\":10626:10638  pendingVault */\n  0x0b\n  0x00\n    /* \"contracts/Solid.sol\":10626:10647  pendingVault = _vault */\n  0x0100\n  exp\n  dup2\n  sload\n  dup2\n  0xffffffffffffffffffffffffffffffffffffffff\n  mul\n  not\n  and\n  swap1\n  dup4\n  0xffffffffffffffffffffffffffffffffffffffff\n  and\n  mul\n  or\n  swap1\n  sstore\n  pop\n    /* \"contracts/Solid.sol\":10671:10686  block.timestamp */\n  timestamp\n    /* \"contracts/Solid.sol\":10658:10668  delayVault */\n  0x0c\n    /* \"contracts/Solid.sol\":10658:10686  delayVault = block.timestamp */\n  dup2\n  swap1\n  sstore\n  pop\n    /* \"contracts/Solid.sol\":10699:10714  uint256 chainId */\n  0x00\n    /* \"contracts/Solid.sol\":10746:10755  chainid() */\n  chainid\n    /* \"contracts/Solid.sol\":10735:10755  chainId := chainid() */\n  swap1\n  pop\n    /* \"contracts/Solid.sol\":10838:10933  keccak256(\"EIP712Domain(string name,string version,uint256 chainId,address verifyingContract)\") */\n  0x8b73c3c69bb8fe3d512ecc4cf759cc79239f7b179b0ffacaa9a75d522b39400f\n    /* \"contracts/Solid.sol\":10968:10972  name */\n  0x00\n    /* \"contracts/Solid.sol\":10952:10974  keccak256(bytes(name)) */\n  mload(0x40)\n  tag_9\n  swap2\n  swap1\n  tag_10\n  jump\t// in\ntag_9:\n  mload(0x40)\n  dup1\n  swap2\n  sub\n  swap1\n  keccak256\n    /* \"contracts/Solid.sol\":11003:11013  bytes(\"1\") */\n  mload(0x40)\n  dup1\n  0x40\n  add\n  0x40\n  mstore\n  dup1\n  0x01\n  dup2\n  mstore\n  0x20\n  add\n  0x3100000000000000000000000000000000000000000000000000000000000000\n  dup2\n  mstore\n  pop\n    /* \"contracts/Solid.sol\":10993:11014  keccak256(bytes(\"1\")) */\n  dup1\n  mload\n  swap1\n  0x20\n  add\n  keccak256\n    /* \"contracts/Solid.sol\":11033:11040  chainId */\n  dup4\n    /* \"contracts/Solid.sol\":11067:11071  this */\n  address\n    /* \"contracts/Solid.sol\":10809:11073  abi.encode(... */\n  add(0x20, mload(0x40))\n  tag_11\n  swap6\n  swap5\n  swap4\n  swap3\n  swap2\n  swap1\n  tag_12\n  jump\t// in\ntag_11:\n  mload(0x40)\n  0x20\n  dup2\n  dup4\n  sub\n  sub\n  dup2\n  mstore\n  swap1\n  0x40\n  mstore\n    /* \"contracts/Solid.sol\":10785:11074  keccak256(... */\n  dup1\n  mload\n  swap1\n  0x20\n  add\n  keccak256\n    /* \"contracts/Solid.sol\":10766:11074  DOMAIN_SEPARATOR = keccak256(... */\n  0xa0\n  dup2\n  dup2\n  mstore\n  pop\n  pop\n    /* \"contracts/Solid.sol\":10415:11082  {... */\n  pop\n    /* \"contracts/Solid.sol\":10326:11082  constructor(string memory _name, string memory _symbol, uint8 _decimals, address _vault) {... */\n  pop\n  pop\n  pop\n  pop\n    /* \"contracts/Solid.sol\":5685:20876  contract AnyswapV6ERC20 is IAnyswapV3ERC20 {... */\n  jump(tag_13)\ntag_7:\n  dup3\n  dup1\n  sload\n  tag_14\n  swap1\n  tag_15\n  jump\t// in\ntag_14:\n  swap1\n  0x00\n  mstore\n  keccak256(0x00, 0x20)\n  swap1\n  0x1f\n  add\n  0x20\n  swap1\n  div\n  dup2\n  add\n  swap3\n  dup3\n  tag_17\n  jumpi\n  0x00\n  dup6\n  sstore\n  jump(tag_16)\ntag_17:\n  dup3\n  0x1f\n  lt\n  tag_18\n  jumpi\n  dup1\n  mload\n  not(0xff)\n  and\n  dup4\n  dup1\n  add\n  or\n  dup6\n  sstore\n  jump(tag_16)\ntag_18:\n  dup3\n  dup1\n  add\n  0x01\n  add\n  dup6\n  sstore\n  dup3\n  iszero\n  tag_16\n  jumpi\n  swap2\n  dup3\n  add\ntag_19:\n  dup3\n  dup2\n  gt\n  iszero\n  tag_20\n  jumpi\n  dup3\n  mload\n  dup3\n  sstore\n  swap2\n  0x20\n  add\n  swap2\n  swap1\n  0x01\n  add\n  swap1\n  jump(tag_19)\ntag_20:\ntag_16:\n  pop\n  swap1\n  pop\n  tag_21\n  swap2\n  swap1\n  tag_22\n  jump\t// in\ntag_21:\n  pop\n  swap1\n  jump\t// out\ntag_22:\ntag_23:\n  dup1\n  dup3\n  gt\n  iszero\n  tag_24\n  jumpi\n  0x00\n  dup2\n  0x00\n  swap1\n  sstore\n  pop\n  0x01\n  add\n  jump(tag_23)\ntag_24:\n  pop\n  swap1\n  jump\t// out\n    /* \"#utility.yul\":7:82   */\ntag_25:\n    /* \"#utility.yul\":40:46   */\n  0x00\n    /* \"#utility.yul\":73:75   */\n  0x40\n    /* \"#utility.yul\":67:76   */\n  mload\n    /* \"#utility.yul\":57:76   */\n  swap1\n  pop\n    /* \"#utility.yul\":7:82   */\n  swap1\n  jump\t// out\n    /* \"#utility.yul\":88:205   */\ntag_26:\n    /* \"#utility.yul\":197:198   */\n  0x00\n    /* \"#utility.yul\":194:195   */\n  dup1\n    /* \"#utility.yul\":187:199   */\n  revert\n    /* \"#utility.yul\":211:328   */\ntag_27:\n    /* \"#utility.yul\":320:321   */\n  0x00\n    /* \"#utility.yul\":317:318   */\n  dup1\n    /* \"#utility.yul\":310:322   */\n  revert\n    /* \"#utility.yul\":334:451   */\ntag_28:\n    /* \"#utility.yul\":443:444   */\n  0x00\n    /* \"#utility.yul\":440:441   */\n  dup1\n    /* \"#utility.yul\":433:445   */\n  revert\n    /* \"#utility.yul\":457:574   */\ntag_29:\n    /* \"#utility.yul\":566:567   */\n  0x00\n    /* \"#utility.yul\":563:564   */\n  dup1\n    /* \"#utility.yul\":556:568   */\n  revert\n    /* \"#utility.yul\":580:682   */\ntag_30:\n    /* \"#utility.yul\":621:627   */\n  0x00\n    /* \"#utility.yul\":672:674   */\n  0x1f\n    /* \"#utility.yul\":668:675   */\n  not\n    /* \"#utility.yul\":663:665   */\n  0x1f\n    /* \"#utility.yul\":656:661   */\n  dup4\n    /* \"#utility.yul\":652:666   */\n  add\n    /* \"#utility.yul\":648:676   */\n  and\n    /* \"#utility.yul\":638:676   */\n  swap1\n  pop\n    /* \"#utility.yul\":580:682   */\n  swap2\n  swap1\n  pop\n  jump\t// out\n    /* \"#utility.yul\":688:868   */\ntag_31:\n    /* \"#utility.yul\":736:813   */\n  0x4e487b7100000000000000000000000000000000000000000000000000000000\n    /* \"#utility.yul\":733:734   */\n  0x00\n    /* \"#utility.yul\":726:814   */\n  mstore\n    /* \"#utility.yul\":833:837   */\n  0x41\n    /* \"#utility.yul\":830:831   */\n  0x04\n    /* \"#utility.yul\":823:838   */\n  mstore\n    /* \"#utility.yul\":857:861   */\n  0x24\n    /* \"#utility.yul\":854:855   */\n  0x00\n    /* \"#utility.yul\":847:862   */\n  revert\n    /* \"#utility.yul\":874:1155   */\ntag_32:\n    /* \"#utility.yul\":957:984   */\n  tag_63\n    /* \"#utility.yul\":979:983   */\n  dup3\n    /* \"#utility.yul\":957:984   */\n  tag_30\n  jump\t// in\ntag_63:\n    /* \"#utility.yul\":949:955   */\n  dup2\n    /* \"#utility.yul\":945:985   */\n  add\n    /* \"#utility.yul\":1087:1093   */\n  dup2\n    /* \"#utility.yul\":1075:1085   */\n  dup2\n    /* \"#utility.yul\":1072:1094   */\n  lt\n    /* \"#utility.yul\":1051:1069   */\n  0xffffffffffffffff\n    /* \"#utility.yul\":1039:1049   */\n  dup3\n    /* \"#utility.yul\":1036:1070   */\n  gt\n    /* \"#utility.yul\":1033:1095   */\n  or\n    /* \"#utility.yul\":1030:1118   */\n  iszero\n  tag_64\n  jumpi\n    /* \"#utility.yul\":1098:1116   */\n  tag_65\n  tag_31\n  jump\t// in\ntag_65:\n    /* \"#utility.yul\":1030:1118   */\ntag_64:\n    /* \"#utility.yul\":1138:1148   */\n  dup1\n    /* \"#utility.yul\":1134:1136   */\n  0x40\n    /* \"#utility.yul\":1127:1149   */\n  mstore\n    /* \"#utility.yul\":917:1155   */\n  pop\n    /* \"#utility.yul\":874:1155   */\n  pop\n  pop\n  jump\t// out\n    /* \"#utility.yul\":1161:1290   */\ntag_33:\n    /* \"#utility.yul\":1195:1201   */\n  0x00\n    /* \"#utility.yul\":1222:1242   */\n  tag_67\n  tag_25\n  jump\t// in\ntag_67:\n    /* \"#utility.yul\":1212:1242   */\n  swap1\n  pop\n    /* \"#utility.yul\":1251:1284   */\n  tag_68\n    /* \"#utility.yul\":1279:1283   */\n  dup3\n    /* \"#utility.yul\":1271:1277   */\n  dup3\n    /* \"#utility.yul\":1251:1284   */\n  tag_32\n  jump\t// in\ntag_68:\n    /* \"#utility.yul\":1161:1290   */\n  swap2\n  swap1\n  pop\n  jump\t// out\n    /* \"#utility.yul\":1296:1604   */\ntag_34:\n    /* \"#utility.yul\":1358:1362   */\n  0x00\n    /* \"#utility.yul\":1448:1466   */\n  0xffffffffffffffff\n    /* \"#utility.yul\":1440:1446   */\n  dup3\n    /* \"#utility.yul\":1437:1467   */\n  gt\n    /* \"#utility.yul\":1434:1490   */\n  iszero\n  tag_70\n  jumpi\n    /* \"#utility.yul\":1470:1488   */\n  tag_71\n  tag_31\n  jump\t// in\ntag_71:\n    /* \"#utility.yul\":1434:1490   */\ntag_70:\n    /* \"#utility.yul\":1508:1537   */\n  tag_72\n    /* \"#utility.yul\":1530:1536   */\n  dup3\n    /* \"#utility.yul\":1508:1537   */\n  tag_30\n  jump\t// in\ntag_72:\n    /* \"#utility.yul\":1500:1537   */\n  swap1\n  pop\n    /* \"#utility.yul\":1592:1596   */\n  0x20\n    /* \"#utility.yul\":1586:1590   */\n  dup2\n    /* \"#utility.yul\":1582:1597   */\n  add\n    /* \"#utility.yul\":1574:1597   */\n  swap1\n  pop\n    /* \"#utility.yul\":1296:1604   */\n  swap2\n  swap1\n  pop\n  jump\t// out\n    /* \"#utility.yul\":1610:1917   */\ntag_35:\n    /* \"#utility.yul\":1678:1679   */\n  0x00\n    /* \"#utility.yul\":1688:1801   */\ntag_74:\n    /* \"#utility.yul\":1702:1708   */\n  dup4\n    /* \"#utility.yul\":1699:1700   */\n  dup2\n    /* \"#utility.yul\":1696:1709   */\n  lt\n    /* \"#utility.yul\":1688:1801   */\n  iszero\n  tag_76\n  jumpi\n    /* \"#utility.yul\":1787:1788   */\n  dup1\n    /* \"#utility.yul\":1782:1785   */\n  dup3\n    /* \"#utility.yul\":1778:1789   */\n  add\n    /* \"#utility.yul\":1772:1790   */\n  mload\n    /* \"#utility.yul\":1768:1769   */\n  dup2\n    /* \"#utility.yul\":1763:1766   */\n  dup5\n    /* \"#utility.yul\":1759:1770   */\n  add\n    /* \"#utility.yul\":1752:1791   */\n  mstore\n    /* \"#utility.yul\":1724:1726   */\n  0x20\n    /* \"#utility.yul\":1721:1722   */\n  dup2\n    /* \"#utility.yul\":1717:1727   */\n  add\n    /* \"#utility.yul\":1712:1727   */\n  swap1\n  pop\n    /* \"#utility.yul\":1688:1801   */\n  jump(tag_74)\ntag_76:\n    /* \"#utility.yul\":1819:1825   */\n  dup4\n    /* \"#utility.yul\":1816:1817   */\n  dup2\n    /* \"#utility.yul\":1813:1826   */\n  gt\n    /* \"#utility.yul\":1810:1911   */\n  iszero\n  tag_77\n  jumpi\n    /* \"#utility.yul\":1899:1900   */\n  0x00\n    /* \"#utility.yul\":1890:1896   */\n  dup5\n    /* \"#utility.yul\":1885:1888   */\n  dup5\n    /* \"#utility.yul\":1881:1897   */\n  add\n    /* \"#utility.yul\":1874:1901   */\n  mstore\n    /* \"#utility.yul\":1810:1911   */\ntag_77:\n    /* \"#utility.yul\":1659:1917   */\n  pop\n    /* \"#utility.yul\":1610:1917   */\n  pop\n  pop\n  pop\n  jump\t// out\n    /* \"#utility.yul\":1923:2344   */\ntag_36:\n    /* \"#utility.yul\":2012:2017   */\n  0x00\n    /* \"#utility.yul\":2037:2103   */\n  tag_79\n    /* \"#utility.yul\":2053:2102   */\n  tag_80\n    /* \"#utility.yul\":2095:2101   */\n  dup5\n    /* \"#utility.yul\":2053:2102   */\n  tag_34\n  jump\t// in\ntag_80:\n    /* \"#utility.yul\":2037:2103   */\n  tag_33\n  jump\t// in\ntag_79:\n    /* \"#utility.yul\":2028:2103   */\n  swap1\n  pop\n    /* \"#utility.yul\":2126:2132   */\n  dup3\n    /* \"#utility.yul\":2119:2124   */\n  dup2\n    /* \"#utility.yul\":2112:2133   */\n  mstore\n    /* \"#utility.yul\":2164:2168   */\n  0x20\n    /* \"#utility.yul\":2157:2162   */\n  dup2\n    /* \"#utility.yul\":2153:2169   */\n  add\n    /* \"#utility.yul\":2202:2205   */\n  dup5\n    /* \"#utility.yul\":2193:2199   */\n  dup5\n    /* \"#utility.yul\":2188:2191   */\n  dup5\n    /* \"#utility.yul\":2184:2200   */\n  add\n    /* \"#utility.yul\":2181:2206   */\n  gt\n    /* \"#utility.yul\":2178:2290   */\n  iszero\n  tag_81\n  jumpi\n    /* \"#utility.yul\":2209:2288   */\n  tag_82\n  tag_29\n  jump\t// in\ntag_82:\n    /* \"#utility.yul\":2178:2290   */\ntag_81:\n    /* \"#utility.yul\":2299:2338   */\n  tag_83\n    /* \"#utility.yul\":2331:2337   */\n  dup5\n    /* \"#utility.yul\":2326:2329   */\n  dup3\n    /* \"#utility.yul\":2321:2324   */\n  dup6\n    /* \"#utility.yul\":2299:2338   */\n  tag_35\n  jump\t// in\ntag_83:\n    /* \"#utility.yul\":2018:2344   */\n  pop\n    /* \"#utility.yul\":1923:2344   */\n  swap4\n  swap3\n  pop\n  pop\n  pop\n  jump\t// out\n    /* \"#utility.yul\":2364:2719   */\ntag_37:\n    /* \"#utility.yul\":2431:2436   */\n  0x00\n    /* \"#utility.yul\":2480:2483   */\n  dup3\n    /* \"#utility.yul\":2473:2477   */\n  0x1f\n    /* \"#utility.yul\":2465:2471   */\n  dup4\n    /* \"#utility.yul\":2461:2478   */\n  add\n    /* \"#utility.yul\":2457:2484   */\n  slt\n    /* \"#utility.yul\":2447:2569   */\n  tag_85\n  jumpi\n    /* \"#utility.yul\":2488:2567   */\n  tag_86\n  tag_28\n  jump\t// in\ntag_86:\n    /* \"#utility.yul\":2447:2569   */\ntag_85:\n    /* \"#utility.yul\":2598:2604   */\n  dup2\n    /* \"#utility.yul\":2592:2605   */\n  mload\n    /* \"#utility.yul\":2623:2713   */\n  tag_87\n    /* \"#utility.yul\":2709:2712   */\n  dup5\n    /* \"#utility.yul\":2701:2707   */\n  dup3\n    /* \"#utility.yul\":2694:2698   */\n  0x20\n    /* \"#utility.yul\":2686:2692   */\n  dup7\n    /* \"#utility.yul\":2682:2699   */\n  add\n    /* \"#utility.yul\":2623:2713   */\n  tag_36\n  jump\t// in\ntag_87:\n    /* \"#utility.yul\":2614:2713   */\n  swap2\n  pop\n    /* \"#utility.yul\":2437:2719   */\n  pop\n    /* \"#utility.yul\":2364:2719   */\n  swap3\n  swap2\n  pop\n  pop\n  jump\t// out\n    /* \"#utility.yul\":2725:2811   */\ntag_38:\n    /* \"#utility.yul\":2760:2767   */\n  0x00\n    /* \"#utility.yul\":2800:2804   */\n  0xff\n    /* \"#utility.yul\":2793:2798   */\n  dup3\n    /* \"#utility.yul\":2789:2805   */\n  and\n    /* \"#utility.yul\":2778:2805   */\n  swap1\n  pop\n    /* \"#utility.yul\":2725:2811   */\n  swap2\n  swap1\n  pop\n  jump\t// out\n    /* \"#utility.yul\":2817:2935   */\ntag_39:\n    /* \"#utility.yul\":2888:2910   */\n  tag_90\n    /* \"#utility.yul\":2904:2909   */\n  dup2\n    /* \"#utility.yul\":2888:2910   */\n  tag_38\n  jump\t// in\ntag_90:\n    /* \"#utility.yul\":2881:2886   */\n  dup2\n    /* \"#utility.yul\":2878:2911   */\n  eq\n    /* \"#utility.yul\":2868:2929   */\n  tag_91\n  jumpi\n    /* \"#utility.yul\":2925:2926   */\n  0x00\n    /* \"#utility.yul\":2922:2923   */\n  dup1\n    /* \"#utility.yul\":2915:2927   */\n  revert\n    /* \"#utility.yul\":2868:2929   */\ntag_91:\n    /* \"#utility.yul\":2817:2935   */\n  pop\n  jump\t// out\n    /* \"#utility.yul\":2941:3080   */\ntag_40:\n    /* \"#utility.yul\":2996:3001   */\n  0x00\n    /* \"#utility.yul\":3027:3033   */\n  dup2\n    /* \"#utility.yul\":3021:3034   */\n  mload\n    /* \"#utility.yul\":3012:3034   */\n  swap1\n  pop\n    /* \"#utility.yul\":3043:3074   */\n  tag_93\n    /* \"#utility.yul\":3068:3073   */\n  dup2\n    /* \"#utility.yul\":3043:3074   */\n  tag_39\n  jump\t// in\ntag_93:\n    /* \"#utility.yul\":2941:3080   */\n  swap3\n  swap2\n  pop\n  pop\n  jump\t// out\n    /* \"#utility.yul\":3086:3212   */\ntag_41:\n    /* \"#utility.yul\":3123:3130   */\n  0x00\n    /* \"#utility.yul\":3163:3205   */\n  0xffffffffffffffffffffffffffffffffffffffff\n    /* \"#utility.yul\":3156:3161   */\n  dup3\n    /* \"#utility.yul\":3152:3206   */\n  and\n    /* \"#utility.yul\":3141:3206   */\n  swap1\n  pop\n    /* \"#utility.yul\":3086:3212   */\n  swap2\n  swap1\n  pop\n  jump\t// out\n    /* \"#utility.yul\":3218:3314   */\ntag_42:\n    /* \"#utility.yul\":3255:3262   */\n  0x00\n    /* \"#utility.yul\":3284:3308   */\n  tag_96\n    /* \"#utility.yul\":3302:3307   */\n  dup3\n    /* \"#utility.yul\":3284:3308   */\n  tag_41\n  jump\t// in\ntag_96:\n    /* \"#utility.yul\":3273:3308   */\n  swap1\n  pop\n    /* \"#utility.yul\":3218:3314   */\n  swap2\n  swap1\n  pop\n  jump\t// out\n    /* \"#utility.yul\":3320:3442   */\ntag_43:\n    /* \"#utility.yul\":3393:3417   */\n  tag_98\n    /* \"#utility.yul\":3411:3416   */\n  dup2\n    /* \"#utility.yul\":3393:3417   */\n  tag_42\n  jump\t// in\ntag_98:\n    /* \"#utility.yul\":3386:3391   */\n  dup2\n    /* \"#utility.yul\":3383:3418   */\n  eq\n    /* \"#utility.yul\":3373:3436   */\n  tag_99\n  jumpi\n    /* \"#utility.yul\":3432:3433   */\n  0x00\n    /* \"#utility.yul\":3429:3430   */\n  dup1\n    /* \"#utility.yul\":3422:3434   */\n  revert\n    /* \"#utility.yul\":3373:3436   */\ntag_99:\n    /* \"#utility.yul\":3320:3442   */\n  pop\n  jump\t// out\n    /* \"#utility.yul\":3448:3591   */\ntag_44:\n    /* \"#utility.yul\":3505:3510   */\n  0x00\n    /* \"#utility.yul\":3536:3542   */\n  dup2\n    /* \"#utility.yul\":3530:3543   */\n  mload\n    /* \"#utility.yul\":3521:3543   */\n  swap1\n  pop\n    /* \"#utility.yul\":3552:3585   */\n  tag_101\n    /* \"#utility.yul\":3579:3584   */\n  dup2\n    /* \"#utility.yul\":3552:3585   */\n  tag_43\n  jump\t// in\ntag_101:\n    /* \"#utility.yul\":3448:3591   */\n  swap3\n  swap2\n  pop\n  pop\n  jump\t// out\n    /* \"#utility.yul\":3597:4759   */\ntag_3:\n    /* \"#utility.yul\":3712:3718   */\n  0x00\n    /* \"#utility.yul\":3720:3726   */\n  dup1\n    /* \"#utility.yul\":3728:3734   */\n  0x00\n    /* \"#utility.yul\":3736:3742   */\n  dup1\n    /* \"#utility.yul\":3785:3788   */\n  0x80\n    /* \"#utility.yul\":3773:3782   */\n  dup6\n    /* \"#utility.yul\":3764:3771   */\n  dup8\n    /* \"#utility.yul\":3760:3783   */\n  sub\n    /* \"#utility.yul\":3756:3789   */\n  slt\n    /* \"#utility.yul\":3753:3873   */\n  iszero\n  tag_103\n  jumpi\n    /* \"#utility.yul\":3792:3871   */\n  tag_104\n  tag_26\n  jump\t// in\ntag_104:\n    /* \"#utility.yul\":3753:3873   */\ntag_103:\n    /* \"#utility.yul\":3933:3934   */\n  0x00\n    /* \"#utility.yul\":3922:3931   */\n  dup6\n    /* \"#utility.yul\":3918:3935   */\n  add\n    /* \"#utility.yul\":3912:3936   */\n  mload\n    /* \"#utility.yul\":3963:3981   */\n  0xffffffffffffffff\n    /* \"#utility.yul\":3955:3961   */\n  dup2\n    /* \"#utility.yul\":3952:3982   */\n  gt\n    /* \"#utility.yul\":3949:4066   */\n  iszero\n  tag_105\n  jumpi\n    /* \"#utility.yul\":3985:4064   */\n  tag_106\n  tag_27\n  jump\t// in\ntag_106:\n    /* \"#utility.yul\":3949:4066   */\ntag_105:\n    /* \"#utility.yul\":4090:4164   */\n  tag_107\n    /* \"#utility.yul\":4156:4163   */\n  dup8\n    /* \"#utility.yul\":4147:4153   */\n  dup3\n    /* \"#utility.yul\":4136:4145   */\n  dup9\n    /* \"#utility.yul\":4132:4154   */\n  add\n    /* \"#utility.yul\":4090:4164   */\n  tag_37\n  jump\t// in\ntag_107:\n    /* \"#utility.yul\":4080:4164   */\n  swap5\n  pop\n    /* \"#utility.yul\":3883:4174   */\n  pop\n    /* \"#utility.yul\":4234:4236   */\n  0x20\n    /* \"#utility.yul\":4223:4232   */\n  dup6\n    /* \"#utility.yul\":4219:4237   */\n  add\n    /* \"#utility.yul\":4213:4238   */\n  mload\n    /* \"#utility.yul\":4265:4283   */\n  0xffffffffffffffff\n    /* \"#utility.yul\":4257:4263   */\n  dup2\n    /* \"#utility.yul\":4254:4284   */\n  gt\n    /* \"#utility.yul\":4251:4368   */\n  iszero\n  tag_108\n  jumpi\n    /* \"#utility.yul\":4287:4366   */\n  tag_109\n  tag_27\n  jump\t// in\ntag_109:\n    /* \"#utility.yul\":4251:4368   */\ntag_108:\n    /* \"#utility.yul\":4392:4466   */\n  tag_110\n    /* \"#utility.yul\":4458:4465   */\n  dup8\n    /* \"#utility.yul\":4449:4455   */\n  dup3\n    /* \"#utility.yul\":4438:4447   */\n  dup9\n    /* \"#utility.yul\":4434:4456   */\n  add\n    /* \"#utility.yul\":4392:4466   */\n  tag_37\n  jump\t// in\ntag_110:\n    /* \"#utility.yul\":4382:4466   */\n  swap4\n  pop\n    /* \"#utility.yul\":4184:4476   */\n  pop\n    /* \"#utility.yul\":4515:4517   */\n  0x40\n    /* \"#utility.yul\":4541:4603   */\n  tag_111\n    /* \"#utility.yul\":4595:4602   */\n  dup8\n    /* \"#utility.yul\":4586:4592   */\n  dup3\n    /* \"#utility.yul\":4575:4584   */\n  dup9\n    /* \"#utility.yul\":4571:4593   */\n  add\n    /* \"#utility.yul\":4541:4603   */\n  tag_40\n  jump\t// in\ntag_111:\n    /* \"#utility.yul\":4531:4603   */\n  swap3\n  pop\n    /* \"#utility.yul\":4486:4613   */\n  pop\n    /* \"#utility.yul\":4652:4654   */\n  0x60\n    /* \"#utility.yul\":4678:4742   */\n  tag_112\n    /* \"#utility.yul\":4734:4741   */\n  dup8\n    /* \"#utility.yul\":4725:4731   */\n  dup3\n    /* \"#utility.yul\":4714:4723   */\n  dup9\n    /* \"#utility.yul\":4710:4732   */\n  add\n    /* \"#utility.yul\":4678:4742   */\n  tag_44\n  jump\t// in\ntag_112:\n    /* \"#utility.yul\":4668:4742   */\n  swap2\n  pop\n    /* \"#utility.yul\":4623:4752   */\n  pop\n    /* \"#utility.yul\":3597:4759   */\n  swap3\n  swap6\n  swap2\n  swap5\n  pop\n  swap3\n  pop\n  jump\t// out\n    /* \"#utility.yul\":4765:4945   */\ntag_45:\n    /* \"#utility.yul\":4813:4890   */\n  0x4e487b7100000000000000000000000000000000000000000000000000000000\n    /* \"#utility.yul\":4810:4811   */\n  0x00\n    /* \"#utility.yul\":4803:4891   */\n  mstore\n    /* \"#utility.yul\":4910:4914   */\n  0x22\n    /* \"#utility.yul\":4907:4908   */\n  0x04\n    /* \"#utility.yul\":4900:4915   */\n  mstore\n    /* \"#utility.yul\":4934:4938   */\n  0x24\n    /* \"#utility.yul\":4931:4932   */\n  0x00\n    /* \"#utility.yul\":4924:4939   */\n  revert\n    /* \"#utility.yul\":4951:5271   */\ntag_15:\n    /* \"#utility.yul\":4995:5001   */\n  0x00\n    /* \"#utility.yul\":5032:5033   */\n  0x02\n    /* \"#utility.yul\":5026:5030   */\n  dup3\n    /* \"#utility.yul\":5022:5034   */\n  div\n    /* \"#utility.yul\":5012:5034   */\n  swap1\n  pop\n    /* \"#utility.yul\":5079:5080   */\n  0x01\n    /* \"#utility.yul\":5073:5077   */\n  dup3\n    /* \"#utility.yul\":5069:5081   */\n  and\n    /* \"#utility.yul\":5100:5118   */\n  dup1\n    /* \"#utility.yul\":5090:5171   */\n  tag_115\n  jumpi\n    /* \"#utility.yul\":5156:5160   */\n  0x7f\n    /* \"#utility.yul\":5148:5154   */\n  dup3\n    /* \"#utility.yul\":5144:5161   */\n  and\n    /* \"#utility.yul\":5134:5161   */\n  swap2\n  pop\n    /* \"#utility.yul\":5090:5171   */\ntag_115:\n    /* \"#utility.yul\":5218:5220   */\n  0x20\n    /* \"#utility.yul\":5210:5216   */\n  dup3\n    /* \"#utility.yul\":5207:5221   */\n  lt\n    /* \"#utility.yul\":5187:5205   */\n  dup2\n    /* \"#utility.yul\":5184:5222   */\n  eq\n    /* \"#utility.yul\":5181:5265   */\n  iszero\n  tag_116\n  jumpi\n    /* \"#utility.yul\":5237:5255   */\n  tag_117\n  tag_45\n  jump\t// in\ntag_117:\n    /* \"#utility.yul\":5181:5265   */\ntag_116:\n    /* \"#utility.yul\":5002:5271   */\n  pop\n    /* \"#utility.yul\":4951:5271   */\n  swap2\n  swap1\n  pop\n  jump\t// out\n    /* \"#utility.yul\":5277:5424   */\ntag_46:\n    /* \"#utility.yul\":5378:5389   */\n  0x00\n    /* \"#utility.yul\":5415:5418   */\n  dup2\n    /* \"#utility.yul\":5400:5418   */\n  swap1\n  pop\n    /* \"#utility.yul\":5277:5424   */\n  swap3\n  swap2\n  pop\n  pop\n  jump\t// out\n    /* \"#utility.yul\":5430:5574   */\ntag_47:\n    /* \"#utility.yul\":5482:5486   */\n  0x00\n    /* \"#utility.yul\":5505:5508   */\n  dup2\n    /* \"#utility.yul\":5497:5508   */\n  swap1\n  pop\n    /* \"#utility.yul\":5528:5531   */\n  dup2\n    /* \"#utility.yul\":5525:5526   */\n  0x00\n    /* \"#utility.yul\":5518:5532   */\n  mstore\n    /* \"#utility.yul\":5562:5566   */\n  0x20\n    /* \"#utility.yul\":5559:5560   */\n  0x00\n    /* \"#utility.yul\":5549:5567   */\n  keccak256\n    /* \"#utility.yul\":5541:5567   */\n  swap1\n  pop\n    /* \"#utility.yul\":5430:5574   */\n  swap2\n  swap1\n  pop\n  jump\t// out\n    /* \"#utility.yul\":5602:6451   */\ntag_48:\n    /* \"#utility.yul\":5707:5710   */\n  0x00\n    /* \"#utility.yul\":5744:5749   */\n  dup2\n    /* \"#utility.yul\":5738:5750   */\n  sload\n    /* \"#utility.yul\":5773:5809   */\n  tag_121\n    /* \"#utility.yul\":5799:5808   */\n  dup2\n    /* \"#utility.yul\":5773:5809   */\n  tag_15\n  jump\t// in\ntag_121:\n    /* \"#utility.yul\":5825:5913   */\n  tag_122\n    /* \"#utility.yul\":5906:5912   */\n  dup2\n    /* \"#utility.yul\":5901:5904   */\n  dup7\n    /* \"#utility.yul\":5825:5913   */\n  tag_46\n  jump\t// in\ntag_122:\n    /* \"#utility.yul\":5818:5913   */\n  swap5\n  pop\n    /* \"#utility.yul\":5944:5945   */\n  0x01\n    /* \"#utility.yul\":5933:5942   */\n  dup3\n    /* \"#utility.yul\":5929:5946   */\n  and\n    /* \"#utility.yul\":5960:5961   */\n  0x00\n    /* \"#utility.yul\":5955:6092   */\n  dup2\n  eq\n  tag_124\n  jumpi\n    /* \"#utility.yul\":6106:6107   */\n  0x01\n    /* \"#utility.yul\":6101:6445   */\n  dup2\n  eq\n  tag_125\n  jumpi\n    /* \"#utility.yul\":5922:6445   */\n  jump(tag_123)\n    /* \"#utility.yul\":5955:6092   */\ntag_124:\n    /* \"#utility.yul\":6039:6043   */\n  0xff\n    /* \"#utility.yul\":6035:6044   */\n  not\n    /* \"#utility.yul\":6024:6033   */\n  dup4\n    /* \"#utility.yul\":6020:6045   */\n  and\n    /* \"#utility.yul\":6015:6018   */\n  dup7\n    /* \"#utility.yul\":6008:6046   */\n  mstore\n    /* \"#utility.yul\":6075:6081   */\n  dup2\n    /* \"#utility.yul\":6070:6073   */\n  dup7\n    /* \"#utility.yul\":6066:6082   */\n  add\n    /* \"#utility.yul\":6059:6082   */\n  swap4\n  pop\n    /* \"#utility.yul\":5955:6092   */\n  jump(tag_123)\n    /* \"#utility.yul\":6101:6445   */\ntag_125:\n    /* \"#utility.yul\":6168:6209   */\n  tag_126\n    /* \"#utility.yul\":6203:6208   */\n  dup6\n    /* \"#utility.yul\":6168:6209   */\n  tag_47\n  jump\t// in\ntag_126:\n    /* \"#utility.yul\":6231:6232   */\n  0x00\n    /* \"#utility.yul\":6245:6399   */\ntag_127:\n    /* \"#utility.yul\":6259:6265   */\n  dup4\n    /* \"#utility.yul\":6256:6257   */\n  dup2\n    /* \"#utility.yul\":6253:6266   */\n  lt\n    /* \"#utility.yul\":6245:6399   */\n  iszero\n  tag_129\n  jumpi\n    /* \"#utility.yul\":6333:6340   */\n  dup2\n    /* \"#utility.yul\":6327:6341   */\n  sload\n    /* \"#utility.yul\":6323:6324   */\n  dup2\n    /* \"#utility.yul\":6318:6321   */\n  dup10\n    /* \"#utility.yul\":6314:6325   */\n  add\n    /* \"#utility.yul\":6307:6342   */\n  mstore\n    /* \"#utility.yul\":6383:6384   */\n  0x01\n    /* \"#utility.yul\":6374:6381   */\n  dup3\n    /* \"#utility.yul\":6370:6385   */\n  add\n    /* \"#utility.yul\":6359:6385   */\n  swap2\n  pop\n    /* \"#utility.yul\":6281:6285   */\n  0x20\n    /* \"#utility.yul\":6278:6279   */\n  dup2\n    /* \"#utility.yul\":6274:6286   */\n  add\n    /* \"#utility.yul\":6269:6286   */\n  swap1\n  pop\n    /* \"#utility.yul\":6245:6399   */\n  jump(tag_127)\ntag_129:\n    /* \"#utility.yul\":6428:6434   */\n  dup4\n    /* \"#utility.yul\":6423:6426   */\n  dup9\n    /* \"#utility.yul\":6419:6435   */\n  add\n    /* \"#utility.yul\":6412:6435   */\n  swap6\n  pop\n    /* \"#utility.yul\":6108:6445   */\n  pop\n  pop\n    /* \"#utility.yul\":5922:6445   */\ntag_123:\n  pop\n    /* \"#utility.yul\":5711:6451   */\n  pop\n  pop\n    /* \"#utility.yul\":5602:6451   */\n  swap3\n  swap2\n  pop\n  pop\n  jump\t// out\n    /* \"#utility.yul\":6457:6730   */\ntag_10:\n    /* \"#utility.yul\":6588:6591   */\n  0x00\n    /* \"#utility.yul\":6610:6704   */\n  tag_131\n    /* \"#utility.yul\":6700:6703   */\n  dup3\n    /* \"#utility.yul\":6691:6697   */\n  dup5\n    /* \"#utility.yul\":6610:6704   */\n  tag_48\n  jump\t// in\ntag_131:\n    /* \"#utility.yul\":6603:6704   */\n  swap2\n  pop\n    /* \"#utility.yul\":6721:6724   */\n  dup2\n    /* \"#utility.yul\":6714:6724   */\n  swap1\n  pop\n    /* \"#utility.yul\":6457:6730   */\n  swap3\n  swap2\n  pop\n  pop\n  jump\t// out\n    /* \"#utility.yul\":6736:6813   */\ntag_49:\n    /* \"#utility.yul\":6773:6780   */\n  0x00\n    /* \"#utility.yul\":6802:6807   */\n  dup2\n    /* \"#utility.yul\":6791:6807   */\n  swap1\n  pop\n    /* \"#utility.yul\":6736:6813   */\n  swap2\n  swap1\n  pop\n  jump\t// out\n    /* \"#utility.yul\":6819:6937   */\ntag_50:\n    /* \"#utility.yul\":6906:6930   */\n  tag_134\n    /* \"#utility.yul\":6924:6929   */\n  dup2\n    /* \"#utility.yul\":6906:6930   */\n  tag_49\n  jump\t// in\ntag_134:\n    /* \"#utility.yul\":6901:6904   */\n  dup3\n    /* \"#utility.yul\":6894:6931   */\n  mstore\n    /* \"#utility.yul\":6819:6937   */\n  pop\n  pop\n  jump\t// out\n    /* \"#utility.yul\":6943:7020   */\ntag_51:\n    /* \"#utility.yul\":6980:6987   */\n  0x00\n    /* \"#utility.yul\":7009:7014   */\n  dup2\n    /* \"#utility.yul\":6998:7014   */\n  swap1\n  pop\n    /* \"#utility.yul\":6943:7020   */\n  swap2\n  swap1\n  pop\n  jump\t// out\n    /* \"#utility.yul\":7026:7144   */\ntag_52:\n    /* \"#utility.yul\":7113:7137   */\n  tag_137\n    /* \"#utility.yul\":7131:7136   */\n  dup2\n    /* \"#utility.yul\":7113:7137   */\n  tag_51\n  jump\t// in\ntag_137:\n    /* \"#utility.yul\":7108:7111   */\n  dup3\n    /* \"#utility.yul\":7101:7138   */\n  mstore\n    /* \"#utility.yul\":7026:7144   */\n  pop\n  pop\n  jump\t// out\n    /* \"#utility.yul\":7150:7268   */\ntag_53:\n    /* \"#utility.yul\":7237:7261   */\n  tag_139\n    /* \"#utility.yul\":7255:7260   */\n  dup2\n    /* \"#utility.yul\":7237:7261   */\n  tag_42\n  jump\t// in\ntag_139:\n    /* \"#utility.yul\":7232:7235   */\n  dup3\n    /* \"#utility.yul\":7225:7262   */\n  mstore\n    /* \"#utility.yul\":7150:7268   */\n  pop\n  pop\n  jump\t// out\n    /* \"#utility.yul\":7274:7938   */\ntag_12:\n    /* \"#utility.yul\":7479:7483   */\n  0x00\n    /* \"#utility.yul\":7517:7520   */\n  0xa0\n    /* \"#utility.yul\":7506:7515   */\n  dup3\n    /* \"#utility.yul\":7502:7521   */\n  add\n    /* \"#utility.yul\":7494:7521   */\n  swap1\n  pop\n    /* \"#utility.yul\":7531:7602   */\n  tag_141\n    /* \"#utility.yul\":7599:7600   */\n  0x00\n    /* \"#utility.yul\":7588:7597   */\n  dup4\n    /* \"#utility.yul\":7584:7601   */\n  add\n    /* \"#utility.yul\":7575:7581   */\n  dup9\n    /* \"#utility.yul\":7531:7602   */\n  tag_50\n  jump\t// in\ntag_141:\n    /* \"#utility.yul\":7612:7684   */\n  tag_142\n    /* \"#utility.yul\":7680:7682   */\n  0x20\n    /* \"#utility.yul\":7669:7678   */\n  dup4\n    /* \"#utility.yul\":7665:7683   */\n  add\n    /* \"#utility.yul\":7656:7662   */\n  dup8\n    /* \"#utility.yul\":7612:7684   */\n  tag_50\n  jump\t// in\ntag_142:\n    /* \"#utility.yul\":7694:7766   */\n  tag_143\n    /* \"#utility.yul\":7762:7764   */\n  0x40\n    /* \"#utility.yul\":7751:7760   */\n  dup4\n    /* \"#utility.yul\":7747:7765   */\n  add\n    /* \"#utility.yul\":7738:7744   */\n  dup7\n    /* \"#utility.yul\":7694:7766   */\n  tag_50\n  jump\t// in\ntag_143:\n    /* \"#utility.yul\":7776:7848   */\n  tag_144\n    /* \"#utility.yul\":7844:7846   */\n  0x60\n    /* \"#utility.yul\":7833:7842   */\n  dup4\n    /* \"#utility.yul\":7829:7847   */\n  add\n    /* \"#utility.yul\":7820:7826   */\n  dup6\n    /* \"#utility.yul\":7776:7848   */\n  tag_52\n  jump\t// in\ntag_144:\n    /* \"#utility.yul\":7858:7931   */\n  tag_145\n    /* \"#utility.yul\":7926:7929   */\n  0x80\n    /* \"#utility.yul\":7915:7924   */\n  dup4\n    /* \"#utility.yul\":7911:7930   */\n  add\n    /* \"#utility.yul\":7902:7908   */\n  dup5\n    /* \"#utility.yul\":7858:7931   */\n  tag_53\n  jump\t// in\ntag_145:\n    /* \"#utility.yul\":7274:7938   */\n  swap7\n  swap6\n  pop\n  pop\n  pop\n  pop\n  pop\n  pop\n  jump\t// out\n    /* \"contracts/Solid.sol\":5685:20876  contract AnyswapV6ERC20 is IAnyswapV3ERC20 {... */\ntag_13:\n  mload(0x80)\n  mload(0xa0)\n  codecopy(0x00, dataOffset(sub_0), dataSize(sub_0))\n  0x00\n  assignImmutable(\"0x2c7ca6eaf0dd20913c55b4658e5b02864b47cfd1b3241634c484bb991f3fabe0\")\n  0x00\n  assignImmutable(\"0x0f090d11efb0b026feb7fa77afe0de4c5b84317a9f67daeee49bd48b8a627ac6\")\n  return(0x00, dataSize(sub_0))\nstop\n\nsub_0: assembly {\n        /* \"contracts/Solid.sol\":5685:20876  contract AnyswapV6ERC20 is IAnyswapV3ERC20 {... */\n      mstore(0x40, 0x80)\n      callvalue\n      dup1\n      iszero\n      tag_1\n      jumpi\n      0x00\n      dup1\n      revert\n    tag_1:\n      pop\n      jumpi(tag_2, lt(calldatasize, 0x04))\n      shr(0xe0, calldataload(0x00))\n      dup1\n      0x8623ec7b\n      gt\n      tag_38\n      jumpi\n      dup1\n      0xc3081240\n      gt\n      tag_39\n      jumpi\n      dup1\n      0xd93f2445\n      gt\n      tag_40\n      jumpi\n      dup1\n      0xd93f2445\n      eq\n      tag_33\n      jumpi\n      dup1\n      0xdd62ed3e\n      eq\n      tag_34\n      jumpi\n      dup1\n      0xf75c2664\n      eq\n      tag_35\n      jumpi\n      dup1\n      0xfbfa77cf\n      eq\n      tag_36\n      jumpi\n      dup1\n      0xfca3b5aa\n      eq\n      tag_37\n      jumpi\n      jump(tag_2)\n    tag_40:\n      dup1\n      0xc3081240\n      eq\n      tag_29\n      jumpi\n      dup1\n      0xcae9ca51\n      eq\n      tag_30\n      jumpi\n      dup1\n      0xcfbd4885\n      eq\n      tag_31\n      jumpi\n      dup1\n      0xd505accf\n      eq\n      tag_32\n      jumpi\n      jump(tag_2)\n    tag_39:\n      dup1\n      0x95d89b41\n      gt\n      tag_41\n      jumpi\n      dup1\n      0x95d89b41\n      eq\n      tag_24\n      jumpi\n      dup1\n      0x9dc29fac\n      eq\n      tag_25\n      jumpi\n      dup1\n      0xa045442c\n      eq\n      tag_26\n      jumpi\n      dup1\n      0xa9059cbb\n      eq\n      tag_27\n      jumpi\n      dup1\n      0xaa271e1a\n      eq\n      tag_28\n      jumpi\n      jump(tag_2)\n    tag_41:\n      dup1\n      0x8623ec7b\n      eq\n      tag_20\n      jumpi\n      dup1\n      0x87689e28\n      eq\n      tag_21\n      jumpi\n      dup1\n      0x8da5cb5b\n      eq\n      tag_22\n      jumpi\n      dup1\n      0x91c5df49\n      eq\n      tag_23\n      jumpi\n      jump(tag_2)\n    tag_38:\n      dup1\n      0x3644e515\n      gt\n      tag_42\n      jumpi\n      dup1\n      0x605629d6\n      gt\n      tag_43\n      jumpi\n      dup1\n      0x605629d6\n      eq\n      tag_15\n      jumpi\n      dup1\n      0x6817031b\n      eq\n      tag_16\n      jumpi\n      dup1\n      0x6a42b8f8\n      eq\n      tag_17\n      jumpi\n      dup1\n      0x70a08231\n      eq\n      tag_18\n      jumpi\n      dup1\n      0x7ecebe00\n      eq\n      tag_19\n      jumpi\n      jump(tag_2)\n    tag_43:\n      dup1\n      0x3644e515\n      eq\n      tag_11\n      jumpi\n      dup1\n      0x4000aea0\n      eq\n      tag_12\n      jumpi\n      dup1\n      0x40c10f19\n      eq\n      tag_13\n      jumpi\n      dup1\n      0x52113ba7\n      eq\n      tag_14\n      jumpi\n      jump(tag_2)\n    tag_42:\n      dup1\n      0x18160ddd\n      gt\n      tag_44\n      jumpi\n      dup1\n      0x18160ddd\n      eq\n      tag_7\n      jumpi\n      dup1\n      0x23b872dd\n      eq\n      tag_8\n      jumpi\n      dup1\n      0x30adf81f\n      eq\n      tag_9\n      jumpi\n      dup1\n      0x313ce567\n      eq\n      tag_10\n      jumpi\n      jump(tag_2)\n    tag_44:\n      dup1\n      0xbf26f4\n      eq\n      tag_3\n      jumpi\n      dup1\n      0x06fdde03\n      eq\n      tag_4\n      jumpi\n      dup1\n      0x095ea7b3\n      eq\n      tag_5\n      jumpi\n      dup1\n      0x0d707df8\n      eq\n      tag_6\n      jumpi\n    tag_2:\n      0x00\n      dup1\n      revert\n        /* \"contracts/Solid.sol\":6018:6154  bytes32 public constant TRANSFER_TYPEHASH = keccak256(\"Transfer(address owner,address to,uint256 value,uint256 nonce,uint256 deadline)\") */\n    tag_3:\n      tag_45\n      tag_46\n      jump\t// in\n    tag_45:\n      mload(0x40)\n      tag_47\n      swap2\n      swap1\n      tag_48\n      jump\t// in\n    tag_47:\n      mload(0x40)\n      dup1\n      swap2\n      sub\n      swap1\n      return\n        /* \"contracts/Solid.sol\":5768:5786  string public name */\n    tag_4:\n      tag_49\n      tag_50\n      jump\t// in\n    tag_49:\n      mload(0x40)\n      tag_51\n      swap2\n      swap1\n      tag_52\n      jump\t// in\n    tag_51:\n      mload(0x40)\n      dup1\n      swap2\n      sub\n      swap1\n      return\n        /* \"contracts/Solid.sol\":12667:12932  function approve(address spender, uint256 value) external override returns (bool) {... */\n    tag_5:\n      tag_53\n      0x04\n      dup1\n      calldatasize\n      sub\n      dup2\n      add\n      swap1\n      tag_54\n      swap2\n      swap1\n      tag_55\n      jump\t// in\n    tag_54:\n      tag_56\n      jump\t// in\n    tag_53:\n      mload(0x40)\n      tag_57\n      swap2\n      swap1\n      tag_58\n      jump\t// in\n    tag_57:\n      mload(0x40)\n      dup1\n      swap2\n      sub\n      swap1\n      return\n        /* \"contracts/Solid.sol\":8579:8758  function applyMinter() external onlyVault {... */\n    tag_6:\n      tag_59\n      tag_60\n      jump\t// in\n    tag_59:\n      stop\n        /* \"contracts/Solid.sol\":11187:11289  function totalSupply() external view override returns (uint256) {... */\n    tag_7:\n      tag_61\n      tag_62\n      jump\t// in\n    tag_61:\n      mload(0x40)\n      tag_63\n      swap2\n      swap1\n      tag_64\n      jump\t// in\n    tag_63:\n      mload(0x40)\n      dup1\n      swap2\n      sub\n      swap1\n      return\n        /* \"contracts/Solid.sol\":18796:19723  function transferFrom(address from, address to, uint256 value) external override returns (bool) {... */\n    tag_8:\n      tag_65\n      0x04\n      dup1\n      calldatasize\n      sub\n      dup2\n      add\n      swap1\n      tag_66\n      swap2\n      swap1\n      tag_67\n      jump\t// in\n    tag_66:\n      tag_68\n      jump\t// in\n    tag_65:\n      mload(0x40)\n      tag_69\n      swap2\n      swap1\n      tag_58\n      jump\t// in\n    tag_69:\n      mload(0x40)\n      dup1\n      swap2\n      sub\n      swap1\n      return\n        /* \"contracts/Solid.sol\":5874:6011  bytes32 public constant PERMIT_TYPEHASH = keccak256(\"Permit(address owner,address spender,uint256 value,uint256 nonce,uint256 deadline)\") */\n    tag_9:\n      tag_70\n      tag_71\n      jump\t// in\n    tag_70:\n      mload(0x40)\n      tag_72\n      swap2\n      swap1\n      tag_48\n      jump\t// in\n    tag_72:\n      mload(0x40)\n      dup1\n      swap2\n      sub\n      swap1\n      return\n        /* \"contracts/Solid.sol\":5820:5861  uint8  public immutable override decimals */\n    tag_10:\n      tag_73\n      tag_74\n      jump\t// in\n    tag_73:\n      mload(0x40)\n      tag_75\n      swap2\n      swap1\n      tag_76\n      jump\t// in\n    tag_75:\n      mload(0x40)\n      dup1\n      swap2\n      sub\n      swap1\n      return\n        /* \"contracts/Solid.sol\":6161:6202  bytes32 public immutable DOMAIN_SEPARATOR */\n    tag_11:\n      tag_77\n      tag_78\n      jump\t// in\n    tag_77:\n      mload(0x40)\n      tag_79\n      swap2\n      swap1\n      tag_48\n      jump\t// in\n    tag_79:\n      mload(0x40)\n      dup1\n      swap2\n      sub\n      swap1\n      return\n        /* \"contracts/Solid.sol\":20350:20873  function transferAndCall(address to, uint value, bytes calldata data) external override returns (bool) {... */\n    tag_12:\n      tag_80\n      0x04\n      dup1\n      calldatasize\n      sub\n      dup2\n      add\n      swap1\n      tag_81\n      swap2\n      swap1\n      tag_82\n      jump\t// in\n    tag_81:\n      tag_83\n      jump\t// in\n    tag_80:\n      mload(0x40)\n      tag_84\n      swap2\n      swap1\n      tag_58\n      jump\t// in\n    tag_84:\n      mload(0x40)\n      dup1\n      swap2\n      sub\n      swap1\n      return\n        /* \"contracts/Solid.sol\":9101:9234  function mint(address to, uint256 amount) external onlyAuth returns (bool) {... */\n    tag_13:\n      tag_85\n      0x04\n      dup1\n      calldatasize\n      sub\n      dup2\n      add\n      swap1\n      tag_86\n      swap2\n      swap1\n      tag_55\n      jump\t// in\n    tag_86:\n      tag_87\n      jump\t// in\n    tag_85:\n      mload(0x40)\n      tag_88\n      swap2\n      swap1\n      tag_58\n      jump\t// in\n    tag_88:\n      mload(0x40)\n      dup1\n      swap2\n      sub\n      swap1\n      return\n        /* \"contracts/Solid.sol\":6866:6893  address public pendingVault */\n    tag_14:\n      tag_89\n      tag_90\n      jump\t// in\n    tag_89:\n      mload(0x40)\n      tag_91\n      swap2\n      swap1\n      tag_92\n      jump\t// in\n    tag_91:\n      mload(0x40)\n      dup1\n      swap2\n      sub\n      swap1\n      return\n        /* \"contracts/Solid.sol\":15265:16203  function transferWithPermit(address target, address to, uint256 value, uint256 deadline, uint8 v, bytes32 r, bytes32 s) external override returns (bool) {... */\n    tag_15:\n      tag_93\n      0x04\n      dup1\n      calldatasize\n      sub\n      dup2\n      add\n      swap1\n      tag_94\n      swap2\n      swap1\n      tag_95\n      jump\t// in\n    tag_94:\n      tag_96\n      jump\t// in\n    tag_93:\n      mload(0x40)\n      tag_97\n      swap2\n      swap1\n      tag_58\n      jump\t// in\n    tag_97:\n      mload(0x40)\n      dup1\n      swap2\n      sub\n      swap1\n      return\n        /* \"contracts/Solid.sol\":8002:8214  function setVault(address _vault) external onlyVault {... */\n    tag_16:\n      tag_98\n      0x04\n      dup1\n      calldatasize\n      sub\n      dup2\n      add\n      swap1\n      tag_99\n      swap2\n      swap1\n      tag_100\n      jump\t// in\n    tag_99:\n      tag_101\n      jump\t// in\n    tag_98:\n      stop\n        /* \"contracts/Solid.sol\":6535:6564  uint public delay = 2*24*3600 */\n    tag_17:\n      tag_102\n      tag_103\n      jump\t// in\n    tag_102:\n      mload(0x40)\n      tag_104\n      swap2\n      swap1\n      tag_64\n      jump\t// in\n    tag_104:\n      mload(0x40)\n      dup1\n      swap2\n      sub\n      swap1\n      return\n        /* \"contracts/Solid.sol\":6282:6336  mapping (address => uint256) public override balanceOf */\n    tag_18:\n      tag_105\n      0x04\n      dup1\n      calldatasize\n      sub\n      dup2\n      add\n      swap1\n      tag_106\n      swap2\n      swap1\n      tag_100\n      jump\t// in\n    tag_106:\n      tag_107\n      jump\t// in\n    tag_105:\n      mload(0x40)\n      tag_108\n      swap2\n      swap1\n      tag_64\n      jump\t// in\n    tag_108:\n      mload(0x40)\n      dup1\n      swap2\n      sub\n      swap1\n      return\n        /* \"contracts/Solid.sol\":9788:9839  mapping (address => uint256) public override nonces */\n    tag_19:\n      tag_109\n      0x04\n      dup1\n      calldatasize\n      sub\n      dup2\n      add\n      swap1\n      tag_110\n      swap2\n      swap1\n      tag_100\n      jump\t// in\n    tag_110:\n      tag_111\n      jump\t// in\n    tag_109:\n      mload(0x40)\n      tag_112\n      swap2\n      swap1\n      tag_64\n      jump\t// in\n    tag_112:\n      mload(0x40)\n      dup1\n      swap2\n      sub\n      swap1\n      return\n        /* \"contracts/Solid.sol\":6682:6706  address[] public minters */\n    tag_20:\n      tag_113\n      0x04\n      dup1\n      calldatasize\n      sub\n      dup2\n      add\n      swap1\n      tag_114\n      swap2\n      swap1\n      tag_115\n      jump\t// in\n    tag_114:\n      tag_116\n      jump\t// in\n    tag_113:\n      mload(0x40)\n      tag_117\n      swap2\n      swap1\n      tag_92\n      jump\t// in\n    tag_117:\n      mload(0x40)\n      dup1\n      swap2\n      sub\n      swap1\n      return\n        /* \"contracts/Solid.sol\":6900:6922  uint public delayVault */\n    tag_21:\n      tag_118\n      tag_119\n      jump\t// in\n    tag_118:\n      mload(0x40)\n      tag_120\n      swap2\n      swap1\n      tag_64\n      jump\t// in\n    tag_120:\n      mload(0x40)\n      dup1\n      swap2\n      sub\n      swap1\n      return\n        /* \"contracts/Solid.sol\":7259:7337  function owner() public view returns (address) {... */\n    tag_22:\n      tag_121\n      tag_122\n      jump\t// in\n    tag_121:\n      mload(0x40)\n      tag_123\n      swap2\n      swap1\n      tag_92\n      jump\t// in\n    tag_123:\n      mload(0x40)\n      dup1\n      swap2\n      sub\n      swap1\n      return\n        /* \"contracts/Solid.sol\":6799:6827  address public pendingMinter */\n    tag_23:\n      tag_124\n      tag_125\n      jump\t// in\n    tag_124:\n      mload(0x40)\n      tag_126\n      swap2\n      swap1\n      tag_92\n      jump\t// in\n    tag_126:\n      mload(0x40)\n      dup1\n      swap2\n      sub\n      swap1\n      return\n        /* \"contracts/Solid.sol\":5793:5813  string public symbol */\n    tag_24:\n      tag_127\n      tag_128\n      jump\t// in\n    tag_127:\n      mload(0x40)\n      tag_129\n      swap2\n      swap1\n      tag_52\n      jump\t// in\n    tag_129:\n      mload(0x40)\n      dup1\n      swap2\n      sub\n      swap1\n      return\n        /* \"contracts/Solid.sol\":9307:9514  function burn(address from, uint256 amount) external onlyAuth returns (bool) {... */\n    tag_25:\n      tag_130\n      0x04\n      dup1\n      calldatasize\n      sub\n      dup2\n      add\n      swap1\n      tag_131\n      swap2\n      swap1\n      tag_55\n      jump\t// in\n    tag_131:\n      tag_132\n      jump\t// in\n    tag_130:\n      mload(0x40)\n      tag_133\n      swap2\n      swap1\n      tag_58\n      jump\t// in\n    tag_133:\n      mload(0x40)\n      dup1\n      swap2\n      sub\n      swap1\n      return\n        /* \"contracts/Solid.sol\":8927:9026  function getAllMinters() external view returns (address[] memory) {... */\n    tag_26:\n      tag_134\n      tag_135\n      jump\t// in\n    tag_134:\n      mload(0x40)\n      tag_136\n      swap2\n      swap1\n      tag_137\n      jump\t// in\n    tag_136:\n      mload(0x40)\n      dup1\n      swap2\n      sub\n      swap1\n      return\n        /* \"contracts/Solid.sol\":17469:17907  function transfer(address to, uint256 value) external override returns (bool) {... */\n    tag_27:\n      tag_138\n      0x04\n      dup1\n      calldatasize\n      sub\n      dup2\n      add\n      swap1\n      tag_139\n      swap2\n      swap1\n      tag_55\n      jump\t// in\n    tag_139:\n      tag_140\n      jump\t// in\n    tag_138:\n      mload(0x40)\n      tag_141\n      swap2\n      swap1\n      tag_58\n      jump\t// in\n    tag_141:\n      mload(0x40)\n      dup1\n      swap2\n      sub\n      swap1\n      return\n        /* \"contracts/Solid.sol\":6635:6675  mapping(address => bool) public isMinter */\n    tag_28:\n      tag_142\n      0x04\n      dup1\n      calldatasize\n      sub\n      dup2\n      add\n      swap1\n      tag_143\n      swap2\n      swap1\n      tag_100\n      jump\t// in\n    tag_143:\n      tag_144\n      jump\t// in\n    tag_142:\n      mload(0x40)\n      tag_145\n      swap2\n      swap1\n      tag_58\n      jump\t// in\n    tag_145:\n      mload(0x40)\n      dup1\n      swap2\n      sub\n      swap1\n      return\n        /* \"contracts/Solid.sol\":6834:6857  uint public delayMinter */\n    tag_29:\n      tag_146\n      tag_147\n      jump\t// in\n    tag_146:\n      mload(0x40)\n      tag_148\n      swap2\n      swap1\n      tag_64\n      jump\t// in\n    tag_148:\n      mload(0x40)\n      dup1\n      swap2\n      sub\n      swap1\n      return\n        /* \"contracts/Solid.sol\":13353:13709  function approveAndCall(address spender, uint256 value, bytes calldata data) external override returns (bool) {... */\n    tag_30:\n      tag_149\n      0x04\n      dup1\n      calldatasize\n      sub\n      dup2\n      add\n      swap1\n      tag_150\n      swap2\n      swap1\n      tag_82\n      jump\t// in\n    tag_150:\n      tag_151\n      jump\t// in\n    tag_149:\n      mload(0x40)\n      tag_152\n      swap2\n      swap1\n      tag_58\n      jump\t// in\n    tag_152:\n      mload(0x40)\n      dup1\n      swap2\n      sub\n      swap1\n      return\n        /* \"contracts/Solid.sol\":8821:8919  function revokeMinter(address _auth) external onlyVault {... */\n    tag_31:\n      tag_153\n      0x04\n      dup1\n      calldatasize\n      sub\n      dup2\n      add\n      swap1\n      tag_154\n      swap2\n      swap1\n      tag_100\n      jump\t// in\n    tag_154:\n      tag_155\n      jump\t// in\n    tag_153:\n      stop\n        /* \"contracts/Solid.sol\":14542:15257  function permit(address target, address spender, uint256 value, uint256 deadline, uint8 v, bytes32 r, bytes32 s) external override {... */\n    tag_32:\n      tag_156\n      0x04\n      dup1\n      calldatasize\n      sub\n      dup2\n      add\n      swap1\n      tag_157\n      swap2\n      swap1\n      tag_95\n      jump\t// in\n    tag_157:\n      tag_158\n      jump\t// in\n    tag_156:\n      stop\n        /* \"contracts/Solid.sol\":8222:8351  function applyVault() external onlyVault {... */\n    tag_33:\n      tag_159\n      tag_160\n      jump\t// in\n    tag_159:\n      stop\n        /* \"contracts/Solid.sol\":10009:10084  mapping (address => mapping (address => uint256)) public override allowance */\n    tag_34:\n      tag_161\n      0x04\n      dup1\n      calldatasize\n      sub\n      dup2\n      add\n      swap1\n      tag_162\n      swap2\n      swap1\n      tag_163\n      jump\t// in\n    tag_162:\n      tag_164\n      jump\t// in\n    tag_161:\n      mload(0x40)\n      tag_165\n      swap2\n      swap1\n      tag_64\n      jump\t// in\n    tag_165:\n      mload(0x40)\n      dup1\n      swap2\n      sub\n      swap1\n      return\n        /* \"contracts/Solid.sol\":7367:7534  function mpc() public view returns (address) {... */\n    tag_35:\n      tag_166\n      tag_167\n      jump\t// in\n    tag_166:\n      mload(0x40)\n      tag_168\n      swap2\n      swap1\n      tag_92\n      jump\t// in\n    tag_168:\n      mload(0x40)\n      dup1\n      swap2\n      sub\n      swap1\n      return\n        /* \"contracts/Solid.sol\":6770:6790  address public vault */\n    tag_36:\n      tag_169\n      tag_170\n      jump\t// in\n    tag_169:\n      mload(0x40)\n      tag_171\n      swap2\n      swap1\n      tag_92\n      jump\t// in\n    tag_171:\n      mload(0x40)\n      dup1\n      swap2\n      sub\n      swap1\n      return\n        /* \"contracts/Solid.sol\":8359:8571  function setMinter(address _auth) external onlyVault {... */\n    tag_37:\n      tag_172\n      0x04\n      dup1\n      calldatasize\n      sub\n      dup2\n      add\n      swap1\n      tag_173\n      swap2\n      swap1\n      tag_100\n      jump\t// in\n    tag_173:\n      tag_174\n      jump\t// in\n    tag_172:\n      stop\n        /* \"contracts/Solid.sol\":6018:6154  bytes32 public constant TRANSFER_TYPEHASH = keccak256(\"Transfer(address owner,address to,uint256 value,uint256 nonce,uint256 deadline)\") */\n    tag_46:\n        /* \"contracts/Solid.sol\":6062:6154  keccak256(\"Transfer(address owner,address to,uint256 value,uint256 nonce,uint256 deadline)\") */\n      0x42ce63790c28229c123925d83266e77c04d28784552ab68b350a9003226cbd59\n        /* \"contracts/Solid.sol\":6018:6154  bytes32 public constant TRANSFER_TYPEHASH = keccak256(\"Transfer(address owner,address to,uint256 value,uint256 nonce,uint256 deadline)\") */\n      dup2\n      jump\t// out\n        /* \"contracts/Solid.sol\":5768:5786  string public name */\n    tag_50:\n      0x00\n      dup1\n      sload\n      tag_175\n      swap1\n      tag_176\n      jump\t// in\n    tag_175:\n      dup1\n      0x1f\n      add\n      0x20\n      dup1\n      swap2\n      div\n      mul\n      0x20\n      add\n      mload(0x40)\n      swap1\n      dup2\n      add\n      0x40\n      mstore\n      dup1\n      swap3\n      swap2\n      swap1\n      dup2\n      dup2\n      mstore\n      0x20\n      add\n      dup3\n      dup1\n      sload\n      tag_177\n      swap1\n      tag_176\n      jump\t// in\n    tag_177:\n      dup1\n      iszero\n      tag_178\n      jumpi\n      dup1\n      0x1f\n      lt\n      tag_179\n      jumpi\n      0x0100\n      dup1\n      dup4\n      sload\n      div\n      mul\n      dup4\n      mstore\n      swap2\n      0x20\n      add\n      swap2\n      jump(tag_178)\n    tag_179:\n      dup3\n      add\n      swap2\n      swap1\n      0x00\n      mstore\n      keccak256(0x00, 0x20)\n      swap1\n    tag_180:\n      dup2\n      sload\n      dup2\n      mstore\n      swap1\n      0x01\n      add\n      swap1\n      0x20\n      add\n      dup1\n      dup4\n      gt\n      tag_180\n      jumpi\n      dup3\n      swap1\n      sub\n      0x1f\n      and\n      dup3\n      add\n      swap2\n    tag_178:\n      pop\n      pop\n      pop\n      pop\n      pop\n      dup2\n      jump\t// out\n        /* \"contracts/Solid.sol\":12667:12932  function approve(address spender, uint256 value) external override returns (bool) {... */\n    tag_56:\n        /* \"contracts/Solid.sol\":12743:12747  bool */\n      0x00\n        /* \"contracts/Solid.sol\":12843:12848  value */\n      dup2\n        /* \"contracts/Solid.sol\":12810:12819  allowance */\n      0x0e\n        /* \"contracts/Solid.sol\":12810:12831  allowance[msg.sender] */\n      0x00\n        /* \"contracts/Solid.sol\":12820:12830  msg.sender */\n      caller\n        /* \"contracts/Solid.sol\":12810:12831  allowance[msg.sender] */\n      0xffffffffffffffffffffffffffffffffffffffff\n      and\n      0xffffffffffffffffffffffffffffffffffffffff\n      and\n      dup2\n      mstore\n      0x20\n      add\n      swap1\n      dup2\n      mstore\n      0x20\n      add\n      0x00\n      keccak256\n        /* \"contracts/Solid.sol\":12810:12840  allowance[msg.sender][spender] */\n      0x00\n        /* \"contracts/Solid.sol\":12832:12839  spender */\n      dup6\n        /* \"contracts/Solid.sol\":12810:12840  allowance[msg.sender][spender] */\n      0xffffffffffffffffffffffffffffffffffffffff\n      and\n      0xffffffffffffffffffffffffffffffffffffffff\n      and\n      dup2\n      mstore\n      0x20\n      add\n      swap1\n      dup2\n      mstore\n      0x20\n      add\n      0x00\n      keccak256\n        /* \"contracts/Solid.sol\":12810:12848  allowance[msg.sender][spender] = value */\n      dup2\n      swap1\n      sstore\n      pop\n        /* \"contracts/Solid.sol\":12885:12892  spender */\n      dup3\n        /* \"contracts/Solid.sol\":12864:12900  Approval(msg.sender, spender, value) */\n      0xffffffffffffffffffffffffffffffffffffffff\n      and\n        /* \"contracts/Solid.sol\":12873:12883  msg.sender */\n      caller\n        /* \"contracts/Solid.sol\":12864:12900  Approval(msg.sender, spender, value) */\n      0xffffffffffffffffffffffffffffffffffffffff\n      and\n      0x8c5be1e5ebec7d5bd14f71427d1e84f3dd0314c0f7b2291e5b200ac8c7c3b925\n        /* \"contracts/Solid.sol\":12894:12899  value */\n      dup5\n        /* \"contracts/Solid.sol\":12864:12900  Approval(msg.sender, spender, value) */\n      mload(0x40)\n      tag_182\n      swap2\n      swap1\n      tag_64\n      jump\t// in\n    tag_182:\n      mload(0x40)\n      dup1\n      swap2\n      sub\n      swap1\n      log3\n        /* \"contracts/Solid.sol\":12920:12924  true */\n      0x01\n        /* \"contracts/Solid.sol\":12913:12924  return true */\n      swap1\n      pop\n        /* \"contracts/Solid.sol\":12667:12932  function approve(address spender, uint256 value) external override returns (bool) {... */\n      swap3\n      swap2\n      pop\n      pop\n      jump\t// out\n        /* \"contracts/Solid.sol\":8579:8758  function applyMinter() external onlyVault {... */\n    tag_60:\n        /* \"contracts/Solid.sol\":7196:7201  mpc() */\n      tag_184\n        /* \"contracts/Solid.sol\":7196:7199  mpc */\n      tag_167\n        /* \"contracts/Solid.sol\":7196:7201  mpc() */\n      jump\t// in\n    tag_184:\n        /* \"contracts/Solid.sol\":7182:7201  msg.sender == mpc() */\n      0xffffffffffffffffffffffffffffffffffffffff\n      and\n        /* \"contracts/Solid.sol\":7182:7192  msg.sender */\n      caller\n        /* \"contracts/Solid.sol\":7182:7201  msg.sender == mpc() */\n      0xffffffffffffffffffffffffffffffffffffffff\n      and\n      eq\n        /* \"contracts/Solid.sol\":7174:7231  require(msg.sender == mpc(), \"AnyswapV3ERC20: FORBIDDEN\") */\n      tag_185\n      jumpi\n      mload(0x40)\n      0x08c379a000000000000000000000000000000000000000000000000000000000\n      dup2\n      mstore\n      0x04\n      add\n      tag_186\n      swap1\n      tag_187\n      jump\t// in\n    tag_186:\n      mload(0x40)\n      dup1\n      swap2\n      sub\n      swap1\n      revert\n    tag_185:\n        /* \"contracts/Solid.sol\":8659:8670  delayMinter */\n      sload(0x0a)\n        /* \"contracts/Solid.sol\":8640:8655  block.timestamp */\n      timestamp\n        /* \"contracts/Solid.sol\":8640:8670  block.timestamp >= delayMinter */\n      lt\n      iszero\n        /* \"contracts/Solid.sol\":8632:8671  require(block.timestamp >= delayMinter) */\n      tag_189\n      jumpi\n      0x00\n      dup1\n      revert\n    tag_189:\n        /* \"contracts/Solid.sol\":8708:8712  true */\n      0x01\n        /* \"contracts/Solid.sol\":8682:8690  isMinter */\n      0x06\n        /* \"contracts/Solid.sol\":8682:8705  isMinter[pendingMinter] */\n      0x00\n        /* \"contracts/Solid.sol\":8691:8704  pendingMinter */\n      0x09\n      0x00\n      swap1\n      sload\n      swap1\n      0x0100\n      exp\n      swap1\n      div\n      0xffffffffffffffffffffffffffffffffffffffff\n      and\n        /* \"contracts/Solid.sol\":8682:8705  isMinter[pendingMinter] */\n      0xffffffffffffffffffffffffffffffffffffffff\n      and\n      0xffffffffffffffffffffffffffffffffffffffff\n      and\n      dup2\n      mstore\n      0x20\n      add\n      swap1\n      dup2\n      mstore\n      0x20\n      add\n      0x00\n      keccak256\n      0x00\n        /* \"contracts/Solid.sol\":8682:8712  isMinter[pendingMinter] = true */\n      0x0100\n      exp\n      dup2\n      sload\n      dup2\n      0xff\n      mul\n      not\n      and\n      swap1\n      dup4\n      iszero\n      iszero\n      mul\n      or\n      swap1\n      sstore\n      pop\n        /* \"contracts/Solid.sol\":8723:8730  minters */\n      0x07\n        /* \"contracts/Solid.sol\":8736:8749  pendingMinter */\n      0x09\n      0x00\n      swap1\n      sload\n      swap1\n      0x0100\n      exp\n      swap1\n      div\n      0xffffffffffffffffffffffffffffffffffffffff\n      and\n        /* \"contracts/Solid.sol\":8723:8750  minters.push(pendingMinter) */\n      swap1\n      dup1\n      0x01\n      dup2\n      sload\n      add\n      dup1\n      dup3\n      sstore\n      dup1\n      swap2\n      pop\n      pop\n      0x01\n      swap1\n      sub\n      swap1\n      0x00\n      mstore\n      keccak256(0x00, 0x20)\n      add\n      0x00\n      swap1\n      swap2\n      swap1\n      swap2\n      swap1\n      swap2\n      0x0100\n      exp\n      dup2\n      sload\n      dup2\n      0xffffffffffffffffffffffffffffffffffffffff\n      mul\n      not\n      and\n      swap1\n      dup4\n      0xffffffffffffffffffffffffffffffffffffffff\n      and\n      mul\n      or\n      swap1\n      sstore\n      pop\n        /* \"contracts/Solid.sol\":8579:8758  function applyMinter() external onlyVault {... */\n      jump\t// out\n        /* \"contracts/Solid.sol\":11187:11289  function totalSupply() external view override returns (uint256) {... */\n    tag_62:\n        /* \"contracts/Solid.sol\":11242:11249  uint256 */\n      0x00\n        /* \"contracts/Solid.sol\":11269:11281  _totalSupply */\n      sload(0x03)\n        /* \"contracts/Solid.sol\":11262:11281  return _totalSupply */\n      swap1\n      pop\n        /* \"contracts/Solid.sol\":11187:11289  function totalSupply() external view override returns (uint256) {... */\n      swap1\n      jump\t// out\n        /* \"contracts/Solid.sol\":18796:19723  function transferFrom(address from, address to, uint256 value) external override returns (bool) {... */\n    tag_68:\n        /* \"contracts/Solid.sol\":18886:18890  bool */\n      0x00\n        /* \"contracts/Solid.sol\":18925:18926  0 */\n      dup1\n        /* \"contracts/Solid.sol\":18911:18927  to != address(0) */\n      0xffffffffffffffffffffffffffffffffffffffff\n      and\n        /* \"contracts/Solid.sol\":18911:18913  to */\n      dup4\n        /* \"contracts/Solid.sol\":18911:18927  to != address(0) */\n      0xffffffffffffffffffffffffffffffffffffffff\n      and\n      eq\n      iszero\n        /* \"contracts/Solid.sol\":18911:18950  to != address(0) || to != address(this) */\n      dup1\n      tag_193\n      jumpi\n      pop\n        /* \"contracts/Solid.sol\":18945:18949  this */\n      address\n        /* \"contracts/Solid.sol\":18931:18950  to != address(this) */\n      0xffffffffffffffffffffffffffffffffffffffff\n      and\n        /* \"contracts/Solid.sol\":18931:18933  to */\n      dup4\n        /* \"contracts/Solid.sol\":18931:18950  to != address(this) */\n      0xffffffffffffffffffffffffffffffffffffffff\n      and\n      eq\n      iszero\n        /* \"contracts/Solid.sol\":18911:18950  to != address(0) || to != address(this) */\n    tag_193:\n        /* \"contracts/Solid.sol\":18903:18951  require(to != address(0) || to != address(this)) */\n      tag_194\n      jumpi\n      0x00\n      dup1\n      revert\n    tag_194:\n        /* \"contracts/Solid.sol\":18974:18984  msg.sender */\n      caller\n        /* \"contracts/Solid.sol\":18966:18984  from != msg.sender */\n      0xffffffffffffffffffffffffffffffffffffffff\n      and\n        /* \"contracts/Solid.sol\":18966:18970  from */\n      dup5\n        /* \"contracts/Solid.sol\":18966:18984  from != msg.sender */\n      0xffffffffffffffffffffffffffffffffffffffff\n      and\n      eq\n        /* \"contracts/Solid.sol\":18962:19439  if (from != msg.sender) {... */\n      tag_195\n      jumpi\n        /* \"contracts/Solid.sol\":19062:19077  uint256 allowed */\n      0x00\n        /* \"contracts/Solid.sol\":19080:19089  allowance */\n      0x0e\n        /* \"contracts/Solid.sol\":19080:19095  allowance[from] */\n      0x00\n        /* \"contracts/Solid.sol\":19090:19094  from */\n      dup7\n        /* \"contracts/Solid.sol\":19080:19095  allowance[from] */\n      0xffffffffffffffffffffffffffffffffffffffff\n      and\n      0xffffffffffffffffffffffffffffffffffffffff\n      and\n      dup2\n      mstore\n      0x20\n      add\n      swap1\n      dup2\n      mstore\n      0x20\n      add\n      0x00\n      keccak256\n        /* \"contracts/Solid.sol\":19080:19107  allowance[from][msg.sender] */\n      0x00\n        /* \"contracts/Solid.sol\":19096:19106  msg.sender */\n      caller\n        /* \"contracts/Solid.sol\":19080:19107  allowance[from][msg.sender] */\n      0xffffffffffffffffffffffffffffffffffffffff\n      and\n      0xffffffffffffffffffffffffffffffffffffffff\n      and\n      dup2\n      mstore\n      0x20\n      add\n      swap1\n      dup2\n      mstore\n      0x20\n      add\n      0x00\n      keccak256\n      sload\n        /* \"contracts/Solid.sol\":19062:19107  uint256 allowed = allowance[from][msg.sender] */\n      swap1\n      pop\n        /* \"contracts/Solid.sol\":19137:19154  type(uint256).max */\n      0xffffffffffffffffffffffffffffffffffffffffffffffffffffffffffffffff\n        /* \"contracts/Solid.sol\":19126:19133  allowed */\n      dup2\n        /* \"contracts/Solid.sol\":19126:19154  allowed != type(uint256).max */\n      eq\n        /* \"contracts/Solid.sol\":19122:19428  if (allowed != type(uint256).max) {... */\n      tag_196\n      jumpi\n        /* \"contracts/Solid.sol\":19194:19199  value */\n      dup3\n        /* \"contracts/Solid.sol\":19183:19190  allowed */\n      dup2\n        /* \"contracts/Solid.sol\":19183:19199  allowed >= value */\n      lt\n      iszero\n        /* \"contracts/Solid.sol\":19175:19245  require(allowed >= value, \"AnyswapV3ERC20: request exceeds allowance\") */\n      tag_197\n      jumpi\n      mload(0x40)\n      0x08c379a000000000000000000000000000000000000000000000000000000000\n      dup2\n      mstore\n      0x04\n      add\n      tag_198\n      swap1\n      tag_199\n      jump\t// in\n    tag_198:\n      mload(0x40)\n      dup1\n      swap2\n      sub\n      swap1\n      revert\n    tag_197:\n        /* \"contracts/Solid.sol\":19264:19279  uint256 reduced */\n      0x00\n        /* \"contracts/Solid.sol\":19292:19297  value */\n      dup4\n        /* \"contracts/Solid.sol\":19282:19289  allowed */\n      dup3\n        /* \"contracts/Solid.sol\":19282:19297  allowed - value */\n      tag_200\n      swap2\n      swap1\n      tag_201\n      jump\t// in\n    tag_200:\n        /* \"contracts/Solid.sol\":19264:19297  uint256 reduced = allowed - value */\n      swap1\n      pop\n        /* \"contracts/Solid.sol\":19346:19353  reduced */\n      dup1\n        /* \"contracts/Solid.sol\":19316:19325  allowance */\n      0x0e\n        /* \"contracts/Solid.sol\":19316:19331  allowance[from] */\n      0x00\n        /* \"contracts/Solid.sol\":19326:19330  from */\n      dup9\n        /* \"contracts/Solid.sol\":19316:19331  allowance[from] */\n      0xffffffffffffffffffffffffffffffffffffffff\n      and\n      0xffffffffffffffffffffffffffffffffffffffff\n      and\n      dup2\n      mstore\n      0x20\n      add\n      swap1\n      dup2\n      mstore\n      0x20\n      add\n      0x00\n      keccak256\n        /* \"contracts/Solid.sol\":19316:19343  allowance[from][msg.sender] */\n      0x00\n        /* \"contracts/Solid.sol\":19332:19342  msg.sender */\n      caller\n        /* \"contracts/Solid.sol\":19316:19343  allowance[from][msg.sender] */\n      0xffffffffffffffffffffffffffffffffffffffff\n      and\n      0xffffffffffffffffffffffffffffffffffffffff\n      and\n      dup2\n      mstore\n      0x20\n      add\n      swap1\n      dup2\n      mstore\n      0x20\n      add\n      0x00\n      keccak256\n        /* \"contracts/Solid.sol\":19316:19353  allowance[from][msg.sender] = reduced */\n      dup2\n      swap1\n      sstore\n      pop\n        /* \"contracts/Solid.sol\":19392:19402  msg.sender */\n      caller\n        /* \"contracts/Solid.sol\":19377:19412  Approval(from, msg.sender, reduced) */\n      0xffffffffffffffffffffffffffffffffffffffff\n      and\n        /* \"contracts/Solid.sol\":19386:19390  from */\n      dup7\n        /* \"contracts/Solid.sol\":19377:19412  Approval(from, msg.sender, reduced) */\n      0xffffffffffffffffffffffffffffffffffffffff\n      and\n      0x8c5be1e5ebec7d5bd14f71427d1e84f3dd0314c0f7b2291e5b200ac8c7c3b925\n        /* \"contracts/Solid.sol\":19404:19411  reduced */\n      dup4\n        /* \"contracts/Solid.sol\":19377:19412  Approval(from, msg.sender, reduced) */\n      mload(0x40)\n      tag_202\n      swap2\n      swap1\n      tag_64\n      jump\t// in\n    tag_202:\n      mload(0x40)\n      dup1\n      swap2\n      sub\n      swap1\n      log3\n        /* \"contracts/Solid.sol\":19156:19428  {... */\n      pop\n        /* \"contracts/Solid.sol\":19122:19428  if (allowed != type(uint256).max) {... */\n    tag_196:\n        /* \"contracts/Solid.sol\":18986:19439  {... */\n      pop\n        /* \"contracts/Solid.sol\":18962:19439  if (from != msg.sender) {... */\n    tag_195:\n        /* \"contracts/Solid.sol\":19451:19466  uint256 balance */\n      0x00\n        /* \"contracts/Solid.sol\":19469:19478  balanceOf */\n      0x02\n        /* \"contracts/Solid.sol\":19469:19484  balanceOf[from] */\n      0x00\n        /* \"contracts/Solid.sol\":19479:19483  from */\n      dup7\n        /* \"contracts/Solid.sol\":19469:19484  balanceOf[from] */\n      0xffffffffffffffffffffffffffffffffffffffff\n      and\n      0xffffffffffffffffffffffffffffffffffffffff\n      and\n      dup2\n      mstore\n      0x20\n      add\n      swap1\n      dup2\n      mstore\n      0x20\n      add\n      0x00\n      keccak256\n      sload\n        /* \"contracts/Solid.sol\":19451:19484  uint256 balance = balanceOf[from] */\n      swap1\n      pop\n        /* \"contracts/Solid.sol\":19514:19519  value */\n      dup3\n        /* \"contracts/Solid.sol\":19503:19510  balance */\n      dup2\n        /* \"contracts/Solid.sol\":19503:19519  balance >= value */\n      lt\n      iszero\n        /* \"contracts/Solid.sol\":19495:19571  require(balance >= value, \"AnyswapV3ERC20: transfer amount exceeds balance\") */\n      tag_203\n      jumpi\n      mload(0x40)\n      0x08c379a000000000000000000000000000000000000000000000000000000000\n      dup2\n      mstore\n      0x04\n      add\n      tag_204\n      swap1\n      tag_205\n      jump\t// in\n    tag_204:\n      mload(0x40)\n      dup1\n      swap2\n      sub\n      swap1\n      revert\n    tag_203:\n        /* \"contracts/Solid.sol\":19612:19617  value */\n      dup3\n        /* \"contracts/Solid.sol\":19602:19609  balance */\n      dup2\n        /* \"contracts/Solid.sol\":19602:19617  balance - value */\n      tag_206\n      swap2\n      swap1\n      tag_201\n      jump\t// in\n    tag_206:\n        /* \"contracts/Solid.sol\":19584:19593  balanceOf */\n      0x02\n        /* \"contracts/Solid.sol\":19584:19599  balanceOf[from] */\n      0x00\n        /* \"contracts/Solid.sol\":19594:19598  from */\n      dup8\n        /* \"contracts/Solid.sol\":19584:19599  balanceOf[from] */\n      0xffffffffffffffffffffffffffffffffffffffff\n      and\n      0xffffffffffffffffffffffffffffffffffffffff\n      and\n      dup2\n      mstore\n      0x20\n      add\n      swap1\n      dup2\n      mstore\n      0x20\n      add\n      0x00\n      keccak256\n        /* \"contracts/Solid.sol\":19584:19617  balanceOf[from] = balance - value */\n      dup2\n      swap1\n      sstore\n      pop\n        /* \"contracts/Solid.sol\":19645:19650  value */\n      dup3\n        /* \"contracts/Solid.sol\":19628:19637  balanceOf */\n      0x02\n        /* \"contracts/Solid.sol\":19628:19641  balanceOf[to] */\n      0x00\n        /* \"contracts/Solid.sol\":19638:19640  to */\n      dup7\n        /* \"contracts/Solid.sol\":19628:19641  balanceOf[to] */\n      0xffffffffffffffffffffffffffffffffffffffff\n      and\n      0xffffffffffffffffffffffffffffffffffffffff\n      and\n      dup2\n      mstore\n      0x20\n      add\n      swap1\n      dup2\n      mstore\n      0x20\n      add\n      0x00\n      keccak256\n      0x00\n        /* \"contracts/Solid.sol\":19628:19650  balanceOf[to] += value */\n      dup3\n      dup3\n      sload\n      tag_207\n      swap2\n      swap1\n      tag_208\n      jump\t// in\n    tag_207:\n      swap3\n      pop\n      pop\n      dup2\n      swap1\n      sstore\n      pop\n        /* \"contracts/Solid.sol\":19681:19683  to */\n      dup4\n        /* \"contracts/Solid.sol\":19666:19691  Transfer(from, to, value) */\n      0xffffffffffffffffffffffffffffffffffffffff\n      and\n        /* \"contracts/Solid.sol\":19675:19679  from */\n      dup6\n        /* \"contracts/Solid.sol\":19666:19691  Transfer(from, to, value) */\n      0xffffffffffffffffffffffffffffffffffffffff\n      and\n      0xddf252ad1be2c89b69c2b068fc378daa952ba7f163c4a11628f55a4df523b3ef\n        /* \"contracts/Solid.sol\":19685:19690  value */\n      dup6\n        /* \"contracts/Solid.sol\":19666:19691  Transfer(from, to, value) */\n      mload(0x40)\n      tag_209\n      swap2\n      swap1\n      tag_64\n      jump\t// in\n    tag_209:\n      mload(0x40)\n      dup1\n      swap2\n      sub\n      swap1\n      log3\n        /* \"contracts/Solid.sol\":19711:19715  true */\n      0x01\n        /* \"contracts/Solid.sol\":19704:19715  return true */\n      swap2\n      pop\n      pop\n        /* \"contracts/Solid.sol\":18796:19723  function transferFrom(address from, address to, uint256 value) external override returns (bool) {... */\n      swap4\n      swap3\n      pop\n      pop\n      pop\n      jump\t// out\n        /* \"contracts/Solid.sol\":5874:6011  bytes32 public constant PERMIT_TYPEHASH = keccak256(\"Permit(address owner,address spender,uint256 value,uint256 nonce,uint256 deadline)\") */\n    tag_71:\n        /* \"contracts/Solid.sol\":5916:6011  keccak256(\"Permit(address owner,address spender,uint256 value,uint256 nonce,uint256 deadline)\") */\n      0x6e71edae12b1b97f4d1f60370fef10105fa2faae0126114a169c64845d6126c9\n        /* \"contracts/Solid.sol\":5874:6011  bytes32 public constant PERMIT_TYPEHASH = keccak256(\"Permit(address owner,address spender,uint256 value,uint256 nonce,uint256 deadline)\") */\n      dup2\n      jump\t// out\n        /* \"contracts/Solid.sol\":5820:5861  uint8  public immutable override decimals */\n    tag_74:\n      immutable(\"0x0f090d11efb0b026feb7fa77afe0de4c5b84317a9f67daeee49bd48b8a627ac6\")\n      dup2\n      jump\t// out\n        /* \"contracts/Solid.sol\":6161:6202  bytes32 public immutable DOMAIN_SEPARATOR */\n    tag_78:\n      immutable(\"0x2c7ca6eaf0dd20913c55b4658e5b02864b47cfd1b3241634c484bb991f3fabe0\")\n      dup2\n      jump\t// out\n        /* \"contracts/Solid.sol\":20350:20873  function transferAndCall(address to, uint value, bytes calldata data) external override returns (bool) {... */\n    tag_83:\n        /* \"contracts/Solid.sol\":20447:20451  bool */\n      0x00\n        /* \"contracts/Solid.sol\":20486:20487  0 */\n      dup1\n        /* \"contracts/Solid.sol\":20472:20488  to != address(0) */\n      0xffffffffffffffffffffffffffffffffffffffff\n      and\n        /* \"contracts/Solid.sol\":20472:20474  to */\n      dup6\n        /* \"contracts/Solid.sol\":20472:20488  to != address(0) */\n      0xffffffffffffffffffffffffffffffffffffffff\n      and\n      eq\n      iszero\n        /* \"contracts/Solid.sol\":20472:20511  to != address(0) || to != address(this) */\n      dup1\n      tag_211\n      jumpi\n      pop\n        /* \"contracts/Solid.sol\":20506:20510  this */\n      address\n        /* \"contracts/Solid.sol\":20492:20511  to != address(this) */\n      0xffffffffffffffffffffffffffffffffffffffff\n      and\n        /* \"contracts/Solid.sol\":20492:20494  to */\n      dup6\n        /* \"contracts/Solid.sol\":20492:20511  to != address(this) */\n      0xffffffffffffffffffffffffffffffffffffffff\n      and\n      eq\n      iszero\n        /* \"contracts/Solid.sol\":20472:20511  to != address(0) || to != address(this) */\n    tag_211:\n        /* \"contracts/Solid.sol\":20464:20512  require(to != address(0) || to != address(this)) */\n      tag_212\n      jumpi\n      0x00\n      dup1\n      revert\n    tag_212:\n        /* \"contracts/Solid.sol\":20525:20540  uint256 balance */\n      0x00\n        /* \"contracts/Solid.sol\":20543:20552  balanceOf */\n      0x02\n        /* \"contracts/Solid.sol\":20543:20564  balanceOf[msg.sender] */\n      0x00\n        /* \"contracts/Solid.sol\":20553:20563  msg.sender */\n      caller\n        /* \"contracts/Solid.sol\":20543:20564  balanceOf[msg.sender] */\n      0xffffffffffffffffffffffffffffffffffffffff\n      and\n      0xffffffffffffffffffffffffffffffffffffffff\n      and\n      dup2\n      mstore\n      0x20\n      add\n      swap1\n      dup2\n      mstore\n      0x20\n      add\n      0x00\n      keccak256\n      sload\n        /* \"contracts/Solid.sol\":20525:20564  uint256 balance = balanceOf[msg.sender] */\n      swap1\n      pop\n        /* \"contracts/Solid.sol\":20594:20599  value */\n      dup5\n        /* \"contracts/Solid.sol\":20583:20590  balance */\n      dup2\n        /* \"contracts/Solid.sol\":20583:20599  balance >= value */\n      lt\n      iszero\n        /* \"contracts/Solid.sol\":20575:20651  require(balance >= value, \"AnyswapV3ERC20: transfer amount exceeds balance\") */\n      tag_213\n      jumpi\n      mload(0x40)\n      0x08c379a000000000000000000000000000000000000000000000000000000000\n      dup2\n      mstore\n      0x04\n      add\n      tag_214\n      swap1\n      tag_205\n      jump\t// in\n    tag_214:\n      mload(0x40)\n      dup1\n      swap2\n      sub\n      swap1\n      revert\n    tag_213:\n        /* \"contracts/Solid.sol\":20698:20703  value */\n      dup5\n        /* \"contracts/Solid.sol\":20688:20695  balance */\n      dup2\n        /* \"contracts/Solid.sol\":20688:20703  balance - value */\n      tag_215\n      swap2\n      swap1\n      tag_201\n      jump\t// in\n    tag_215:\n        /* \"contracts/Solid.sol\":20664:20673  balanceOf */\n      0x02\n        /* \"contracts/Solid.sol\":20664:20685  balanceOf[msg.sender] */\n      0x00\n        /* \"contracts/Solid.sol\":20674:20684  msg.sender */\n      caller\n        /* \"contracts/Solid.sol\":20664:20685  balanceOf[msg.sender] */\n      0xffffffffffffffffffffffffffffffffffffffff\n      and\n      0xffffffffffffffffffffffffffffffffffffffff\n      and\n      dup2\n      mstore\n      0x20\n      add\n      swap1\n      dup2\n      mstore\n      0x20\n      add\n      0x00\n      keccak256\n        /* \"contracts/Solid.sol\":20664:20703  balanceOf[msg.sender] = balance - value */\n      dup2\n      swap1\n      sstore\n      pop\n        /* \"contracts/Solid.sol\":20731:20736  value */\n      dup5\n        /* \"contracts/Solid.sol\":20714:20723  balanceOf */\n      0x02\n        /* \"contracts/Solid.sol\":20714:20727  balanceOf[to] */\n      0x00\n        /* \"contracts/Solid.sol\":20724:20726  to */\n      dup9\n        /* \"contracts/Solid.sol\":20714:20727  balanceOf[to] */\n      0xffffffffffffffffffffffffffffffffffffffff\n      and\n      0xffffffffffffffffffffffffffffffffffffffff\n      and\n      dup2\n      mstore\n      0x20\n      add\n      swap1\n      dup2\n      mstore\n      0x20\n      add\n      0x00\n      keccak256\n      0x00\n        /* \"contracts/Solid.sol\":20714:20736  balanceOf[to] += value */\n      dup3\n      dup3\n      sload\n      tag_216\n      swap2\n      swap1\n      tag_208\n      jump\t// in\n    tag_216:\n      swap3\n      pop\n      pop\n      dup2\n      swap1\n      sstore\n      pop\n        /* \"contracts/Solid.sol\":20773:20775  to */\n      dup6\n        /* \"contracts/Solid.sol\":20752:20783  Transfer(msg.sender, to, value) */\n      0xffffffffffffffffffffffffffffffffffffffff\n      and\n        /* \"contracts/Solid.sol\":20761:20771  msg.sender */\n      caller\n        /* \"contracts/Solid.sol\":20752:20783  Transfer(msg.sender, to, value) */\n      0xffffffffffffffffffffffffffffffffffffffff\n      and\n      0xddf252ad1be2c89b69c2b068fc378daa952ba7f163c4a11628f55a4df523b3ef\n        /* \"contracts/Solid.sol\":20777:20782  value */\n      dup8\n        /* \"contracts/Solid.sol\":20752:20783  Transfer(msg.sender, to, value) */\n      mload(0x40)\n      tag_217\n      swap2\n      swap1\n      tag_64\n      jump\t// in\n    tag_217:\n      mload(0x40)\n      dup1\n      swap2\n      sub\n      swap1\n      log3\n        /* \"contracts/Solid.sol\":20821:20823  to */\n      dup6\n        /* \"contracts/Solid.sol\":20803:20840  ITransferReceiver(to).onTokenTransfer */\n      0xffffffffffffffffffffffffffffffffffffffff\n      and\n      0xa4c0ed36\n        /* \"contracts/Solid.sol\":20841:20851  msg.sender */\n      caller\n        /* \"contracts/Solid.sol\":20853:20858  value */\n      dup8\n        /* \"contracts/Solid.sol\":20860:20864  data */\n      dup8\n      dup8\n        /* \"contracts/Solid.sol\":20803:20865  ITransferReceiver(to).onTokenTransfer(msg.sender, value, data) */\n      mload(0x40)\n      dup6\n      0xffffffff\n      and\n      0xe0\n      shl\n      dup2\n      mstore\n      0x04\n      add\n      tag_218\n      swap5\n      swap4\n      swap3\n      swap2\n      swap1\n      tag_219\n      jump\t// in\n    tag_218:\n      0x20\n      mload(0x40)\n      dup1\n      dup4\n      sub\n      dup2\n      0x00\n      dup8\n      gas\n      call\n      iszero\n      dup1\n      iszero\n      tag_221\n      jumpi\n      returndatasize\n      0x00\n      dup1\n      returndatacopy\n      revert(0x00, returndatasize)\n    tag_221:\n      pop\n      pop\n      pop\n      pop\n      mload(0x40)\n      returndatasize\n      not(0x1f)\n      0x1f\n      dup3\n      add\n      and\n      dup3\n      add\n      dup1\n      0x40\n      mstore\n      pop\n      dup2\n      add\n      swap1\n      tag_222\n      swap2\n      swap1\n      tag_223\n      jump\t// in\n    tag_222:\n        /* \"contracts/Solid.sol\":20796:20865  return ITransferReceiver(to).onTokenTransfer(msg.sender, value, data) */\n      swap2\n      pop\n      pop\n        /* \"contracts/Solid.sol\":20350:20873  function transferAndCall(address to, uint value, bytes calldata data) external override returns (bool) {... */\n      swap5\n      swap4\n      pop\n      pop\n      pop\n      pop\n      jump\t// out\n        /* \"contracts/Solid.sol\":9101:9234  function mint(address to, uint256 amount) external onlyAuth returns (bool) {... */\n    tag_87:\n        /* \"contracts/Solid.sol\":9170:9174  bool */\n      0x00\n        /* \"contracts/Solid.sol\":7020:7028  isMinter */\n      0x06\n        /* \"contracts/Solid.sol\":7020:7040  isMinter[msg.sender] */\n      0x00\n        /* \"contracts/Solid.sol\":7029:7039  msg.sender */\n      caller\n        /* \"contracts/Solid.sol\":7020:7040  isMinter[msg.sender] */\n      0xffffffffffffffffffffffffffffffffffffffff\n      and\n      0xffffffffffffffffffffffffffffffffffffffff\n      and\n      dup2\n      mstore\n      0x20\n      add\n      swap1\n      dup2\n      mstore\n      0x20\n      add\n      0x00\n      keccak256\n      0x00\n      swap1\n      sload\n      swap1\n      0x0100\n      exp\n      swap1\n      div\n      0xff\n      and\n        /* \"contracts/Solid.sol\":7012:7070  require(isMinter[msg.sender], \"AnyswapV4ERC20: FORBIDDEN\") */\n      tag_225\n      jumpi\n      mload(0x40)\n      0x08c379a000000000000000000000000000000000000000000000000000000000\n      dup2\n      mstore\n      0x04\n      add\n      tag_226\n      swap1\n      tag_227\n      jump\t// in\n    tag_226:\n      mload(0x40)\n      dup1\n      swap2\n      sub\n      swap1\n      revert\n    tag_225:\n        /* \"contracts/Solid.sol\":9187:9204  _mint(to, amount) */\n      tag_229\n        /* \"contracts/Solid.sol\":9193:9195  to */\n      dup4\n        /* \"contracts/Solid.sol\":9197:9203  amount */\n      dup4\n        /* \"contracts/Solid.sol\":9187:9192  _mint */\n      tag_230\n        /* \"contracts/Solid.sol\":9187:9204  _mint(to, amount) */\n      jump\t// in\n    tag_229:\n        /* \"contracts/Solid.sol\":9222:9226  true */\n      0x01\n        /* \"contracts/Solid.sol\":9215:9226  return true */\n      swap1\n      pop\n        /* \"contracts/Solid.sol\":9101:9234  function mint(address to, uint256 amount) external onlyAuth returns (bool) {... */\n      swap3\n      swap2\n      pop\n      pop\n      jump\t// out\n        /* \"contracts/Solid.sol\":6866:6893  address public pendingVault */\n    tag_90:\n      0x0b\n      0x00\n      swap1\n      sload\n      swap1\n      0x0100\n      exp\n      swap1\n      div\n      0xffffffffffffffffffffffffffffffffffffffff\n      and\n      dup2\n      jump\t// out\n        /* \"contracts/Solid.sol\":15265:16203  function transferWithPermit(address target, address to, uint256 value, uint256 deadline, uint8 v, bytes32 r, bytes32 s) external override returns (bool) {... */\n    tag_96:\n        /* \"contracts/Solid.sol\":15412:15416  bool */\n      0x00\n        /* \"contracts/Solid.sol\":15456:15464  deadline */\n      dup5\n        /* \"contracts/Solid.sol\":15437:15452  block.timestamp */\n      timestamp\n        /* \"contracts/Solid.sol\":15437:15464  block.timestamp <= deadline */\n      gt\n      iszero\n        /* \"contracts/Solid.sol\":15429:15499  require(block.timestamp <= deadline, \"AnyswapV3ERC20: Expired permit\") */\n      tag_232\n      jumpi\n      mload(0x40)\n      0x08c379a000000000000000000000000000000000000000000000000000000000\n      dup2\n      mstore\n      0x04\n      add\n      tag_233\n      swap1\n      tag_234\n      jump\t// in\n    tag_233:\n      mload(0x40)\n      dup1\n      swap2\n      sub\n      swap1\n      revert\n    tag_232:\n        /* \"contracts/Solid.sol\":15512:15530  bytes32 hashStruct */\n      0x00\n        /* \"contracts/Solid.sol\":6062:6154  keccak256(\"Transfer(address owner,address to,uint256 value,uint256 nonce,uint256 deadline)\") */\n      0x42ce63790c28229c123925d83266e77c04d28784552ab68b350a9003226cbd59\n        /* \"contracts/Solid.sol\":15622:15628  target */\n      dup10\n        /* \"contracts/Solid.sol\":15647:15649  to */\n      dup10\n        /* \"contracts/Solid.sol\":15668:15673  value */\n      dup10\n        /* \"contracts/Solid.sol\":15692:15698  nonces */\n      0x0d\n        /* \"contracts/Solid.sol\":15692:15706  nonces[target] */\n      0x00\n        /* \"contracts/Solid.sol\":15699:15705  target */\n      dup15\n        /* \"contracts/Solid.sol\":15692:15706  nonces[target] */\n      0xffffffffffffffffffffffffffffffffffffffff\n      and\n      0xffffffffffffffffffffffffffffffffffffffff\n      and\n      dup2\n      mstore\n      0x20\n      add\n      swap1\n      dup2\n      mstore\n      0x20\n      add\n      0x00\n      keccak256\n      0x00\n        /* \"contracts/Solid.sol\":15692:15708  nonces[target]++ */\n      dup2\n      sload\n      dup1\n      swap3\n      swap2\n      swap1\n      tag_235\n      swap1\n      tag_236\n      jump\t// in\n    tag_235:\n      swap2\n      swap1\n      pop\n      sstore\n        /* \"contracts/Solid.sol\":15727:15735  deadline */\n      dup11\n        /* \"contracts/Solid.sol\":15557:15736  abi.encode(... */\n      add(0x20, mload(0x40))\n      tag_237\n      swap7\n      swap6\n      swap5\n      swap4\n      swap3\n      swap2\n      swap1\n      tag_238\n      jump\t// in\n    tag_237:\n      mload(0x40)\n      0x20\n      dup2\n      dup4\n      sub\n      sub\n      dup2\n      mstore\n      swap1\n      0x40\n      mstore\n        /* \"contracts/Solid.sol\":15533:15737  keccak256(... */\n      dup1\n      mload\n      swap1\n      0x20\n      add\n      keccak256\n        /* \"contracts/Solid.sol\":15512:15737  bytes32 hashStruct = keccak256(... */\n      swap1\n      pop\n        /* \"contracts/Solid.sol\":15758:15799  verifyEIP712(target, hashStruct, v, r, s) */\n      tag_239\n        /* \"contracts/Solid.sol\":15771:15777  target */\n      dup10\n        /* \"contracts/Solid.sol\":15779:15789  hashStruct */\n      dup3\n        /* \"contracts/Solid.sol\":15791:15792  v */\n      dup8\n        /* \"contracts/Solid.sol\":15794:15795  r */\n      dup8\n        /* \"contracts/Solid.sol\":15797:15798  s */\n      dup8\n        /* \"contracts/Solid.sol\":15758:15770  verifyEIP712 */\n      tag_240\n        /* \"contracts/Solid.sol\":15758:15799  verifyEIP712(target, hashStruct, v, r, s) */\n      jump\t// in\n    tag_239:\n        /* \"contracts/Solid.sol\":15758:15850  verifyEIP712(target, hashStruct, v, r, s) || verifyPersonalSign(target, hashStruct, v, r, s) */\n      dup1\n      tag_241\n      jumpi\n      pop\n        /* \"contracts/Solid.sol\":15803:15850  verifyPersonalSign(target, hashStruct, v, r, s) */\n      tag_242\n        /* \"contracts/Solid.sol\":15822:15828  target */\n      dup10\n        /* \"contracts/Solid.sol\":15830:15840  hashStruct */\n      dup3\n        /* \"contracts/Solid.sol\":15842:15843  v */\n      dup8\n        /* \"contracts/Solid.sol\":15845:15846  r */\n      dup8\n        /* \"contracts/Solid.sol\":15848:15849  s */\n      dup8\n        /* \"contracts/Solid.sol\":15803:15821  verifyPersonalSign */\n      tag_243\n        /* \"contracts/Solid.sol\":15803:15850  verifyPersonalSign(target, hashStruct, v, r, s) */\n      jump\t// in\n    tag_242:\n        /* \"contracts/Solid.sol\":15758:15850  verifyEIP712(target, hashStruct, v, r, s) || verifyPersonalSign(target, hashStruct, v, r, s) */\n    tag_241:\n        /* \"contracts/Solid.sol\":15750:15851  require(verifyEIP712(target, hashStruct, v, r, s) || verifyPersonalSign(target, hashStruct, v, r, s)) */\n      tag_244\n      jumpi\n      0x00\n      dup1\n      revert\n    tag_244:\n        /* \"contracts/Solid.sol\":15886:15887  0 */\n      0x00\n        /* \"contracts/Solid.sol\":15872:15888  to != address(0) */\n      0xffffffffffffffffffffffffffffffffffffffff\n      and\n        /* \"contracts/Solid.sol\":15872:15874  to */\n      dup9\n        /* \"contracts/Solid.sol\":15872:15888  to != address(0) */\n      0xffffffffffffffffffffffffffffffffffffffff\n      and\n      eq\n      iszero\n        /* \"contracts/Solid.sol\":15872:15911  to != address(0) || to != address(this) */\n      dup1\n      tag_245\n      jumpi\n      pop\n        /* \"contracts/Solid.sol\":15906:15910  this */\n      address\n        /* \"contracts/Solid.sol\":15892:15911  to != address(this) */\n      0xffffffffffffffffffffffffffffffffffffffff\n      and\n        /* \"contracts/Solid.sol\":15892:15894  to */\n      dup9\n        /* \"contracts/Solid.sol\":15892:15911  to != address(this) */\n      0xffffffffffffffffffffffffffffffffffffffff\n      and\n      eq\n      iszero\n        /* \"contracts/Solid.sol\":15872:15911  to != address(0) || to != address(this) */\n    tag_245:\n        /* \"contracts/Solid.sol\":15864:15912  require(to != address(0) || to != address(this)) */\n      tag_246\n      jumpi\n      0x00\n      dup1\n      revert\n    tag_246:\n        /* \"contracts/Solid.sol\":15925:15940  uint256 balance */\n      0x00\n        /* \"contracts/Solid.sol\":15943:15952  balanceOf */\n      0x02\n        /* \"contracts/Solid.sol\":15943:15960  balanceOf[target] */\n      0x00\n        /* \"contracts/Solid.sol\":15953:15959  target */\n      dup12\n        /* \"contracts/Solid.sol\":15943:15960  balanceOf[target] */\n      0xffffffffffffffffffffffffffffffffffffffff\n      and\n      0xffffffffffffffffffffffffffffffffffffffff\n      and\n      dup2\n      mstore\n      0x20\n      add\n      swap1\n      dup2\n      mstore\n      0x20\n      add\n      0x00\n      keccak256\n      sload\n        /* \"contracts/Solid.sol\":15925:15960  uint256 balance = balanceOf[target] */\n      swap1\n      pop\n        /* \"contracts/Solid.sol\":15990:15995  value */\n      dup8\n        /* \"contracts/Solid.sol\":15979:15986  balance */\n      dup2\n        /* \"contracts/Solid.sol\":15979:15995  balance >= value */\n      lt\n      iszero\n        /* \"contracts/Solid.sol\":15971:16047  require(balance >= value, \"AnyswapV3ERC20: transfer amount exceeds balance\") */\n      tag_247\n      jumpi\n      mload(0x40)\n      0x08c379a000000000000000000000000000000000000000000000000000000000\n      dup2\n      mstore\n      0x04\n      add\n      tag_248\n      swap1\n      tag_205\n      jump\t// in\n    tag_248:\n      mload(0x40)\n      dup1\n      swap2\n      sub\n      swap1\n      revert\n    tag_247:\n        /* \"contracts/Solid.sol\":16090:16095  value */\n      dup8\n        /* \"contracts/Solid.sol\":16080:16087  balance */\n      dup2\n        /* \"contracts/Solid.sol\":16080:16095  balance - value */\n      tag_249\n      swap2\n      swap1\n      tag_201\n      jump\t// in\n    tag_249:\n        /* \"contracts/Solid.sol\":16060:16069  balanceOf */\n      0x02\n        /* \"contracts/Solid.sol\":16060:16077  balanceOf[target] */\n      0x00\n        /* \"contracts/Solid.sol\":16070:16076  target */\n      dup13\n        /* \"contracts/Solid.sol\":16060:16077  balanceOf[target] */\n      0xffffffffffffffffffffffffffffffffffffffff\n      and\n      0xffffffffffffffffffffffffffffffffffffffff\n      and\n      dup2\n      mstore\n      0x20\n      add\n      swap1\n      dup2\n      mstore\n      0x20\n      add\n      0x00\n      keccak256\n        /* \"contracts/Solid.sol\":16060:16095  balanceOf[target] = balance - value */\n      dup2\n      swap1\n      sstore\n      pop\n        /* \"contracts/Solid.sol\":16123:16128  value */\n      dup8\n        /* \"contracts/Solid.sol\":16106:16115  balanceOf */\n      0x02\n        /* \"contracts/Solid.sol\":16106:16119  balanceOf[to] */\n      0x00\n        /* \"contracts/Solid.sol\":16116:16118  to */\n      dup12\n        /* \"contracts/Solid.sol\":16106:16119  balanceOf[to] */\n      0xffffffffffffffffffffffffffffffffffffffff\n      and\n      0xffffffffffffffffffffffffffffffffffffffff\n      and\n      dup2\n      mstore\n      0x20\n      add\n      swap1\n      dup2\n      mstore\n      0x20\n      add\n      0x00\n      keccak256\n      0x00\n        /* \"contracts/Solid.sol\":16106:16128  balanceOf[to] += value */\n      dup3\n      dup3\n      sload\n      tag_250\n      swap2\n      swap1\n      tag_208\n      jump\t// in\n    tag_250:\n      swap3\n      pop\n      pop\n      dup2\n      swap1\n      sstore\n      pop\n        /* \"contracts/Solid.sol\":16161:16163  to */\n      dup9\n        /* \"contracts/Solid.sol\":16144:16171  Transfer(target, to, value) */\n      0xffffffffffffffffffffffffffffffffffffffff\n      and\n        /* \"contracts/Solid.sol\":16153:16159  target */\n      dup11\n        /* \"contracts/Solid.sol\":16144:16171  Transfer(target, to, value) */\n      0xffffffffffffffffffffffffffffffffffffffff\n      and\n      0xddf252ad1be2c89b69c2b068fc378daa952ba7f163c4a11628f55a4df523b3ef\n        /* \"contracts/Solid.sol\":16165:16170  value */\n      dup11\n        /* \"contracts/Solid.sol\":16144:16171  Transfer(target, to, value) */\n      mload(0x40)\n      tag_251\n      swap2\n      swap1\n      tag_64\n      jump\t// in\n    tag_251:\n      mload(0x40)\n      dup1\n      swap2\n      sub\n      swap1\n      log3\n        /* \"contracts/Solid.sol\":16191:16195  true */\n      0x01\n        /* \"contracts/Solid.sol\":16184:16195  return true */\n      swap3\n      pop\n      pop\n      pop\n        /* \"contracts/Solid.sol\":15265:16203  function transferWithPermit(address target, address to, uint256 value, uint256 deadline, uint8 v, bytes32 r, bytes32 s) external override returns (bool) {... */\n      swap8\n      swap7\n      pop\n      pop\n      pop\n      pop\n      pop\n      pop\n      pop\n      jump\t// out\n        /* \"contracts/Solid.sol\":8002:8214  function setVault(address _vault) external onlyVault {... */\n    tag_101:\n        /* \"contracts/Solid.sol\":7196:7201  mpc() */\n      tag_253\n        /* \"contracts/Solid.sol\":7196:7199  mpc */\n      tag_167\n        /* \"contracts/Solid.sol\":7196:7201  mpc() */\n      jump\t// in\n    tag_253:\n        /* \"contracts/Solid.sol\":7182:7201  msg.sender == mpc() */\n      0xffffffffffffffffffffffffffffffffffffffff\n      and\n        /* \"contracts/Solid.sol\":7182:7192  msg.sender */\n      caller\n        /* \"contracts/Solid.sol\":7182:7201  msg.sender == mpc() */\n      0xffffffffffffffffffffffffffffffffffffffff\n      and\n      eq\n        /* \"contracts/Solid.sol\":7174:7231  require(msg.sender == mpc(), \"AnyswapV3ERC20: FORBIDDEN\") */\n      tag_254\n      jumpi\n      mload(0x40)\n      0x08c379a000000000000000000000000000000000000000000000000000000000\n      dup2\n      mstore\n      0x04\n      add\n      tag_255\n      swap1\n      tag_187\n      jump\t// in\n    tag_255:\n      mload(0x40)\n      dup1\n      swap2\n      sub\n      swap1\n      revert\n    tag_254:\n        /* \"contracts/Solid.sol\":8092:8093  0 */\n      0x00\n        /* \"contracts/Solid.sol\":8074:8094  _vault != address(0) */\n      0xffffffffffffffffffffffffffffffffffffffff\n      and\n        /* \"contracts/Solid.sol\":8074:8080  _vault */\n      dup2\n        /* \"contracts/Solid.sol\":8074:8094  _vault != address(0) */\n      0xffffffffffffffffffffffffffffffffffffffff\n      and\n      eq\n      iszero\n        /* \"contracts/Solid.sol\":8066:8127  require(_vault != address(0), \"AnyswapV3ERC20: address(0x0)\") */\n      tag_257\n      jumpi\n      mload(0x40)\n      0x08c379a000000000000000000000000000000000000000000000000000000000\n      dup2\n      mstore\n      0x04\n      add\n      tag_258\n      swap1\n      tag_259\n      jump\t// in\n    tag_258:\n      mload(0x40)\n      dup1\n      swap2\n      sub\n      swap1\n      revert\n    tag_257:\n        /* \"contracts/Solid.sol\":8153:8159  _vault */\n      dup1\n        /* \"contracts/Solid.sol\":8138:8150  pendingVault */\n      0x0b\n      0x00\n        /* \"contracts/Solid.sol\":8138:8159  pendingVault = _vault */\n      0x0100\n      exp\n      dup2\n      sload\n      dup2\n      0xffffffffffffffffffffffffffffffffffffffff\n      mul\n      not\n      and\n      swap1\n      dup4\n      0xffffffffffffffffffffffffffffffffffffffff\n      and\n      mul\n      or\n      swap1\n      sstore\n      pop\n        /* \"contracts/Solid.sol\":8201:8206  delay */\n      sload(0x05)\n        /* \"contracts/Solid.sol\":8183:8198  block.timestamp */\n      timestamp\n        /* \"contracts/Solid.sol\":8183:8206  block.timestamp + delay */\n      tag_260\n      swap2\n      swap1\n      tag_208\n      jump\t// in\n    tag_260:\n        /* \"contracts/Solid.sol\":8170:8180  delayVault */\n      0x0c\n        /* \"contracts/Solid.sol\":8170:8206  delayVault = block.timestamp + delay */\n      dup2\n      swap1\n      sstore\n      pop\n        /* \"contracts/Solid.sol\":8002:8214  function setVault(address _vault) external onlyVault {... */\n      pop\n      jump\t// out\n        /* \"contracts/Solid.sol\":6535:6564  uint public delay = 2*24*3600 */\n    tag_103:\n      sload(0x05)\n      dup2\n      jump\t// out\n        /* \"contracts/Solid.sol\":6282:6336  mapping (address => uint256) public override balanceOf */\n    tag_107:\n      mstore(0x20, 0x02)\n      dup1\n      0x00\n      mstore\n      keccak256(0x00, 0x40)\n      0x00\n      swap2\n      pop\n      swap1\n      pop\n      sload\n      dup2\n      jump\t// out\n        /* \"contracts/Solid.sol\":9788:9839  mapping (address => uint256) public override nonces */\n    tag_111:\n      mstore(0x20, 0x0d)\n      dup1\n      0x00\n      mstore\n      keccak256(0x00, 0x40)\n      0x00\n      swap2\n      pop\n      swap1\n      pop\n      sload\n      dup2\n      jump\t// out\n        /* \"contracts/Solid.sol\":6682:6706  address[] public minters */\n    tag_116:\n      0x07\n      dup2\n      dup2\n      sload\n      dup2\n      lt\n      tag_261\n      jumpi\n      0x00\n      dup1\n      revert\n    tag_261:\n      swap1\n      0x00\n      mstore\n      keccak256(0x00, 0x20)\n      add\n      0x00\n      swap2\n      pop\n      sload\n      swap1\n      0x0100\n      exp\n      swap1\n      div\n      0xffffffffffffffffffffffffffffffffffffffff\n      and\n      dup2\n      jump\t// out\n        /* \"contracts/Solid.sol\":6900:6922  uint public delayVault */\n    tag_119:\n      sload(0x0c)\n      dup2\n      jump\t// out\n        /* \"contracts/Solid.sol\":7259:7337  function owner() public view returns (address) {... */\n    tag_122:\n        /* \"contracts/Solid.sol\":7297:7304  address */\n      0x00\n        /* \"contracts/Solid.sol\":7324:7329  mpc() */\n      tag_264\n        /* \"contracts/Solid.sol\":7324:7327  mpc */\n      tag_167\n        /* \"contracts/Solid.sol\":7324:7329  mpc() */\n      jump\t// in\n    tag_264:\n        /* \"contracts/Solid.sol\":7317:7329  return mpc() */\n      swap1\n      pop\n        /* \"contracts/Solid.sol\":7259:7337  function owner() public view returns (address) {... */\n      swap1\n      jump\t// out\n        /* \"contracts/Solid.sol\":6799:6827  address public pendingMinter */\n    tag_125:\n      0x09\n      0x00\n      swap1\n      sload\n      swap1\n      0x0100\n      exp\n      swap1\n      div\n      0xffffffffffffffffffffffffffffffffffffffff\n      and\n      dup2\n      jump\t// out\n        /* \"contracts/Solid.sol\":5793:5813  string public symbol */\n    tag_128:\n      0x01\n      dup1\n      sload\n      tag_265\n      swap1\n      tag_176\n      jump\t// in\n    tag_265:\n      dup1\n      0x1f\n      add\n      0x20\n      dup1\n      swap2\n      div\n      mul\n      0x20\n      add\n      mload(0x40)\n      swap1\n      dup2\n      add\n      0x40\n      mstore\n      dup1\n      swap3\n      swap2\n      swap1\n      dup2\n      dup2\n      mstore\n      0x20\n      add\n      dup3\n      dup1\n      sload\n      tag_266\n      swap1\n      tag_176\n      jump\t// in\n    tag_266:\n      dup1\n      iszero\n      tag_267\n      jumpi\n      dup1\n      0x1f\n      lt\n      tag_268\n      jumpi\n      0x0100\n      dup1\n      dup4\n      sload\n      div\n      mul\n      dup4\n      mstore\n      swap2\n      0x20\n      add\n      swap2\n      jump(tag_267)\n    tag_268:\n      dup3\n      add\n      swap2\n      swap1\n      0x00\n      mstore\n      keccak256(0x00, 0x20)\n      swap1\n    tag_269:\n      dup2\n      sload\n      dup2\n      mstore\n      swap1\n      0x01\n      add\n      swap1\n      0x20\n      add\n      dup1\n      dup4\n      gt\n      tag_269\n      jumpi\n      dup3\n      swap1\n      sub\n      0x1f\n      and\n      dup3\n      add\n      swap2\n    tag_267:\n      pop\n      pop\n      pop\n      pop\n      pop\n      dup2\n      jump\t// out\n        /* \"contracts/Solid.sol\":9307:9514  function burn(address from, uint256 amount) external onlyAuth returns (bool) {... */\n    tag_132:\n        /* \"contracts/Solid.sol\":9378:9382  bool */\n      0x00\n        /* \"contracts/Solid.sol\":7020:7028  isMinter */\n      0x06\n        /* \"contracts/Solid.sol\":7020:7040  isMinter[msg.sender] */\n      0x00\n        /* \"contracts/Solid.sol\":7029:7039  msg.sender */\n      caller\n        /* \"contracts/Solid.sol\":7020:7040  isMinter[msg.sender] */\n      0xffffffffffffffffffffffffffffffffffffffff\n      and\n      0xffffffffffffffffffffffffffffffffffffffff\n      and\n      dup2\n      mstore\n      0x20\n      add\n      swap1\n      dup2\n      mstore\n      0x20\n      add\n      0x00\n      keccak256\n      0x00\n      swap1\n      sload\n      swap1\n      0x0100\n      exp\n      swap1\n      div\n      0xff\n      and\n        /* \"contracts/Solid.sol\":7012:7070  require(isMinter[msg.sender], \"AnyswapV4ERC20: FORBIDDEN\") */\n      tag_271\n      jumpi\n      mload(0x40)\n      0x08c379a000000000000000000000000000000000000000000000000000000000\n      dup2\n      mstore\n      0x04\n      add\n      tag_272\n      swap1\n      tag_227\n      jump\t// in\n    tag_272:\n      mload(0x40)\n      dup1\n      swap2\n      sub\n      swap1\n      revert\n    tag_271:\n        /* \"contracts/Solid.sol\":9419:9420  0 */\n      0x00\n        /* \"contracts/Solid.sol\":9403:9421  from != address(0) */\n      0xffffffffffffffffffffffffffffffffffffffff\n      and\n        /* \"contracts/Solid.sol\":9403:9407  from */\n      dup4\n        /* \"contracts/Solid.sol\":9403:9421  from != address(0) */\n      0xffffffffffffffffffffffffffffffffffffffff\n      and\n      eq\n      iszero\n        /* \"contracts/Solid.sol\":9395:9454  require(from != address(0), \"AnyswapV3ERC20: address(0x0)\") */\n      tag_274\n      jumpi\n      mload(0x40)\n      0x08c379a000000000000000000000000000000000000000000000000000000000\n      dup2\n      mstore\n      0x04\n      add\n      tag_275\n      swap1\n      tag_259\n      jump\t// in\n    tag_275:\n      mload(0x40)\n      dup1\n      swap2\n      sub\n      swap1\n      revert\n    tag_274:\n        /* \"contracts/Solid.sol\":9465:9484  _burn(from, amount) */\n      tag_276\n        /* \"contracts/Solid.sol\":9471:9475  from */\n      dup4\n        /* \"contracts/Solid.sol\":9477:9483  amount */\n      dup4\n        /* \"contracts/Solid.sol\":9465:9470  _burn */\n      tag_277\n        /* \"contracts/Solid.sol\":9465:9484  _burn(from, amount) */\n      jump\t// in\n    tag_276:\n        /* \"contracts/Solid.sol\":9502:9506  true */\n      0x01\n        /* \"contracts/Solid.sol\":9495:9506  return true */\n      swap1\n      pop\n        /* \"contracts/Solid.sol\":9307:9514  function burn(address from, uint256 amount) external onlyAuth returns (bool) {... */\n      swap3\n      swap2\n      pop\n      pop\n      jump\t// out\n        /* \"contracts/Solid.sol\":8927:9026  function getAllMinters() external view returns (address[] memory) {... */\n    tag_135:\n        /* \"contracts/Solid.sol\":8975:8991  address[] memory */\n      0x60\n        /* \"contracts/Solid.sol\":9011:9018  minters */\n      0x07\n        /* \"contracts/Solid.sol\":9004:9018  return minters */\n      dup1\n      sload\n      dup1\n      0x20\n      mul\n      0x20\n      add\n      mload(0x40)\n      swap1\n      dup2\n      add\n      0x40\n      mstore\n      dup1\n      swap3\n      swap2\n      swap1\n      dup2\n      dup2\n      mstore\n      0x20\n      add\n      dup3\n      dup1\n      sload\n      dup1\n      iszero\n      tag_279\n      jumpi\n      0x20\n      mul\n      dup3\n      add\n      swap2\n      swap1\n      0x00\n      mstore\n      keccak256(0x00, 0x20)\n      swap1\n    tag_280:\n      dup2\n      0x00\n      swap1\n      sload\n      swap1\n      0x0100\n      exp\n      swap1\n      div\n      0xffffffffffffffffffffffffffffffffffffffff\n      and\n      0xffffffffffffffffffffffffffffffffffffffff\n      and\n      dup2\n      mstore\n      0x20\n      add\n      swap1\n      0x01\n      add\n      swap1\n      dup1\n      dup4\n      gt\n      tag_280\n      jumpi\n    tag_279:\n      pop\n      pop\n      pop\n      pop\n      pop\n      swap1\n      pop\n        /* \"contracts/Solid.sol\":8927:9026  function getAllMinters() external view returns (address[] memory) {... */\n      swap1\n      jump\t// out\n        /* \"contracts/Solid.sol\":17469:17907  function transfer(address to, uint256 value) external override returns (bool) {... */\n    tag_140:\n        /* \"contracts/Solid.sol\":17541:17545  bool */\n      0x00\n        /* \"contracts/Solid.sol\":17580:17581  0 */\n      dup1\n        /* \"contracts/Solid.sol\":17566:17582  to != address(0) */\n      0xffffffffffffffffffffffffffffffffffffffff\n      and\n        /* \"contracts/Solid.sol\":17566:17568  to */\n      dup4\n        /* \"contracts/Solid.sol\":17566:17582  to != address(0) */\n      0xffffffffffffffffffffffffffffffffffffffff\n      and\n      eq\n      iszero\n        /* \"contracts/Solid.sol\":17566:17605  to != address(0) || to != address(this) */\n      dup1\n      tag_282\n      jumpi\n      pop\n        /* \"contracts/Solid.sol\":17600:17604  this */\n      address\n        /* \"contracts/Solid.sol\":17586:17605  to != address(this) */\n      0xffffffffffffffffffffffffffffffffffffffff\n      and\n        /* \"contracts/Solid.sol\":17586:17588  to */\n      dup4\n        /* \"contracts/Solid.sol\":17586:17605  to != address(this) */\n      0xffffffffffffffffffffffffffffffffffffffff\n      and\n      eq\n      iszero\n        /* \"contracts/Solid.sol\":17566:17605  to != address(0) || to != address(this) */\n    tag_282:\n        /* \"contracts/Solid.sol\":17558:17606  require(to != address(0) || to != address(this)) */\n      tag_283\n      jumpi\n      0x00\n      dup1\n      revert\n    tag_283:\n        /* \"contracts/Solid.sol\":17617:17632  uint256 balance */\n      0x00\n        /* \"contracts/Solid.sol\":17635:17644  balanceOf */\n      0x02\n        /* \"contracts/Solid.sol\":17635:17656  balanceOf[msg.sender] */\n      0x00\n        /* \"contracts/Solid.sol\":17645:17655  msg.sender */\n      caller\n        /* \"contracts/Solid.sol\":17635:17656  balanceOf[msg.sender] */\n      0xffffffffffffffffffffffffffffffffffffffff\n      and\n      0xffffffffffffffffffffffffffffffffffffffff\n      and\n      dup2\n      mstore\n      0x20\n      add\n      swap1\n      dup2\n      mstore\n      0x20\n      add\n      0x00\n      keccak256\n      sload\n        /* \"contracts/Solid.sol\":17617:17656  uint256 balance = balanceOf[msg.sender] */\n      swap1\n      pop\n        /* \"contracts/Solid.sol\":17686:17691  value */\n      dup3\n        /* \"contracts/Solid.sol\":17675:17682  balance */\n      dup2\n        /* \"contracts/Solid.sol\":17675:17691  balance >= value */\n      lt\n      iszero\n        /* \"contracts/Solid.sol\":17667:17743  require(balance >= value, \"AnyswapV3ERC20: transfer amount exceeds balance\") */\n      tag_284\n      jumpi\n      mload(0x40)\n      0x08c379a000000000000000000000000000000000000000000000000000000000\n      dup2\n      mstore\n      0x04\n      add\n      tag_285\n      swap1\n      tag_205\n      jump\t// in\n    tag_285:\n      mload(0x40)\n      dup1\n      swap2\n      sub\n      swap1\n      revert\n    tag_284:\n        /* \"contracts/Solid.sol\":17790:17795  value */\n      dup3\n        /* \"contracts/Solid.sol\":17780:17787  balance */\n      dup2\n        /* \"contracts/Solid.sol\":17780:17795  balance - value */\n      tag_286\n      swap2\n      swap1\n      tag_201\n      jump\t// in\n    tag_286:\n        /* \"contracts/Solid.sol\":17756:17765  balanceOf */\n      0x02\n        /* \"contracts/Solid.sol\":17756:17777  balanceOf[msg.sender] */\n      0x00\n        /* \"contracts/Solid.sol\":17766:17776  msg.sender */\n      caller\n        /* \"contracts/Solid.sol\":17756:17777  balanceOf[msg.sender] */\n      0xffffffffffffffffffffffffffffffffffffffff\n      and\n      0xffffffffffffffffffffffffffffffffffffffff\n      and\n      dup2\n      mstore\n      0x20\n      add\n      swap1\n      dup2\n      mstore\n      0x20\n      add\n      0x00\n      keccak256\n        /* \"contracts/Solid.sol\":17756:17795  balanceOf[msg.sender] = balance - value */\n      dup2\n      swap1\n      sstore\n      pop\n        /* \"contracts/Solid.sol\":17823:17828  value */\n      dup3\n        /* \"contracts/Solid.sol\":17806:17815  balanceOf */\n      0x02\n        /* \"contracts/Solid.sol\":17806:17819  balanceOf[to] */\n      0x00\n        /* \"contracts/Solid.sol\":17816:17818  to */\n      dup7\n        /* \"contracts/Solid.sol\":17806:17819  balanceOf[to] */\n      0xffffffffffffffffffffffffffffffffffffffff\n      and\n      0xffffffffffffffffffffffffffffffffffffffff\n      and\n      dup2\n      mstore\n      0x20\n      add\n      swap1\n      dup2\n      mstore\n      0x20\n      add\n      0x00\n      keccak256\n      0x00\n        /* \"contracts/Solid.sol\":17806:17828  balanceOf[to] += value */\n      dup3\n      dup3\n      sload\n      tag_287\n      swap2\n      swap1\n      tag_208\n      jump\t// in\n    tag_287:\n      swap3\n      pop\n      pop\n      dup2\n      swap1\n      sstore\n      pop\n        /* \"contracts/Solid.sol\":17865:17867  to */\n      dup4\n        /* \"contracts/Solid.sol\":17844:17875  Transfer(msg.sender, to, value) */\n      0xffffffffffffffffffffffffffffffffffffffff\n      and\n        /* \"contracts/Solid.sol\":17853:17863  msg.sender */\n      caller\n        /* \"contracts/Solid.sol\":17844:17875  Transfer(msg.sender, to, value) */\n      0xffffffffffffffffffffffffffffffffffffffff\n      and\n      0xddf252ad1be2c89b69c2b068fc378daa952ba7f163c4a11628f55a4df523b3ef\n        /* \"contracts/Solid.sol\":17869:17874  value */\n      dup6\n        /* \"contracts/Solid.sol\":17844:17875  Transfer(msg.sender, to, value) */\n      mload(0x40)\n      tag_288\n      swap2\n      swap1\n      tag_64\n      jump\t// in\n    tag_288:\n      mload(0x40)\n      dup1\n      swap2\n      sub\n      swap1\n      log3\n        /* \"contracts/Solid.sol\":17895:17899  true */\n      0x01\n        /* \"contracts/Solid.sol\":17888:17899  return true */\n      swap2\n      pop\n      pop\n        /* \"contracts/Solid.sol\":17469:17907  function transfer(address to, uint256 value) external override returns (bool) {... */\n      swap3\n      swap2\n      pop\n      pop\n      jump\t// out\n        /* \"contracts/Solid.sol\":6635:6675  mapping(address => bool) public isMinter */\n    tag_144:\n      mstore(0x20, 0x06)\n      dup1\n      0x00\n      mstore\n      keccak256(0x00, 0x40)\n      0x00\n      swap2\n      pop\n      sload\n      swap1\n      0x0100\n      exp\n      swap1\n      div\n      0xff\n      and\n      dup2\n      jump\t// out\n        /* \"contracts/Solid.sol\":6834:6857  uint public delayMinter */\n    tag_147:\n      sload(0x0a)\n      dup2\n      jump\t// out\n        /* \"contracts/Solid.sol\":13353:13709  function approveAndCall(address spender, uint256 value, bytes calldata data) external override returns (bool) {... */\n    tag_151:\n        /* \"contracts/Solid.sol\":13457:13461  bool */\n      0x00\n        /* \"contracts/Solid.sol\":13557:13562  value */\n      dup4\n        /* \"contracts/Solid.sol\":13524:13533  allowance */\n      0x0e\n        /* \"contracts/Solid.sol\":13524:13545  allowance[msg.sender] */\n      0x00\n        /* \"contracts/Solid.sol\":13534:13544  msg.sender */\n      caller\n        /* \"contracts/Solid.sol\":13524:13545  allowance[msg.sender] */\n      0xffffffffffffffffffffffffffffffffffffffff\n      and\n      0xffffffffffffffffffffffffffffffffffffffff\n      and\n      dup2\n      mstore\n      0x20\n      add\n      swap1\n      dup2\n      mstore\n      0x20\n      add\n      0x00\n      keccak256\n        /* \"contracts/Solid.sol\":13524:13554  allowance[msg.sender][spender] */\n      0x00\n        /* \"contracts/Solid.sol\":13546:13553  spender */\n      dup8\n        /* \"contracts/Solid.sol\":13524:13554  allowance[msg.sender][spender] */\n      0xffffffffffffffffffffffffffffffffffffffff\n      and\n      0xffffffffffffffffffffffffffffffffffffffff\n      and\n      dup2\n      mstore\n      0x20\n      add\n      swap1\n      dup2\n      mstore\n      0x20\n      add\n      0x00\n      keccak256\n        /* \"contracts/Solid.sol\":13524:13562  allowance[msg.sender][spender] = value */\n      dup2\n      swap1\n      sstore\n      pop\n        /* \"contracts/Solid.sol\":13599:13606  spender */\n      dup5\n        /* \"contracts/Solid.sol\":13578:13614  Approval(msg.sender, spender, value) */\n      0xffffffffffffffffffffffffffffffffffffffff\n      and\n        /* \"contracts/Solid.sol\":13587:13597  msg.sender */\n      caller\n        /* \"contracts/Solid.sol\":13578:13614  Approval(msg.sender, spender, value) */\n      0xffffffffffffffffffffffffffffffffffffffff\n      and\n      0x8c5be1e5ebec7d5bd14f71427d1e84f3dd0314c0f7b2291e5b200ac8c7c3b925\n        /* \"contracts/Solid.sol\":13608:13613  value */\n      dup7\n        /* \"contracts/Solid.sol\":13578:13614  Approval(msg.sender, spender, value) */\n      mload(0x40)\n      tag_290\n      swap2\n      swap1\n      tag_64\n      jump\t// in\n    tag_290:\n      mload(0x40)\n      dup1\n      swap2\n      sub\n      swap1\n      log3\n        /* \"contracts/Solid.sol\":13652:13659  spender */\n      dup5\n        /* \"contracts/Solid.sol\":13634:13676  IApprovalReceiver(spender).onTokenApproval */\n      0xffffffffffffffffffffffffffffffffffffffff\n      and\n      0xba451f\n        /* \"contracts/Solid.sol\":13677:13687  msg.sender */\n      caller\n        /* \"contracts/Solid.sol\":13689:13694  value */\n      dup7\n        /* \"contracts/Solid.sol\":13696:13700  data */\n      dup7\n      dup7\n        /* \"contracts/Solid.sol\":13634:13701  IApprovalReceiver(spender).onTokenApproval(msg.sender, value, data) */\n      mload(0x40)\n      dup6\n      0xffffffff\n      and\n      0xe0\n      shl\n      dup2\n      mstore\n      0x04\n      add\n      tag_291\n      swap5\n      swap4\n      swap3\n      swap2\n      swap1\n      tag_219\n      jump\t// in\n    tag_291:\n      0x20\n      mload(0x40)\n      dup1\n      dup4\n      sub\n      dup2\n      0x00\n      dup8\n      gas\n      call\n      iszero\n      dup1\n      iszero\n      tag_293\n      jumpi\n      returndatasize\n      0x00\n      dup1\n      returndatacopy\n      revert(0x00, returndatasize)\n    tag_293:\n      pop\n      pop\n      pop\n      pop\n      mload(0x40)\n      returndatasize\n      not(0x1f)\n      0x1f\n      dup3\n      add\n      and\n      dup3\n      add\n      dup1\n      0x40\n      mstore\n      pop\n      dup2\n      add\n      swap1\n      tag_294\n      swap2\n      swap1\n      tag_223\n      jump\t// in\n    tag_294:\n        /* \"contracts/Solid.sol\":13627:13701  return IApprovalReceiver(spender).onTokenApproval(msg.sender, value, data) */\n      swap1\n      pop\n        /* \"contracts/Solid.sol\":13353:13709  function approveAndCall(address spender, uint256 value, bytes calldata data) external override returns (bool) {... */\n      swap5\n      swap4\n      pop\n      pop\n      pop\n      pop\n      jump\t// out\n        /* \"contracts/Solid.sol\":8821:8919  function revokeMinter(address _auth) external onlyVault {... */\n    tag_155:\n        /* \"contracts/Solid.sol\":7196:7201  mpc() */\n      tag_296\n        /* \"contracts/Solid.sol\":7196:7199  mpc */\n      tag_167\n        /* \"contracts/Solid.sol\":7196:7201  mpc() */\n      jump\t// in\n    tag_296:\n        /* \"contracts/Solid.sol\":7182:7201  msg.sender == mpc() */\n      0xffffffffffffffffffffffffffffffffffffffff\n      and\n        /* \"contracts/Solid.sol\":7182:7192  msg.sender */\n      caller\n        /* \"contracts/Solid.sol\":7182:7201  msg.sender == mpc() */\n      0xffffffffffffffffffffffffffffffffffffffff\n      and\n      eq\n        /* \"contracts/Solid.sol\":7174:7231  require(msg.sender == mpc(), \"AnyswapV3ERC20: FORBIDDEN\") */\n      tag_297\n      jumpi\n      mload(0x40)\n      0x08c379a000000000000000000000000000000000000000000000000000000000\n      dup2\n      mstore\n      0x04\n      add\n      tag_298\n      swap1\n      tag_187\n      jump\t// in\n    tag_298:\n      mload(0x40)\n      dup1\n      swap2\n      sub\n      swap1\n      revert\n    tag_297:\n        /* \"contracts/Solid.sol\":8906:8911  false */\n      0x00\n        /* \"contracts/Solid.sol\":8888:8896  isMinter */\n      0x06\n        /* \"contracts/Solid.sol\":8888:8903  isMinter[_auth] */\n      0x00\n        /* \"contracts/Solid.sol\":8897:8902  _auth */\n      dup4\n        /* \"contracts/Solid.sol\":8888:8903  isMinter[_auth] */\n      0xffffffffffffffffffffffffffffffffffffffff\n      and\n      0xffffffffffffffffffffffffffffffffffffffff\n      and\n      dup2\n      mstore\n      0x20\n      add\n      swap1\n      dup2\n      mstore\n      0x20\n      add\n      0x00\n      keccak256\n      0x00\n        /* \"contracts/Solid.sol\":8888:8911  isMinter[_auth] = false */\n      0x0100\n      exp\n      dup2\n      sload\n      dup2\n      0xff\n      mul\n      not\n      and\n      swap1\n      dup4\n      iszero\n      iszero\n      mul\n      or\n      swap1\n      sstore\n      pop\n        /* \"contracts/Solid.sol\":8821:8919  function revokeMinter(address _auth) external onlyVault {... */\n      pop\n      jump\t// out\n        /* \"contracts/Solid.sol\":14542:15257  function permit(address target, address spender, uint256 value, uint256 deadline, uint8 v, bytes32 r, bytes32 s) external override {... */\n    tag_158:\n        /* \"contracts/Solid.sol\":14711:14719  deadline */\n      dup4\n        /* \"contracts/Solid.sol\":14692:14707  block.timestamp */\n      timestamp\n        /* \"contracts/Solid.sol\":14692:14719  block.timestamp <= deadline */\n      gt\n      iszero\n        /* \"contracts/Solid.sol\":14684:14754  require(block.timestamp <= deadline, \"AnyswapV3ERC20: Expired permit\") */\n      tag_301\n      jumpi\n      mload(0x40)\n      0x08c379a000000000000000000000000000000000000000000000000000000000\n      dup2\n      mstore\n      0x04\n      add\n      tag_302\n      swap1\n      tag_234\n      jump\t// in\n    tag_302:\n      mload(0x40)\n      dup1\n      swap2\n      sub\n      swap1\n      revert\n    tag_301:\n        /* \"contracts/Solid.sol\":14767:14785  bytes32 hashStruct */\n      0x00\n        /* \"contracts/Solid.sol\":5916:6011  keccak256(\"Permit(address owner,address spender,uint256 value,uint256 nonce,uint256 deadline)\") */\n      0x6e71edae12b1b97f4d1f60370fef10105fa2faae0126114a169c64845d6126c9\n        /* \"contracts/Solid.sol\":14875:14881  target */\n      dup9\n        /* \"contracts/Solid.sol\":14900:14907  spender */\n      dup9\n        /* \"contracts/Solid.sol\":14926:14931  value */\n      dup9\n        /* \"contracts/Solid.sol\":14950:14956  nonces */\n      0x0d\n        /* \"contracts/Solid.sol\":14950:14964  nonces[target] */\n      0x00\n        /* \"contracts/Solid.sol\":14957:14963  target */\n      dup14\n        /* \"contracts/Solid.sol\":14950:14964  nonces[target] */\n      0xffffffffffffffffffffffffffffffffffffffff\n      and\n      0xffffffffffffffffffffffffffffffffffffffff\n      and\n      dup2\n      mstore\n      0x20\n      add\n      swap1\n      dup2\n      mstore\n      0x20\n      add\n      0x00\n      keccak256\n      0x00\n        /* \"contracts/Solid.sol\":14950:14966  nonces[target]++ */\n      dup2\n      sload\n      dup1\n      swap3\n      swap2\n      swap1\n      tag_303\n      swap1\n      tag_236\n      jump\t// in\n    tag_303:\n      swap2\n      swap1\n      pop\n      sstore\n        /* \"contracts/Solid.sol\":14985:14993  deadline */\n      dup10\n        /* \"contracts/Solid.sol\":14812:14994  abi.encode(... */\n      add(0x20, mload(0x40))\n      tag_304\n      swap7\n      swap6\n      swap5\n      swap4\n      swap3\n      swap2\n      swap1\n      tag_238\n      jump\t// in\n    tag_304:\n      mload(0x40)\n      0x20\n      dup2\n      dup4\n      sub\n      sub\n      dup2\n      mstore\n      swap1\n      0x40\n      mstore\n        /* \"contracts/Solid.sol\":14788:14995  keccak256(... */\n      dup1\n      mload\n      swap1\n      0x20\n      add\n      keccak256\n        /* \"contracts/Solid.sol\":14767:14995  bytes32 hashStruct = keccak256(... */\n      swap1\n      pop\n        /* \"contracts/Solid.sol\":15016:15057  verifyEIP712(target, hashStruct, v, r, s) */\n      tag_305\n        /* \"contracts/Solid.sol\":15029:15035  target */\n      dup9\n        /* \"contracts/Solid.sol\":15037:15047  hashStruct */\n      dup3\n        /* \"contracts/Solid.sol\":15049:15050  v */\n      dup7\n        /* \"contracts/Solid.sol\":15052:15053  r */\n      dup7\n        /* \"contracts/Solid.sol\":15055:15056  s */\n      dup7\n        /* \"contracts/Solid.sol\":15016:15028  verifyEIP712 */\n      tag_240\n        /* \"contracts/Solid.sol\":15016:15057  verifyEIP712(target, hashStruct, v, r, s) */\n      jump\t// in\n    tag_305:\n        /* \"contracts/Solid.sol\":15016:15108  verifyEIP712(target, hashStruct, v, r, s) || verifyPersonalSign(target, hashStruct, v, r, s) */\n      dup1\n      tag_306\n      jumpi\n      pop\n        /* \"contracts/Solid.sol\":15061:15108  verifyPersonalSign(target, hashStruct, v, r, s) */\n      tag_307\n        /* \"contracts/Solid.sol\":15080:15086  target */\n      dup9\n        /* \"contracts/Solid.sol\":15088:15098  hashStruct */\n      dup3\n        /* \"contracts/Solid.sol\":15100:15101  v */\n      dup7\n        /* \"contracts/Solid.sol\":15103:15104  r */\n      dup7\n        /* \"contracts/Solid.sol\":15106:15107  s */\n      dup7\n        /* \"contracts/Solid.sol\":15061:15079  verifyPersonalSign */\n      tag_243\n        /* \"contracts/Solid.sol\":15061:15108  verifyPersonalSign(target, hashStruct, v, r, s) */\n      jump\t// in\n    tag_307:\n        /* \"contracts/Solid.sol\":15016:15108  verifyEIP712(target, hashStruct, v, r, s) || verifyPersonalSign(target, hashStruct, v, r, s) */\n    tag_306:\n        /* \"contracts/Solid.sol\":15008:15109  require(verifyEIP712(target, hashStruct, v, r, s) || verifyPersonalSign(target, hashStruct, v, r, s)) */\n      tag_308\n      jumpi\n      0x00\n      dup1\n      revert\n    tag_308:\n        /* \"contracts/Solid.sol\":15196:15201  value */\n      dup6\n        /* \"contracts/Solid.sol\":15167:15176  allowance */\n      0x0e\n        /* \"contracts/Solid.sol\":15167:15184  allowance[target] */\n      0x00\n        /* \"contracts/Solid.sol\":15177:15183  target */\n      dup11\n        /* \"contracts/Solid.sol\":15167:15184  allowance[target] */\n      0xffffffffffffffffffffffffffffffffffffffff\n      and\n      0xffffffffffffffffffffffffffffffffffffffff\n      and\n      dup2\n      mstore\n      0x20\n      add\n      swap1\n      dup2\n      mstore\n      0x20\n      add\n      0x00\n      keccak256\n        /* \"contracts/Solid.sol\":15167:15193  allowance[target][spender] */\n      0x00\n        /* \"contracts/Solid.sol\":15185:15192  spender */\n      dup10\n        /* \"contracts/Solid.sol\":15167:15193  allowance[target][spender] */\n      0xffffffffffffffffffffffffffffffffffffffff\n      and\n      0xffffffffffffffffffffffffffffffffffffffff\n      and\n      dup2\n      mstore\n      0x20\n      add\n      swap1\n      dup2\n      mstore\n      0x20\n      add\n      0x00\n      keccak256\n        /* \"contracts/Solid.sol\":15167:15201  allowance[target][spender] = value */\n      dup2\n      swap1\n      sstore\n      pop\n        /* \"contracts/Solid.sol\":15234:15241  spender */\n      dup7\n        /* \"contracts/Solid.sol\":15217:15249  Approval(target, spender, value) */\n      0xffffffffffffffffffffffffffffffffffffffff\n      and\n        /* \"contracts/Solid.sol\":15226:15232  target */\n      dup9\n        /* \"contracts/Solid.sol\":15217:15249  Approval(target, spender, value) */\n      0xffffffffffffffffffffffffffffffffffffffff\n      and\n      0x8c5be1e5ebec7d5bd14f71427d1e84f3dd0314c0f7b2291e5b200ac8c7c3b925\n        /* \"contracts/Solid.sol\":15243:15248  value */\n      dup9\n        /* \"contracts/Solid.sol\":15217:15249  Approval(target, spender, value) */\n      mload(0x40)\n      tag_309\n      swap2\n      swap1\n      tag_64\n      jump\t// in\n    tag_309:\n      mload(0x40)\n      dup1\n      swap2\n      sub\n      swap1\n      log3\n        /* \"contracts/Solid.sol\":14673:15257  {... */\n      pop\n        /* \"contracts/Solid.sol\":14542:15257  function permit(address target, address spender, uint256 value, uint256 deadline, uint8 v, bytes32 r, bytes32 s) external override {... */\n      pop\n      pop\n      pop\n      pop\n      pop\n      pop\n      pop\n      jump\t// out\n        /* \"contracts/Solid.sol\":8222:8351  function applyVault() external onlyVault {... */\n    tag_160:\n        /* \"contracts/Solid.sol\":7196:7201  mpc() */\n      tag_311\n        /* \"contracts/Solid.sol\":7196:7199  mpc */\n      tag_167\n        /* \"contracts/Solid.sol\":7196:7201  mpc() */\n      jump\t// in\n    tag_311:\n        /* \"contracts/Solid.sol\":7182:7201  msg.sender == mpc() */\n      0xffffffffffffffffffffffffffffffffffffffff\n      and\n        /* \"contracts/Solid.sol\":7182:7192  msg.sender */\n      caller\n        /* \"contracts/Solid.sol\":7182:7201  msg.sender == mpc() */\n      0xffffffffffffffffffffffffffffffffffffffff\n      and\n      eq\n        /* \"contracts/Solid.sol\":7174:7231  require(msg.sender == mpc(), \"AnyswapV3ERC20: FORBIDDEN\") */\n      tag_312\n      jumpi\n      mload(0x40)\n      0x08c379a000000000000000000000000000000000000000000000000000000000\n      dup2\n      mstore\n      0x04\n      add\n      tag_313\n      swap1\n      tag_187\n      jump\t// in\n    tag_313:\n      mload(0x40)\n      dup1\n      swap2\n      sub\n      swap1\n      revert\n    tag_312:\n        /* \"contracts/Solid.sol\":8301:8311  delayVault */\n      sload(0x0c)\n        /* \"contracts/Solid.sol\":8282:8297  block.timestamp */\n      timestamp\n        /* \"contracts/Solid.sol\":8282:8311  block.timestamp >= delayVault */\n      lt\n      iszero\n        /* \"contracts/Solid.sol\":8274:8312  require(block.timestamp >= delayVault) */\n      tag_315\n      jumpi\n      0x00\n      dup1\n      revert\n    tag_315:\n        /* \"contracts/Solid.sol\":8331:8343  pendingVault */\n      0x0b\n      0x00\n      swap1\n      sload\n      swap1\n      0x0100\n      exp\n      swap1\n      div\n      0xffffffffffffffffffffffffffffffffffffffff\n      and\n        /* \"contracts/Solid.sol\":8323:8328  vault */\n      0x08\n      0x00\n        /* \"contracts/Solid.sol\":8323:8343  vault = pendingVault */\n      0x0100\n      exp\n      dup2\n      sload\n      dup2\n      0xffffffffffffffffffffffffffffffffffffffff\n      mul\n      not\n      and\n      swap1\n      dup4\n      0xffffffffffffffffffffffffffffffffffffffff\n      and\n      mul\n      or\n      swap1\n      sstore\n      pop\n        /* \"contracts/Solid.sol\":8222:8351  function applyVault() external onlyVault {... */\n      jump\t// out\n        /* \"contracts/Solid.sol\":10009:10084  mapping (address => mapping (address => uint256)) public override allowance */\n    tag_164:\n      mstore(0x20, 0x0e)\n      dup2\n      0x00\n      mstore\n      mstore(0x20, keccak256(0x00, 0x40))\n      dup1\n      0x00\n      mstore\n      keccak256(0x00, 0x40)\n      0x00\n      swap2\n      pop\n      swap2\n      pop\n      pop\n      sload\n      dup2\n      jump\t// out\n        /* \"contracts/Solid.sol\":7367:7534  function mpc() public view returns (address) {... */\n    tag_167:\n        /* \"contracts/Solid.sol\":7403:7410  address */\n      0x00\n        /* \"contracts/Solid.sol\":7446:7456  delayVault */\n      sload(0x0c)\n        /* \"contracts/Solid.sol\":7427:7442  block.timestamp */\n      timestamp\n        /* \"contracts/Solid.sol\":7427:7456  block.timestamp >= delayVault */\n      lt\n        /* \"contracts/Solid.sol\":7423:7504  if (block.timestamp >= delayVault) {... */\n      tag_317\n      jumpi\n        /* \"contracts/Solid.sol\":7480:7492  pendingVault */\n      0x0b\n      0x00\n      swap1\n      sload\n      swap1\n      0x0100\n      exp\n      swap1\n      div\n      0xffffffffffffffffffffffffffffffffffffffff\n      and\n        /* \"contracts/Solid.sol\":7473:7492  return pendingVault */\n      swap1\n      pop\n      jump(tag_316)\n        /* \"contracts/Solid.sol\":7423:7504  if (block.timestamp >= delayVault) {... */\n    tag_317:\n        /* \"contracts/Solid.sol\":7521:7526  vault */\n      0x08\n      0x00\n      swap1\n      sload\n      swap1\n      0x0100\n      exp\n      swap1\n      div\n      0xffffffffffffffffffffffffffffffffffffffff\n      and\n        /* \"contracts/Solid.sol\":7514:7526  return vault */\n      swap1\n      pop\n        /* \"contracts/Solid.sol\":7367:7534  function mpc() public view returns (address) {... */\n    tag_316:\n      swap1\n      jump\t// out\n        /* \"contracts/Solid.sol\":6770:6790  address public vault */\n    tag_170:\n      0x08\n      0x00\n      swap1\n      sload\n      swap1\n      0x0100\n      exp\n      swap1\n      div\n      0xffffffffffffffffffffffffffffffffffffffff\n      and\n      dup2\n      jump\t// out\n        /* \"contracts/Solid.sol\":8359:8571  function setMinter(address _auth) external onlyVault {... */\n    tag_174:\n        /* \"contracts/Solid.sol\":7196:7201  mpc() */\n      tag_319\n        /* \"contracts/Solid.sol\":7196:7199  mpc */\n      tag_167\n        /* \"contracts/Solid.sol\":7196:7201  mpc() */\n      jump\t// in\n    tag_319:\n        /* \"contracts/Solid.sol\":7182:7201  msg.sender == mpc() */\n      0xffffffffffffffffffffffffffffffffffffffff\n      and\n        /* \"contracts/Solid.sol\":7182:7192  msg.sender */\n      caller\n        /* \"contracts/Solid.sol\":7182:7201  msg.sender == mpc() */\n      0xffffffffffffffffffffffffffffffffffffffff\n      and\n      eq\n        /* \"contracts/Solid.sol\":7174:7231  require(msg.sender == mpc(), \"AnyswapV3ERC20: FORBIDDEN\") */\n      tag_320\n      jumpi\n      mload(0x40)\n      0x08c379a000000000000000000000000000000000000000000000000000000000\n      dup2\n      mstore\n      0x04\n      add\n      tag_321\n      swap1\n      tag_187\n      jump\t// in\n    tag_321:\n      mload(0x40)\n      dup1\n      swap2\n      sub\n      swap1\n      revert\n    tag_320:\n        /* \"contracts/Solid.sol\":8448:8449  0 */\n      0x00\n        /* \"contracts/Solid.sol\":8431:8450  _auth != address(0) */\n      0xffffffffffffffffffffffffffffffffffffffff\n      and\n        /* \"contracts/Solid.sol\":8431:8436  _auth */\n      dup2\n        /* \"contracts/Solid.sol\":8431:8450  _auth != address(0) */\n      0xffffffffffffffffffffffffffffffffffffffff\n      and\n      eq\n      iszero\n        /* \"contracts/Solid.sol\":8423:8483  require(_auth != address(0), \"AnyswapV3ERC20: address(0x0)\") */\n      tag_323\n      jumpi\n      mload(0x40)\n      0x08c379a000000000000000000000000000000000000000000000000000000000\n      dup2\n      mstore\n      0x04\n      add\n      tag_324\n      swap1\n      tag_259\n      jump\t// in\n    tag_324:\n      mload(0x40)\n      dup1\n      swap2\n      sub\n      swap1\n      revert\n    tag_323:\n        /* \"contracts/Solid.sol\":8510:8515  _auth */\n      dup1\n        /* \"contracts/Solid.sol\":8494:8507  pendingMinter */\n      0x09\n      0x00\n        /* \"contracts/Solid.sol\":8494:8515  pendingMinter = _auth */\n      0x0100\n      exp\n      dup2\n      sload\n      dup2\n      0xffffffffffffffffffffffffffffffffffffffff\n      mul\n      not\n      and\n      swap1\n      dup4\n      0xffffffffffffffffffffffffffffffffffffffff\n      and\n      mul\n      or\n      swap1\n      sstore\n      pop\n        /* \"contracts/Solid.sol\":8558:8563  delay */\n      sload(0x05)\n        /* \"contracts/Solid.sol\":8540:8555  block.timestamp */\n      timestamp\n        /* \"contracts/Solid.sol\":8540:8563  block.timestamp + delay */\n      tag_325\n      swap2\n      swap1\n      tag_208\n      jump\t// in\n    tag_325:\n        /* \"contracts/Solid.sol\":8526:8537  delayMinter */\n      0x0a\n        /* \"contracts/Solid.sol\":8526:8563  delayMinter = block.timestamp + delay */\n      dup2\n      swap1\n      sstore\n      pop\n        /* \"contracts/Solid.sol\":8359:8571  function setMinter(address _auth) external onlyVault {... */\n      pop\n      jump\t// out\n        /* \"contracts/Solid.sol\":11580:11848  function _mint(address account, uint256 amount) internal {... */\n    tag_230:\n        /* \"contracts/Solid.sol\":11675:11676  0 */\n      0x00\n        /* \"contracts/Solid.sol\":11656:11677  account != address(0) */\n      0xffffffffffffffffffffffffffffffffffffffff\n      and\n        /* \"contracts/Solid.sol\":11656:11663  account */\n      dup3\n        /* \"contracts/Solid.sol\":11656:11677  account != address(0) */\n      0xffffffffffffffffffffffffffffffffffffffff\n      and\n      eq\n      iszero\n        /* \"contracts/Solid.sol\":11648:11713  require(account != address(0), \"ERC20: mint to the zero address\") */\n      tag_327\n      jumpi\n      mload(0x40)\n      0x08c379a000000000000000000000000000000000000000000000000000000000\n      dup2\n      mstore\n      0x04\n      add\n      tag_328\n      swap1\n      tag_329\n      jump\t// in\n    tag_328:\n      mload(0x40)\n      dup1\n      swap2\n      sub\n      swap1\n      revert\n    tag_327:\n        /* \"contracts/Solid.sol\":11742:11748  amount */\n      dup1\n        /* \"contracts/Solid.sol\":11726:11738  _totalSupply */\n      0x03\n      0x00\n        /* \"contracts/Solid.sol\":11726:11748  _totalSupply += amount */\n      dup3\n      dup3\n      sload\n      tag_330\n      swap2\n      swap1\n      tag_208\n      jump\t// in\n    tag_330:\n      swap3\n      pop\n      pop\n      dup2\n      swap1\n      sstore\n      pop\n        /* \"contracts/Solid.sol\":11781:11787  amount */\n      dup1\n        /* \"contracts/Solid.sol\":11759:11768  balanceOf */\n      0x02\n        /* \"contracts/Solid.sol\":11759:11777  balanceOf[account] */\n      0x00\n        /* \"contracts/Solid.sol\":11769:11776  account */\n      dup5\n        /* \"contracts/Solid.sol\":11759:11777  balanceOf[account] */\n      0xffffffffffffffffffffffffffffffffffffffff\n      and\n      0xffffffffffffffffffffffffffffffffffffffff\n      and\n      dup2\n      mstore\n      0x20\n      add\n      swap1\n      dup2\n      mstore\n      0x20\n      add\n      0x00\n      keccak256\n      0x00\n        /* \"contracts/Solid.sol\":11759:11787  balanceOf[account] += amount */\n      dup3\n      dup3\n      sload\n      tag_331\n      swap2\n      swap1\n      tag_208\n      jump\t// in\n    tag_331:\n      swap3\n      pop\n      pop\n      dup2\n      swap1\n      sstore\n      pop\n        /* \"contracts/Solid.sol\":11824:11831  account */\n      dup2\n        /* \"contracts/Solid.sol\":11803:11840  Transfer(address(0), account, amount) */\n      0xffffffffffffffffffffffffffffffffffffffff\n      and\n        /* \"contracts/Solid.sol\":11820:11821  0 */\n      0x00\n        /* \"contracts/Solid.sol\":11803:11840  Transfer(address(0), account, amount) */\n      0xffffffffffffffffffffffffffffffffffffffff\n      and\n      0xddf252ad1be2c89b69c2b068fc378daa952ba7f163c4a11628f55a4df523b3ef\n        /* \"contracts/Solid.sol\":11833:11839  amount */\n      dup4\n        /* \"contracts/Solid.sol\":11803:11840  Transfer(address(0), account, amount) */\n      mload(0x40)\n      tag_332\n      swap2\n      swap1\n      tag_64\n      jump\t// in\n    tag_332:\n      mload(0x40)\n      dup1\n      swap2\n      sub\n      swap1\n      log3\n        /* \"contracts/Solid.sol\":11580:11848  function _mint(address account, uint256 amount) internal {... */\n      pop\n      pop\n      jump\t// out\n        /* \"contracts/Solid.sol\":16211:16610  function verifyEIP712(address target, bytes32 hashStruct, uint8 v, bytes32 r, bytes32 s) internal view returns (bool) {... */\n    tag_240:\n        /* \"contracts/Solid.sol\":16323:16327  bool */\n      0x00\n        /* \"contracts/Solid.sol\":16340:16352  bytes32 hash */\n      dup1\n        /* \"contracts/Solid.sol\":16443:16459  DOMAIN_SEPARATOR */\n      immutable(\"0x2c7ca6eaf0dd20913c55b4658e5b02864b47cfd1b3241634c484bb991f3fabe0\")\n        /* \"contracts/Solid.sol\":16478:16488  hashStruct */\n      dup7\n        /* \"contracts/Solid.sol\":16379:16489  abi.encodePacked(... */\n      add(0x20, mload(0x40))\n      tag_334\n      swap3\n      swap2\n      swap1\n      tag_335\n      jump\t// in\n    tag_334:\n      mload(0x40)\n      0x20\n      dup2\n      dup4\n      sub\n      sub\n      dup2\n      mstore\n      swap1\n      0x40\n      mstore\n        /* \"contracts/Solid.sol\":16355:16490  keccak256(... */\n      dup1\n      mload\n      swap1\n      0x20\n      add\n      keccak256\n        /* \"contracts/Solid.sol\":16340:16490  bytes32 hash = keccak256(... */\n      swap1\n      pop\n        /* \"contracts/Solid.sol\":16501:16515  address signer */\n      0x00\n        /* \"contracts/Solid.sol\":16518:16542  ecrecover(hash, v, r, s) */\n      0x01\n        /* \"contracts/Solid.sol\":16528:16532  hash */\n      dup3\n        /* \"contracts/Solid.sol\":16534:16535  v */\n      dup8\n        /* \"contracts/Solid.sol\":16537:16538  r */\n      dup8\n        /* \"contracts/Solid.sol\":16540:16541  s */\n      dup8\n        /* \"contracts/Solid.sol\":16518:16542  ecrecover(hash, v, r, s) */\n      mload(0x40)\n      0x00\n      dup2\n      mstore\n      0x20\n      add\n      0x40\n      mstore\n      mload(0x40)\n      tag_336\n      swap5\n      swap4\n      swap3\n      swap2\n      swap1\n      tag_337\n      jump\t// in\n    tag_336:\n      0x20\n      mload(0x40)\n      0x20\n      dup2\n      sub\n      swap1\n      dup1\n      dup5\n      sub\n      swap1\n      dup6\n      gas\n      staticcall\n      iszero\n      dup1\n      iszero\n      tag_339\n      jumpi\n      returndatasize\n      0x00\n      dup1\n      returndatacopy\n      revert(0x00, returndatasize)\n    tag_339:\n      pop\n      pop\n      pop\n      mload(sub(mload(0x40), 0x20))\n        /* \"contracts/Solid.sol\":16501:16542  address signer = ecrecover(hash, v, r, s) */\n      swap1\n      pop\n        /* \"contracts/Solid.sol\":16579:16580  0 */\n      0x00\n        /* \"contracts/Solid.sol\":16561:16581  signer != address(0) */\n      0xffffffffffffffffffffffffffffffffffffffff\n      and\n        /* \"contracts/Solid.sol\":16561:16567  signer */\n      dup2\n        /* \"contracts/Solid.sol\":16561:16581  signer != address(0) */\n      0xffffffffffffffffffffffffffffffffffffffff\n      and\n      eq\n      iszero\n        /* \"contracts/Solid.sol\":16561:16601  signer != address(0) && signer == target */\n      dup1\n      iszero\n      tag_340\n      jumpi\n      pop\n        /* \"contracts/Solid.sol\":16595:16601  target */\n      dup8\n        /* \"contracts/Solid.sol\":16585:16601  signer == target */\n      0xffffffffffffffffffffffffffffffffffffffff\n      and\n        /* \"contracts/Solid.sol\":16585:16591  signer */\n      dup2\n        /* \"contracts/Solid.sol\":16585:16601  signer == target */\n      0xffffffffffffffffffffffffffffffffffffffff\n      and\n      eq\n        /* \"contracts/Solid.sol\":16561:16601  signer != address(0) && signer == target */\n    tag_340:\n        /* \"contracts/Solid.sol\":16553:16602  return (signer != address(0) && signer == target) */\n      swap3\n      pop\n      pop\n      pop\n        /* \"contracts/Solid.sol\":16211:16610  function verifyEIP712(address target, bytes32 hashStruct, uint8 v, bytes32 r, bytes32 s) internal view returns (bool) {... */\n      swap6\n      swap5\n      pop\n      pop\n      pop\n      pop\n      pop\n      jump\t// out\n        /* \"contracts/Solid.sol\":16618:17047  function verifyPersonalSign(address target, bytes32 hashStruct, uint8 v, bytes32 r, bytes32 s) internal view returns (bool) {... */\n    tag_243:\n        /* \"contracts/Solid.sol\":16736:16740  bool */\n      0x00\n        /* \"contracts/Solid.sol\":16753:16765  bytes32 hash */\n      dup1\n        /* \"contracts/Solid.sol\":16880:16896  DOMAIN_SEPARATOR */\n      immutable(\"0x2c7ca6eaf0dd20913c55b4658e5b02864b47cfd1b3241634c484bb991f3fabe0\")\n        /* \"contracts/Solid.sol\":16915:16925  hashStruct */\n      dup7\n        /* \"contracts/Solid.sol\":16792:16926  abi.encodePacked(... */\n      add(0x20, mload(0x40))\n      tag_342\n      swap3\n      swap2\n      swap1\n      tag_343\n      jump\t// in\n    tag_342:\n      mload(0x40)\n      0x20\n      dup2\n      dup4\n      sub\n      sub\n      dup2\n      mstore\n      swap1\n      0x40\n      mstore\n        /* \"contracts/Solid.sol\":16768:16927  keccak256(... */\n      dup1\n      mload\n      swap1\n      0x20\n      add\n      keccak256\n        /* \"contracts/Solid.sol\":16753:16927  bytes32 hash = keccak256(... */\n      swap1\n      pop\n        /* \"contracts/Solid.sol\":16938:16952  address signer */\n      0x00\n        /* \"contracts/Solid.sol\":16955:16979  ecrecover(hash, v, r, s) */\n      0x01\n        /* \"contracts/Solid.sol\":16965:16969  hash */\n      dup3\n        /* \"contracts/Solid.sol\":16971:16972  v */\n      dup8\n        /* \"contracts/Solid.sol\":16974:16975  r */\n      dup8\n        /* \"contracts/Solid.sol\":16977:16978  s */\n      dup8\n        /* \"contracts/Solid.sol\":16955:16979  ecrecover(hash, v, r, s) */\n      mload(0x40)\n      0x00\n      dup2\n      mstore\n      0x20\n      add\n      0x40\n      mstore\n      mload(0x40)\n      tag_344\n      swap5\n      swap4\n      swap3\n      swap2\n      swap1\n      tag_337\n      jump\t// in\n    tag_344:\n      0x20\n      mload(0x40)\n      0x20\n      dup2\n      sub\n      swap1\n      dup1\n      dup5\n      sub\n      swap1\n      dup6\n      gas\n      staticcall\n      iszero\n      dup1\n      iszero\n      tag_346\n      jumpi\n      returndatasize\n      0x00\n      dup1\n      returndatacopy\n      revert(0x00, returndatasize)\n    tag_346:\n      pop\n      pop\n      pop\n      mload(sub(mload(0x40), 0x20))\n        /* \"contracts/Solid.sol\":16938:16979  address signer = ecrecover(hash, v, r, s) */\n      swap1\n      pop\n        /* \"contracts/Solid.sol\":17016:17017  0 */\n      0x00\n        /* \"contracts/Solid.sol\":16998:17018  signer != address(0) */\n      0xffffffffffffffffffffffffffffffffffffffff\n      and\n        /* \"contracts/Solid.sol\":16998:17004  signer */\n      dup2\n        /* \"contracts/Solid.sol\":16998:17018  signer != address(0) */\n      0xffffffffffffffffffffffffffffffffffffffff\n      and\n      eq\n      iszero\n        /* \"contracts/Solid.sol\":16998:17038  signer != address(0) && signer == target */\n      dup1\n      iszero\n      tag_347\n      jumpi\n      pop\n        /* \"contracts/Solid.sol\":17032:17038  target */\n      dup8\n        /* \"contracts/Solid.sol\":17022:17038  signer == target */\n      0xffffffffffffffffffffffffffffffffffffffff\n      and\n        /* \"contracts/Solid.sol\":17022:17028  signer */\n      dup2\n        /* \"contracts/Solid.sol\":17022:17038  signer == target */\n      0xffffffffffffffffffffffffffffffffffffffff\n      and\n      eq\n        /* \"contracts/Solid.sol\":16998:17038  signer != address(0) && signer == target */\n    tag_347:\n        /* \"contracts/Solid.sol\":16990:17039  return (signer != address(0) && signer == target) */\n      swap3\n      pop\n      pop\n      pop\n        /* \"contracts/Solid.sol\":16618:17047  function verifyPersonalSign(address target, bytes32 hashStruct, uint8 v, bytes32 r, bytes32 s) internal view returns (bool) {... */\n      swap6\n      swap5\n      pop\n      pop\n      pop\n      pop\n      pop\n      jump\t// out\n        /* \"contracts/Solid.sol\":12180:12450  function _burn(address account, uint256 amount) internal {... */\n    tag_277:\n        /* \"contracts/Solid.sol\":12275:12276  0 */\n      0x00\n        /* \"contracts/Solid.sol\":12256:12277  account != address(0) */\n      0xffffffffffffffffffffffffffffffffffffffff\n      and\n        /* \"contracts/Solid.sol\":12256:12263  account */\n      dup3\n        /* \"contracts/Solid.sol\":12256:12277  account != address(0) */\n      0xffffffffffffffffffffffffffffffffffffffff\n      and\n      eq\n      iszero\n        /* \"contracts/Solid.sol\":12248:12315  require(account != address(0), \"ERC20: burn from the zero address\") */\n      tag_349\n      jumpi\n      mload(0x40)\n      0x08c379a000000000000000000000000000000000000000000000000000000000\n      dup2\n      mstore\n      0x04\n      add\n      tag_350\n      swap1\n      tag_351\n      jump\t// in\n    tag_350:\n      mload(0x40)\n      dup1\n      swap2\n      sub\n      swap1\n      revert\n    tag_349:\n        /* \"contracts/Solid.sol\":12350:12356  amount */\n      dup1\n        /* \"contracts/Solid.sol\":12328:12337  balanceOf */\n      0x02\n        /* \"contracts/Solid.sol\":12328:12346  balanceOf[account] */\n      0x00\n        /* \"contracts/Solid.sol\":12338:12345  account */\n      dup5\n        /* \"contracts/Solid.sol\":12328:12346  balanceOf[account] */\n      0xffffffffffffffffffffffffffffffffffffffff\n      and\n      0xffffffffffffffffffffffffffffffffffffffff\n      and\n      dup2\n      mstore\n      0x20\n      add\n      swap1\n      dup2\n      mstore\n      0x20\n      add\n      0x00\n      keccak256\n      0x00\n        /* \"contracts/Solid.sol\":12328:12356  balanceOf[account] -= amount */\n      dup3\n      dup3\n      sload\n      tag_352\n      swap2\n      swap1\n      tag_201\n      jump\t// in\n    tag_352:\n      swap3\n      pop\n      pop\n      dup2\n      swap1\n      sstore\n      pop\n        /* \"contracts/Solid.sol\":12383:12389  amount */\n      dup1\n        /* \"contracts/Solid.sol\":12367:12379  _totalSupply */\n      0x03\n      0x00\n        /* \"contracts/Solid.sol\":12367:12389  _totalSupply -= amount */\n      dup3\n      dup3\n      sload\n      tag_353\n      swap2\n      swap1\n      tag_201\n      jump\t// in\n    tag_353:\n      swap3\n      pop\n      pop\n      dup2\n      swap1\n      sstore\n      pop\n        /* \"contracts/Solid.sol\":12431:12432  0 */\n      0x00\n        /* \"contracts/Solid.sol\":12405:12442  Transfer(account, address(0), amount) */\n      0xffffffffffffffffffffffffffffffffffffffff\n      and\n        /* \"contracts/Solid.sol\":12414:12421  account */\n      dup3\n        /* \"contracts/Solid.sol\":12405:12442  Transfer(account, address(0), amount) */\n      0xffffffffffffffffffffffffffffffffffffffff\n      and\n      0xddf252ad1be2c89b69c2b068fc378daa952ba7f163c4a11628f55a4df523b3ef\n        /* \"contracts/Solid.sol\":12435:12441  amount */\n      dup4\n        /* \"contracts/Solid.sol\":12405:12442  Transfer(account, address(0), amount) */\n      mload(0x40)\n      tag_354\n      swap2\n      swap1\n      tag_64\n      jump\t// in\n    tag_354:\n      mload(0x40)\n      dup1\n      swap2\n      sub\n      swap1\n      log3\n        /* \"contracts/Solid.sol\":12180:12450  function _burn(address account, uint256 amount) internal {... */\n      pop\n      pop\n      jump\t// out\n        /* \"#utility.yul\":7:84   */\n    tag_355:\n        /* \"#utility.yul\":44:51   */\n      0x00\n        /* \"#utility.yul\":73:78   */\n      dup2\n        /* \"#utility.yul\":62:78   */\n      swap1\n      pop\n        /* \"#utility.yul\":7:84   */\n      swap2\n      swap1\n      pop\n      jump\t// out\n        /* \"#utility.yul\":90:208   */\n    tag_356:\n        /* \"#utility.yul\":177:201   */\n      tag_426\n        /* \"#utility.yul\":195:200   */\n      dup2\n        /* \"#utility.yul\":177:201   */\n      tag_355\n      jump\t// in\n    tag_426:\n        /* \"#utility.yul\":172:175   */\n      dup3\n        /* \"#utility.yul\":165:202   */\n      mstore\n        /* \"#utility.yul\":90:208   */\n      pop\n      pop\n      jump\t// out\n        /* \"#utility.yul\":214:436   */\n    tag_48:\n        /* \"#utility.yul\":307:311   */\n      0x00\n        /* \"#utility.yul\":345:347   */\n      0x20\n        /* \"#utility.yul\":334:343   */\n      dup3\n        /* \"#utility.yul\":330:348   */\n      add\n        /* \"#utility.yul\":322:348   */\n      swap1\n      pop\n        /* \"#utility.yul\":358:429   */\n      tag_428\n        /* \"#utility.yul\":426:427   */\n      0x00\n        /* \"#utility.yul\":415:424   */\n      dup4\n        /* \"#utility.yul\":411:428   */\n      add\n        /* \"#utility.yul\":402:408   */\n      dup5\n        /* \"#utility.yul\":358:429   */\n      tag_356\n      jump\t// in\n    tag_428:\n        /* \"#utility.yul\":214:436   */\n      swap3\n      swap2\n      pop\n      pop\n      jump\t// out\n        /* \"#utility.yul\":442:541   */\n    tag_357:\n        /* \"#utility.yul\":494:500   */\n      0x00\n        /* \"#utility.yul\":528:533   */\n      dup2\n        /* \"#utility.yul\":522:534   */\n      mload\n        /* \"#utility.yul\":512:534   */\n      swap1\n      pop\n        /* \"#utility.yul\":442:541   */\n      swap2\n      swap1\n      pop\n      jump\t// out\n        /* \"#utility.yul\":547:716   */\n    tag_358:\n        /* \"#utility.yul\":631:642   */\n      0x00\n        /* \"#utility.yul\":665:671   */\n      dup3\n        /* \"#utility.yul\":660:663   */\n      dup3\n        /* \"#utility.yul\":653:672   */\n      mstore\n        /* \"#utility.yul\":705:709   */\n      0x20\n        /* \"#utility.yul\":700:703   */\n      dup3\n        /* \"#utility.yul\":696:710   */\n      add\n        /* \"#utility.yul\":681:710   */\n      swap1\n      pop\n        /* \"#utility.yul\":547:716   */\n      swap3\n      swap2\n      pop\n      pop\n      jump\t// out\n        /* \"#utility.yul\":722:1029   */\n    tag_359:\n        /* \"#utility.yul\":790:791   */\n      0x00\n        /* \"#utility.yul\":800:913   */\n    tag_432:\n        /* \"#utility.yul\":814:820   */\n      dup4\n        /* \"#utility.yul\":811:812   */\n      dup2\n        /* \"#utility.yul\":808:821   */\n      lt\n        /* \"#utility.yul\":800:913   */\n      iszero\n      tag_434\n      jumpi\n        /* \"#utility.yul\":899:900   */\n      dup1\n        /* \"#utility.yul\":894:897   */\n      dup3\n        /* \"#utility.yul\":890:901   */\n      add\n        /* \"#utility.yul\":884:902   */\n      mload\n        /* \"#utility.yul\":880:881   */\n      dup2\n        /* \"#utility.yul\":875:878   */\n      dup5\n        /* \"#utility.yul\":871:882   */\n      add\n        /* \"#utility.yul\":864:903   */\n      mstore\n        /* \"#utility.yul\":836:838   */\n      0x20\n        /* \"#utility.yul\":833:834   */\n      dup2\n        /* \"#utility.yul\":829:839   */\n      add\n        /* \"#utility.yul\":824:839   */\n      swap1\n      pop\n        /* \"#utility.yul\":800:913   */\n      jump(tag_432)\n    tag_434:\n        /* \"#utility.yul\":931:937   */\n      dup4\n        /* \"#utility.yul\":928:929   */\n      dup2\n        /* \"#utility.yul\":925:938   */\n      gt\n        /* \"#utility.yul\":922:1023   */\n      iszero\n      tag_435\n      jumpi\n        /* \"#utility.yul\":1011:1012   */\n      0x00\n        /* \"#utility.yul\":1002:1008   */\n      dup5\n        /* \"#utility.yul\":997:1000   */\n      dup5\n        /* \"#utility.yul\":993:1009   */\n      add\n        /* \"#utility.yul\":986:1013   */\n      mstore\n        /* \"#utility.yul\":922:1023   */\n    tag_435:\n        /* \"#utility.yul\":771:1029   */\n      pop\n        /* \"#utility.yul\":722:1029   */\n      pop\n      pop\n      pop\n      jump\t// out\n        /* \"#utility.yul\":1035:1137   */\n    tag_360:\n        /* \"#utility.yul\":1076:1082   */\n      0x00\n        /* \"#utility.yul\":1127:1129   */\n      0x1f\n        /* \"#utility.yul\":1123:1130   */\n      not\n        /* \"#utility.yul\":1118:1120   */\n      0x1f\n        /* \"#utility.yul\":1111:1116   */\n      dup4\n        /* \"#utility.yul\":1107:1121   */\n      add\n        /* \"#utility.yul\":1103:1131   */\n      and\n        /* \"#utility.yul\":1093:1131   */\n      swap1\n      pop\n        /* \"#utility.yul\":1035:1137   */\n      swap2\n      swap1\n      pop\n      jump\t// out\n        /* \"#utility.yul\":1143:1507   */\n    tag_361:\n        /* \"#utility.yul\":1231:1234   */\n      0x00\n        /* \"#utility.yul\":1259:1298   */\n      tag_438\n        /* \"#utility.yul\":1292:1297   */\n      dup3\n        /* \"#utility.yul\":1259:1298   */\n      tag_357\n      jump\t// in\n    tag_438:\n        /* \"#utility.yul\":1314:1385   */\n      tag_439\n        /* \"#utility.yul\":1378:1384   */\n      dup2\n        /* \"#utility.yul\":1373:1376   */\n      dup6\n        /* \"#utility.yul\":1314:1385   */\n      tag_358\n      jump\t// in\n    tag_439:\n        /* \"#utility.yul\":1307:1385   */\n      swap4\n      pop\n        /* \"#utility.yul\":1394:1446   */\n      tag_440\n        /* \"#utility.yul\":1439:1445   */\n      dup2\n        /* \"#utility.yul\":1434:1437   */\n      dup6\n        /* \"#utility.yul\":1427:1431   */\n      0x20\n        /* \"#utility.yul\":1420:1425   */\n      dup7\n        /* \"#utility.yul\":1416:1432   */\n      add\n        /* \"#utility.yul\":1394:1446   */\n      tag_359\n      jump\t// in\n    tag_440:\n        /* \"#utility.yul\":1471:1500   */\n      tag_441\n        /* \"#utility.yul\":1493:1499   */\n      dup2\n        /* \"#utility.yul\":1471:1500   */\n      tag_360\n      jump\t// in\n    tag_441:\n        /* \"#utility.yul\":1466:1469   */\n      dup5\n        /* \"#utility.yul\":1462:1501   */\n      add\n        /* \"#utility.yul\":1455:1501   */\n      swap2\n      pop\n        /* \"#utility.yul\":1235:1507   */\n      pop\n        /* \"#utility.yul\":1143:1507   */\n      swap3\n      swap2\n      pop\n      pop\n      jump\t// out\n        /* \"#utility.yul\":1513:1826   */\n    tag_52:\n        /* \"#utility.yul\":1626:1630   */\n      0x00\n        /* \"#utility.yul\":1664:1666   */\n      0x20\n        /* \"#utility.yul\":1653:1662   */\n      dup3\n        /* \"#utility.yul\":1649:1667   */\n      add\n        /* \"#utility.yul\":1641:1667   */\n      swap1\n      pop\n        /* \"#utility.yul\":1713:1722   */\n      dup2\n        /* \"#utility.yul\":1707:1711   */\n      dup2\n        /* \"#utility.yul\":1703:1723   */\n      sub\n        /* \"#utility.yul\":1699:1700   */\n      0x00\n        /* \"#utility.yul\":1688:1697   */\n      dup4\n        /* \"#utility.yul\":1684:1701   */\n      add\n        /* \"#utility.yul\":1677:1724   */\n      mstore\n        /* \"#utility.yul\":1741:1819   */\n      tag_443\n        /* \"#utility.yul\":1814:1818   */\n      dup2\n        /* \"#utility.yul\":1805:1811   */\n      dup5\n        /* \"#utility.yul\":1741:1819   */\n      tag_361\n      jump\t// in\n    tag_443:\n        /* \"#utility.yul\":1733:1819   */\n      swap1\n      pop\n        /* \"#utility.yul\":1513:1826   */\n      swap3\n      swap2\n      pop\n      pop\n      jump\t// out\n        /* \"#utility.yul\":1913:2030   */\n    tag_363:\n        /* \"#utility.yul\":2022:2023   */\n      0x00\n        /* \"#utility.yul\":2019:2020   */\n      dup1\n        /* \"#utility.yul\":2012:2024   */\n      revert\n        /* \"#utility.yul\":2036:2153   */\n    tag_364:\n        /* \"#utility.yul\":2145:2146   */\n      0x00\n        /* \"#utility.yul\":2142:2143   */\n      dup1\n        /* \"#utility.yul\":2135:2147   */\n      revert\n        /* \"#utility.yul\":2159:2285   */\n    tag_365:\n        /* \"#utility.yul\":2196:2203   */\n      0x00\n        /* \"#utility.yul\":2236:2278   */\n      0xffffffffffffffffffffffffffffffffffffffff\n        /* \"#utility.yul\":2229:2234   */\n      dup3\n        /* \"#utility.yul\":2225:2279   */\n      and\n        /* \"#utility.yul\":2214:2279   */\n      swap1\n      pop\n        /* \"#utility.yul\":2159:2285   */\n      swap2\n      swap1\n      pop\n      jump\t// out\n        /* \"#utility.yul\":2291:2387   */\n    tag_366:\n        /* \"#utility.yul\":2328:2335   */\n      0x00\n        /* \"#utility.yul\":2357:2381   */\n      tag_449\n        /* \"#utility.yul\":2375:2380   */\n      dup3\n        /* \"#utility.yul\":2357:2381   */\n      tag_365\n      jump\t// in\n    tag_449:\n        /* \"#utility.yul\":2346:2381   */\n      swap1\n      pop\n        /* \"#utility.yul\":2291:2387   */\n      swap2\n      swap1\n      pop\n      jump\t// out\n        /* \"#utility.yul\":2393:2515   */\n    tag_367:\n        /* \"#utility.yul\":2466:2490   */\n      tag_451\n        /* \"#utility.yul\":2484:2489   */\n      dup2\n        /* \"#utility.yul\":2466:2490   */\n      tag_366\n      jump\t// in\n    tag_451:\n        /* \"#utility.yul\":2459:2464   */\n      dup2\n        /* \"#utility.yul\":2456:2491   */\n      eq\n        /* \"#utility.yul\":2446:2509   */\n      tag_452\n      jumpi\n        /* \"#utility.yul\":2505:2506   */\n      0x00\n        /* \"#utility.yul\":2502:2503   */\n      dup1\n        /* \"#utility.yul\":2495:2507   */\n      revert\n        /* \"#utility.yul\":2446:2509   */\n    tag_452:\n        /* \"#utility.yul\":2393:2515   */\n      pop\n      jump\t// out\n        /* \"#utility.yul\":2521:2660   */\n    tag_368:\n        /* \"#utility.yul\":2567:2572   */\n      0x00\n        /* \"#utility.yul\":2605:2611   */\n      dup2\n        /* \"#utility.yul\":2592:2612   */\n      calldataload\n        /* \"#utility.yul\":2583:2612   */\n      swap1\n      pop\n        /* \"#utility.yul\":2621:2654   */\n      tag_454\n        /* \"#utility.yul\":2648:2653   */\n      dup2\n        /* \"#utility.yul\":2621:2654   */\n      tag_367\n      jump\t// in\n    tag_454:\n        /* \"#utility.yul\":2521:2660   */\n      swap3\n      swap2\n      pop\n      pop\n      jump\t// out\n        /* \"#utility.yul\":2666:2743   */\n    tag_369:\n        /* \"#utility.yul\":2703:2710   */\n      0x00\n        /* \"#utility.yul\":2732:2737   */\n      dup2\n        /* \"#utility.yul\":2721:2737   */\n      swap1\n      pop\n        /* \"#utility.yul\":2666:2743   */\n      swap2\n      swap1\n      pop\n      jump\t// out\n        /* \"#utility.yul\":2749:2871   */\n    tag_370:\n        /* \"#utility.yul\":2822:2846   */\n      tag_457\n        /* \"#utility.yul\":2840:2845   */\n      dup2\n        /* \"#utility.yul\":2822:2846   */\n      tag_369\n      jump\t// in\n    tag_457:\n        /* \"#utility.yul\":2815:2820   */\n      dup2\n        /* \"#utility.yul\":2812:2847   */\n      eq\n        /* \"#utility.yul\":2802:2865   */\n      tag_458\n      jumpi\n        /* \"#utility.yul\":2861:2862   */\n      0x00\n        /* \"#utility.yul\":2858:2859   */\n      dup1\n        /* \"#utility.yul\":2851:2863   */\n      revert\n        /* \"#utility.yul\":2802:2865   */\n    tag_458:\n        /* \"#utility.yul\":2749:2871   */\n      pop\n      jump\t// out\n        /* \"#utility.yul\":2877:3016   */\n    tag_371:\n        /* \"#utility.yul\":2923:2928   */\n      0x00\n        /* \"#utility.yul\":2961:2967   */\n      dup2\n        /* \"#utility.yul\":2948:2968   */\n      calldataload\n        /* \"#utility.yul\":2939:2968   */\n      swap1\n      pop\n        /* \"#utility.yul\":2977:3010   */\n      tag_460\n        /* \"#utility.yul\":3004:3009   */\n      dup2\n        /* \"#utility.yul\":2977:3010   */\n      tag_370\n      jump\t// in\n    tag_460:\n        /* \"#utility.yul\":2877:3016   */\n      swap3\n      swap2\n      pop\n      pop\n      jump\t// out\n        /* \"#utility.yul\":3022:3496   */\n    tag_55:\n        /* \"#utility.yul\":3090:3096   */\n      0x00\n        /* \"#utility.yul\":3098:3104   */\n      dup1\n        /* \"#utility.yul\":3147:3149   */\n      0x40\n        /* \"#utility.yul\":3135:3144   */\n      dup4\n        /* \"#utility.yul\":3126:3133   */\n      dup6\n        /* \"#utility.yul\":3122:3145   */\n      sub\n        /* \"#utility.yul\":3118:3150   */\n      slt\n        /* \"#utility.yul\":3115:3234   */\n      iszero\n      tag_462\n      jumpi\n        /* \"#utility.yul\":3153:3232   */\n      tag_463\n      tag_363\n      jump\t// in\n    tag_463:\n        /* \"#utility.yul\":3115:3234   */\n    tag_462:\n        /* \"#utility.yul\":3273:3274   */\n      0x00\n        /* \"#utility.yul\":3298:3351   */\n      tag_464\n        /* \"#utility.yul\":3343:3350   */\n      dup6\n        /* \"#utility.yul\":3334:3340   */\n      dup3\n        /* \"#utility.yul\":3323:3332   */\n      dup7\n        /* \"#utility.yul\":3319:3341   */\n      add\n        /* \"#utility.yul\":3298:3351   */\n      tag_368\n      jump\t// in\n    tag_464:\n        /* \"#utility.yul\":3288:3351   */\n      swap3\n      pop\n        /* \"#utility.yul\":3244:3361   */\n      pop\n        /* \"#utility.yul\":3400:3402   */\n      0x20\n        /* \"#utility.yul\":3426:3479   */\n      tag_465\n        /* \"#utility.yul\":3471:3478   */\n      dup6\n        /* \"#utility.yul\":3462:3468   */\n      dup3\n        /* \"#utility.yul\":3451:3460   */\n      dup7\n        /* \"#utility.yul\":3447:3469   */\n      add\n        /* \"#utility.yul\":3426:3479   */\n      tag_371\n      jump\t// in\n    tag_465:\n        /* \"#utility.yul\":3416:3479   */\n      swap2\n      pop\n        /* \"#utility.yul\":3371:3489   */\n      pop\n        /* \"#utility.yul\":3022:3496   */\n      swap3\n      pop\n      swap3\n      swap1\n      pop\n      jump\t// out\n        /* \"#utility.yul\":3502:3592   */\n    tag_372:\n        /* \"#utility.yul\":3536:3543   */\n      0x00\n        /* \"#utility.yul\":3579:3584   */\n      dup2\n        /* \"#utility.yul\":3572:3585   */\n      iszero\n        /* \"#utility.yul\":3565:3586   */\n      iszero\n        /* \"#utility.yul\":3554:3586   */\n      swap1\n      pop\n        /* \"#utility.yul\":3502:3592   */\n      swap2\n      swap1\n      pop\n      jump\t// out\n        /* \"#utility.yul\":3598:3707   */\n    tag_373:\n        /* \"#utility.yul\":3679:3700   */\n      tag_468\n        /* \"#utility.yul\":3694:3699   */\n      dup2\n        /* \"#utility.yul\":3679:3700   */\n      tag_372\n      jump\t// in\n    tag_468:\n        /* \"#utility.yul\":3674:3677   */\n      dup3\n        /* \"#utility.yul\":3667:3701   */\n      mstore\n        /* \"#utility.yul\":3598:3707   */\n      pop\n      pop\n      jump\t// out\n        /* \"#utility.yul\":3713:3923   */\n    tag_58:\n        /* \"#utility.yul\":3800:3804   */\n      0x00\n        /* \"#utility.yul\":3838:3840   */\n      0x20\n        /* \"#utility.yul\":3827:3836   */\n      dup3\n        /* \"#utility.yul\":3823:3841   */\n      add\n        /* \"#utility.yul\":3815:3841   */\n      swap1\n      pop\n        /* \"#utility.yul\":3851:3916   */\n      tag_470\n        /* \"#utility.yul\":3913:3914   */\n      0x00\n        /* \"#utility.yul\":3902:3911   */\n      dup4\n        /* \"#utility.yul\":3898:3915   */\n      add\n        /* \"#utility.yul\":3889:3895   */\n      dup5\n        /* \"#utility.yul\":3851:3916   */\n      tag_373\n      jump\t// in\n    tag_470:\n        /* \"#utility.yul\":3713:3923   */\n      swap3\n      swap2\n      pop\n      pop\n      jump\t// out\n        /* \"#utility.yul\":3929:4047   */\n    tag_374:\n        /* \"#utility.yul\":4016:4040   */\n      tag_472\n        /* \"#utility.yul\":4034:4039   */\n      dup2\n        /* \"#utility.yul\":4016:4040   */\n      tag_369\n      jump\t// in\n    tag_472:\n        /* \"#utility.yul\":4011:4014   */\n      dup3\n        /* \"#utility.yul\":4004:4041   */\n      mstore\n        /* \"#utility.yul\":3929:4047   */\n      pop\n      pop\n      jump\t// out\n        /* \"#utility.yul\":4053:4275   */\n    tag_64:\n        /* \"#utility.yul\":4146:4150   */\n      0x00\n        /* \"#utility.yul\":4184:4186   */\n      0x20\n        /* \"#utility.yul\":4173:4182   */\n      dup3\n        /* \"#utility.yul\":4169:4187   */\n      add\n        /* \"#utility.yul\":4161:4187   */\n      swap1\n      pop\n        /* \"#utility.yul\":4197:4268   */\n      tag_474\n        /* \"#utility.yul\":4265:4266   */\n      0x00\n        /* \"#utility.yul\":4254:4263   */\n      dup4\n        /* \"#utility.yul\":4250:4267   */\n      add\n        /* \"#utility.yul\":4241:4247   */\n      dup5\n        /* \"#utility.yul\":4197:4268   */\n      tag_374\n      jump\t// in\n    tag_474:\n        /* \"#utility.yul\":4053:4275   */\n      swap3\n      swap2\n      pop\n      pop\n      jump\t// out\n        /* \"#utility.yul\":4281:4900   */\n    tag_67:\n        /* \"#utility.yul\":4358:4364   */\n      0x00\n        /* \"#utility.yul\":4366:4372   */\n      dup1\n        /* \"#utility.yul\":4374:4380   */\n      0x00\n        /* \"#utility.yul\":4423:4425   */\n      0x60\n        /* \"#utility.yul\":4411:4420   */\n      dup5\n        /* \"#utility.yul\":4402:4409   */\n      dup7\n        /* \"#utility.yul\":4398:4421   */\n      sub\n        /* \"#utility.yul\":4394:4426   */\n      slt\n        /* \"#utility.yul\":4391:4510   */\n      iszero\n      tag_476\n      jumpi\n        /* \"#utility.yul\":4429:4508   */\n      tag_477\n      tag_363\n      jump\t// in\n    tag_477:\n        /* \"#utility.yul\":4391:4510   */\n    tag_476:\n        /* \"#utility.yul\":4549:4550   */\n      0x00\n        /* \"#utility.yul\":4574:4627   */\n      tag_478\n        /* \"#utility.yul\":4619:4626   */\n      dup7\n        /* \"#utility.yul\":4610:4616   */\n      dup3\n        /* \"#utility.yul\":4599:4608   */\n      dup8\n        /* \"#utility.yul\":4595:4617   */\n      add\n        /* \"#utility.yul\":4574:4627   */\n      tag_368\n      jump\t// in\n    tag_478:\n        /* \"#utility.yul\":4564:4627   */\n      swap4\n      pop\n        /* \"#utility.yul\":4520:4637   */\n      pop\n        /* \"#utility.yul\":4676:4678   */\n      0x20\n        /* \"#utility.yul\":4702:4755   */\n      tag_479\n        /* \"#utility.yul\":4747:4754   */\n      dup7\n        /* \"#utility.yul\":4738:4744   */\n      dup3\n        /* \"#utility.yul\":4727:4736   */\n      dup8\n        /* \"#utility.yul\":4723:4745   */\n      add\n        /* \"#utility.yul\":4702:4755   */\n      tag_368\n      jump\t// in\n    tag_479:\n        /* \"#utility.yul\":4692:4755   */\n      swap3\n      pop\n        /* \"#utility.yul\":4647:4765   */\n      pop\n        /* \"#utility.yul\":4804:4806   */\n      0x40\n        /* \"#utility.yul\":4830:4883   */\n      tag_480\n        /* \"#utility.yul\":4875:4882   */\n      dup7\n        /* \"#utility.yul\":4866:4872   */\n      dup3\n        /* \"#utility.yul\":4855:4864   */\n      dup8\n        /* \"#utility.yul\":4851:4873   */\n      add\n        /* \"#utility.yul\":4830:4883   */\n      tag_371\n      jump\t// in\n    tag_480:\n        /* \"#utility.yul\":4820:4883   */\n      swap2\n      pop\n        /* \"#utility.yul\":4775:4893   */\n      pop\n        /* \"#utility.yul\":4281:4900   */\n      swap3\n      pop\n      swap3\n      pop\n      swap3\n      jump\t// out\n        /* \"#utility.yul\":4906:4992   */\n    tag_375:\n        /* \"#utility.yul\":4941:4948   */\n      0x00\n        /* \"#utility.yul\":4981:4985   */\n      0xff\n        /* \"#utility.yul\":4974:4979   */\n      dup3\n        /* \"#utility.yul\":4970:4986   */\n      and\n        /* \"#utility.yul\":4959:4986   */\n      swap1\n      pop\n        /* \"#utility.yul\":4906:4992   */\n      swap2\n      swap1\n      pop\n      jump\t// out\n        /* \"#utility.yul\":4998:5110   */\n    tag_376:\n        /* \"#utility.yul\":5081:5103   */\n      tag_483\n        /* \"#utility.yul\":5097:5102   */\n      dup2\n        /* \"#utility.yul\":5081:5103   */\n      tag_375\n      jump\t// in\n    tag_483:\n        /* \"#utility.yul\":5076:5079   */\n      dup3\n        /* \"#utility.yul\":5069:5104   */\n      mstore\n        /* \"#utility.yul\":4998:5110   */\n      pop\n      pop\n      jump\t// out\n        /* \"#utility.yul\":5116:5330   */\n    tag_76:\n        /* \"#utility.yul\":5205:5209   */\n      0x00\n        /* \"#utility.yul\":5243:5245   */\n      0x20\n        /* \"#utility.yul\":5232:5241   */\n      dup3\n        /* \"#utility.yul\":5228:5246   */\n      add\n        /* \"#utility.yul\":5220:5246   */\n      swap1\n      pop\n        /* \"#utility.yul\":5256:5323   */\n      tag_485\n        /* \"#utility.yul\":5320:5321   */\n      0x00\n        /* \"#utility.yul\":5309:5318   */\n      dup4\n        /* \"#utility.yul\":5305:5322   */\n      add\n        /* \"#utility.yul\":5296:5302   */\n      dup5\n        /* \"#utility.yul\":5256:5323   */\n      tag_376\n      jump\t// in\n    tag_485:\n        /* \"#utility.yul\":5116:5330   */\n      swap3\n      swap2\n      pop\n      pop\n      jump\t// out\n        /* \"#utility.yul\":5336:5453   */\n    tag_377:\n        /* \"#utility.yul\":5445:5446   */\n      0x00\n        /* \"#utility.yul\":5442:5443   */\n      dup1\n        /* \"#utility.yul\":5435:5447   */\n      revert\n        /* \"#utility.yul\":5459:5576   */\n    tag_378:\n        /* \"#utility.yul\":5568:5569   */\n      0x00\n        /* \"#utility.yul\":5565:5566   */\n      dup1\n        /* \"#utility.yul\":5558:5570   */\n      revert\n        /* \"#utility.yul\":5582:5699   */\n    tag_379:\n        /* \"#utility.yul\":5691:5692   */\n      0x00\n        /* \"#utility.yul\":5688:5689   */\n      dup1\n        /* \"#utility.yul\":5681:5693   */\n      revert\n        /* \"#utility.yul\":5718:6270   */\n    tag_380:\n        /* \"#utility.yul\":5775:5783   */\n      0x00\n        /* \"#utility.yul\":5785:5791   */\n      dup1\n        /* \"#utility.yul\":5835:5838   */\n      dup4\n        /* \"#utility.yul\":5828:5832   */\n      0x1f\n        /* \"#utility.yul\":5820:5826   */\n      dup5\n        /* \"#utility.yul\":5816:5833   */\n      add\n        /* \"#utility.yul\":5812:5839   */\n      slt\n        /* \"#utility.yul\":5802:5924   */\n      tag_490\n      jumpi\n        /* \"#utility.yul\":5843:5922   */\n      tag_491\n      tag_377\n      jump\t// in\n    tag_491:\n        /* \"#utility.yul\":5802:5924   */\n    tag_490:\n        /* \"#utility.yul\":5956:5962   */\n      dup3\n        /* \"#utility.yul\":5943:5963   */\n      calldataload\n        /* \"#utility.yul\":5933:5963   */\n      swap1\n      pop\n        /* \"#utility.yul\":5986:6004   */\n      0xffffffffffffffff\n        /* \"#utility.yul\":5978:5984   */\n      dup2\n        /* \"#utility.yul\":5975:6005   */\n      gt\n        /* \"#utility.yul\":5972:6089   */\n      iszero\n      tag_492\n      jumpi\n        /* \"#utility.yul\":6008:6087   */\n      tag_493\n      tag_378\n      jump\t// in\n    tag_493:\n        /* \"#utility.yul\":5972:6089   */\n    tag_492:\n        /* \"#utility.yul\":6122:6126   */\n      0x20\n        /* \"#utility.yul\":6114:6120   */\n      dup4\n        /* \"#utility.yul\":6110:6127   */\n      add\n        /* \"#utility.yul\":6098:6127   */\n      swap2\n      pop\n        /* \"#utility.yul\":6176:6179   */\n      dup4\n        /* \"#utility.yul\":6168:6172   */\n      0x01\n        /* \"#utility.yul\":6160:6166   */\n      dup3\n        /* \"#utility.yul\":6156:6173   */\n      mul\n        /* \"#utility.yul\":6146:6154   */\n      dup4\n        /* \"#utility.yul\":6142:6174   */\n      add\n        /* \"#utility.yul\":6139:6180   */\n      gt\n        /* \"#utility.yul\":6136:6264   */\n      iszero\n      tag_494\n      jumpi\n        /* \"#utility.yul\":6183:6262   */\n      tag_495\n      tag_379\n      jump\t// in\n    tag_495:\n        /* \"#utility.yul\":6136:6264   */\n    tag_494:\n        /* \"#utility.yul\":5718:6270   */\n      swap3\n      pop\n      swap3\n      swap1\n      pop\n      jump\t// out\n        /* \"#utility.yul\":6276:7093   */\n    tag_82:\n        /* \"#utility.yul\":6364:6370   */\n      0x00\n        /* \"#utility.yul\":6372:6378   */\n      dup1\n        /* \"#utility.yul\":6380:6386   */\n      0x00\n        /* \"#utility.yul\":6388:6394   */\n      dup1\n        /* \"#utility.yul\":6437:6439   */\n      0x60\n        /* \"#utility.yul\":6425:6434   */\n      dup6\n        /* \"#utility.yul\":6416:6423   */\n      dup8\n        /* \"#utility.yul\":6412:6435   */\n      sub\n        /* \"#utility.yul\":6408:6440   */\n      slt\n        /* \"#utility.yul\":6405:6524   */\n      iszero\n      tag_497\n      jumpi\n        /* \"#utility.yul\":6443:6522   */\n      tag_498\n      tag_363\n      jump\t// in\n    tag_498:\n        /* \"#utility.yul\":6405:6524   */\n    tag_497:\n        /* \"#utility.yul\":6563:6564   */\n      0x00\n        /* \"#utility.yul\":6588:6641   */\n      tag_499\n        /* \"#utility.yul\":6633:6640   */\n      dup8\n        /* \"#utility.yul\":6624:6630   */\n      dup3\n        /* \"#utility.yul\":6613:6622   */\n      dup9\n        /* \"#utility.yul\":6609:6631   */\n      add\n        /* \"#utility.yul\":6588:6641   */\n      tag_368\n      jump\t// in\n    tag_499:\n        /* \"#utility.yul\":6578:6641   */\n      swap5\n      pop\n        /* \"#utility.yul\":6534:6651   */\n      pop\n        /* \"#utility.yul\":6690:6692   */\n      0x20\n        /* \"#utility.yul\":6716:6769   */\n      tag_500\n        /* \"#utility.yul\":6761:6768   */\n      dup8\n        /* \"#utility.yul\":6752:6758   */\n      dup3\n        /* \"#utility.yul\":6741:6750   */\n      dup9\n        /* \"#utility.yul\":6737:6759   */\n      add\n        /* \"#utility.yul\":6716:6769   */\n      tag_371\n      jump\t// in\n    tag_500:\n        /* \"#utility.yul\":6706:6769   */\n      swap4\n      pop\n        /* \"#utility.yul\":6661:6779   */\n      pop\n        /* \"#utility.yul\":6846:6848   */\n      0x40\n        /* \"#utility.yul\":6835:6844   */\n      dup6\n        /* \"#utility.yul\":6831:6849   */\n      add\n        /* \"#utility.yul\":6818:6850   */\n      calldataload\n        /* \"#utility.yul\":6877:6895   */\n      0xffffffffffffffff\n        /* \"#utility.yul\":6869:6875   */\n      dup2\n        /* \"#utility.yul\":6866:6896   */\n      gt\n        /* \"#utility.yul\":6863:6980   */\n      iszero\n      tag_501\n      jumpi\n        /* \"#utility.yul\":6899:6978   */\n      tag_502\n      tag_364\n      jump\t// in\n    tag_502:\n        /* \"#utility.yul\":6863:6980   */\n    tag_501:\n        /* \"#utility.yul\":7012:7076   */\n      tag_503\n        /* \"#utility.yul\":7068:7075   */\n      dup8\n        /* \"#utility.yul\":7059:7065   */\n      dup3\n        /* \"#utility.yul\":7048:7057   */\n      dup9\n        /* \"#utility.yul\":7044:7066   */\n      add\n        /* \"#utility.yul\":7012:7076   */\n      tag_380\n      jump\t// in\n    tag_503:\n        /* \"#utility.yul\":6994:7076   */\n      swap3\n      pop\n      swap3\n      pop\n        /* \"#utility.yul\":6789:7086   */\n      pop\n        /* \"#utility.yul\":6276:7093   */\n      swap3\n      swap6\n      swap2\n      swap5\n      pop\n      swap3\n      pop\n      jump\t// out\n        /* \"#utility.yul\":7099:7217   */\n    tag_381:\n        /* \"#utility.yul\":7186:7210   */\n      tag_505\n        /* \"#utility.yul\":7204:7209   */\n      dup2\n        /* \"#utility.yul\":7186:7210   */\n      tag_366\n      jump\t// in\n    tag_505:\n        /* \"#utility.yul\":7181:7184   */\n      dup3\n        /* \"#utility.yul\":7174:7211   */\n      mstore\n        /* \"#utility.yul\":7099:7217   */\n      pop\n      pop\n      jump\t// out\n        /* \"#utility.yul\":7223:7445   */\n    tag_92:\n        /* \"#utility.yul\":7316:7320   */\n      0x00\n        /* \"#utility.yul\":7354:7356   */\n      0x20\n        /* \"#utility.yul\":7343:7352   */\n      dup3\n        /* \"#utility.yul\":7339:7357   */\n      add\n        /* \"#utility.yul\":7331:7357   */\n      swap1\n      pop\n        /* \"#utility.yul\":7367:7438   */\n      tag_507\n        /* \"#utility.yul\":7435:7436   */\n      0x00\n        /* \"#utility.yul\":7424:7433   */\n      dup4\n        /* \"#utility.yul\":7420:7437   */\n      add\n        /* \"#utility.yul\":7411:7417   */\n      dup5\n        /* \"#utility.yul\":7367:7438   */\n      tag_381\n      jump\t// in\n    tag_507:\n        /* \"#utility.yul\":7223:7445   */\n      swap3\n      swap2\n      pop\n      pop\n      jump\t// out\n        /* \"#utility.yul\":7451:7569   */\n    tag_382:\n        /* \"#utility.yul\":7522:7544   */\n      tag_509\n        /* \"#utility.yul\":7538:7543   */\n      dup2\n        /* \"#utility.yul\":7522:7544   */\n      tag_375\n      jump\t// in\n    tag_509:\n        /* \"#utility.yul\":7515:7520   */\n      dup2\n        /* \"#utility.yul\":7512:7545   */\n      eq\n        /* \"#utility.yul\":7502:7563   */\n      tag_510\n      jumpi\n        /* \"#utility.yul\":7559:7560   */\n      0x00\n        /* \"#utility.yul\":7556:7557   */\n      dup1\n        /* \"#utility.yul\":7549:7561   */\n      revert\n        /* \"#utility.yul\":7502:7563   */\n    tag_510:\n        /* \"#utility.yul\":7451:7569   */\n      pop\n      jump\t// out\n        /* \"#utility.yul\":7575:7710   */\n    tag_383:\n        /* \"#utility.yul\":7619:7624   */\n      0x00\n        /* \"#utility.yul\":7657:7663   */\n      dup2\n        /* \"#utility.yul\":7644:7664   */\n      calldataload\n        /* \"#utility.yul\":7635:7664   */\n      swap1\n      pop\n        /* \"#utility.yul\":7673:7704   */\n      tag_512\n        /* \"#utility.yul\":7698:7703   */\n      dup2\n        /* \"#utility.yul\":7673:7704   */\n      tag_382\n      jump\t// in\n    tag_512:\n        /* \"#utility.yul\":7575:7710   */\n      swap3\n      swap2\n      pop\n      pop\n      jump\t// out\n        /* \"#utility.yul\":7716:7838   */\n    tag_384:\n        /* \"#utility.yul\":7789:7813   */\n      tag_514\n        /* \"#utility.yul\":7807:7812   */\n      dup2\n        /* \"#utility.yul\":7789:7813   */\n      tag_355\n      jump\t// in\n    tag_514:\n        /* \"#utility.yul\":7782:7787   */\n      dup2\n        /* \"#utility.yul\":7779:7814   */\n      eq\n        /* \"#utility.yul\":7769:7832   */\n      tag_515\n      jumpi\n        /* \"#utility.yul\":7828:7829   */\n      0x00\n        /* \"#utility.yul\":7825:7826   */\n      dup1\n        /* \"#utility.yul\":7818:7830   */\n      revert\n        /* \"#utility.yul\":7769:7832   */\n    tag_515:\n        /* \"#utility.yul\":7716:7838   */\n      pop\n      jump\t// out\n        /* \"#utility.yul\":7844:7983   */\n    tag_385:\n        /* \"#utility.yul\":7890:7895   */\n      0x00\n        /* \"#utility.yul\":7928:7934   */\n      dup2\n        /* \"#utility.yul\":7915:7935   */\n      calldataload\n        /* \"#utility.yul\":7906:7935   */\n      swap1\n      pop\n        /* \"#utility.yul\":7944:7977   */\n      tag_517\n        /* \"#utility.yul\":7971:7976   */\n      dup2\n        /* \"#utility.yul\":7944:7977   */\n      tag_384\n      jump\t// in\n    tag_517:\n        /* \"#utility.yul\":7844:7983   */\n      swap3\n      swap2\n      pop\n      pop\n      jump\t// out\n        /* \"#utility.yul\":7989:9188   */\n    tag_95:\n        /* \"#utility.yul\":8100:8106   */\n      0x00\n        /* \"#utility.yul\":8108:8114   */\n      dup1\n        /* \"#utility.yul\":8116:8122   */\n      0x00\n        /* \"#utility.yul\":8124:8130   */\n      dup1\n        /* \"#utility.yul\":8132:8138   */\n      0x00\n        /* \"#utility.yul\":8140:8146   */\n      dup1\n        /* \"#utility.yul\":8148:8154   */\n      0x00\n        /* \"#utility.yul\":8197:8200   */\n      0xe0\n        /* \"#utility.yul\":8185:8194   */\n      dup9\n        /* \"#utility.yul\":8176:8183   */\n      dup11\n        /* \"#utility.yul\":8172:8195   */\n      sub\n        /* \"#utility.yul\":8168:8201   */\n      slt\n        /* \"#utility.yul\":8165:8285   */\n      iszero\n      tag_519\n      jumpi\n        /* \"#utility.yul\":8204:8283   */\n      tag_520\n      tag_363\n      jump\t// in\n    tag_520:\n        /* \"#utility.yul\":8165:8285   */\n    tag_519:\n        /* \"#utility.yul\":8324:8325   */\n      0x00\n        /* \"#utility.yul\":8349:8402   */\n      tag_521\n        /* \"#utility.yul\":8394:8401   */\n      dup11\n        /* \"#utility.yul\":8385:8391   */\n      dup3\n        /* \"#utility.yul\":8374:8383   */\n      dup12\n        /* \"#utility.yul\":8370:8392   */\n      add\n        /* \"#utility.yul\":8349:8402   */\n      tag_368\n      jump\t// in\n    tag_521:\n        /* \"#utility.yul\":8339:8402   */\n      swap8\n      pop\n        /* \"#utility.yul\":8295:8412   */\n      pop\n        /* \"#utility.yul\":8451:8453   */\n      0x20\n        /* \"#utility.yul\":8477:8530   */\n      tag_522\n        /* \"#utility.yul\":8522:8529   */\n      dup11\n        /* \"#utility.yul\":8513:8519   */\n      dup3\n        /* \"#utility.yul\":8502:8511   */\n      dup12\n        /* \"#utility.yul\":8498:8520   */\n      add\n        /* \"#utility.yul\":8477:8530   */\n      tag_368\n      jump\t// in\n    tag_522:\n        /* \"#utility.yul\":8467:8530   */\n      swap7\n      pop\n        /* \"#utility.yul\":8422:8540   */\n      pop\n        /* \"#utility.yul\":8579:8581   */\n      0x40\n        /* \"#utility.yul\":8605:8658   */\n      tag_523\n        /* \"#utility.yul\":8650:8657   */\n      dup11\n        /* \"#utility.yul\":8641:8647   */\n      dup3\n        /* \"#utility.yul\":8630:8639   */\n      dup12\n        /* \"#utility.yul\":8626:8648   */\n      add\n        /* \"#utility.yul\":8605:8658   */\n      tag_371\n      jump\t// in\n    tag_523:\n        /* \"#utility.yul\":8595:8658   */\n      swap6\n      pop\n        /* \"#utility.yul\":8550:8668   */\n      pop\n        /* \"#utility.yul\":8707:8709   */\n      0x60\n        /* \"#utility.yul\":8733:8786   */\n      tag_524\n        /* \"#utility.yul\":8778:8785   */\n      dup11\n        /* \"#utility.yul\":8769:8775   */\n      dup3\n        /* \"#utility.yul\":8758:8767   */\n      dup12\n        /* \"#utility.yul\":8754:8776   */\n      add\n        /* \"#utility.yul\":8733:8786   */\n      tag_371\n      jump\t// in\n    tag_524:\n        /* \"#utility.yul\":8723:8786   */\n      swap5\n      pop\n        /* \"#utility.yul\":8678:8796   */\n      pop\n        /* \"#utility.yul\":8835:8838   */\n      0x80\n        /* \"#utility.yul\":8862:8913   */\n      tag_525\n        /* \"#utility.yul\":8905:8912   */\n      dup11\n        /* \"#utility.yul\":8896:8902   */\n      dup3\n        /* \"#utility.yul\":8885:8894   */\n      dup12\n        /* \"#utility.yul\":8881:8903   */\n      add\n        /* \"#utility.yul\":8862:8913   */\n      tag_383\n      jump\t// in\n    tag_525:\n        /* \"#utility.yul\":8852:8913   */\n      swap4\n      pop\n        /* \"#utility.yul\":8806:8923   */\n      pop\n        /* \"#utility.yul\":8962:8965   */\n      0xa0\n        /* \"#utility.yul\":8989:9042   */\n      tag_526\n        /* \"#utility.yul\":9034:9041   */\n      dup11\n        /* \"#utility.yul\":9025:9031   */\n      dup3\n        /* \"#utility.yul\":9014:9023   */\n      dup12\n        /* \"#utility.yul\":9010:9032   */\n      add\n        /* \"#utility.yul\":8989:9042   */\n      tag_385\n      jump\t// in\n    tag_526:\n        /* \"#utility.yul\":8979:9042   */\n      swap3\n      pop\n        /* \"#utility.yul\":8933:9052   */\n      pop\n        /* \"#utility.yul\":9091:9094   */\n      0xc0\n        /* \"#utility.yul\":9118:9171   */\n      tag_527\n        /* \"#utility.yul\":9163:9170   */\n      dup11\n        /* \"#utility.yul\":9154:9160   */\n      dup3\n        /* \"#utility.yul\":9143:9152   */\n      dup12\n        /* \"#utility.yul\":9139:9161   */\n      add\n        /* \"#utility.yul\":9118:9171   */\n      tag_385\n      jump\t// in\n    tag_527:\n        /* \"#utility.yul\":9108:9171   */\n      swap2\n      pop\n        /* \"#utility.yul\":9062:9181   */\n      pop\n        /* \"#utility.yul\":7989:9188   */\n      swap3\n      swap6\n      swap9\n      swap2\n      swap5\n      swap8\n      pop\n      swap3\n      swap6\n      pop\n      jump\t// out\n        /* \"#utility.yul\":9194:9523   */\n    tag_100:\n        /* \"#utility.yul\":9253:9259   */\n      0x00\n        /* \"#utility.yul\":9302:9304   */\n      0x20\n        /* \"#utility.yul\":9290:9299   */\n      dup3\n        /* \"#utility.yul\":9281:9288   */\n      dup5\n        /* \"#utility.yul\":9277:9300   */\n      sub\n        /* \"#utility.yul\":9273:9305   */\n      slt\n        /* \"#utility.yul\":9270:9389   */\n      iszero\n      tag_529\n      jumpi\n        /* \"#utility.yul\":9308:9387   */\n      tag_530\n      tag_363\n      jump\t// in\n    tag_530:\n        /* \"#utility.yul\":9270:9389   */\n    tag_529:\n        /* \"#utility.yul\":9428:9429   */\n      0x00\n        /* \"#utility.yul\":9453:9506   */\n      tag_531\n        /* \"#utility.yul\":9498:9505   */\n      dup5\n        /* \"#utility.yul\":9489:9495   */\n      dup3\n        /* \"#utility.yul\":9478:9487   */\n      dup6\n        /* \"#utility.yul\":9474:9496   */\n      add\n        /* \"#utility.yul\":9453:9506   */\n      tag_368\n      jump\t// in\n    tag_531:\n        /* \"#utility.yul\":9443:9506   */\n      swap2\n      pop\n        /* \"#utility.yul\":9399:9516   */\n      pop\n        /* \"#utility.yul\":9194:9523   */\n      swap3\n      swap2\n      pop\n      pop\n      jump\t// out\n        /* \"#utility.yul\":9529:9858   */\n    tag_115:\n        /* \"#utility.yul\":9588:9594   */\n      0x00\n        /* \"#utility.yul\":9637:9639   */\n      0x20\n        /* \"#utility.yul\":9625:9634   */\n      dup3\n        /* \"#utility.yul\":9616:9623   */\n      dup5\n        /* \"#utility.yul\":9612:9635   */\n      sub\n        /* \"#utility.yul\":9608:9640   */\n      slt\n        /* \"#utility.yul\":9605:9724   */\n      iszero\n      tag_533\n      jumpi\n        /* \"#utility.yul\":9643:9722   */\n      tag_534\n      tag_363\n      jump\t// in\n    tag_534:\n        /* \"#utility.yul\":9605:9724   */\n    tag_533:\n        /* \"#utility.yul\":9763:9764   */\n      0x00\n        /* \"#utility.yul\":9788:9841   */\n      tag_535\n        /* \"#utility.yul\":9833:9840   */\n      dup5\n        /* \"#utility.yul\":9824:9830   */\n      dup3\n        /* \"#utility.yul\":9813:9822   */\n      dup6\n        /* \"#utility.yul\":9809:9831   */\n      add\n        /* \"#utility.yul\":9788:9841   */\n      tag_371\n      jump\t// in\n    tag_535:\n        /* \"#utility.yul\":9778:9841   */\n      swap2\n      pop\n        /* \"#utility.yul\":9734:9851   */\n      pop\n        /* \"#utility.yul\":9529:9858   */\n      swap3\n      swap2\n      pop\n      pop\n      jump\t// out\n        /* \"#utility.yul\":9864:9978   */\n    tag_386:\n        /* \"#utility.yul\":9931:9937   */\n      0x00\n        /* \"#utility.yul\":9965:9970   */\n      dup2\n        /* \"#utility.yul\":9959:9971   */\n      mload\n        /* \"#utility.yul\":9949:9971   */\n      swap1\n      pop\n        /* \"#utility.yul\":9864:9978   */\n      swap2\n      swap1\n      pop\n      jump\t// out\n        /* \"#utility.yul\":9984:10168   */\n    tag_387:\n        /* \"#utility.yul\":10083:10094   */\n      0x00\n        /* \"#utility.yul\":10117:10123   */\n      dup3\n        /* \"#utility.yul\":10112:10115   */\n      dup3\n        /* \"#utility.yul\":10105:10124   */\n      mstore\n        /* \"#utility.yul\":10157:10161   */\n      0x20\n        /* \"#utility.yul\":10152:10155   */\n      dup3\n        /* \"#utility.yul\":10148:10162   */\n      add\n        /* \"#utility.yul\":10133:10162   */\n      swap1\n      pop\n        /* \"#utility.yul\":9984:10168   */\n      swap3\n      swap2\n      pop\n      pop\n      jump\t// out\n        /* \"#utility.yul\":10174:10306   */\n    tag_388:\n        /* \"#utility.yul\":10241:10245   */\n      0x00\n        /* \"#utility.yul\":10264:10267   */\n      dup2\n        /* \"#utility.yul\":10256:10267   */\n      swap1\n      pop\n        /* \"#utility.yul\":10294:10298   */\n      0x20\n        /* \"#utility.yul\":10289:10292   */\n      dup3\n        /* \"#utility.yul\":10285:10299   */\n      add\n        /* \"#utility.yul\":10277:10299   */\n      swap1\n      pop\n        /* \"#utility.yul\":10174:10306   */\n      swap2\n      swap1\n      pop\n      jump\t// out\n        /* \"#utility.yul\":10312:10420   */\n    tag_389:\n        /* \"#utility.yul\":10389:10413   */\n      tag_540\n        /* \"#utility.yul\":10407:10412   */\n      dup2\n        /* \"#utility.yul\":10389:10413   */\n      tag_366\n      jump\t// in\n    tag_540:\n        /* \"#utility.yul\":10384:10387   */\n      dup3\n        /* \"#utility.yul\":10377:10414   */\n      mstore\n        /* \"#utility.yul\":10312:10420   */\n      pop\n      pop\n      jump\t// out\n        /* \"#utility.yul\":10426:10605   */\n    tag_390:\n        /* \"#utility.yul\":10495:10505   */\n      0x00\n        /* \"#utility.yul\":10516:10562   */\n      tag_542\n        /* \"#utility.yul\":10558:10561   */\n      dup4\n        /* \"#utility.yul\":10550:10556   */\n      dup4\n        /* \"#utility.yul\":10516:10562   */\n      tag_389\n      jump\t// in\n    tag_542:\n        /* \"#utility.yul\":10594:10598   */\n      0x20\n        /* \"#utility.yul\":10589:10592   */\n      dup4\n        /* \"#utility.yul\":10585:10599   */\n      add\n        /* \"#utility.yul\":10571:10599   */\n      swap1\n      pop\n        /* \"#utility.yul\":10426:10605   */\n      swap3\n      swap2\n      pop\n      pop\n      jump\t// out\n        /* \"#utility.yul\":10611:10724   */\n    tag_391:\n        /* \"#utility.yul\":10681:10685   */\n      0x00\n        /* \"#utility.yul\":10713:10717   */\n      0x20\n        /* \"#utility.yul\":10708:10711   */\n      dup3\n        /* \"#utility.yul\":10704:10718   */\n      add\n        /* \"#utility.yul\":10696:10718   */\n      swap1\n      pop\n        /* \"#utility.yul\":10611:10724   */\n      swap2\n      swap1\n      pop\n      jump\t// out\n        /* \"#utility.yul\":10760:11492   */\n    tag_392:\n        /* \"#utility.yul\":10879:10882   */\n      0x00\n        /* \"#utility.yul\":10908:10962   */\n      tag_545\n        /* \"#utility.yul\":10956:10961   */\n      dup3\n        /* \"#utility.yul\":10908:10962   */\n      tag_386\n      jump\t// in\n    tag_545:\n        /* \"#utility.yul\":10978:11064   */\n      tag_546\n        /* \"#utility.yul\":11057:11063   */\n      dup2\n        /* \"#utility.yul\":11052:11055   */\n      dup6\n        /* \"#utility.yul\":10978:11064   */\n      tag_387\n      jump\t// in\n    tag_546:\n        /* \"#utility.yul\":10971:11064   */\n      swap4\n      pop\n        /* \"#utility.yul\":11088:11144   */\n      tag_547\n        /* \"#utility.yul\":11138:11143   */\n      dup4\n        /* \"#utility.yul\":11088:11144   */\n      tag_388\n      jump\t// in\n    tag_547:\n        /* \"#utility.yul\":11167:11174   */\n      dup1\n        /* \"#utility.yul\":11198:11199   */\n      0x00\n        /* \"#utility.yul\":11183:11467   */\n    tag_548:\n        /* \"#utility.yul\":11208:11214   */\n      dup4\n        /* \"#utility.yul\":11205:11206   */\n      dup2\n        /* \"#utility.yul\":11202:11215   */\n      lt\n        /* \"#utility.yul\":11183:11467   */\n      iszero\n      tag_550\n      jumpi\n        /* \"#utility.yul\":11284:11290   */\n      dup2\n        /* \"#utility.yul\":11278:11291   */\n      mload\n        /* \"#utility.yul\":11311:11374   */\n      tag_551\n        /* \"#utility.yul\":11370:11373   */\n      dup9\n        /* \"#utility.yul\":11355:11368   */\n      dup3\n        /* \"#utility.yul\":11311:11374   */\n      tag_390\n      jump\t// in\n    tag_551:\n        /* \"#utility.yul\":11304:11374   */\n      swap8\n      pop\n        /* \"#utility.yul\":11397:11457   */\n      tag_552\n        /* \"#utility.yul\":11450:11456   */\n      dup4\n        /* \"#utility.yul\":11397:11457   */\n      tag_391\n      jump\t// in\n    tag_552:\n        /* \"#utility.yul\":11387:11457   */\n      swap3\n      pop\n        /* \"#utility.yul\":11243:11467   */\n      pop\n        /* \"#utility.yul\":11230:11231   */\n      0x01\n        /* \"#utility.yul\":11227:11228   */\n      dup2\n        /* \"#utility.yul\":11223:11232   */\n      add\n        /* \"#utility.yul\":11218:11232   */\n      swap1\n      pop\n        /* \"#utility.yul\":11183:11467   */\n      jump(tag_548)\n    tag_550:\n        /* \"#utility.yul\":11187:11201   */\n      pop\n        /* \"#utility.yul\":11483:11486   */\n      dup6\n        /* \"#utility.yul\":11476:11486   */\n      swap4\n      pop\n        /* \"#utility.yul\":10884:11492   */\n      pop\n      pop\n      pop\n        /* \"#utility.yul\":10760:11492   */\n      swap3\n      swap2\n      pop\n      pop\n      jump\t// out\n        /* \"#utility.yul\":11498:11871   */\n    tag_137:\n        /* \"#utility.yul\":11641:11645   */\n      0x00\n        /* \"#utility.yul\":11679:11681   */\n      0x20\n        /* \"#utility.yul\":11668:11677   */\n      dup3\n        /* \"#utility.yul\":11664:11682   */\n      add\n        /* \"#utility.yul\":11656:11682   */\n      swap1\n      pop\n        /* \"#utility.yul\":11728:11737   */\n      dup2\n        /* \"#utility.yul\":11722:11726   */\n      dup2\n        /* \"#utility.yul\":11718:11738   */\n      sub\n        /* \"#utility.yul\":11714:11715   */\n      0x00\n        /* \"#utility.yul\":11703:11712   */\n      dup4\n        /* \"#utility.yul\":11699:11716   */\n      add\n        /* \"#utility.yul\":11692:11739   */\n      mstore\n        /* \"#utility.yul\":11756:11864   */\n      tag_554\n        /* \"#utility.yul\":11859:11863   */\n      dup2\n        /* \"#utility.yul\":11850:11856   */\n      dup5\n        /* \"#utility.yul\":11756:11864   */\n      tag_392\n      jump\t// in\n    tag_554:\n        /* \"#utility.yul\":11748:11864   */\n      swap1\n      pop\n        /* \"#utility.yul\":11498:11871   */\n      swap3\n      swap2\n      pop\n      pop\n      jump\t// out\n        /* \"#utility.yul\":11877:12351   */\n    tag_163:\n        /* \"#utility.yul\":11945:11951   */\n      0x00\n        /* \"#utility.yul\":11953:11959   */\n      dup1\n        /* \"#utility.yul\":12002:12004   */\n      0x40\n        /* \"#utility.yul\":11990:11999   */\n      dup4\n        /* \"#utility.yul\":11981:11988   */\n      dup6\n        /* \"#utility.yul\":11977:12000   */\n      sub\n        /* \"#utility.yul\":11973:12005   */\n      slt\n        /* \"#utility.yul\":11970:12089   */\n      iszero\n      tag_556\n      jumpi\n        /* \"#utility.yul\":12008:12087   */\n      tag_557\n      tag_363\n      jump\t// in\n    tag_557:\n        /* \"#utility.yul\":11970:12089   */\n    tag_556:\n        /* \"#utility.yul\":12128:12129   */\n      0x00\n        /* \"#utility.yul\":12153:12206   */\n      tag_558\n        /* \"#utility.yul\":12198:12205   */\n      dup6\n        /* \"#utility.yul\":12189:12195   */\n      dup3\n        /* \"#utility.yul\":12178:12187   */\n      dup7\n        /* \"#utility.yul\":12174:12196   */\n      add\n        /* \"#utility.yul\":12153:12206   */\n      tag_368\n      jump\t// in\n    tag_558:\n        /* \"#utility.yul\":12143:12206   */\n      swap3\n      pop\n        /* \"#utility.yul\":12099:12216   */\n      pop\n        /* \"#utility.yul\":12255:12257   */\n      0x20\n        /* \"#utility.yul\":12281:12334   */\n      tag_559\n        /* \"#utility.yul\":12326:12333   */\n      dup6\n        /* \"#utility.yul\":12317:12323   */\n      dup3\n        /* \"#utility.yul\":12306:12315   */\n      dup7\n        /* \"#utility.yul\":12302:12324   */\n      add\n        /* \"#utility.yul\":12281:12334   */\n      tag_368\n      jump\t// in\n    tag_559:\n        /* \"#utility.yul\":12271:12334   */\n      swap2\n      pop\n        /* \"#utility.yul\":12226:12344   */\n      pop\n        /* \"#utility.yul\":11877:12351   */\n      swap3\n      pop\n      swap3\n      swap1\n      pop\n      jump\t// out\n        /* \"#utility.yul\":12357:12537   */\n    tag_393:\n        /* \"#utility.yul\":12405:12482   */\n      0x4e487b7100000000000000000000000000000000000000000000000000000000\n        /* \"#utility.yul\":12402:12403   */\n      0x00\n        /* \"#utility.yul\":12395:12483   */\n      mstore\n        /* \"#utility.yul\":12502:12506   */\n      0x22\n        /* \"#utility.yul\":12499:12500   */\n      0x04\n        /* \"#utility.yul\":12492:12507   */\n      mstore\n        /* \"#utility.yul\":12526:12530   */\n      0x24\n        /* \"#utility.yul\":12523:12524   */\n      0x00\n        /* \"#utility.yul\":12516:12531   */\n      revert\n        /* \"#utility.yul\":12543:12863   */\n    tag_176:\n        /* \"#utility.yul\":12587:12593   */\n      0x00\n        /* \"#utility.yul\":12624:12625   */\n      0x02\n        /* \"#utility.yul\":12618:12622   */\n      dup3\n        /* \"#utility.yul\":12614:12626   */\n      div\n        /* \"#utility.yul\":12604:12626   */\n      swap1\n      pop\n        /* \"#utility.yul\":12671:12672   */\n      0x01\n        /* \"#utility.yul\":12665:12669   */\n      dup3\n        /* \"#utility.yul\":12661:12673   */\n      and\n        /* \"#utility.yul\":12692:12710   */\n      dup1\n        /* \"#utility.yul\":12682:12763   */\n      tag_562\n      jumpi\n        /* \"#utility.yul\":12748:12752   */\n      0x7f\n        /* \"#utility.yul\":12740:12746   */\n      dup3\n        /* \"#utility.yul\":12736:12753   */\n      and\n        /* \"#utility.yul\":12726:12753   */\n      swap2\n      pop\n        /* \"#utility.yul\":12682:12763   */\n    tag_562:\n        /* \"#utility.yul\":12810:12812   */\n      0x20\n        /* \"#utility.yul\":12802:12808   */\n      dup3\n        /* \"#utility.yul\":12799:12813   */\n      lt\n        /* \"#utility.yul\":12779:12797   */\n      dup2\n        /* \"#utility.yul\":12776:12814   */\n      eq\n        /* \"#utility.yul\":12773:12857   */\n      iszero\n      tag_563\n      jumpi\n        /* \"#utility.yul\":12829:12847   */\n      tag_564\n      tag_393\n      jump\t// in\n    tag_564:\n        /* \"#utility.yul\":12773:12857   */\n    tag_563:\n        /* \"#utility.yul\":12594:12863   */\n      pop\n        /* \"#utility.yul\":12543:12863   */\n      swap2\n      swap1\n      pop\n      jump\t// out\n        /* \"#utility.yul\":12869:13044   */\n    tag_394:\n        /* \"#utility.yul\":13009:13036   */\n      0x416e7973776170563345524332303a20464f5242494444454e00000000000000\n        /* \"#utility.yul\":13005:13006   */\n      0x00\n        /* \"#utility.yul\":12997:13003   */\n      dup3\n        /* \"#utility.yul\":12993:13007   */\n      add\n        /* \"#utility.yul\":12986:13037   */\n      mstore\n        /* \"#utility.yul\":12869:13044   */\n      pop\n      jump\t// out\n        /* \"#utility.yul\":13050:13416   */\n    tag_395:\n        /* \"#utility.yul\":13192:13195   */\n      0x00\n        /* \"#utility.yul\":13213:13280   */\n      tag_567\n        /* \"#utility.yul\":13277:13279   */\n      0x19\n        /* \"#utility.yul\":13272:13275   */\n      dup4\n        /* \"#utility.yul\":13213:13280   */\n      tag_358\n      jump\t// in\n    tag_567:\n        /* \"#utility.yul\":13206:13280   */\n      swap2\n      pop\n        /* \"#utility.yul\":13289:13382   */\n      tag_568\n        /* \"#utility.yul\":13378:13381   */\n      dup3\n        /* \"#utility.yul\":13289:13382   */\n      tag_394\n      jump\t// in\n    tag_568:\n        /* \"#utility.yul\":13407:13409   */\n      0x20\n        /* \"#utility.yul\":13402:13405   */\n      dup3\n        /* \"#utility.yul\":13398:13410   */\n      add\n        /* \"#utility.yul\":13391:13410   */\n      swap1\n      pop\n        /* \"#utility.yul\":13050:13416   */\n      swap2\n      swap1\n      pop\n      jump\t// out\n        /* \"#utility.yul\":13422:13841   */\n    tag_187:\n        /* \"#utility.yul\":13588:13592   */\n      0x00\n        /* \"#utility.yul\":13626:13628   */\n      0x20\n        /* \"#utility.yul\":13615:13624   */\n      dup3\n        /* \"#utility.yul\":13611:13629   */\n      add\n        /* \"#utility.yul\":13603:13629   */\n      swap1\n      pop\n        /* \"#utility.yul\":13675:13684   */\n      dup2\n        /* \"#utility.yul\":13669:13673   */\n      dup2\n        /* \"#utility.yul\":13665:13685   */\n      sub\n        /* \"#utility.yul\":13661:13662   */\n      0x00\n        /* \"#utility.yul\":13650:13659   */\n      dup4\n        /* \"#utility.yul\":13646:13663   */\n      add\n        /* \"#utility.yul\":13639:13686   */\n      mstore\n        /* \"#utility.yul\":13703:13834   */\n      tag_570\n        /* \"#utility.yul\":13829:13833   */\n      dup2\n        /* \"#utility.yul\":13703:13834   */\n      tag_395\n      jump\t// in\n    tag_570:\n        /* \"#utility.yul\":13695:13834   */\n      swap1\n      pop\n        /* \"#utility.yul\":13422:13841   */\n      swap2\n      swap1\n      pop\n      jump\t// out\n        /* \"#utility.yul\":13847:14075   */\n    tag_396:\n        /* \"#utility.yul\":13987:14021   */\n      0x416e7973776170563345524332303a2072657175657374206578636565647320\n        /* \"#utility.yul\":13983:13984   */\n      0x00\n        /* \"#utility.yul\":13975:13981   */\n      dup3\n        /* \"#utility.yul\":13971:13985   */\n      add\n        /* \"#utility.yul\":13964:14022   */\n      mstore\n        /* \"#utility.yul\":14056:14067   */\n      0x616c6c6f77616e63650000000000000000000000000000000000000000000000\n        /* \"#utility.yul\":14051:14053   */\n      0x20\n        /* \"#utility.yul\":14043:14049   */\n      dup3\n        /* \"#utility.yul\":14039:14054   */\n      add\n        /* \"#utility.yul\":14032:14068   */\n      mstore\n        /* \"#utility.yul\":13847:14075   */\n      pop\n      jump\t// out\n        /* \"#utility.yul\":14081:14447   */\n    tag_397:\n        /* \"#utility.yul\":14223:14226   */\n      0x00\n        /* \"#utility.yul\":14244:14311   */\n      tag_573\n        /* \"#utility.yul\":14308:14310   */\n      0x29\n        /* \"#utility.yul\":14303:14306   */\n      dup4\n        /* \"#utility.yul\":14244:14311   */\n      tag_358\n      jump\t// in\n    tag_573:\n        /* \"#utility.yul\":14237:14311   */\n      swap2\n      pop\n        /* \"#utility.yul\":14320:14413   */\n      tag_574\n        /* \"#utility.yul\":14409:14412   */\n      dup3\n        /* \"#utility.yul\":14320:14413   */\n      tag_396\n      jump\t// in\n    tag_574:\n        /* \"#utility.yul\":14438:14440   */\n      0x40\n        /* \"#utility.yul\":14433:14436   */\n      dup3\n        /* \"#utility.yul\":14429:14441   */\n      add\n        /* \"#utility.yul\":14422:14441   */\n      swap1\n      pop\n        /* \"#utility.yul\":14081:14447   */\n      swap2\n      swap1\n      pop\n      jump\t// out\n        /* \"#utility.yul\":14453:14872   */\n    tag_199:\n        /* \"#utility.yul\":14619:14623   */\n      0x00\n        /* \"#utility.yul\":14657:14659   */\n      0x20\n        /* \"#utility.yul\":14646:14655   */\n      dup3\n        /* \"#utility.yul\":14642:14660   */\n      add\n        /* \"#utility.yul\":14634:14660   */\n      swap1\n      pop\n        /* \"#utility.yul\":14706:14715   */\n      dup2\n        /* \"#utility.yul\":14700:14704   */\n      dup2\n        /* \"#utility.yul\":14696:14716   */\n      sub\n        /* \"#utility.yul\":14692:14693   */\n      0x00\n        /* \"#utility.yul\":14681:14690   */\n      dup4\n        /* \"#utility.yul\":14677:14694   */\n      add\n        /* \"#utility.yul\":14670:14717   */\n      mstore\n        /* \"#utility.yul\":14734:14865   */\n      tag_576\n        /* \"#utility.yul\":14860:14864   */\n      dup2\n        /* \"#utility.yul\":14734:14865   */\n      tag_397\n      jump\t// in\n    tag_576:\n        /* \"#utility.yul\":14726:14865   */\n      swap1\n      pop\n        /* \"#utility.yul\":14453:14872   */\n      swap2\n      swap1\n      pop\n      jump\t// out\n        /* \"#utility.yul\":14878:15058   */\n    tag_398:\n        /* \"#utility.yul\":14926:15003   */\n      0x4e487b7100000000000000000000000000000000000000000000000000000000\n        /* \"#utility.yul\":14923:14924   */\n      0x00\n        /* \"#utility.yul\":14916:15004   */\n      mstore\n        /* \"#utility.yul\":15023:15027   */\n      0x11\n        /* \"#utility.yul\":15020:15021   */\n      0x04\n        /* \"#utility.yul\":15013:15028   */\n      mstore\n        /* \"#utility.yul\":15047:15051   */\n      0x24\n        /* \"#utility.yul\":15044:15045   */\n      0x00\n        /* \"#utility.yul\":15037:15052   */\n      revert\n        /* \"#utility.yul\":15064:15255   */\n    tag_201:\n        /* \"#utility.yul\":15104:15108   */\n      0x00\n        /* \"#utility.yul\":15124:15144   */\n      tag_579\n        /* \"#utility.yul\":15142:15143   */\n      dup3\n        /* \"#utility.yul\":15124:15144   */\n      tag_369\n      jump\t// in\n    tag_579:\n        /* \"#utility.yul\":15119:15144   */\n      swap2\n      pop\n        /* \"#utility.yul\":15158:15178   */\n      tag_580\n        /* \"#utility.yul\":15176:15177   */\n      dup4\n        /* \"#utility.yul\":15158:15178   */\n      tag_369\n      jump\t// in\n    tag_580:\n        /* \"#utility.yul\":15153:15178   */\n      swap3\n      pop\n        /* \"#utility.yul\":15197:15198   */\n      dup3\n        /* \"#utility.yul\":15194:15195   */\n      dup3\n        /* \"#utility.yul\":15191:15199   */\n      lt\n        /* \"#utility.yul\":15188:15222   */\n      iszero\n      tag_581\n      jumpi\n        /* \"#utility.yul\":15202:15220   */\n      tag_582\n      tag_398\n      jump\t// in\n    tag_582:\n        /* \"#utility.yul\":15188:15222   */\n    tag_581:\n        /* \"#utility.yul\":15247:15248   */\n      dup3\n        /* \"#utility.yul\":15244:15245   */\n      dup3\n        /* \"#utility.yul\":15240:15249   */\n      sub\n        /* \"#utility.yul\":15232:15249   */\n      swap1\n      pop\n        /* \"#utility.yul\":15064:15255   */\n      swap3\n      swap2\n      pop\n      pop\n      jump\t// out\n        /* \"#utility.yul\":15261:15495   */\n    tag_399:\n        /* \"#utility.yul\":15401:15435   */\n      0x416e7973776170563345524332303a207472616e7366657220616d6f756e7420\n        /* \"#utility.yul\":15397:15398   */\n      0x00\n        /* \"#utility.yul\":15389:15395   */\n      dup3\n        /* \"#utility.yul\":15385:15399   */\n      add\n        /* \"#utility.yul\":15378:15436   */\n      mstore\n        /* \"#utility.yul\":15470:15487   */\n      0x657863656564732062616c616e63650000000000000000000000000000000000\n        /* \"#utility.yul\":15465:15467   */\n      0x20\n        /* \"#utility.yul\":15457:15463   */\n      dup3\n        /* \"#utility.yul\":15453:15468   */\n      add\n        /* \"#utility.yul\":15446:15488   */\n      mstore\n        /* \"#utility.yul\":15261:15495   */\n      pop\n      jump\t// out\n        /* \"#utility.yul\":15501:15867   */\n    tag_400:\n        /* \"#utility.yul\":15643:15646   */\n      0x00\n        /* \"#utility.yul\":15664:15731   */\n      tag_585\n        /* \"#utility.yul\":15728:15730   */\n      0x2f\n        /* \"#utility.yul\":15723:15726   */\n      dup4\n        /* \"#utility.yul\":15664:15731   */\n      tag_358\n      jump\t// in\n    tag_585:\n        /* \"#utility.yul\":15657:15731   */\n      swap2\n      pop\n        /* \"#utility.yul\":15740:15833   */\n      tag_586\n        /* \"#utility.yul\":15829:15832   */\n      dup3\n        /* \"#utility.yul\":15740:15833   */\n      tag_399\n      jump\t// in\n    tag_586:\n        /* \"#utility.yul\":15858:15860   */\n      0x40\n        /* \"#utility.yul\":15853:15856   */\n      dup3\n        /* \"#utility.yul\":15849:15861   */\n      add\n        /* \"#utility.yul\":15842:15861   */\n      swap1\n      pop\n        /* \"#utility.yul\":15501:15867   */\n      swap2\n      swap1\n      pop\n      jump\t// out\n        /* \"#utility.yul\":15873:16292   */\n    tag_205:\n        /* \"#utility.yul\":16039:16043   */\n      0x00\n        /* \"#utility.yul\":16077:16079   */\n      0x20\n        /* \"#utility.yul\":16066:16075   */\n      dup3\n        /* \"#utility.yul\":16062:16080   */\n      add\n        /* \"#utility.yul\":16054:16080   */\n      swap1\n      pop\n        /* \"#utility.yul\":16126:16135   */\n      dup2\n        /* \"#utility.yul\":16120:16124   */\n      dup2\n        /* \"#utility.yul\":16116:16136   */\n      sub\n        /* \"#utility.yul\":16112:16113   */\n      0x00\n        /* \"#utility.yul\":16101:16110   */\n      dup4\n        /* \"#utility.yul\":16097:16114   */\n      add\n        /* \"#utility.yul\":16090:16137   */\n      mstore\n        /* \"#utility.yul\":16154:16285   */\n      tag_588\n        /* \"#utility.yul\":16280:16284   */\n      dup2\n        /* \"#utility.yul\":16154:16285   */\n      tag_400\n      jump\t// in\n    tag_588:\n        /* \"#utility.yul\":16146:16285   */\n      swap1\n      pop\n        /* \"#utility.yul\":15873:16292   */\n      swap2\n      swap1\n      pop\n      jump\t// out\n        /* \"#utility.yul\":16298:16603   */\n    tag_208:\n        /* \"#utility.yul\":16338:16341   */\n      0x00\n        /* \"#utility.yul\":16357:16377   */\n      tag_590\n        /* \"#utility.yul\":16375:16376   */\n      dup3\n        /* \"#utility.yul\":16357:16377   */\n      tag_369\n      jump\t// in\n    tag_590:\n        /* \"#utility.yul\":16352:16377   */\n      swap2\n      pop\n        /* \"#utility.yul\":16391:16411   */\n      tag_591\n        /* \"#utility.yul\":16409:16410   */\n      dup4\n        /* \"#utility.yul\":16391:16411   */\n      tag_369\n      jump\t// in\n    tag_591:\n        /* \"#utility.yul\":16386:16411   */\n      swap3\n      pop\n        /* \"#utility.yul\":16545:16546   */\n      dup3\n        /* \"#utility.yul\":16477:16543   */\n      0xffffffffffffffffffffffffffffffffffffffffffffffffffffffffffffffff\n        /* \"#utility.yul\":16473:16547   */\n      sub\n        /* \"#utility.yul\":16470:16471   */\n      dup3\n        /* \"#utility.yul\":16467:16548   */\n      gt\n        /* \"#utility.yul\":16464:16571   */\n      iszero\n      tag_592\n      jumpi\n        /* \"#utility.yul\":16551:16569   */\n      tag_593\n      tag_398\n      jump\t// in\n    tag_593:\n        /* \"#utility.yul\":16464:16571   */\n    tag_592:\n        /* \"#utility.yul\":16595:16596   */\n      dup3\n        /* \"#utility.yul\":16592:16593   */\n      dup3\n        /* \"#utility.yul\":16588:16597   */\n      add\n        /* \"#utility.yul\":16581:16597   */\n      swap1\n      pop\n        /* \"#utility.yul\":16298:16603   */\n      swap3\n      swap2\n      pop\n      pop\n      jump\t// out\n        /* \"#utility.yul\":16609:16777   */\n    tag_401:\n        /* \"#utility.yul\":16692:16703   */\n      0x00\n        /* \"#utility.yul\":16726:16732   */\n      dup3\n        /* \"#utility.yul\":16721:16724   */\n      dup3\n        /* \"#utility.yul\":16714:16733   */\n      mstore\n        /* \"#utility.yul\":16766:16770   */\n      0x20\n        /* \"#utility.yul\":16761:16764   */\n      dup3\n        /* \"#utility.yul\":16757:16771   */\n      add\n        /* \"#utility.yul\":16742:16771   */\n      swap1\n      pop\n        /* \"#utility.yul\":16609:16777   */\n      swap3\n      swap2\n      pop\n      pop\n      jump\t// out\n        /* \"#utility.yul\":16783:16937   */\n    tag_402:\n        /* \"#utility.yul\":16867:16873   */\n      dup3\n        /* \"#utility.yul\":16862:16865   */\n      dup2\n        /* \"#utility.yul\":16857:16860   */\n      dup4\n        /* \"#utility.yul\":16844:16874   */\n      calldatacopy\n        /* \"#utility.yul\":16929:16930   */\n      0x00\n        /* \"#utility.yul\":16920:16926   */\n      dup4\n        /* \"#utility.yul\":16915:16918   */\n      dup4\n        /* \"#utility.yul\":16911:16927   */\n      add\n        /* \"#utility.yul\":16904:16931   */\n      mstore\n        /* \"#utility.yul\":16783:16937   */\n      pop\n      pop\n      pop\n      jump\t// out\n        /* \"#utility.yul\":16965:17266   */\n    tag_403:\n        /* \"#utility.yul\":17061:17064   */\n      0x00\n        /* \"#utility.yul\":17082:17152   */\n      tag_597\n        /* \"#utility.yul\":17145:17151   */\n      dup4\n        /* \"#utility.yul\":17140:17143   */\n      dup6\n        /* \"#utility.yul\":17082:17152   */\n      tag_401\n      jump\t// in\n    tag_597:\n        /* \"#utility.yul\":17075:17152   */\n      swap4\n      pop\n        /* \"#utility.yul\":17162:17205   */\n      tag_598\n        /* \"#utility.yul\":17198:17204   */\n      dup4\n        /* \"#utility.yul\":17193:17196   */\n      dup6\n        /* \"#utility.yul\":17186:17191   */\n      dup5\n        /* \"#utility.yul\":17162:17205   */\n      tag_402\n      jump\t// in\n    tag_598:\n        /* \"#utility.yul\":17230:17259   */\n      tag_599\n        /* \"#utility.yul\":17252:17258   */\n      dup4\n        /* \"#utility.yul\":17230:17259   */\n      tag_360\n      jump\t// in\n    tag_599:\n        /* \"#utility.yul\":17225:17228   */\n      dup5\n        /* \"#utility.yul\":17221:17260   */\n      add\n        /* \"#utility.yul\":17214:17260   */\n      swap1\n      pop\n        /* \"#utility.yul\":16965:17266   */\n      swap4\n      swap3\n      pop\n      pop\n      pop\n      jump\t// out\n        /* \"#utility.yul\":17272:17821   */\n    tag_219:\n        /* \"#utility.yul\":17449:17453   */\n      0x00\n        /* \"#utility.yul\":17487:17489   */\n      0x60\n        /* \"#utility.yul\":17476:17485   */\n      dup3\n        /* \"#utility.yul\":17472:17490   */\n      add\n        /* \"#utility.yul\":17464:17490   */\n      swap1\n      pop\n        /* \"#utility.yul\":17500:17571   */\n      tag_601\n        /* \"#utility.yul\":17568:17569   */\n      0x00\n        /* \"#utility.yul\":17557:17566   */\n      dup4\n        /* \"#utility.yul\":17553:17570   */\n      add\n        /* \"#utility.yul\":17544:17550   */\n      dup8\n        /* \"#utility.yul\":17500:17571   */\n      tag_381\n      jump\t// in\n    tag_601:\n        /* \"#utility.yul\":17581:17653   */\n      tag_602\n        /* \"#utility.yul\":17649:17651   */\n      0x20\n        /* \"#utility.yul\":17638:17647   */\n      dup4\n        /* \"#utility.yul\":17634:17652   */\n      add\n        /* \"#utility.yul\":17625:17631   */\n      dup7\n        /* \"#utility.yul\":17581:17653   */\n      tag_374\n      jump\t// in\n    tag_602:\n        /* \"#utility.yul\":17700:17709   */\n      dup2\n        /* \"#utility.yul\":17694:17698   */\n      dup2\n        /* \"#utility.yul\":17690:17710   */\n      sub\n        /* \"#utility.yul\":17685:17687   */\n      0x40\n        /* \"#utility.yul\":17674:17683   */\n      dup4\n        /* \"#utility.yul\":17670:17688   */\n      add\n        /* \"#utility.yul\":17663:17711   */\n      mstore\n        /* \"#utility.yul\":17728:17814   */\n      tag_603\n        /* \"#utility.yul\":17809:17813   */\n      dup2\n        /* \"#utility.yul\":17800:17806   */\n      dup5\n        /* \"#utility.yul\":17792:17798   */\n      dup7\n        /* \"#utility.yul\":17728:17814   */\n      tag_403\n      jump\t// in\n    tag_603:\n        /* \"#utility.yul\":17720:17814   */\n      swap1\n      pop\n        /* \"#utility.yul\":17272:17821   */\n      swap6\n      swap5\n      pop\n      pop\n      pop\n      pop\n      pop\n      jump\t// out\n        /* \"#utility.yul\":17827:17943   */\n    tag_404:\n        /* \"#utility.yul\":17897:17918   */\n      tag_605\n        /* \"#utility.yul\":17912:17917   */\n      dup2\n        /* \"#utility.yul\":17897:17918   */\n      tag_372\n      jump\t// in\n    tag_605:\n        /* \"#utility.yul\":17890:17895   */\n      dup2\n        /* \"#utility.yul\":17887:17919   */\n      eq\n        /* \"#utility.yul\":17877:17937   */\n      tag_606\n      jumpi\n        /* \"#utility.yul\":17933:17934   */\n      0x00\n        /* \"#utility.yul\":17930:17931   */\n      dup1\n        /* \"#utility.yul\":17923:17935   */\n      revert\n        /* \"#utility.yul\":17877:17937   */\n    tag_606:\n        /* \"#utility.yul\":17827:17943   */\n      pop\n      jump\t// out\n        /* \"#utility.yul\":17949:18086   */\n    tag_405:\n        /* \"#utility.yul\":18003:18008   */\n      0x00\n        /* \"#utility.yul\":18034:18040   */\n      dup2\n        /* \"#utility.yul\":18028:18041   */\n      mload\n        /* \"#utility.yul\":18019:18041   */\n      swap1\n      pop\n        /* \"#utility.yul\":18050:18080   */\n      tag_608\n        /* \"#utility.yul\":18074:18079   */\n      dup2\n        /* \"#utility.yul\":18050:18080   */\n      tag_404\n      jump\t// in\n    tag_608:\n        /* \"#utility.yul\":17949:18086   */\n      swap3\n      swap2\n      pop\n      pop\n      jump\t// out\n        /* \"#utility.yul\":18092:18437   */\n    tag_223:\n        /* \"#utility.yul\":18159:18165   */\n      0x00\n        /* \"#utility.yul\":18208:18210   */\n      0x20\n        /* \"#utility.yul\":18196:18205   */\n      dup3\n        /* \"#utility.yul\":18187:18194   */\n      dup5\n        /* \"#utility.yul\":18183:18206   */\n      sub\n        /* \"#utility.yul\":18179:18211   */\n      slt\n        /* \"#utility.yul\":18176:18295   */\n      iszero\n      tag_610\n      jumpi\n        /* \"#utility.yul\":18214:18293   */\n      tag_611\n      tag_363\n      jump\t// in\n    tag_611:\n        /* \"#utility.yul\":18176:18295   */\n    tag_610:\n        /* \"#utility.yul\":18334:18335   */\n      0x00\n        /* \"#utility.yul\":18359:18420   */\n      tag_612\n        /* \"#utility.yul\":18412:18419   */\n      dup5\n        /* \"#utility.yul\":18403:18409   */\n      dup3\n        /* \"#utility.yul\":18392:18401   */\n      dup6\n        /* \"#utility.yul\":18388:18410   */\n      add\n        /* \"#utility.yul\":18359:18420   */\n      tag_405\n      jump\t// in\n    tag_612:\n        /* \"#utility.yul\":18349:18420   */\n      swap2\n      pop\n        /* \"#utility.yul\":18305:18430   */\n      pop\n        /* \"#utility.yul\":18092:18437   */\n      swap3\n      swap2\n      pop\n      pop\n      jump\t// out\n        /* \"#utility.yul\":18443:18618   */\n    tag_406:\n        /* \"#utility.yul\":18583:18610   */\n      0x416e7973776170563445524332303a20464f5242494444454e00000000000000\n        /* \"#utility.yul\":18579:18580   */\n      0x00\n        /* \"#utility.yul\":18571:18577   */\n      dup3\n        /* \"#utility.yul\":18567:18581   */\n      add\n        /* \"#utility.yul\":18560:18611   */\n      mstore\n        /* \"#utility.yul\":18443:18618   */\n      pop\n      jump\t// out\n        /* \"#utility.yul\":18624:18990   */\n    tag_407:\n        /* \"#utility.yul\":18766:18769   */\n      0x00\n        /* \"#utility.yul\":18787:18854   */\n      tag_615\n        /* \"#utility.yul\":18851:18853   */\n      0x19\n        /* \"#utility.yul\":18846:18849   */\n      dup4\n        /* \"#utility.yul\":18787:18854   */\n      tag_358\n      jump\t// in\n    tag_615:\n        /* \"#utility.yul\":18780:18854   */\n      swap2\n      pop\n        /* \"#utility.yul\":18863:18956   */\n      tag_616\n        /* \"#utility.yul\":18952:18955   */\n      dup3\n        /* \"#utility.yul\":18863:18956   */\n      tag_406\n      jump\t// in\n    tag_616:\n        /* \"#utility.yul\":18981:18983   */\n      0x20\n        /* \"#utility.yul\":18976:18979   */\n      dup3\n        /* \"#utility.yul\":18972:18984   */\n      add\n        /* \"#utility.yul\":18965:18984   */\n      swap1\n      pop\n        /* \"#utility.yul\":18624:18990   */\n      swap2\n      swap1\n      pop\n      jump\t// out\n        /* \"#utility.yul\":18996:19415   */\n    tag_227:\n        /* \"#utility.yul\":19162:19166   */\n      0x00\n        /* \"#utility.yul\":19200:19202   */\n      0x20\n        /* \"#utility.yul\":19189:19198   */\n      dup3\n        /* \"#utility.yul\":19185:19203   */\n      add\n        /* \"#utility.yul\":19177:19203   */\n      swap1\n      pop\n        /* \"#utility.yul\":19249:19258   */\n      dup2\n        /* \"#utility.yul\":19243:19247   */\n      dup2\n        /* \"#utility.yul\":19239:19259   */\n      sub\n        /* \"#utility.yul\":19235:19236   */\n      0x00\n        /* \"#utility.yul\":19224:19233   */\n      dup4\n        /* \"#utility.yul\":19220:19237   */\n      add\n        /* \"#utility.yul\":19213:19260   */\n      mstore\n        /* \"#utility.yul\":19277:19408   */\n      tag_618\n        /* \"#utility.yul\":19403:19407   */\n      dup2\n        /* \"#utility.yul\":19277:19408   */\n      tag_407\n      jump\t// in\n    tag_618:\n        /* \"#utility.yul\":19269:19408   */\n      swap1\n      pop\n        /* \"#utility.yul\":18996:19415   */\n      swap2\n      swap1\n      pop\n      jump\t// out\n        /* \"#utility.yul\":19421:19601   */\n    tag_408:\n        /* \"#utility.yul\":19561:19593   */\n      0x416e7973776170563345524332303a2045787069726564207065726d69740000\n        /* \"#utility.yul\":19557:19558   */\n      0x00\n        /* \"#utility.yul\":19549:19555   */\n      dup3\n        /* \"#utility.yul\":19545:19559   */\n      add\n        /* \"#utility.yul\":19538:19594   */\n      mstore\n        /* \"#utility.yul\":19421:19601   */\n      pop\n      jump\t// out\n        /* \"#utility.yul\":19607:19973   */\n    tag_409:\n        /* \"#utility.yul\":19749:19752   */\n      0x00\n        /* \"#utility.yul\":19770:19837   */\n      tag_621\n        /* \"#utility.yul\":19834:19836   */\n      0x1e\n        /* \"#utility.yul\":19829:19832   */\n      dup4\n        /* \"#utility.yul\":19770:19837   */\n      tag_358\n      jump\t// in\n    tag_621:\n        /* \"#utility.yul\":19763:19837   */\n      swap2\n      pop\n        /* \"#utility.yul\":19846:19939   */\n      tag_622\n        /* \"#utility.yul\":19935:19938   */\n      dup3\n        /* \"#utility.yul\":19846:19939   */\n      tag_408\n      jump\t// in\n    tag_622:\n        /* \"#utility.yul\":19964:19966   */\n      0x20\n        /* \"#utility.yul\":19959:19962   */\n      dup3\n        /* \"#utility.yul\":19955:19967   */\n      add\n        /* \"#utility.yul\":19948:19967   */\n      swap1\n      pop\n        /* \"#utility.yul\":19607:19973   */\n      swap2\n      swap1\n      pop\n      jump\t// out\n        /* \"#utility.yul\":19979:20398   */\n    tag_234:\n        /* \"#utility.yul\":20145:20149   */\n      0x00\n        /* \"#utility.yul\":20183:20185   */\n      0x20\n        /* \"#utility.yul\":20172:20181   */\n      dup3\n        /* \"#utility.yul\":20168:20186   */\n      add\n        /* \"#utility.yul\":20160:20186   */\n      swap1\n      pop\n        /* \"#utility.yul\":20232:20241   */\n      dup2\n        /* \"#utility.yul\":20226:20230   */\n      dup2\n        /* \"#utility.yul\":20222:20242   */\n      sub\n        /* \"#utility.yul\":20218:20219   */\n      0x00\n        /* \"#utility.yul\":20207:20216   */\n      dup4\n        /* \"#utility.yul\":20203:20220   */\n      add\n        /* \"#utility.yul\":20196:20243   */\n      mstore\n        /* \"#utility.yul\":20260:20391   */\n      tag_624\n        /* \"#utility.yul\":20386:20390   */\n      dup2\n        /* \"#utility.yul\":20260:20391   */\n      tag_409\n      jump\t// in\n    tag_624:\n        /* \"#utility.yul\":20252:20391   */\n      swap1\n      pop\n        /* \"#utility.yul\":19979:20398   */\n      swap2\n      swap1\n      pop\n      jump\t// out\n        /* \"#utility.yul\":20404:20637   */\n    tag_236:\n        /* \"#utility.yul\":20443:20446   */\n      0x00\n        /* \"#utility.yul\":20466:20490   */\n      tag_626\n        /* \"#utility.yul\":20484:20489   */\n      dup3\n        /* \"#utility.yul\":20466:20490   */\n      tag_369\n      jump\t// in\n    tag_626:\n        /* \"#utility.yul\":20457:20490   */\n      swap2\n      pop\n        /* \"#utility.yul\":20512:20578   */\n      0xffffffffffffffffffffffffffffffffffffffffffffffffffffffffffffffff\n        /* \"#utility.yul\":20505:20510   */\n      dup3\n        /* \"#utility.yul\":20502:20579   */\n      eq\n        /* \"#utility.yul\":20499:20602   */\n      iszero\n      tag_627\n      jumpi\n        /* \"#utility.yul\":20582:20600   */\n      tag_628\n      tag_398\n      jump\t// in\n    tag_628:\n        /* \"#utility.yul\":20499:20602   */\n    tag_627:\n        /* \"#utility.yul\":20629:20630   */\n      0x01\n        /* \"#utility.yul\":20622:20627   */\n      dup3\n        /* \"#utility.yul\":20618:20631   */\n      add\n        /* \"#utility.yul\":20611:20631   */\n      swap1\n      pop\n        /* \"#utility.yul\":20404:20637   */\n      swap2\n      swap1\n      pop\n      jump\t// out\n        /* \"#utility.yul\":20643:21418   */\n    tag_238:\n        /* \"#utility.yul\":20876:20880   */\n      0x00\n        /* \"#utility.yul\":20914:20917   */\n      0xc0\n        /* \"#utility.yul\":20903:20912   */\n      dup3\n        /* \"#utility.yul\":20899:20918   */\n      add\n        /* \"#utility.yul\":20891:20918   */\n      swap1\n      pop\n        /* \"#utility.yul\":20928:20999   */\n      tag_630\n        /* \"#utility.yul\":20996:20997   */\n      0x00\n        /* \"#utility.yul\":20985:20994   */\n      dup4\n        /* \"#utility.yul\":20981:20998   */\n      add\n        /* \"#utility.yul\":20972:20978   */\n      dup10\n        /* \"#utility.yul\":20928:20999   */\n      tag_356\n      jump\t// in\n    tag_630:\n        /* \"#utility.yul\":21009:21081   */\n      tag_631\n        /* \"#utility.yul\":21077:21079   */\n      0x20\n        /* \"#utility.yul\":21066:21075   */\n      dup4\n        /* \"#utility.yul\":21062:21080   */\n      add\n        /* \"#utility.yul\":21053:21059   */\n      dup9\n        /* \"#utility.yul\":21009:21081   */\n      tag_381\n      jump\t// in\n    tag_631:\n        /* \"#utility.yul\":21091:21163   */\n      tag_632\n        /* \"#utility.yul\":21159:21161   */\n      0x40\n        /* \"#utility.yul\":21148:21157   */\n      dup4\n        /* \"#utility.yul\":21144:21162   */\n      add\n        /* \"#utility.yul\":21135:21141   */\n      dup8\n        /* \"#utility.yul\":21091:21163   */\n      tag_381\n      jump\t// in\n    tag_632:\n        /* \"#utility.yul\":21173:21245   */\n      tag_633\n        /* \"#utility.yul\":21241:21243   */\n      0x60\n        /* \"#utility.yul\":21230:21239   */\n      dup4\n        /* \"#utility.yul\":21226:21244   */\n      add\n        /* \"#utility.yul\":21217:21223   */\n      dup7\n        /* \"#utility.yul\":21173:21245   */\n      tag_374\n      jump\t// in\n    tag_633:\n        /* \"#utility.yul\":21255:21328   */\n      tag_634\n        /* \"#utility.yul\":21323:21326   */\n      0x80\n        /* \"#utility.yul\":21312:21321   */\n      dup4\n        /* \"#utility.yul\":21308:21327   */\n      add\n        /* \"#utility.yul\":21299:21305   */\n      dup6\n        /* \"#utility.yul\":21255:21328   */\n      tag_374\n      jump\t// in\n    tag_634:\n        /* \"#utility.yul\":21338:21411   */\n      tag_635\n        /* \"#utility.yul\":21406:21409   */\n      0xa0\n        /* \"#utility.yul\":21395:21404   */\n      dup4\n        /* \"#utility.yul\":21391:21410   */\n      add\n        /* \"#utility.yul\":21382:21388   */\n      dup5\n        /* \"#utility.yul\":21338:21411   */\n      tag_374\n      jump\t// in\n    tag_635:\n        /* \"#utility.yul\":20643:21418   */\n      swap8\n      swap7\n      pop\n      pop\n      pop\n      pop\n      pop\n      pop\n      pop\n      jump\t// out\n        /* \"#utility.yul\":21424:21602   */\n    tag_410:\n        /* \"#utility.yul\":21564:21594   */\n      0x416e7973776170563345524332303a2061646472657373283078302900000000\n        /* \"#utility.yul\":21560:21561   */\n      0x00\n        /* \"#utility.yul\":21552:21558   */\n      dup3\n        /* \"#utility.yul\":21548:21562   */\n      add\n        /* \"#utility.yul\":21541:21595   */\n      mstore\n        /* \"#utility.yul\":21424:21602   */\n      pop\n      jump\t// out\n        /* \"#utility.yul\":21608:21974   */\n    tag_411:\n        /* \"#utility.yul\":21750:21753   */\n      0x00\n        /* \"#utility.yul\":21771:21838   */\n      tag_638\n        /* \"#utility.yul\":21835:21837   */\n      0x1c\n        /* \"#utility.yul\":21830:21833   */\n      dup4\n        /* \"#utility.yul\":21771:21838   */\n      tag_358\n      jump\t// in\n    tag_638:\n        /* \"#utility.yul\":21764:21838   */\n      swap2\n      pop\n        /* \"#utility.yul\":21847:21940   */\n      tag_639\n        /* \"#utility.yul\":21936:21939   */\n      dup3\n        /* \"#utility.yul\":21847:21940   */\n      tag_410\n      jump\t// in\n    tag_639:\n        /* \"#utility.yul\":21965:21967   */\n      0x20\n        /* \"#utility.yul\":21960:21963   */\n      dup3\n        /* \"#utility.yul\":21956:21968   */\n      add\n        /* \"#utility.yul\":21949:21968   */\n      swap1\n      pop\n        /* \"#utility.yul\":21608:21974   */\n      swap2\n      swap1\n      pop\n      jump\t// out\n        /* \"#utility.yul\":21980:22399   */\n    tag_259:\n        /* \"#utility.yul\":22146:22150   */\n      0x00\n        /* \"#utility.yul\":22184:22186   */\n      0x20\n        /* \"#utility.yul\":22173:22182   */\n      dup3\n        /* \"#utility.yul\":22169:22187   */\n      add\n        /* \"#utility.yul\":22161:22187   */\n      swap1\n      pop\n        /* \"#utility.yul\":22233:22242   */\n      dup2\n        /* \"#utility.yul\":22227:22231   */\n      dup2\n        /* \"#utility.yul\":22223:22243   */\n      sub\n        /* \"#utility.yul\":22219:22220   */\n      0x00\n        /* \"#utility.yul\":22208:22217   */\n      dup4\n        /* \"#utility.yul\":22204:22221   */\n      add\n        /* \"#utility.yul\":22197:22244   */\n      mstore\n        /* \"#utility.yul\":22261:22392   */\n      tag_641\n        /* \"#utility.yul\":22387:22391   */\n      dup2\n        /* \"#utility.yul\":22261:22392   */\n      tag_411\n      jump\t// in\n    tag_641:\n        /* \"#utility.yul\":22253:22392   */\n      swap1\n      pop\n        /* \"#utility.yul\":21980:22399   */\n      swap2\n      swap1\n      pop\n      jump\t// out\n        /* \"#utility.yul\":22405:22586   */\n    tag_412:\n        /* \"#utility.yul\":22545:22578   */\n      0x45524332303a206d696e7420746f20746865207a65726f206164647265737300\n        /* \"#utility.yul\":22541:22542   */\n      0x00\n        /* \"#utility.yul\":22533:22539   */\n      dup3\n        /* \"#utility.yul\":22529:22543   */\n      add\n        /* \"#utility.yul\":22522:22579   */\n      mstore\n        /* \"#utility.yul\":22405:22586   */\n      pop\n      jump\t// out\n        /* \"#utility.yul\":22592:22958   */\n    tag_413:\n        /* \"#utility.yul\":22734:22737   */\n      0x00\n        /* \"#utility.yul\":22755:22822   */\n      tag_644\n        /* \"#utility.yul\":22819:22821   */\n      0x1f\n        /* \"#utility.yul\":22814:22817   */\n      dup4\n        /* \"#utility.yul\":22755:22822   */\n      tag_358\n      jump\t// in\n    tag_644:\n        /* \"#utility.yul\":22748:22822   */\n      swap2\n      pop\n        /* \"#utility.yul\":22831:22924   */\n      tag_645\n        /* \"#utility.yul\":22920:22923   */\n      dup3\n        /* \"#utility.yul\":22831:22924   */\n      tag_412\n      jump\t// in\n    tag_645:\n        /* \"#utility.yul\":22949:22951   */\n      0x20\n        /* \"#utility.yul\":22944:22947   */\n      dup3\n        /* \"#utility.yul\":22940:22952   */\n      add\n        /* \"#utility.yul\":22933:22952   */\n      swap1\n      pop\n        /* \"#utility.yul\":22592:22958   */\n      swap2\n      swap1\n      pop\n      jump\t// out\n        /* \"#utility.yul\":22964:23383   */\n    tag_329:\n        /* \"#utility.yul\":23130:23134   */\n      0x00\n        /* \"#utility.yul\":23168:23170   */\n      0x20\n        /* \"#utility.yul\":23157:23166   */\n      dup3\n        /* \"#utility.yul\":23153:23171   */\n      add\n        /* \"#utility.yul\":23145:23171   */\n      swap1\n      pop\n        /* \"#utility.yul\":23217:23226   */\n      dup2\n        /* \"#utility.yul\":23211:23215   */\n      dup2\n        /* \"#utility.yul\":23207:23227   */\n      sub\n        /* \"#utility.yul\":23203:23204   */\n      0x00\n        /* \"#utility.yul\":23192:23201   */\n      dup4\n        /* \"#utility.yul\":23188:23205   */\n      add\n        /* \"#utility.yul\":23181:23228   */\n      mstore\n        /* \"#utility.yul\":23245:23376   */\n      tag_647\n        /* \"#utility.yul\":23371:23375   */\n      dup2\n        /* \"#utility.yul\":23245:23376   */\n      tag_413\n      jump\t// in\n    tag_647:\n        /* \"#utility.yul\":23237:23376   */\n      swap1\n      pop\n        /* \"#utility.yul\":22964:23383   */\n      swap2\n      swap1\n      pop\n      jump\t// out\n        /* \"#utility.yul\":23389:23537   */\n    tag_414:\n        /* \"#utility.yul\":23491:23502   */\n      0x00\n        /* \"#utility.yul\":23528:23531   */\n      dup2\n        /* \"#utility.yul\":23513:23531   */\n      swap1\n      pop\n        /* \"#utility.yul\":23389:23537   */\n      swap3\n      swap2\n      pop\n      pop\n      jump\t// out\n        /* \"#utility.yul\":23543:23757   */\n    tag_415:\n        /* \"#utility.yul\":23683:23749   */\n      0x1901000000000000000000000000000000000000000000000000000000000000\n        /* \"#utility.yul\":23679:23680   */\n      0x00\n        /* \"#utility.yul\":23671:23677   */\n      dup3\n        /* \"#utility.yul\":23667:23681   */\n      add\n        /* \"#utility.yul\":23660:23750   */\n      mstore\n        /* \"#utility.yul\":23543:23757   */\n      pop\n      jump\t// out\n        /* \"#utility.yul\":23763:24163   */\n    tag_416:\n        /* \"#utility.yul\":23923:23926   */\n      0x00\n        /* \"#utility.yul\":23944:24028   */\n      tag_651\n        /* \"#utility.yul\":24026:24027   */\n      0x02\n        /* \"#utility.yul\":24021:24024   */\n      dup4\n        /* \"#utility.yul\":23944:24028   */\n      tag_414\n      jump\t// in\n    tag_651:\n        /* \"#utility.yul\":23937:24028   */\n      swap2\n      pop\n        /* \"#utility.yul\":24037:24130   */\n      tag_652\n        /* \"#utility.yul\":24126:24129   */\n      dup3\n        /* \"#utility.yul\":24037:24130   */\n      tag_415\n      jump\t// in\n    tag_652:\n        /* \"#utility.yul\":24155:24156   */\n      0x02\n        /* \"#utility.yul\":24150:24153   */\n      dup3\n        /* \"#utility.yul\":24146:24157   */\n      add\n        /* \"#utility.yul\":24139:24157   */\n      swap1\n      pop\n        /* \"#utility.yul\":23763:24163   */\n      swap2\n      swap1\n      pop\n      jump\t// out\n        /* \"#utility.yul\":24169:24248   */\n    tag_417:\n        /* \"#utility.yul\":24208:24215   */\n      0x00\n        /* \"#utility.yul\":24237:24242   */\n      dup2\n        /* \"#utility.yul\":24226:24242   */\n      swap1\n      pop\n        /* \"#utility.yul\":24169:24248   */\n      swap2\n      swap1\n      pop\n      jump\t// out\n        /* \"#utility.yul\":24254:24411   */\n    tag_418:\n        /* \"#utility.yul\":24359:24404   */\n      tag_655\n        /* \"#utility.yul\":24379:24403   */\n      tag_656\n        /* \"#utility.yul\":24397:24402   */\n      dup3\n        /* \"#utility.yul\":24379:24403   */\n      tag_355\n      jump\t// in\n    tag_656:\n        /* \"#utility.yul\":24359:24404   */\n      tag_417\n      jump\t// in\n    tag_655:\n        /* \"#utility.yul\":24354:24357   */\n      dup3\n        /* \"#utility.yul\":24347:24405   */\n      mstore\n        /* \"#utility.yul\":24254:24411   */\n      pop\n      pop\n      jump\t// out\n        /* \"#utility.yul\":24417:25080   */\n    tag_335:\n        /* \"#utility.yul\":24658:24661   */\n      0x00\n        /* \"#utility.yul\":24680:24828   */\n      tag_658\n        /* \"#utility.yul\":24824:24827   */\n      dup3\n        /* \"#utility.yul\":24680:24828   */\n      tag_416\n      jump\t// in\n    tag_658:\n        /* \"#utility.yul\":24673:24828   */\n      swap2\n      pop\n        /* \"#utility.yul\":24838:24913   */\n      tag_659\n        /* \"#utility.yul\":24909:24912   */\n      dup3\n        /* \"#utility.yul\":24900:24906   */\n      dup6\n        /* \"#utility.yul\":24838:24913   */\n      tag_418\n      jump\t// in\n    tag_659:\n        /* \"#utility.yul\":24938:24940   */\n      0x20\n        /* \"#utility.yul\":24933:24936   */\n      dup3\n        /* \"#utility.yul\":24929:24941   */\n      add\n        /* \"#utility.yul\":24922:24941   */\n      swap2\n      pop\n        /* \"#utility.yul\":24951:25026   */\n      tag_660\n        /* \"#utility.yul\":25022:25025   */\n      dup3\n        /* \"#utility.yul\":25013:25019   */\n      dup5\n        /* \"#utility.yul\":24951:25026   */\n      tag_418\n      jump\t// in\n    tag_660:\n        /* \"#utility.yul\":25051:25053   */\n      0x20\n        /* \"#utility.yul\":25046:25049   */\n      dup3\n        /* \"#utility.yul\":25042:25054   */\n      add\n        /* \"#utility.yul\":25035:25054   */\n      swap2\n      pop\n        /* \"#utility.yul\":25071:25074   */\n      dup2\n        /* \"#utility.yul\":25064:25074   */\n      swap1\n      pop\n        /* \"#utility.yul\":24417:25080   */\n      swap4\n      swap3\n      pop\n      pop\n      pop\n      jump\t// out\n        /* \"#utility.yul\":25086:25631   */\n    tag_337:\n        /* \"#utility.yul\":25259:25263   */\n      0x00\n        /* \"#utility.yul\":25297:25300   */\n      0x80\n        /* \"#utility.yul\":25286:25295   */\n      dup3\n        /* \"#utility.yul\":25282:25301   */\n      add\n        /* \"#utility.yul\":25274:25301   */\n      swap1\n      pop\n        /* \"#utility.yul\":25311:25382   */\n      tag_662\n        /* \"#utility.yul\":25379:25380   */\n      0x00\n        /* \"#utility.yul\":25368:25377   */\n      dup4\n        /* \"#utility.yul\":25364:25381   */\n      add\n        /* \"#utility.yul\":25355:25361   */\n      dup8\n        /* \"#utility.yul\":25311:25382   */\n      tag_356\n      jump\t// in\n    tag_662:\n        /* \"#utility.yul\":25392:25460   */\n      tag_663\n        /* \"#utility.yul\":25456:25458   */\n      0x20\n        /* \"#utility.yul\":25445:25454   */\n      dup4\n        /* \"#utility.yul\":25441:25459   */\n      add\n        /* \"#utility.yul\":25432:25438   */\n      dup7\n        /* \"#utility.yul\":25392:25460   */\n      tag_376\n      jump\t// in\n    tag_663:\n        /* \"#utility.yul\":25470:25542   */\n      tag_664\n        /* \"#utility.yul\":25538:25540   */\n      0x40\n        /* \"#utility.yul\":25527:25536   */\n      dup4\n        /* \"#utility.yul\":25523:25541   */\n      add\n        /* \"#utility.yul\":25514:25520   */\n      dup6\n        /* \"#utility.yul\":25470:25542   */\n      tag_356\n      jump\t// in\n    tag_664:\n        /* \"#utility.yul\":25552:25624   */\n      tag_665\n        /* \"#utility.yul\":25620:25622   */\n      0x60\n        /* \"#utility.yul\":25609:25618   */\n      dup4\n        /* \"#utility.yul\":25605:25623   */\n      add\n        /* \"#utility.yul\":25596:25602   */\n      dup5\n        /* \"#utility.yul\":25552:25624   */\n      tag_356\n      jump\t// in\n    tag_665:\n        /* \"#utility.yul\":25086:25631   */\n      swap6\n      swap5\n      pop\n      pop\n      pop\n      pop\n      pop\n      jump\t// out\n        /* \"#utility.yul\":25637:25851   */\n    tag_419:\n        /* \"#utility.yul\":25777:25843   */\n      0x19457468657265756d205369676e6564204d6573736167653a0a333200000000\n        /* \"#utility.yul\":25773:25774   */\n      0x00\n        /* \"#utility.yul\":25765:25771   */\n      dup3\n        /* \"#utility.yul\":25761:25775   */\n      add\n        /* \"#utility.yul\":25754:25844   */\n      mstore\n        /* \"#utility.yul\":25637:25851   */\n      pop\n      jump\t// out\n        /* \"#utility.yul\":25857:26259   */\n    tag_420:\n        /* \"#utility.yul\":26017:26020   */\n      0x00\n        /* \"#utility.yul\":26038:26123   */\n      tag_668\n        /* \"#utility.yul\":26120:26122   */\n      0x1c\n        /* \"#utility.yul\":26115:26118   */\n      dup4\n        /* \"#utility.yul\":26038:26123   */\n      tag_414\n      jump\t// in\n    tag_668:\n        /* \"#utility.yul\":26031:26123   */\n      swap2\n      pop\n        /* \"#utility.yul\":26132:26225   */\n      tag_669\n        /* \"#utility.yul\":26221:26224   */\n      dup3\n        /* \"#utility.yul\":26132:26225   */\n      tag_419\n      jump\t// in\n    tag_669:\n        /* \"#utility.yul\":26250:26252   */\n      0x1c\n        /* \"#utility.yul\":26245:26248   */\n      dup3\n        /* \"#utility.yul\":26241:26253   */\n      add\n        /* \"#utility.yul\":26234:26253   */\n      swap1\n      pop\n        /* \"#utility.yul\":25857:26259   */\n      swap2\n      swap1\n      pop\n      jump\t// out\n        /* \"#utility.yul\":26265:26928   */\n    tag_343:\n        /* \"#utility.yul\":26506:26509   */\n      0x00\n        /* \"#utility.yul\":26528:26676   */\n      tag_671\n        /* \"#utility.yul\":26672:26675   */\n      dup3\n        /* \"#utility.yul\":26528:26676   */\n      tag_420\n      jump\t// in\n    tag_671:\n        /* \"#utility.yul\":26521:26676   */\n      swap2\n      pop\n        /* \"#utility.yul\":26686:26761   */\n      tag_672\n        /* \"#utility.yul\":26757:26760   */\n      dup3\n        /* \"#utility.yul\":26748:26754   */\n      dup6\n        /* \"#utility.yul\":26686:26761   */\n      tag_418\n      jump\t// in\n    tag_672:\n        /* \"#utility.yul\":26786:26788   */\n      0x20\n        /* \"#utility.yul\":26781:26784   */\n      dup3\n        /* \"#utility.yul\":26777:26789   */\n      add\n        /* \"#utility.yul\":26770:26789   */\n      swap2\n      pop\n        /* \"#utility.yul\":26799:26874   */\n      tag_673\n        /* \"#utility.yul\":26870:26873   */\n      dup3\n        /* \"#utility.yul\":26861:26867   */\n      dup5\n        /* \"#utility.yul\":26799:26874   */\n      tag_418\n      jump\t// in\n    tag_673:\n        /* \"#utility.yul\":26899:26901   */\n      0x20\n        /* \"#utility.yul\":26894:26897   */\n      dup3\n        /* \"#utility.yul\":26890:26902   */\n      add\n        /* \"#utility.yul\":26883:26902   */\n      swap2\n      pop\n        /* \"#utility.yul\":26919:26922   */\n      dup2\n        /* \"#utility.yul\":26912:26922   */\n      swap1\n      pop\n        /* \"#utility.yul\":26265:26928   */\n      swap4\n      swap3\n      pop\n      pop\n      pop\n      jump\t// out\n        /* \"#utility.yul\":26934:27154   */\n    tag_421:\n        /* \"#utility.yul\":27074:27108   */\n      0x45524332303a206275726e2066726f6d20746865207a65726f20616464726573\n        /* \"#utility.yul\":27070:27071   */\n      0x00\n        /* \"#utility.yul\":27062:27068   */\n      dup3\n        /* \"#utility.yul\":27058:27072   */\n      add\n        /* \"#utility.yul\":27051:27109   */\n      mstore\n        /* \"#utility.yul\":27143:27146   */\n      0x7300000000000000000000000000000000000000000000000000000000000000\n        /* \"#utility.yul\":27138:27140   */\n      0x20\n        /* \"#utility.yul\":27130:27136   */\n      dup3\n        /* \"#utility.yul\":27126:27141   */\n      add\n        /* \"#utility.yul\":27119:27147   */\n      mstore\n        /* \"#utility.yul\":26934:27154   */\n      pop\n      jump\t// out\n        /* \"#utility.yul\":27160:27526   */\n    tag_422:\n        /* \"#utility.yul\":27302:27305   */\n      0x00\n        /* \"#utility.yul\":27323:27390   */\n      tag_676\n        /* \"#utility.yul\":27387:27389   */\n      0x21\n        /* \"#utility.yul\":27382:27385   */\n      dup4\n        /* \"#utility.yul\":27323:27390   */\n      tag_358\n      jump\t// in\n    tag_676:\n        /* \"#utility.yul\":27316:27390   */\n      swap2\n      pop\n        /* \"#utility.yul\":27399:27492   */\n      tag_677\n        /* \"#utility.yul\":27488:27491   */\n      dup3\n        /* \"#utility.yul\":27399:27492   */\n      tag_421\n      jump\t// in\n    tag_677:\n        /* \"#utility.yul\":27517:27519   */\n      0x40\n        /* \"#utility.yul\":27512:27515   */\n      dup3\n        /* \"#utility.yul\":27508:27520   */\n      add\n        /* \"#utility.yul\":27501:27520   */\n      swap1\n      pop\n        /* \"#utility.yul\":27160:27526   */\n      swap2\n      swap1\n      pop\n      jump\t// out\n        /* \"#utility.yul\":27532:27951   */\n    tag_351:\n        /* \"#utility.yul\":27698:27702   */\n      0x00\n        /* \"#utility.yul\":27736:27738   */\n      0x20\n        /* \"#utility.yul\":27725:27734   */\n      dup3\n        /* \"#utility.yul\":27721:27739   */\n      add\n        /* \"#utility.yul\":27713:27739   */\n      swap1\n      pop\n        /* \"#utility.yul\":27785:27794   */\n      dup2\n        /* \"#utility.yul\":27779:27783   */\n      dup2\n        /* \"#utility.yul\":27775:27795   */\n      sub\n        /* \"#utility.yul\":27771:27772   */\n      0x00\n        /* \"#utility.yul\":27760:27769   */\n      dup4\n        /* \"#utility.yul\":27756:27773   */\n      add\n        /* \"#utility.yul\":27749:27796   */\n      mstore\n        /* \"#utility.yul\":27813:27944   */\n      tag_679\n        /* \"#utility.yul\":27939:27943   */\n      dup2\n        /* \"#utility.yul\":27813:27944   */\n      tag_422\n      jump\t// in\n    tag_679:\n        /* \"#utility.yul\":27805:27944   */\n      swap1\n      pop\n        /* \"#utility.yul\":27532:27951   */\n      swap2\n      swap1\n      pop\n      jump\t// out\n\n    auxdata: 0xa2646970667358221220d808c2bc2dba35198464d40db25b1063c577d356348a794ab0aa5e0d03c69ab664736f6c634300080b0033\n}\n",
				"bytecode": {
					"linkReferences": {},
					"object": "60c06040526202a3006005553480156200001857600080fd5b5060405162003d2b38038062003d2b83398181016040528101906200003e9190620004ce565b836000908051906020019062000056929190620001de565b5082600190805190602001906200006f929190620001de565b508160ff1660808160ff16815250506001600460006101000a81548160ff02191690831515021790555080600860006101000a81548173ffffffffffffffffffffffffffffffffffffffff021916908373ffffffffffffffffffffffffffffffffffffffff16021790555080600b60006101000a81548173ffffffffffffffffffffffffffffffffffffffff021916908373ffffffffffffffffffffffffffffffffffffffff16021790555042600c8190555060004690507f8b73c3c69bb8fe3d512ecc4cf759cc79239f7b179b0ffacaa9a75d522b39400f60006040516200015991906200068e565b60405180910390206040518060400160405280600181526020017f3100000000000000000000000000000000000000000000000000000000000000815250805190602001208330604051602001620001b6959493929190620006ee565b6040516020818303038152906040528051906020012060a0818152505050505050506200074b565b828054620001ec90620005ad565b90600052602060002090601f0160209004810192826200021057600085556200025c565b82601f106200022b57805160ff19168380011785556200025c565b828001600101855582156200025c579182015b828111156200025b5782518255916020019190600101906200023e565b5b5090506200026b91906200026f565b5090565b5b808211156200028a57600081600090555060010162000270565b5090565b6000604051905090565b600080fd5b600080fd5b600080fd5b600080fd5b6000601f19601f8301169050919050565b7f4e487b7100000000000000000000000000000000000000000000000000000000600052604160045260246000fd5b620002f782620002ac565b810181811067ffffffffffffffff82111715620003195762000318620002bd565b5b80604052505050565b60006200032e6200028e565b90506200033c8282620002ec565b919050565b600067ffffffffffffffff8211156200035f576200035e620002bd565b5b6200036a82620002ac565b9050602081019050919050565b60005b83811015620003975780820151818401526020810190506200037a565b83811115620003a7576000848401525b50505050565b6000620003c4620003be8462000341565b62000322565b905082815260208101848484011115620003e357620003e2620002a7565b5b620003f084828562000377565b509392505050565b600082601f83011262000410576200040f620002a2565b5b815162000422848260208601620003ad565b91505092915050565b600060ff82169050919050565b62000443816200042b565b81146200044f57600080fd5b50565b600081519050620004638162000438565b92915050565b600073ffffffffffffffffffffffffffffffffffffffff82169050919050565b6000620004968262000469565b9050919050565b620004a88162000489565b8114620004b457600080fd5b50565b600081519050620004c8816200049d565b92915050565b60008060008060808587031215620004eb57620004ea62000298565b5b600085015167ffffffffffffffff8111156200050c576200050b6200029d565b5b6200051a87828801620003f8565b945050602085015167ffffffffffffffff8111156200053e576200053d6200029d565b5b6200054c87828801620003f8565b93505060406200055f8782880162000452565b92505060606200057287828801620004b7565b91505092959194509250565b7f4e487b7100000000000000000000000000000000000000000000000000000000600052602260045260246000fd5b60006002820490506001821680620005c657607f821691505b60208210811415620005dd57620005dc6200057e565b5b50919050565b600081905092915050565b60008190508160005260206000209050919050565b600081546200061281620005ad565b6200061e8186620005e3565b945060018216600081146200063c57600181146200064e5762000685565b60ff1983168652818601935062000685565b6200065985620005ee565b60005b838110156200067d578154818901526001820191506020810190506200065c565b838801955050505b50505092915050565b60006200069c828462000603565b915081905092915050565b6000819050919050565b620006bc81620006a7565b82525050565b6000819050919050565b620006d781620006c2565b82525050565b620006e88162000489565b82525050565b600060a082019050620007056000830188620006b1565b620007146020830187620006b1565b620007236040830186620006b1565b620007326060830185620006cc565b620007416080830184620006dd565b9695505050505050565b60805160a0516135ac6200077f60003960008181610e8d015281816123e501526124fb01526000610e6901526135ac6000f3fe608060405234801561001057600080fd5b50600436106102105760003560e01c80638623ec7b11610125578063c3081240116100ad578063d93f24451161007c578063d93f244514610657578063dd62ed3e14610661578063f75c266414610691578063fbfa77cf146106af578063fca3b5aa146106cd57610210565b8063c3081240146105d1578063cae9ca51146105ef578063cfbd48851461061f578063d505accf1461063b57610210565b806395d89b41116100f457806395d89b41146105055780639dc29fac14610523578063a045442c14610553578063a9059cbb14610571578063aa271e1a146105a157610210565b80638623ec7b1461047b57806387689e28146104ab5780638da5cb5b146104c957806391c5df49146104e757610210565b80633644e515116101a8578063605629d611610177578063605629d6146103b15780636817031b146103e15780636a42b8f8146103fd57806370a082311461041b5780637ecebe001461044b57610210565b80633644e515146103155780634000aea01461033357806340c10f191461036357806352113ba71461039357610210565b806318160ddd116101e457806318160ddd1461028b57806323b872dd146102a957806330adf81f146102d9578063313ce567146102f757610210565b8062bf26f41461021557806306fdde0314610233578063095ea7b3146102515780630d707df814610281575b600080fd5b61021d6106e9565b60405161022a919061276e565b60405180910390f35b61023b61070d565b6040516102489190612822565b60405180910390f35b61026b600480360381019061026691906128e2565b61079b565b604051610278919061293d565b60405180910390f35b61028961088d565b005b610293610a12565b6040516102a09190612967565b60405180910390f35b6102c360048036038101906102be9190612982565b610a1c565b6040516102d0919061293d565b60405180910390f35b6102e1610e43565b6040516102ee919061276e565b60405180910390f35b6102ff610e67565b60405161030c91906129f1565b60405180910390f35b61031d610e8b565b60405161032a919061276e565b60405180910390f35b61034d60048036038101906103489190612a71565b610eaf565b60405161035a919061293d565b60405180910390f35b61037d600480360381019061037891906128e2565b61113f565b60405161038a919061293d565b60405180910390f35b61039b6111e1565b6040516103a89190612af4565b60405180910390f35b6103cb60048036038101906103c69190612b67565b611207565b6040516103d8919061293d565b60405180910390f35b6103fb60048036038101906103f69190612c09565b611531565b005b61040561166e565b6040516104129190612967565b60405180910390f35b61043560048036038101906104309190612c09565b611674565b6040516104429190612967565b60405180910390f35b61046560048036038101906104609190612c09565b61168c565b6040516104729190612967565b60405180910390f35b61049560048036038101906104909190612c36565b6116a4565b6040516104a29190612af4565b60405180910390f35b6104b36116e3565b6040516104c09190612967565b60405180910390f35b6104d16116e9565b6040516104de9190612af4565b60405180910390f35b6104ef6116f8565b6040516104fc9190612af4565b60405180910390f35b61050d61171e565b60405161051a9190612822565b60405180910390f35b61053d600480360381019061053891906128e2565b6117ac565b60405161054a919061293d565b60405180910390f35b61055b6118be565b6040516105689190612d21565b60405180910390f35b61058b600480360381019061058691906128e2565b61194c565b604051610598919061293d565b60405180910390f35b6105bb60048036038101906105b69190612c09565b611b5a565b6040516105c8919061293d565b60405180910390f35b6105d9611b7a565b6040516105e69190612967565b60405180910390f35b61060960048036038101906106049190612a71565b611b80565b604051610616919061293d565b60405180910390f35b61063960048036038101906106349190612c09565b611cf3565b005b61065560048036038101906106509190612b67565b611dc3565b005b61065f611fc8565b005b61067b60048036038101906106769190612d43565b6120b1565b6040516106889190612967565b60405180910390f35b6106996120d6565b6040516106a69190612af4565b60405180910390f35b6106b7612134565b6040516106c49190612af4565b60405180910390f35b6106e760048036038101906106e29190612c09565b61215a565b005b7f42ce63790c28229c123925d83266e77c04d28784552ab68b350a9003226cbd5981565b6000805461071a90612db2565b80601f016020809104026020016040519081016040528092919081815260200182805461074690612db2565b80156107935780601f1061076857610100808354040283529160200191610793565b820191906000526020600020905b81548152906001019060200180831161077657829003601f168201915b505050505081565b600081600e60003373ffffffffffffffffffffffffffffffffffffffff1673ffffffffffffffffffffffffffffffffffffffff16815260200190815260200160002060008573ffffffffffffffffffffffffffffffffffffffff1673ffffffffffffffffffffffffffffffffffffffff168152602001908152602001600020819055508273ffffffffffffffffffffffffffffffffffffffff163373ffffffffffffffffffffffffffffffffffffffff167f8c5be1e5ebec7d5bd14f71427d1e84f3dd0314c0f7b2291e5b200ac8c7c3b9258460405161087b9190612967565b60405180910390a36001905092915050565b6108956120d6565b73ffffffffffffffffffffffffffffffffffffffff163373ffffffffffffffffffffffffffffffffffffffff1614610902576040517f08c379a00000000000000000000000000000000000000000000000000000000081526004016108f990612e30565b60405180910390fd5b600a5442101561091157600080fd5b600160066000600960009054906101000a900473ffffffffffffffffffffffffffffffffffffffff1673ffffffffffffffffffffffffffffffffffffffff1673ffffffffffffffffffffffffffffffffffffffff16815260200190815260200160002060006101000a81548160ff0219169083151502179055506007600960009054906101000a900473ffffffffffffffffffffffffffffffffffffffff169080600181540180825580915050600190039060005260206000200160009091909190916101000a81548173ffffffffffffffffffffffffffffffffffffffff021916908373ffffffffffffffffffffffffffffffffffffffff160217905550565b6000600354905090565b60008073ffffffffffffffffffffffffffffffffffffffff168373ffffffffffffffffffffffffffffffffffffffff16141580610a8557503073ffffffffffffffffffffffffffffffffffffffff168373ffffffffffffffffffffffffffffffffffffffff1614155b610a8e57600080fd5b3373ffffffffffffffffffffffffffffffffffffffff168473ffffffffffffffffffffffffffffffffffffffff1614610ca6576000600e60008673ffffffffffffffffffffffffffffffffffffffff1673ffffffffffffffffffffffffffffffffffffffff16815260200190815260200160002060003373ffffffffffffffffffffffffffffffffffffffff1673ffffffffffffffffffffffffffffffffffffffff1681526020019081526020016000205490507fffffffffffffffffffffffffffffffffffffffffffffffffffffffffffffffff8114610ca45782811015610bac576040517f08c379a0000000000000000000000000000000000000000000000000000000008152600401610ba390612ec2565b60405180910390fd5b60008382610bba9190612f11565b905080600e60008873ffffffffffffffffffffffffffffffffffffffff1673ffffffffffffffffffffffffffffffffffffffff16815260200190815260200160002060003373ffffffffffffffffffffffffffffffffffffffff1673ffffffffffffffffffffffffffffffffffffffff168152602001908152602001600020819055503373ffffffffffffffffffffffffffffffffffffffff168673ffffffffffffffffffffffffffffffffffffffff167f8c5be1e5ebec7d5bd14f71427d1e84f3dd0314c0f7b2291e5b200ac8c7c3b92583604051610c9a9190612967565b60405180910390a3505b505b6000600260008673ffffffffffffffffffffffffffffffffffffffff1673ffffffffffffffffffffffffffffffffffffffff16815260200190815260200160002054905082811015610d2d576040517f08c379a0000000000000000000000000000000000000000000000000000000008152600401610d2490612fb7565b60405180910390fd5b8281610d399190612f11565b600260008773ffffffffffffffffffffffffffffffffffffffff1673ffffffffffffffffffffffffffffffffffffffff1681526020019081526020016000208190555082600260008673ffffffffffffffffffffffffffffffffffffffff1673ffffffffffffffffffffffffffffffffffffffff1681526020019081526020016000206000828254610dcb9190612fd7565b925050819055508373ffffffffffffffffffffffffffffffffffffffff168573ffffffffffffffffffffffffffffffffffffffff167fddf252ad1be2c89b69c2b068fc378daa952ba7f163c4a11628f55a4df523b3ef85604051610e2f9190612967565b60405180910390a360019150509392505050565b7f6e71edae12b1b97f4d1f60370fef10105fa2faae0126114a169c64845d6126c981565b7f000000000000000000000000000000000000000000000000000000000000000081565b7f000000000000000000000000000000000000000000000000000000000000000081565b60008073ffffffffffffffffffffffffffffffffffffffff168573ffffffffffffffffffffffffffffffffffffffff16141580610f1857503073ffffffffffffffffffffffffffffffffffffffff168573ffffffffffffffffffffffffffffffffffffffff1614155b610f2157600080fd5b6000600260003373ffffffffffffffffffffffffffffffffffffffff1673ffffffffffffffffffffffffffffffffffffffff16815260200190815260200160002054905084811015610fa8576040517f08c379a0000000000000000000000000000000000000000000000000000000008152600401610f9f90612fb7565b60405180910390fd5b8481610fb49190612f11565b600260003373ffffffffffffffffffffffffffffffffffffffff1673ffffffffffffffffffffffffffffffffffffffff1681526020019081526020016000208190555084600260008873ffffffffffffffffffffffffffffffffffffffff1673ffffffffffffffffffffffffffffffffffffffff16815260200190815260200160002060008282546110469190612fd7565b925050819055508573ffffffffffffffffffffffffffffffffffffffff163373ffffffffffffffffffffffffffffffffffffffff167fddf252ad1be2c89b69c2b068fc378daa952ba7f163c4a11628f55a4df523b3ef876040516110aa9190612967565b60405180910390a38573ffffffffffffffffffffffffffffffffffffffff1663a4c0ed36338787876040518563ffffffff1660e01b81526004016110f1949392919061307a565b6020604051808303816000875af1158015611110573d6000803e3d6000fd5b505050506040513d601f19601f8201168201806040525081019061113491906130e6565b915050949350505050565b6000600660003373ffffffffffffffffffffffffffffffffffffffff1673ffffffffffffffffffffffffffffffffffffffff16815260200190815260200160002060009054906101000a900460ff166111cd576040517f08c379a00000000000000000000000000000000000000000000000000000000081526004016111c49061315f565b60405180910390fd5b6111d78383612297565b6001905092915050565b600b60009054906101000a900473ffffffffffffffffffffffffffffffffffffffff1681565b60008442111561124c576040517f08c379a0000000000000000000000000000000000000000000000000000000008152600401611243906131cb565b60405180910390fd5b60007f42ce63790c28229c123925d83266e77c04d28784552ab68b350a9003226cbd59898989600d60008e73ffffffffffffffffffffffffffffffffffffffff1673ffffffffffffffffffffffffffffffffffffffff16815260200190815260200160002060008154809291906112c2906131eb565b919050558a6040516020016112dc96959493929190613234565b60405160208183030381529060405280519060200120905061130189828787876123e0565b80611315575061131489828787876124f6565b5b61131e57600080fd5b600073ffffffffffffffffffffffffffffffffffffffff168873ffffffffffffffffffffffffffffffffffffffff1614158061138657503073ffffffffffffffffffffffffffffffffffffffff168873ffffffffffffffffffffffffffffffffffffffff1614155b61138f57600080fd5b6000600260008b73ffffffffffffffffffffffffffffffffffffffff1673ffffffffffffffffffffffffffffffffffffffff16815260200190815260200160002054905087811015611416576040517f08c379a000000000000000000000000000000000000000000000000000000000815260040161140d90612fb7565b60405180910390fd5b87816114229190612f11565b600260008c73ffffffffffffffffffffffffffffffffffffffff1673ffffffffffffffffffffffffffffffffffffffff1681526020019081526020016000208190555087600260008b73ffffffffffffffffffffffffffffffffffffffff1673ffffffffffffffffffffffffffffffffffffffff16815260200190815260200160002060008282546114b49190612fd7565b925050819055508873ffffffffffffffffffffffffffffffffffffffff168a73ffffffffffffffffffffffffffffffffffffffff167fddf252ad1be2c89b69c2b068fc378daa952ba7f163c4a11628f55a4df523b3ef8a6040516115189190612967565b60405180910390a3600192505050979650505050505050565b6115396120d6565b73ffffffffffffffffffffffffffffffffffffffff163373ffffffffffffffffffffffffffffffffffffffff16146115a6576040517f08c379a000000000000000000000000000000000000000000000000000000000815260040161159d90612e30565b60405180910390fd5b600073ffffffffffffffffffffffffffffffffffffffff168173ffffffffffffffffffffffffffffffffffffffff161415611616576040517f08c379a000000000000000000000000000000000000000000000000000000000815260040161160d906132e1565b60405180910390fd5b80600b60006101000a81548173ffffffffffffffffffffffffffffffffffffffff021916908373ffffffffffffffffffffffffffffffffffffffff160217905550600554426116659190612fd7565b600c8190555050565b60055481565b60026020528060005260406000206000915090505481565b600d6020528060005260406000206000915090505481565b600781815481106116b457600080fd5b906000526020600020016000915054906101000a900473ffffffffffffffffffffffffffffffffffffffff1681565b600c5481565b60006116f36120d6565b905090565b600960009054906101000a900473ffffffffffffffffffffffffffffffffffffffff1681565b6001805461172b90612db2565b80601f016020809104026020016040519081016040528092919081815260200182805461175790612db2565b80156117a45780601f10611779576101008083540402835291602001916117a4565b820191906000526020600020905b81548152906001019060200180831161178757829003601f168201915b505050505081565b6000600660003373ffffffffffffffffffffffffffffffffffffffff1673ffffffffffffffffffffffffffffffffffffffff16815260200190815260200160002060009054906101000a900460ff1661183a576040517f08c379a00000000000000000000000000000000000000000000000000000000081526004016118319061315f565b60405180910390fd5b600073ffffffffffffffffffffffffffffffffffffffff168373ffffffffffffffffffffffffffffffffffffffff1614156118aa576040517f08c379a00000000000000000000000000000000000000000000000000000000081526004016118a1906132e1565b60405180910390fd5b6118b4838361260c565b6001905092915050565b6060600780548060200260200160405190810160405280929190818152602001828054801561194257602002820191906000526020600020905b8160009054906101000a900473ffffffffffffffffffffffffffffffffffffffff1673ffffffffffffffffffffffffffffffffffffffff16815260200190600101908083116118f8575b5050505050905090565b60008073ffffffffffffffffffffffffffffffffffffffff168373ffffffffffffffffffffffffffffffffffffffff161415806119b557503073ffffffffffffffffffffffffffffffffffffffff168373ffffffffffffffffffffffffffffffffffffffff1614155b6119be57600080fd5b6000600260003373ffffffffffffffffffffffffffffffffffffffff1673ffffffffffffffffffffffffffffffffffffffff16815260200190815260200160002054905082811015611a45576040517f08c379a0000000000000000000000000000000000000000000000000000000008152600401611a3c90612fb7565b60405180910390fd5b8281611a519190612f11565b600260003373ffffffffffffffffffffffffffffffffffffffff1673ffffffffffffffffffffffffffffffffffffffff1681526020019081526020016000208190555082600260008673ffffffffffffffffffffffffffffffffffffffff1673ffffffffffffffffffffffffffffffffffffffff1681526020019081526020016000206000828254611ae39190612fd7565b925050819055508373ffffffffffffffffffffffffffffffffffffffff163373ffffffffffffffffffffffffffffffffffffffff167fddf252ad1be2c89b69c2b068fc378daa952ba7f163c4a11628f55a4df523b3ef85604051611b479190612967565b60405180910390a3600191505092915050565b60066020528060005260406000206000915054906101000a900460ff1681565b600a5481565b600083600e60003373ffffffffffffffffffffffffffffffffffffffff1673ffffffffffffffffffffffffffffffffffffffff16815260200190815260200160002060008773ffffffffffffffffffffffffffffffffffffffff1673ffffffffffffffffffffffffffffffffffffffff168152602001908152602001600020819055508473ffffffffffffffffffffffffffffffffffffffff163373ffffffffffffffffffffffffffffffffffffffff167f8c5be1e5ebec7d5bd14f71427d1e84f3dd0314c0f7b2291e5b200ac8c7c3b92586604051611c609190612967565b60405180910390a38473ffffffffffffffffffffffffffffffffffffffff1662ba451f338686866040518563ffffffff1660e01b8152600401611ca6949392919061307a565b6020604051808303816000875af1158015611cc5573d6000803e3d6000fd5b505050506040513d601f19601f82011682018060405250810190611ce991906130e6565b9050949350505050565b611cfb6120d6565b73ffffffffffffffffffffffffffffffffffffffff163373ffffffffffffffffffffffffffffffffffffffff1614611d68576040517f08c379a0000000000000000000000000000000000000000000000000000000008152600401611d5f90612e30565b60405180910390fd5b6000600660008373ffffffffffffffffffffffffffffffffffffffff1673ffffffffffffffffffffffffffffffffffffffff16815260200190815260200160002060006101000a81548160ff02191690831515021790555050565b83421115611e06576040517f08c379a0000000000000000000000000000000000000000000000000000000008152600401611dfd906131cb565b60405180910390fd5b60007f6e71edae12b1b97f4d1f60370fef10105fa2faae0126114a169c64845d6126c9888888600d60008d73ffffffffffffffffffffffffffffffffffffffff1673ffffffffffffffffffffffffffffffffffffffff1681526020019081526020016000206000815480929190611e7c906131eb565b9190505589604051602001611e9696959493929190613234565b604051602081830303815290604052805190602001209050611ebb88828686866123e0565b80611ecf5750611ece88828686866124f6565b5b611ed857600080fd5b85600e60008a73ffffffffffffffffffffffffffffffffffffffff1673ffffffffffffffffffffffffffffffffffffffff16815260200190815260200160002060008973ffffffffffffffffffffffffffffffffffffffff1673ffffffffffffffffffffffffffffffffffffffff168152602001908152602001600020819055508673ffffffffffffffffffffffffffffffffffffffff168873ffffffffffffffffffffffffffffffffffffffff167f8c5be1e5ebec7d5bd14f71427d1e84f3dd0314c0f7b2291e5b200ac8c7c3b92588604051611fb69190612967565b60405180910390a35050505050505050565b611fd06120d6565b73ffffffffffffffffffffffffffffffffffffffff163373ffffffffffffffffffffffffffffffffffffffff161461203d576040517f08c379a000000000000000000000000000000000000000000000000000000000815260040161203490612e30565b60405180910390fd5b600c5442101561204c57600080fd5b600b60009054906101000a900473ffffffffffffffffffffffffffffffffffffffff16600860006101000a81548173ffffffffffffffffffffffffffffffffffffffff021916908373ffffffffffffffffffffffffffffffffffffffff160217905550565b600e602052816000526040600020602052806000526040600020600091509150505481565b6000600c54421061210b57600b60009054906101000a900473ffffffffffffffffffffffffffffffffffffffff169050612131565b600860009054906101000a900473ffffffffffffffffffffffffffffffffffffffff1690505b90565b600860009054906101000a900473ffffffffffffffffffffffffffffffffffffffff1681565b6121626120d6565b73ffffffffffffffffffffffffffffffffffffffff163373ffffffffffffffffffffffffffffffffffffffff16146121cf576040517f08c379a00000000000000000000000000000000000000000000000000000000081526004016121c690612e30565b60405180910390fd5b600073ffffffffffffffffffffffffffffffffffffffff168173ffffffffffffffffffffffffffffffffffffffff16141561223f576040517f08c379a0000000000000000000000000000000000000000000000000000000008152600401612236906132e1565b60405180910390fd5b80600960006101000a81548173ffffffffffffffffffffffffffffffffffffffff021916908373ffffffffffffffffffffffffffffffffffffffff1602179055506005544261228e9190612fd7565b600a8190555050565b600073ffffffffffffffffffffffffffffffffffffffff168273ffffffffffffffffffffffffffffffffffffffff161415612307576040517f08c379a00000000000000000000000000000000000000000000000000000000081526004016122fe9061334d565b60405180910390fd5b80600360008282546123199190612fd7565b9250508190555080600260008473ffffffffffffffffffffffffffffffffffffffff1673ffffffffffffffffffffffffffffffffffffffff168152602001908152602001600020600082825461236f9190612fd7565b925050819055508173ffffffffffffffffffffffffffffffffffffffff16600073ffffffffffffffffffffffffffffffffffffffff167fddf252ad1be2c89b69c2b068fc378daa952ba7f163c4a11628f55a4df523b3ef836040516123d49190612967565b60405180910390a35050565b6000807f0000000000000000000000000000000000000000000000000000000000000000866040516020016124169291906133e5565b604051602081830303815290604052805190602001209050600060018287878760405160008152602001604052604051612453949392919061341c565b6020604051602081039080840390855afa158015612475573d6000803e3d6000fd5b505050602060405103519050600073ffffffffffffffffffffffffffffffffffffffff168173ffffffffffffffffffffffffffffffffffffffff16141580156124e957508773ffffffffffffffffffffffffffffffffffffffff168173ffffffffffffffffffffffffffffffffffffffff16145b9250505095945050505050565b6000807f00000000000000000000000000000000000000000000000000000000000000008660405160200161252c9291906134ad565b604051602081830303815290604052805190602001209050600060018287878760405160008152602001604052604051612569949392919061341c565b6020604051602081039080840390855afa15801561258b573d6000803e3d6000fd5b505050602060405103519050600073ffffffffffffffffffffffffffffffffffffffff168173ffffffffffffffffffffffffffffffffffffffff16141580156125ff57508773ffffffffffffffffffffffffffffffffffffffff168173ffffffffffffffffffffffffffffffffffffffff16145b9250505095945050505050565b600073ffffffffffffffffffffffffffffffffffffffff168273ffffffffffffffffffffffffffffffffffffffff16141561267c576040517f08c379a000000000000000000000000000000000000000000000000000000000815260040161267390613556565b60405180910390fd5b80600260008473ffffffffffffffffffffffffffffffffffffffff1673ffffffffffffffffffffffffffffffffffffffff16815260200190815260200160002060008282546126cb9190612f11565b9250508190555080600360008282546126e49190612f11565b92505081905550600073ffffffffffffffffffffffffffffffffffffffff168273ffffffffffffffffffffffffffffffffffffffff167fddf252ad1be2c89b69c2b068fc378daa952ba7f163c4a11628f55a4df523b3ef836040516127499190612967565b60405180910390a35050565b6000819050919050565b61276881612755565b82525050565b6000602082019050612783600083018461275f565b92915050565b600081519050919050565b600082825260208201905092915050565b60005b838110156127c35780820151818401526020810190506127a8565b838111156127d2576000848401525b50505050565b6000601f19601f8301169050919050565b60006127f482612789565b6127fe8185612794565b935061280e8185602086016127a5565b612817816127d8565b840191505092915050565b6000602082019050818103600083015261283c81846127e9565b905092915050565b600080fd5b600080fd5b600073ffffffffffffffffffffffffffffffffffffffff82169050919050565b60006128798261284e565b9050919050565b6128898161286e565b811461289457600080fd5b50565b6000813590506128a681612880565b92915050565b6000819050919050565b6128bf816128ac565b81146128ca57600080fd5b50565b6000813590506128dc816128b6565b92915050565b600080604083850312156128f9576128f8612844565b5b600061290785828601612897565b9250506020612918858286016128cd565b9150509250929050565b60008115159050919050565b61293781612922565b82525050565b6000602082019050612952600083018461292e565b92915050565b612961816128ac565b82525050565b600060208201905061297c6000830184612958565b92915050565b60008060006060848603121561299b5761299a612844565b5b60006129a986828701612897565b93505060206129ba86828701612897565b92505060406129cb868287016128cd565b9150509250925092565b600060ff82169050919050565b6129eb816129d5565b82525050565b6000602082019050612a0660008301846129e2565b92915050565b600080fd5b600080fd5b600080fd5b60008083601f840112612a3157612a30612a0c565b5b8235905067ffffffffffffffff811115612a4e57612a4d612a11565b5b602083019150836001820283011115612a6a57612a69612a16565b5b9250929050565b60008060008060608587031215612a8b57612a8a612844565b5b6000612a9987828801612897565b9450506020612aaa878288016128cd565b935050604085013567ffffffffffffffff811115612acb57612aca612849565b5b612ad787828801612a1b565b925092505092959194509250565b612aee8161286e565b82525050565b6000602082019050612b096000830184612ae5565b92915050565b612b18816129d5565b8114612b2357600080fd5b50565b600081359050612b3581612b0f565b92915050565b612b4481612755565b8114612b4f57600080fd5b50565b600081359050612b6181612b3b565b92915050565b600080600080600080600060e0888a031215612b8657612b85612844565b5b6000612b948a828b01612897565b9750506020612ba58a828b01612897565b9650506040612bb68a828b016128cd565b9550506060612bc78a828b016128cd565b9450506080612bd88a828b01612b26565b93505060a0612be98a828b01612b52565b92505060c0612bfa8a828b01612b52565b91505092959891949750929550565b600060208284031215612c1f57612c1e612844565b5b6000612c2d84828501612897565b91505092915050565b600060208284031215612c4c57612c4b612844565b5b6000612c5a848285016128cd565b91505092915050565b600081519050919050565b600082825260208201905092915050565b6000819050602082019050919050565b612c988161286e565b82525050565b6000612caa8383612c8f565b60208301905092915050565b6000602082019050919050565b6000612cce82612c63565b612cd88185612c6e565b9350612ce383612c7f565b8060005b83811015612d14578151612cfb8882612c9e565b9750612d0683612cb6565b925050600181019050612ce7565b5085935050505092915050565b60006020820190508181036000830152612d3b8184612cc3565b905092915050565b60008060408385031215612d5a57612d59612844565b5b6000612d6885828601612897565b9250506020612d7985828601612897565b9150509250929050565b7f4e487b7100000000000000000000000000000000000000000000000000000000600052602260045260246000fd5b60006002820490506001821680612dca57607f821691505b60208210811415612dde57612ddd612d83565b5b50919050565b7f416e7973776170563345524332303a20464f5242494444454e00000000000000600082015250565b6000612e1a601983612794565b9150612e2582612de4565b602082019050919050565b60006020820190508181036000830152612e4981612e0d565b9050919050565b7f416e7973776170563345524332303a207265717565737420657863656564732060008201527f616c6c6f77616e63650000000000000000000000000000000000000000000000602082015250565b6000612eac602983612794565b9150612eb782612e50565b604082019050919050565b60006020820190508181036000830152612edb81612e9f565b9050919050565b7f4e487b7100000000000000000000000000000000000000000000000000000000600052601160045260246000fd5b6000612f1c826128ac565b9150612f27836128ac565b925082821015612f3a57612f39612ee2565b5b828203905092915050565b7f416e7973776170563345524332303a207472616e7366657220616d6f756e742060008201527f657863656564732062616c616e63650000000000000000000000000000000000602082015250565b6000612fa1602f83612794565b9150612fac82612f45565b604082019050919050565b60006020820190508181036000830152612fd081612f94565b9050919050565b6000612fe2826128ac565b9150612fed836128ac565b9250827fffffffffffffffffffffffffffffffffffffffffffffffffffffffffffffffff0382111561302257613021612ee2565b5b828201905092915050565b600082825260208201905092915050565b82818337600083830152505050565b6000613059838561302d565b935061306683858461303e565b61306f836127d8565b840190509392505050565b600060608201905061308f6000830187612ae5565b61309c6020830186612958565b81810360408301526130af81848661304d565b905095945050505050565b6130c381612922565b81146130ce57600080fd5b50565b6000815190506130e0816130ba565b92915050565b6000602082840312156130fc576130fb612844565b5b600061310a848285016130d1565b91505092915050565b7f416e7973776170563445524332303a20464f5242494444454e00000000000000600082015250565b6000613149601983612794565b915061315482613113565b602082019050919050565b600060208201905081810360008301526131788161313c565b9050919050565b7f416e7973776170563345524332303a2045787069726564207065726d69740000600082015250565b60006131b5601e83612794565b91506131c08261317f565b602082019050919050565b600060208201905081810360008301526131e4816131a8565b9050919050565b60006131f6826128ac565b91507fffffffffffffffffffffffffffffffffffffffffffffffffffffffffffffffff82141561322957613228612ee2565b5b600182019050919050565b600060c082019050613249600083018961275f565b6132566020830188612ae5565b6132636040830187612ae5565b6132706060830186612958565b61327d6080830185612958565b61328a60a0830184612958565b979650505050505050565b7f416e7973776170563345524332303a2061646472657373283078302900000000600082015250565b60006132cb601c83612794565b91506132d682613295565b602082019050919050565b600060208201905081810360008301526132fa816132be565b9050919050565b7f45524332303a206d696e7420746f20746865207a65726f206164647265737300600082015250565b6000613337601f83612794565b915061334282613301565b602082019050919050565b600060208201905081810360008301526133668161332a565b9050919050565b600081905092915050565b7f1901000000000000000000000000000000000000000000000000000000000000600082015250565b60006133ae60028361336d565b91506133b982613378565b600282019050919050565b6000819050919050565b6133df6133da82612755565b6133c4565b82525050565b60006133f0826133a1565b91506133fc82856133ce565b60208201915061340c82846133ce565b6020820191508190509392505050565b6000608082019050613431600083018761275f565b61343e60208301866129e2565b61344b604083018561275f565b613458606083018461275f565b95945050505050565b7f19457468657265756d205369676e6564204d6573736167653a0a333200000000600082015250565b6000613497601c8361336d565b91506134a282613461565b601c82019050919050565b60006134b88261348a565b91506134c482856133ce565b6020820191506134d482846133ce565b6020820191508190509392505050565b7f45524332303a206275726e2066726f6d20746865207a65726f2061646472657360008201527f7300000000000000000000000000000000000000000000000000000000000000602082015250565b6000613540602183612794565b915061354b826134e4565b604082019050919050565b6000602082019050818103600083015261356f81613533565b905091905056fea2646970667358221220d808c2bc2dba35198464d40db25b1063c577d356348a794ab0aa5e0d03c69ab664736f6c634300080b0033",
					"opcodes": "PUSH1 0xC0 PUSH1 0x40 MSTORE PUSH3 0x2A300 PUSH1 0x5 SSTORE CALLVALUE DUP1 ISZERO PUSH3 0x18 JUMPI PUSH1 0x0 DUP1 REVERT JUMPDEST POP PUSH1 0x40 MLOAD PUSH3 0x3D2B CODESIZE SUB DUP1 PUSH3 0x3D2B DUP4 CODECOPY DUP2 DUP2 ADD PUSH1 0x40 MSTORE DUP2 ADD SWAP1 PUSH3 0x3E SWAP2 SWAP1 PUSH3 0x4CE JUMP JUMPDEST DUP4 PUSH1 0x0 SWAP1 DUP1 MLOAD SWAP1 PUSH1 0x20 ADD SWAP1 PUSH3 0x56 SWAP3 SWAP2 SWAP1 PUSH3 0x1DE JUMP JUMPDEST POP DUP3 PUSH1 0x1 SWAP1 DUP1 MLOAD SWAP1 PUSH1 0x20 ADD SWAP1 PUSH3 0x6F SWAP3 SWAP2 SWAP1 PUSH3 0x1DE JUMP JUMPDEST POP DUP2 PUSH1 0xFF AND PUSH1 0x80 DUP2 PUSH1 0xFF AND DUP2 MSTORE POP POP PUSH1 0x1 PUSH1 0x4 PUSH1 0x0 PUSH2 0x100 EXP DUP2 SLOAD DUP2 PUSH1 0xFF MUL NOT AND SWAP1 DUP4 ISZERO ISZERO MUL OR SWAP1 SSTORE POP DUP1 PUSH1 0x8 PUSH1 0x0 PUSH2 0x100 EXP DUP2 SLOAD DUP2 PUSH20 0xFFFFFFFFFFFFFFFFFFFFFFFFFFFFFFFFFFFFFFFF MUL NOT AND SWAP1 DUP4 PUSH20 0xFFFFFFFFFFFFFFFFFFFFFFFFFFFFFFFFFFFFFFFF AND MUL OR SWAP1 SSTORE POP DUP1 PUSH1 0xB PUSH1 0x0 PUSH2 0x100 EXP DUP2 SLOAD DUP2 PUSH20 0xFFFFFFFFFFFFFFFFFFFFFFFFFFFFFFFFFFFFFFFF MUL NOT AND SWAP1 DUP4 PUSH20 0xFFFFFFFFFFFFFFFFFFFFFFFFFFFFFFFFFFFFFFFF AND MUL OR SWAP1 SSTORE POP TIMESTAMP PUSH1 0xC DUP2 SWAP1 SSTORE POP PUSH1 0x0 CHAINID SWAP1 POP PUSH32 0x8B73C3C69BB8FE3D512ECC4CF759CC79239F7B179B0FFACAA9A75D522B39400F PUSH1 0x0 PUSH1 0x40 MLOAD PUSH3 0x159 SWAP2 SWAP1 PUSH3 0x68E JUMP JUMPDEST PUSH1 0x40 MLOAD DUP1 SWAP2 SUB SWAP1 KECCAK256 PUSH1 0x40 MLOAD DUP1 PUSH1 0x40 ADD PUSH1 0x40 MSTORE DUP1 PUSH1 0x1 DUP2 MSTORE PUSH1 0x20 ADD PUSH32 0x3100000000000000000000000000000000000000000000000000000000000000 DUP2 MSTORE POP DUP1 MLOAD SWAP1 PUSH1 0x20 ADD KECCAK256 DUP4 ADDRESS PUSH1 0x40 MLOAD PUSH1 0x20 ADD PUSH3 0x1B6 SWAP6 SWAP5 SWAP4 SWAP3 SWAP2 SWAP1 PUSH3 0x6EE JUMP JUMPDEST PUSH1 0x40 MLOAD PUSH1 0x20 DUP2 DUP4 SUB SUB DUP2 MSTORE SWAP1 PUSH1 0x40 MSTORE DUP1 MLOAD SWAP1 PUSH1 0x20 ADD KECCAK256 PUSH1 0xA0 DUP2 DUP2 MSTORE POP POP POP POP POP POP POP PUSH3 0x74B JUMP JUMPDEST DUP3 DUP1 SLOAD PUSH3 0x1EC SWAP1 PUSH3 0x5AD JUMP JUMPDEST SWAP1 PUSH1 0x0 MSTORE PUSH1 0x20 PUSH1 0x0 KECCAK256 SWAP1 PUSH1 0x1F ADD PUSH1 0x20 SWAP1 DIV DUP2 ADD SWAP3 DUP3 PUSH3 0x210 JUMPI PUSH1 0x0 DUP6 SSTORE PUSH3 0x25C JUMP JUMPDEST DUP3 PUSH1 0x1F LT PUSH3 0x22B JUMPI DUP1 MLOAD PUSH1 0xFF NOT AND DUP4 DUP1 ADD OR DUP6 SSTORE PUSH3 0x25C JUMP JUMPDEST DUP3 DUP1 ADD PUSH1 0x1 ADD DUP6 SSTORE DUP3 ISZERO PUSH3 0x25C JUMPI SWAP2 DUP3 ADD JUMPDEST DUP3 DUP2 GT ISZERO PUSH3 0x25B JUMPI DUP3 MLOAD DUP3 SSTORE SWAP2 PUSH1 0x20 ADD SWAP2 SWAP1 PUSH1 0x1 ADD SWAP1 PUSH3 0x23E JUMP JUMPDEST JUMPDEST POP SWAP1 POP PUSH3 0x26B SWAP2 SWAP1 PUSH3 0x26F JUMP JUMPDEST POP SWAP1 JUMP JUMPDEST JUMPDEST DUP1 DUP3 GT ISZERO PUSH3 0x28A JUMPI PUSH1 0x0 DUP2 PUSH1 0x0 SWAP1 SSTORE POP PUSH1 0x1 ADD PUSH3 0x270 JUMP JUMPDEST POP SWAP1 JUMP JUMPDEST PUSH1 0x0 PUSH1 0x40 MLOAD SWAP1 POP SWAP1 JUMP JUMPDEST PUSH1 0x0 DUP1 REVERT JUMPDEST PUSH1 0x0 DUP1 REVERT JUMPDEST PUSH1 0x0 DUP1 REVERT JUMPDEST PUSH1 0x0 DUP1 REVERT JUMPDEST PUSH1 0x0 PUSH1 0x1F NOT PUSH1 0x1F DUP4 ADD AND SWAP1 POP SWAP2 SWAP1 POP JUMP JUMPDEST PUSH32 0x4E487B7100000000000000000000000000000000000000000000000000000000 PUSH1 0x0 MSTORE PUSH1 0x41 PUSH1 0x4 MSTORE PUSH1 0x24 PUSH1 0x0 REVERT JUMPDEST PUSH3 0x2F7 DUP3 PUSH3 0x2AC JUMP JUMPDEST DUP2 ADD DUP2 DUP2 LT PUSH8 0xFFFFFFFFFFFFFFFF DUP3 GT OR ISZERO PUSH3 0x319 JUMPI PUSH3 0x318 PUSH3 0x2BD JUMP JUMPDEST JUMPDEST DUP1 PUSH1 0x40 MSTORE POP POP POP JUMP JUMPDEST PUSH1 0x0 PUSH3 0x32E PUSH3 0x28E JUMP JUMPDEST SWAP1 POP PUSH3 0x33C DUP3 DUP3 PUSH3 0x2EC JUMP JUMPDEST SWAP2 SWAP1 POP JUMP JUMPDEST PUSH1 0x0 PUSH8 0xFFFFFFFFFFFFFFFF DUP3 GT ISZERO PUSH3 0x35F JUMPI PUSH3 0x35E PUSH3 0x2BD JUMP JUMPDEST JUMPDEST PUSH3 0x36A DUP3 PUSH3 0x2AC JUMP JUMPDEST SWAP1 POP PUSH1 0x20 DUP2 ADD SWAP1 POP SWAP2 SWAP1 POP JUMP JUMPDEST PUSH1 0x0 JUMPDEST DUP4 DUP2 LT ISZERO PUSH3 0x397 JUMPI DUP1 DUP3 ADD MLOAD DUP2 DUP5 ADD MSTORE PUSH1 0x20 DUP2 ADD SWAP1 POP PUSH3 0x37A JUMP JUMPDEST DUP4 DUP2 GT ISZERO PUSH3 0x3A7 JUMPI PUSH1 0x0 DUP5 DUP5 ADD MSTORE JUMPDEST POP POP POP POP JUMP JUMPDEST PUSH1 0x0 PUSH3 0x3C4 PUSH3 0x3BE DUP5 PUSH3 0x341 JUMP JUMPDEST PUSH3 0x322 JUMP JUMPDEST SWAP1 POP DUP3 DUP2 MSTORE PUSH1 0x20 DUP2 ADD DUP5 DUP5 DUP5 ADD GT ISZERO PUSH3 0x3E3 JUMPI PUSH3 0x3E2 PUSH3 0x2A7 JUMP JUMPDEST JUMPDEST PUSH3 0x3F0 DUP5 DUP3 DUP6 PUSH3 0x377 JUMP JUMPDEST POP SWAP4 SWAP3 POP POP POP JUMP JUMPDEST PUSH1 0x0 DUP3 PUSH1 0x1F DUP4 ADD SLT PUSH3 0x410 JUMPI PUSH3 0x40F PUSH3 0x2A2 JUMP JUMPDEST JUMPDEST DUP2 MLOAD PUSH3 0x422 DUP5 DUP3 PUSH1 0x20 DUP7 ADD PUSH3 0x3AD JUMP JUMPDEST SWAP2 POP POP SWAP3 SWAP2 POP POP JUMP JUMPDEST PUSH1 0x0 PUSH1 0xFF DUP3 AND SWAP1 POP SWAP2 SWAP1 POP JUMP JUMPDEST PUSH3 0x443 DUP2 PUSH3 0x42B JUMP JUMPDEST DUP2 EQ PUSH3 0x44F JUMPI PUSH1 0x0 DUP1 REVERT JUMPDEST POP JUMP JUMPDEST PUSH1 0x0 DUP2 MLOAD SWAP1 POP PUSH3 0x463 DUP2 PUSH3 0x438 JUMP JUMPDEST SWAP3 SWAP2 POP POP JUMP JUMPDEST PUSH1 0x0 PUSH20 0xFFFFFFFFFFFFFFFFFFFFFFFFFFFFFFFFFFFFFFFF DUP3 AND SWAP1 POP SWAP2 SWAP1 POP JUMP JUMPDEST PUSH1 0x0 PUSH3 0x496 DUP3 PUSH3 0x469 JUMP JUMPDEST SWAP1 POP SWAP2 SWAP1 POP JUMP JUMPDEST PUSH3 0x4A8 DUP2 PUSH3 0x489 JUMP JUMPDEST DUP2 EQ PUSH3 0x4B4 JUMPI PUSH1 0x0 DUP1 REVERT JUMPDEST POP JUMP JUMPDEST PUSH1 0x0 DUP2 MLOAD SWAP1 POP PUSH3 0x4C8 DUP2 PUSH3 0x49D JUMP JUMPDEST SWAP3 SWAP2 POP POP JUMP JUMPDEST PUSH1 0x0 DUP1 PUSH1 0x0 DUP1 PUSH1 0x80 DUP6 DUP8 SUB SLT ISZERO PUSH3 0x4EB JUMPI PUSH3 0x4EA PUSH3 0x298 JUMP JUMPDEST JUMPDEST PUSH1 0x0 DUP6 ADD MLOAD PUSH8 0xFFFFFFFFFFFFFFFF DUP2 GT ISZERO PUSH3 0x50C JUMPI PUSH3 0x50B PUSH3 0x29D JUMP JUMPDEST JUMPDEST PUSH3 0x51A DUP8 DUP3 DUP9 ADD PUSH3 0x3F8 JUMP JUMPDEST SWAP5 POP POP PUSH1 0x20 DUP6 ADD MLOAD PUSH8 0xFFFFFFFFFFFFFFFF DUP2 GT ISZERO PUSH3 0x53E JUMPI PUSH3 0x53D PUSH3 0x29D JUMP JUMPDEST JUMPDEST PUSH3 0x54C DUP8 DUP3 DUP9 ADD PUSH3 0x3F8 JUMP JUMPDEST SWAP4 POP POP PUSH1 0x40 PUSH3 0x55F DUP8 DUP3 DUP9 ADD PUSH3 0x452 JUMP JUMPDEST SWAP3 POP POP PUSH1 0x60 PUSH3 0x572 DUP8 DUP3 DUP9 ADD PUSH3 0x4B7 JUMP JUMPDEST SWAP2 POP POP SWAP3 SWAP6 SWAP2 SWAP5 POP SWAP3 POP JUMP JUMPDEST PUSH32 0x4E487B7100000000000000000000000000000000000000000000000000000000 PUSH1 0x0 MSTORE PUSH1 0x22 PUSH1 0x4 MSTORE PUSH1 0x24 PUSH1 0x0 REVERT JUMPDEST PUSH1 0x0 PUSH1 0x2 DUP3 DIV SWAP1 POP PUSH1 0x1 DUP3 AND DUP1 PUSH3 0x5C6 JUMPI PUSH1 0x7F DUP3 AND SWAP2 POP JUMPDEST PUSH1 0x20 DUP3 LT DUP2 EQ ISZERO PUSH3 0x5DD JUMPI PUSH3 0x5DC PUSH3 0x57E JUMP JUMPDEST JUMPDEST POP SWAP2 SWAP1 POP JUMP JUMPDEST PUSH1 0x0 DUP2 SWAP1 POP SWAP3 SWAP2 POP POP JUMP JUMPDEST PUSH1 0x0 DUP2 SWAP1 POP DUP2 PUSH1 0x0 MSTORE PUSH1 0x20 PUSH1 0x0 KECCAK256 SWAP1 POP SWAP2 SWAP1 POP JUMP JUMPDEST PUSH1 0x0 DUP2 SLOAD PUSH3 0x612 DUP2 PUSH3 0x5AD JUMP JUMPDEST PUSH3 0x61E DUP2 DUP7 PUSH3 0x5E3 JUMP JUMPDEST SWAP5 POP PUSH1 0x1 DUP3 AND PUSH1 0x0 DUP2 EQ PUSH3 0x63C JUMPI PUSH1 0x1 DUP2 EQ PUSH3 0x64E JUMPI PUSH3 0x685 JUMP JUMPDEST PUSH1 0xFF NOT DUP4 AND DUP7 MSTORE DUP2 DUP7 ADD SWAP4 POP PUSH3 0x685 JUMP JUMPDEST PUSH3 0x659 DUP6 PUSH3 0x5EE JUMP JUMPDEST PUSH1 0x0 JUMPDEST DUP4 DUP2 LT ISZERO PUSH3 0x67D JUMPI DUP2 SLOAD DUP2 DUP10 ADD MSTORE PUSH1 0x1 DUP3 ADD SWAP2 POP PUSH1 0x20 DUP2 ADD SWAP1 POP PUSH3 0x65C JUMP JUMPDEST DUP4 DUP9 ADD SWAP6 POP POP POP JUMPDEST POP POP POP SWAP3 SWAP2 POP POP JUMP JUMPDEST PUSH1 0x0 PUSH3 0x69C DUP3 DUP5 PUSH3 0x603 JUMP JUMPDEST SWAP2 POP DUP2 SWAP1 POP SWAP3 SWAP2 POP POP JUMP JUMPDEST PUSH1 0x0 DUP2 SWAP1 POP SWAP2 SWAP1 POP JUMP JUMPDEST PUSH3 0x6BC DUP2 PUSH3 0x6A7 JUMP JUMPDEST DUP3 MSTORE POP POP JUMP JUMPDEST PUSH1 0x0 DUP2 SWAP1 POP SWAP2 SWAP1 POP JUMP JUMPDEST PUSH3 0x6D7 DUP2 PUSH3 0x6C2 JUMP JUMPDEST DUP3 MSTORE POP POP JUMP JUMPDEST PUSH3 0x6E8 DUP2 PUSH3 0x489 JUMP JUMPDEST DUP3 MSTORE POP POP JUMP JUMPDEST PUSH1 0x0 PUSH1 0xA0 DUP3 ADD SWAP1 POP PUSH3 0x705 PUSH1 0x0 DUP4 ADD DUP9 PUSH3 0x6B1 JUMP JUMPDEST PUSH3 0x714 PUSH1 0x20 DUP4 ADD DUP8 PUSH3 0x6B1 JUMP JUMPDEST PUSH3 0x723 PUSH1 0x40 DUP4 ADD DUP7 PUSH3 0x6B1 JUMP JUMPDEST PUSH3 0x732 PUSH1 0x60 DUP4 ADD DUP6 PUSH3 0x6CC JUMP JUMPDEST PUSH3 0x741 PUSH1 0x80 DUP4 ADD DUP5 PUSH3 0x6DD JUMP JUMPDEST SWAP7 SWAP6 POP POP POP POP POP POP JUMP JUMPDEST PUSH1 0x80 MLOAD PUSH1 0xA0 MLOAD PUSH2 0x35AC PUSH3 0x77F PUSH1 0x0 CODECOPY PUSH1 0x0 DUP2 DUP2 PUSH2 0xE8D ADD MSTORE DUP2 DUP2 PUSH2 0x23E5 ADD MSTORE PUSH2 0x24FB ADD MSTORE PUSH1 0x0 PUSH2 0xE69 ADD MSTORE PUSH2 0x35AC PUSH1 0x0 RETURN INVALID PUSH1 0x80 PUSH1 0x40 MSTORE CALLVALUE DUP1 ISZERO PUSH2 0x10 JUMPI PUSH1 0x0 DUP1 REVERT JUMPDEST POP PUSH1 0x4 CALLDATASIZE LT PUSH2 0x210 JUMPI PUSH1 0x0 CALLDATALOAD PUSH1 0xE0 SHR DUP1 PUSH4 0x8623EC7B GT PUSH2 0x125 JUMPI DUP1 PUSH4 0xC3081240 GT PUSH2 0xAD JUMPI DUP1 PUSH4 0xD93F2445 GT PUSH2 0x7C JUMPI DUP1 PUSH4 0xD93F2445 EQ PUSH2 0x657 JUMPI DUP1 PUSH4 0xDD62ED3E EQ PUSH2 0x661 JUMPI DUP1 PUSH4 0xF75C2664 EQ PUSH2 0x691 JUMPI DUP1 PUSH4 0xFBFA77CF EQ PUSH2 0x6AF JUMPI DUP1 PUSH4 0xFCA3B5AA EQ PUSH2 0x6CD JUMPI PUSH2 0x210 JUMP JUMPDEST DUP1 PUSH4 0xC3081240 EQ PUSH2 0x5D1 JUMPI DUP1 PUSH4 0xCAE9CA51 EQ PUSH2 0x5EF JUMPI DUP1 PUSH4 0xCFBD4885 EQ PUSH2 0x61F JUMPI DUP1 PUSH4 0xD505ACCF EQ PUSH2 0x63B JUMPI PUSH2 0x210 JUMP JUMPDEST DUP1 PUSH4 0x95D89B41 GT PUSH2 0xF4 JUMPI DUP1 PUSH4 0x95D89B41 EQ PUSH2 0x505 JUMPI DUP1 PUSH4 0x9DC29FAC EQ PUSH2 0x523 JUMPI DUP1 PUSH4 0xA045442C EQ PUSH2 0x553 JUMPI DUP1 PUSH4 0xA9059CBB EQ PUSH2 0x571 JUMPI DUP1 PUSH4 0xAA271E1A EQ PUSH2 0x5A1 JUMPI PUSH2 0x210 JUMP JUMPDEST DUP1 PUSH4 0x8623EC7B EQ PUSH2 0x47B JUMPI DUP1 PUSH4 0x87689E28 EQ PUSH2 0x4AB JUMPI DUP1 PUSH4 0x8DA5CB5B EQ PUSH2 0x4C9 JUMPI DUP1 PUSH4 0x91C5DF49 EQ PUSH2 0x4E7 JUMPI PUSH2 0x210 JUMP JUMPDEST DUP1 PUSH4 0x3644E515 GT PUSH2 0x1A8 JUMPI DUP1 PUSH4 0x605629D6 GT PUSH2 0x177 JUMPI DUP1 PUSH4 0x605629D6 EQ PUSH2 0x3B1 JUMPI DUP1 PUSH4 0x6817031B EQ PUSH2 0x3E1 JUMPI DUP1 PUSH4 0x6A42B8F8 EQ PUSH2 0x3FD JUMPI DUP1 PUSH4 0x70A08231 EQ PUSH2 0x41B JUMPI DUP1 PUSH4 0x7ECEBE00 EQ PUSH2 0x44B JUMPI PUSH2 0x210 JUMP JUMPDEST DUP1 PUSH4 0x3644E515 EQ PUSH2 0x315 JUMPI DUP1 PUSH4 0x4000AEA0 EQ PUSH2 0x333 JUMPI DUP1 PUSH4 0x40C10F19 EQ PUSH2 0x363 JUMPI DUP1 PUSH4 0x52113BA7 EQ PUSH2 0x393 JUMPI PUSH2 0x210 JUMP JUMPDEST DUP1 PUSH4 0x18160DDD GT PUSH2 0x1E4 JUMPI DUP1 PUSH4 0x18160DDD EQ PUSH2 0x28B JUMPI DUP1 PUSH4 0x23B872DD EQ PUSH2 0x2A9 JUMPI DUP1 PUSH4 0x30ADF81F EQ PUSH2 0x2D9 JUMPI DUP1 PUSH4 0x313CE567 EQ PUSH2 0x2F7 JUMPI PUSH2 0x210 JUMP JUMPDEST DUP1 PUSH3 0xBF26F4 EQ PUSH2 0x215 JUMPI DUP1 PUSH4 0x6FDDE03 EQ PUSH2 0x233 JUMPI DUP1 PUSH4 0x95EA7B3 EQ PUSH2 0x251 JUMPI DUP1 PUSH4 0xD707DF8 EQ PUSH2 0x281 JUMPI JUMPDEST PUSH1 0x0 DUP1 REVERT JUMPDEST PUSH2 0x21D PUSH2 0x6E9 JUMP JUMPDEST PUSH1 0x40 MLOAD PUSH2 0x22A SWAP2 SWAP1 PUSH2 0x276E JUMP JUMPDEST PUSH1 0x40 MLOAD DUP1 SWAP2 SUB SWAP1 RETURN JUMPDEST PUSH2 0x23B PUSH2 0x70D JUMP JUMPDEST PUSH1 0x40 MLOAD PUSH2 0x248 SWAP2 SWAP1 PUSH2 0x2822 JUMP JUMPDEST PUSH1 0x40 MLOAD DUP1 SWAP2 SUB SWAP1 RETURN JUMPDEST PUSH2 0x26B PUSH1 0x4 DUP1 CALLDATASIZE SUB DUP2 ADD SWAP1 PUSH2 0x266 SWAP2 SWAP1 PUSH2 0x28E2 JUMP JUMPDEST PUSH2 0x79B JUMP JUMPDEST PUSH1 0x40 MLOAD PUSH2 0x278 SWAP2 SWAP1 PUSH2 0x293D JUMP JUMPDEST PUSH1 0x40 MLOAD DUP1 SWAP2 SUB SWAP1 RETURN JUMPDEST PUSH2 0x289 PUSH2 0x88D JUMP JUMPDEST STOP JUMPDEST PUSH2 0x293 PUSH2 0xA12 JUMP JUMPDEST PUSH1 0x40 MLOAD PUSH2 0x2A0 SWAP2 SWAP1 PUSH2 0x2967 JUMP JUMPDEST PUSH1 0x40 MLOAD DUP1 SWAP2 SUB SWAP1 RETURN JUMPDEST PUSH2 0x2C3 PUSH1 0x4 DUP1 CALLDATASIZE SUB DUP2 ADD SWAP1 PUSH2 0x2BE SWAP2 SWAP1 PUSH2 0x2982 JUMP JUMPDEST PUSH2 0xA1C JUMP JUMPDEST PUSH1 0x40 MLOAD PUSH2 0x2D0 SWAP2 SWAP1 PUSH2 0x293D JUMP JUMPDEST PUSH1 0x40 MLOAD DUP1 SWAP2 SUB SWAP1 RETURN JUMPDEST PUSH2 0x2E1 PUSH2 0xE43 JUMP JUMPDEST PUSH1 0x40 MLOAD PUSH2 0x2EE SWAP2 SWAP1 PUSH2 0x276E JUMP JUMPDEST PUSH1 0x40 MLOAD DUP1 SWAP2 SUB SWAP1 RETURN JUMPDEST PUSH2 0x2FF PUSH2 0xE67 JUMP JUMPDEST PUSH1 0x40 MLOAD PUSH2 0x30C SWAP2 SWAP1 PUSH2 0x29F1 JUMP JUMPDEST PUSH1 0x40 MLOAD DUP1 SWAP2 SUB SWAP1 RETURN JUMPDEST PUSH2 0x31D PUSH2 0xE8B JUMP JUMPDEST PUSH1 0x40 MLOAD PUSH2 0x32A SWAP2 SWAP1 PUSH2 0x276E JUMP JUMPDEST PUSH1 0x40 MLOAD DUP1 SWAP2 SUB SWAP1 RETURN JUMPDEST PUSH2 0x34D PUSH1 0x4 DUP1 CALLDATASIZE SUB DUP2 ADD SWAP1 PUSH2 0x348 SWAP2 SWAP1 PUSH2 0x2A71 JUMP JUMPDEST PUSH2 0xEAF JUMP JUMPDEST PUSH1 0x40 MLOAD PUSH2 0x35A SWAP2 SWAP1 PUSH2 0x293D JUMP JUMPDEST PUSH1 0x40 MLOAD DUP1 SWAP2 SUB SWAP1 RETURN JUMPDEST PUSH2 0x37D PUSH1 0x4 DUP1 CALLDATASIZE SUB DUP2 ADD SWAP1 PUSH2 0x378 SWAP2 SWAP1 PUSH2 0x28E2 JUMP JUMPDEST PUSH2 0x113F JUMP JUMPDEST PUSH1 0x40 MLOAD PUSH2 0x38A SWAP2 SWAP1 PUSH2 0x293D JUMP JUMPDEST PUSH1 0x40 MLOAD DUP1 SWAP2 SUB SWAP1 RETURN JUMPDEST PUSH2 0x39B PUSH2 0x11E1 JUMP JUMPDEST PUSH1 0x40 MLOAD PUSH2 0x3A8 SWAP2 SWAP1 PUSH2 0x2AF4 JUMP JUMPDEST PUSH1 0x40 MLOAD DUP1 SWAP2 SUB SWAP1 RETURN JUMPDEST PUSH2 0x3CB PUSH1 0x4 DUP1 CALLDATASIZE SUB DUP2 ADD SWAP1 PUSH2 0x3C6 SWAP2 SWAP1 PUSH2 0x2B67 JUMP JUMPDEST PUSH2 0x1207 JUMP JUMPDEST PUSH1 0x40 MLOAD PUSH2 0x3D8 SWAP2 SWAP1 PUSH2 0x293D JUMP JUMPDEST PUSH1 0x40 MLOAD DUP1 SWAP2 SUB SWAP1 RETURN JUMPDEST PUSH2 0x3FB PUSH1 0x4 DUP1 CALLDATASIZE SUB DUP2 ADD SWAP1 PUSH2 0x3F6 SWAP2 SWAP1 PUSH2 0x2C09 JUMP JUMPDEST PUSH2 0x1531 JUMP JUMPDEST STOP JUMPDEST PUSH2 0x405 PUSH2 0x166E JUMP JUMPDEST PUSH1 0x40 MLOAD PUSH2 0x412 SWAP2 SWAP1 PUSH2 0x2967 JUMP JUMPDEST PUSH1 0x40 MLOAD DUP1 SWAP2 SUB SWAP1 RETURN JUMPDEST PUSH2 0x435 PUSH1 0x4 DUP1 CALLDATASIZE SUB DUP2 ADD SWAP1 PUSH2 0x430 SWAP2 SWAP1 PUSH2 0x2C09 JUMP JUMPDEST PUSH2 0x1674 JUMP JUMPDEST PUSH1 0x40 MLOAD PUSH2 0x442 SWAP2 SWAP1 PUSH2 0x2967 JUMP JUMPDEST PUSH1 0x40 MLOAD DUP1 SWAP2 SUB SWAP1 RETURN JUMPDEST PUSH2 0x465 PUSH1 0x4 DUP1 CALLDATASIZE SUB DUP2 ADD SWAP1 PUSH2 0x460 SWAP2 SWAP1 PUSH2 0x2C09 JUMP JUMPDEST PUSH2 0x168C JUMP JUMPDEST PUSH1 0x40 MLOAD PUSH2 0x472 SWAP2 SWAP1 PUSH2 0x2967 JUMP JUMPDEST PUSH1 0x40 MLOAD DUP1 SWAP2 SUB SWAP1 RETURN JUMPDEST PUSH2 0x495 PUSH1 0x4 DUP1 CALLDATASIZE SUB DUP2 ADD SWAP1 PUSH2 0x490 SWAP2 SWAP1 PUSH2 0x2C36 JUMP JUMPDEST PUSH2 0x16A4 JUMP JUMPDEST PUSH1 0x40 MLOAD PUSH2 0x4A2 SWAP2 SWAP1 PUSH2 0x2AF4 JUMP JUMPDEST PUSH1 0x40 MLOAD DUP1 SWAP2 SUB SWAP1 RETURN JUMPDEST PUSH2 0x4B3 PUSH2 0x16E3 JUMP JUMPDEST PUSH1 0x40 MLOAD PUSH2 0x4C0 SWAP2 SWAP1 PUSH2 0x2967 JUMP JUMPDEST PUSH1 0x40 MLOAD DUP1 SWAP2 SUB SWAP1 RETURN JUMPDEST PUSH2 0x4D1 PUSH2 0x16E9 JUMP JUMPDEST PUSH1 0x40 MLOAD PUSH2 0x4DE SWAP2 SWAP1 PUSH2 0x2AF4 JUMP JUMPDEST PUSH1 0x40 MLOAD DUP1 SWAP2 SUB SWAP1 RETURN JUMPDEST PUSH2 0x4EF PUSH2 0x16F8 JUMP JUMPDEST PUSH1 0x40 MLOAD PUSH2 0x4FC SWAP2 SWAP1 PUSH2 0x2AF4 JUMP JUMPDEST PUSH1 0x40 MLOAD DUP1 SWAP2 SUB SWAP1 RETURN JUMPDEST PUSH2 0x50D PUSH2 0x171E JUMP JUMPDEST PUSH1 0x40 MLOAD PUSH2 0x51A SWAP2 SWAP1 PUSH2 0x2822 JUMP JUMPDEST PUSH1 0x40 MLOAD DUP1 SWAP2 SUB SWAP1 RETURN JUMPDEST PUSH2 0x53D PUSH1 0x4 DUP1 CALLDATASIZE SUB DUP2 ADD SWAP1 PUSH2 0x538 SWAP2 SWAP1 PUSH2 0x28E2 JUMP JUMPDEST PUSH2 0x17AC JUMP JUMPDEST PUSH1 0x40 MLOAD PUSH2 0x54A SWAP2 SWAP1 PUSH2 0x293D JUMP JUMPDEST PUSH1 0x40 MLOAD DUP1 SWAP2 SUB SWAP1 RETURN JUMPDEST PUSH2 0x55B PUSH2 0x18BE JUMP JUMPDEST PUSH1 0x40 MLOAD PUSH2 0x568 SWAP2 SWAP1 PUSH2 0x2D21 JUMP JUMPDEST PUSH1 0x40 MLOAD DUP1 SWAP2 SUB SWAP1 RETURN JUMPDEST PUSH2 0x58B PUSH1 0x4 DUP1 CALLDATASIZE SUB DUP2 ADD SWAP1 PUSH2 0x586 SWAP2 SWAP1 PUSH2 0x28E2 JUMP JUMPDEST PUSH2 0x194C JUMP JUMPDEST PUSH1 0x40 MLOAD PUSH2 0x598 SWAP2 SWAP1 PUSH2 0x293D JUMP JUMPDEST PUSH1 0x40 MLOAD DUP1 SWAP2 SUB SWAP1 RETURN JUMPDEST PUSH2 0x5BB PUSH1 0x4 DUP1 CALLDATASIZE SUB DUP2 ADD SWAP1 PUSH2 0x5B6 SWAP2 SWAP1 PUSH2 0x2C09 JUMP JUMPDEST PUSH2 0x1B5A JUMP JUMPDEST PUSH1 0x40 MLOAD PUSH2 0x5C8 SWAP2 SWAP1 PUSH2 0x293D JUMP JUMPDEST PUSH1 0x40 MLOAD DUP1 SWAP2 SUB SWAP1 RETURN JUMPDEST PUSH2 0x5D9 PUSH2 0x1B7A JUMP JUMPDEST PUSH1 0x40 MLOAD PUSH2 0x5E6 SWAP2 SWAP1 PUSH2 0x2967 JUMP JUMPDEST PUSH1 0x40 MLOAD DUP1 SWAP2 SUB SWAP1 RETURN JUMPDEST PUSH2 0x609 PUSH1 0x4 DUP1 CALLDATASIZE SUB DUP2 ADD SWAP1 PUSH2 0x604 SWAP2 SWAP1 PUSH2 0x2A71 JUMP JUMPDEST PUSH2 0x1B80 JUMP JUMPDEST PUSH1 0x40 MLOAD PUSH2 0x616 SWAP2 SWAP1 PUSH2 0x293D JUMP JUMPDEST PUSH1 0x40 MLOAD DUP1 SWAP2 SUB SWAP1 RETURN JUMPDEST PUSH2 0x639 PUSH1 0x4 DUP1 CALLDATASIZE SUB DUP2 ADD SWAP1 PUSH2 0x634 SWAP2 SWAP1 PUSH2 0x2C09 JUMP JUMPDEST PUSH2 0x1CF3 JUMP JUMPDEST STOP JUMPDEST PUSH2 0x655 PUSH1 0x4 DUP1 CALLDATASIZE SUB DUP2 ADD SWAP1 PUSH2 0x650 SWAP2 SWAP1 PUSH2 0x2B67 JUMP JUMPDEST PUSH2 0x1DC3 JUMP JUMPDEST STOP JUMPDEST PUSH2 0x65F PUSH2 0x1FC8 JUMP JUMPDEST STOP JUMPDEST PUSH2 0x67B PUSH1 0x4 DUP1 CALLDATASIZE SUB DUP2 ADD SWAP1 PUSH2 0x676 SWAP2 SWAP1 PUSH2 0x2D43 JUMP JUMPDEST PUSH2 0x20B1 JUMP JUMPDEST PUSH1 0x40 MLOAD PUSH2 0x688 SWAP2 SWAP1 PUSH2 0x2967 JUMP JUMPDEST PUSH1 0x40 MLOAD DUP1 SWAP2 SUB SWAP1 RETURN JUMPDEST PUSH2 0x699 PUSH2 0x20D6 JUMP JUMPDEST PUSH1 0x40 MLOAD PUSH2 0x6A6 SWAP2 SWAP1 PUSH2 0x2AF4 JUMP JUMPDEST PUSH1 0x40 MLOAD DUP1 SWAP2 SUB SWAP1 RETURN JUMPDEST PUSH2 0x6B7 PUSH2 0x2134 JUMP JUMPDEST PUSH1 0x40 MLOAD PUSH2 0x6C4 SWAP2 SWAP1 PUSH2 0x2AF4 JUMP JUMPDEST PUSH1 0x40 MLOAD DUP1 SWAP2 SUB SWAP1 RETURN JUMPDEST PUSH2 0x6E7 PUSH1 0x4 DUP1 CALLDATASIZE SUB DUP2 ADD SWAP1 PUSH2 0x6E2 SWAP2 SWAP1 PUSH2 0x2C09 JUMP JUMPDEST PUSH2 0x215A JUMP JUMPDEST STOP JUMPDEST PUSH32 0x42CE63790C28229C123925D83266E77C04D28784552AB68B350A9003226CBD59 DUP2 JUMP JUMPDEST PUSH1 0x0 DUP1 SLOAD PUSH2 0x71A SWAP1 PUSH2 0x2DB2 JUMP JUMPDEST DUP1 PUSH1 0x1F ADD PUSH1 0x20 DUP1 SWAP2 DIV MUL PUSH1 0x20 ADD PUSH1 0x40 MLOAD SWAP1 DUP2 ADD PUSH1 0x40 MSTORE DUP1 SWAP3 SWAP2 SWAP1 DUP2 DUP2 MSTORE PUSH1 0x20 ADD DUP3 DUP1 SLOAD PUSH2 0x746 SWAP1 PUSH2 0x2DB2 JUMP JUMPDEST DUP1 ISZERO PUSH2 0x793 JUMPI DUP1 PUSH1 0x1F LT PUSH2 0x768 JUMPI PUSH2 0x100 DUP1 DUP4 SLOAD DIV MUL DUP4 MSTORE SWAP2 PUSH1 0x20 ADD SWAP2 PUSH2 0x793 JUMP JUMPDEST DUP3 ADD SWAP2 SWAP1 PUSH1 0x0 MSTORE PUSH1 0x20 PUSH1 0x0 KECCAK256 SWAP1 JUMPDEST DUP2 SLOAD DUP2 MSTORE SWAP1 PUSH1 0x1 ADD SWAP1 PUSH1 0x20 ADD DUP1 DUP4 GT PUSH2 0x776 JUMPI DUP3 SWAP1 SUB PUSH1 0x1F AND DUP3 ADD SWAP2 JUMPDEST POP POP POP POP POP DUP2 JUMP JUMPDEST PUSH1 0x0 DUP2 PUSH1 0xE PUSH1 0x0 CALLER PUSH20 0xFFFFFFFFFFFFFFFFFFFFFFFFFFFFFFFFFFFFFFFF AND PUSH20 0xFFFFFFFFFFFFFFFFFFFFFFFFFFFFFFFFFFFFFFFF AND DUP2 MSTORE PUSH1 0x20 ADD SWAP1 DUP2 MSTORE PUSH1 0x20 ADD PUSH1 0x0 KECCAK256 PUSH1 0x0 DUP6 PUSH20 0xFFFFFFFFFFFFFFFFFFFFFFFFFFFFFFFFFFFFFFFF AND PUSH20 0xFFFFFFFFFFFFFFFFFFFFFFFFFFFFFFFFFFFFFFFF AND DUP2 MSTORE PUSH1 0x20 ADD SWAP1 DUP2 MSTORE PUSH1 0x20 ADD PUSH1 0x0 KECCAK256 DUP2 SWAP1 SSTORE POP DUP3 PUSH20 0xFFFFFFFFFFFFFFFFFFFFFFFFFFFFFFFFFFFFFFFF AND CALLER PUSH20 0xFFFFFFFFFFFFFFFFFFFFFFFFFFFFFFFFFFFFFFFF AND PUSH32 0x8C5BE1E5EBEC7D5BD14F71427D1E84F3DD0314C0F7B2291E5B200AC8C7C3B925 DUP5 PUSH1 0x40 MLOAD PUSH2 0x87B SWAP2 SWAP1 PUSH2 0x2967 JUMP JUMPDEST PUSH1 0x40 MLOAD DUP1 SWAP2 SUB SWAP1 LOG3 PUSH1 0x1 SWAP1 POP SWAP3 SWAP2 POP POP JUMP JUMPDEST PUSH2 0x895 PUSH2 0x20D6 JUMP JUMPDEST PUSH20 0xFFFFFFFFFFFFFFFFFFFFFFFFFFFFFFFFFFFFFFFF AND CALLER PUSH20 0xFFFFFFFFFFFFFFFFFFFFFFFFFFFFFFFFFFFFFFFF AND EQ PUSH2 0x902 JUMPI PUSH1 0x40 MLOAD PUSH32 0x8C379A000000000000000000000000000000000000000000000000000000000 DUP2 MSTORE PUSH1 0x4 ADD PUSH2 0x8F9 SWAP1 PUSH2 0x2E30 JUMP JUMPDEST PUSH1 0x40 MLOAD DUP1 SWAP2 SUB SWAP1 REVERT JUMPDEST PUSH1 0xA SLOAD TIMESTAMP LT ISZERO PUSH2 0x911 JUMPI PUSH1 0x0 DUP1 REVERT JUMPDEST PUSH1 0x1 PUSH1 0x6 PUSH1 0x0 PUSH1 0x9 PUSH1 0x0 SWAP1 SLOAD SWAP1 PUSH2 0x100 EXP SWAP1 DIV PUSH20 0xFFFFFFFFFFFFFFFFFFFFFFFFFFFFFFFFFFFFFFFF AND PUSH20 0xFFFFFFFFFFFFFFFFFFFFFFFFFFFFFFFFFFFFFFFF AND PUSH20 0xFFFFFFFFFFFFFFFFFFFFFFFFFFFFFFFFFFFFFFFF AND DUP2 MSTORE PUSH1 0x20 ADD SWAP1 DUP2 MSTORE PUSH1 0x20 ADD PUSH1 0x0 KECCAK256 PUSH1 0x0 PUSH2 0x100 EXP DUP2 SLOAD DUP2 PUSH1 0xFF MUL NOT AND SWAP1 DUP4 ISZERO ISZERO MUL OR SWAP1 SSTORE POP PUSH1 0x7 PUSH1 0x9 PUSH1 0x0 SWAP1 SLOAD SWAP1 PUSH2 0x100 EXP SWAP1 DIV PUSH20 0xFFFFFFFFFFFFFFFFFFFFFFFFFFFFFFFFFFFFFFFF AND SWAP1 DUP1 PUSH1 0x1 DUP2 SLOAD ADD DUP1 DUP3 SSTORE DUP1 SWAP2 POP POP PUSH1 0x1 SWAP1 SUB SWAP1 PUSH1 0x0 MSTORE PUSH1 0x20 PUSH1 0x0 KECCAK256 ADD PUSH1 0x0 SWAP1 SWAP2 SWAP1 SWAP2 SWAP1 SWAP2 PUSH2 0x100 EXP DUP2 SLOAD DUP2 PUSH20 0xFFFFFFFFFFFFFFFFFFFFFFFFFFFFFFFFFFFFFFFF MUL NOT AND SWAP1 DUP4 PUSH20 0xFFFFFFFFFFFFFFFFFFFFFFFFFFFFFFFFFFFFFFFF AND MUL OR SWAP1 SSTORE POP JUMP JUMPDEST PUSH1 0x0 PUSH1 0x3 SLOAD SWAP1 POP SWAP1 JUMP JUMPDEST PUSH1 0x0 DUP1 PUSH20 0xFFFFFFFFFFFFFFFFFFFFFFFFFFFFFFFFFFFFFFFF AND DUP4 PUSH20 0xFFFFFFFFFFFFFFFFFFFFFFFFFFFFFFFFFFFFFFFF AND EQ ISZERO DUP1 PUSH2 0xA85 JUMPI POP ADDRESS PUSH20 0xFFFFFFFFFFFFFFFFFFFFFFFFFFFFFFFFFFFFFFFF AND DUP4 PUSH20 0xFFFFFFFFFFFFFFFFFFFFFFFFFFFFFFFFFFFFFFFF AND EQ ISZERO JUMPDEST PUSH2 0xA8E JUMPI PUSH1 0x0 DUP1 REVERT JUMPDEST CALLER PUSH20 0xFFFFFFFFFFFFFFFFFFFFFFFFFFFFFFFFFFFFFFFF AND DUP5 PUSH20 0xFFFFFFFFFFFFFFFFFFFFFFFFFFFFFFFFFFFFFFFF AND EQ PUSH2 0xCA6 JUMPI PUSH1 0x0 PUSH1 0xE PUSH1 0x0 DUP7 PUSH20 0xFFFFFFFFFFFFFFFFFFFFFFFFFFFFFFFFFFFFFFFF AND PUSH20 0xFFFFFFFFFFFFFFFFFFFFFFFFFFFFFFFFFFFFFFFF AND DUP2 MSTORE PUSH1 0x20 ADD SWAP1 DUP2 MSTORE PUSH1 0x20 ADD PUSH1 0x0 KECCAK256 PUSH1 0x0 CALLER PUSH20 0xFFFFFFFFFFFFFFFFFFFFFFFFFFFFFFFFFFFFFFFF AND PUSH20 0xFFFFFFFFFFFFFFFFFFFFFFFFFFFFFFFFFFFFFFFF AND DUP2 MSTORE PUSH1 0x20 ADD SWAP1 DUP2 MSTORE PUSH1 0x20 ADD PUSH1 0x0 KECCAK256 SLOAD SWAP1 POP PUSH32 0xFFFFFFFFFFFFFFFFFFFFFFFFFFFFFFFFFFFFFFFFFFFFFFFFFFFFFFFFFFFFFFFF DUP2 EQ PUSH2 0xCA4 JUMPI DUP3 DUP2 LT ISZERO PUSH2 0xBAC JUMPI PUSH1 0x40 MLOAD PUSH32 0x8C379A000000000000000000000000000000000000000000000000000000000 DUP2 MSTORE PUSH1 0x4 ADD PUSH2 0xBA3 SWAP1 PUSH2 0x2EC2 JUMP JUMPDEST PUSH1 0x40 MLOAD DUP1 SWAP2 SUB SWAP1 REVERT JUMPDEST PUSH1 0x0 DUP4 DUP3 PUSH2 0xBBA SWAP2 SWAP1 PUSH2 0x2F11 JUMP JUMPDEST SWAP1 POP DUP1 PUSH1 0xE PUSH1 0x0 DUP9 PUSH20 0xFFFFFFFFFFFFFFFFFFFFFFFFFFFFFFFFFFFFFFFF AND PUSH20 0xFFFFFFFFFFFFFFFFFFFFFFFFFFFFFFFFFFFFFFFF AND DUP2 MSTORE PUSH1 0x20 ADD SWAP1 DUP2 MSTORE PUSH1 0x20 ADD PUSH1 0x0 KECCAK256 PUSH1 0x0 CALLER PUSH20 0xFFFFFFFFFFFFFFFFFFFFFFFFFFFFFFFFFFFFFFFF AND PUSH20 0xFFFFFFFFFFFFFFFFFFFFFFFFFFFFFFFFFFFFFFFF AND DUP2 MSTORE PUSH1 0x20 ADD SWAP1 DUP2 MSTORE PUSH1 0x20 ADD PUSH1 0x0 KECCAK256 DUP2 SWAP1 SSTORE POP CALLER PUSH20 0xFFFFFFFFFFFFFFFFFFFFFFFFFFFFFFFFFFFFFFFF AND DUP7 PUSH20 0xFFFFFFFFFFFFFFFFFFFFFFFFFFFFFFFFFFFFFFFF AND PUSH32 0x8C5BE1E5EBEC7D5BD14F71427D1E84F3DD0314C0F7B2291E5B200AC8C7C3B925 DUP4 PUSH1 0x40 MLOAD PUSH2 0xC9A SWAP2 SWAP1 PUSH2 0x2967 JUMP JUMPDEST PUSH1 0x40 MLOAD DUP1 SWAP2 SUB SWAP1 LOG3 POP JUMPDEST POP JUMPDEST PUSH1 0x0 PUSH1 0x2 PUSH1 0x0 DUP7 PUSH20 0xFFFFFFFFFFFFFFFFFFFFFFFFFFFFFFFFFFFFFFFF AND PUSH20 0xFFFFFFFFFFFFFFFFFFFFFFFFFFFFFFFFFFFFFFFF AND DUP2 MSTORE PUSH1 0x20 ADD SWAP1 DUP2 MSTORE PUSH1 0x20 ADD PUSH1 0x0 KECCAK256 SLOAD SWAP1 POP DUP3 DUP2 LT ISZERO PUSH2 0xD2D JUMPI PUSH1 0x40 MLOAD PUSH32 0x8C379A000000000000000000000000000000000000000000000000000000000 DUP2 MSTORE PUSH1 0x4 ADD PUSH2 0xD24 SWAP1 PUSH2 0x2FB7 JUMP JUMPDEST PUSH1 0x40 MLOAD DUP1 SWAP2 SUB SWAP1 REVERT JUMPDEST DUP3 DUP2 PUSH2 0xD39 SWAP2 SWAP1 PUSH2 0x2F11 JUMP JUMPDEST PUSH1 0x2 PUSH1 0x0 DUP8 PUSH20 0xFFFFFFFFFFFFFFFFFFFFFFFFFFFFFFFFFFFFFFFF AND PUSH20 0xFFFFFFFFFFFFFFFFFFFFFFFFFFFFFFFFFFFFFFFF AND DUP2 MSTORE PUSH1 0x20 ADD SWAP1 DUP2 MSTORE PUSH1 0x20 ADD PUSH1 0x0 KECCAK256 DUP2 SWAP1 SSTORE POP DUP3 PUSH1 0x2 PUSH1 0x0 DUP7 PUSH20 0xFFFFFFFFFFFFFFFFFFFFFFFFFFFFFFFFFFFFFFFF AND PUSH20 0xFFFFFFFFFFFFFFFFFFFFFFFFFFFFFFFFFFFFFFFF AND DUP2 MSTORE PUSH1 0x20 ADD SWAP1 DUP2 MSTORE PUSH1 0x20 ADD PUSH1 0x0 KECCAK256 PUSH1 0x0 DUP3 DUP3 SLOAD PUSH2 0xDCB SWAP2 SWAP1 PUSH2 0x2FD7 JUMP JUMPDEST SWAP3 POP POP DUP2 SWAP1 SSTORE POP DUP4 PUSH20 0xFFFFFFFFFFFFFFFFFFFFFFFFFFFFFFFFFFFFFFFF AND DUP6 PUSH20 0xFFFFFFFFFFFFFFFFFFFFFFFFFFFFFFFFFFFFFFFF AND PUSH32 0xDDF252AD1BE2C89B69C2B068FC378DAA952BA7F163C4A11628F55A4DF523B3EF DUP6 PUSH1 0x40 MLOAD PUSH2 0xE2F SWAP2 SWAP1 PUSH2 0x2967 JUMP JUMPDEST PUSH1 0x40 MLOAD DUP1 SWAP2 SUB SWAP1 LOG3 PUSH1 0x1 SWAP2 POP POP SWAP4 SWAP3 POP POP POP JUMP JUMPDEST PUSH32 0x6E71EDAE12B1B97F4D1F60370FEF10105FA2FAAE0126114A169C64845D6126C9 DUP2 JUMP JUMPDEST PUSH32 0x0 DUP2 JUMP JUMPDEST PUSH32 0x0 DUP2 JUMP JUMPDEST PUSH1 0x0 DUP1 PUSH20 0xFFFFFFFFFFFFFFFFFFFFFFFFFFFFFFFFFFFFFFFF AND DUP6 PUSH20 0xFFFFFFFFFFFFFFFFFFFFFFFFFFFFFFFFFFFFFFFF AND EQ ISZERO DUP1 PUSH2 0xF18 JUMPI POP ADDRESS PUSH20 0xFFFFFFFFFFFFFFFFFFFFFFFFFFFFFFFFFFFFFFFF AND DUP6 PUSH20 0xFFFFFFFFFFFFFFFFFFFFFFFFFFFFFFFFFFFFFFFF AND EQ ISZERO JUMPDEST PUSH2 0xF21 JUMPI PUSH1 0x0 DUP1 REVERT JUMPDEST PUSH1 0x0 PUSH1 0x2 PUSH1 0x0 CALLER PUSH20 0xFFFFFFFFFFFFFFFFFFFFFFFFFFFFFFFFFFFFFFFF AND PUSH20 0xFFFFFFFFFFFFFFFFFFFFFFFFFFFFFFFFFFFFFFFF AND DUP2 MSTORE PUSH1 0x20 ADD SWAP1 DUP2 MSTORE PUSH1 0x20 ADD PUSH1 0x0 KECCAK256 SLOAD SWAP1 POP DUP5 DUP2 LT ISZERO PUSH2 0xFA8 JUMPI PUSH1 0x40 MLOAD PUSH32 0x8C379A000000000000000000000000000000000000000000000000000000000 DUP2 MSTORE PUSH1 0x4 ADD PUSH2 0xF9F SWAP1 PUSH2 0x2FB7 JUMP JUMPDEST PUSH1 0x40 MLOAD DUP1 SWAP2 SUB SWAP1 REVERT JUMPDEST DUP5 DUP2 PUSH2 0xFB4 SWAP2 SWAP1 PUSH2 0x2F11 JUMP JUMPDEST PUSH1 0x2 PUSH1 0x0 CALLER PUSH20 0xFFFFFFFFFFFFFFFFFFFFFFFFFFFFFFFFFFFFFFFF AND PUSH20 0xFFFFFFFFFFFFFFFFFFFFFFFFFFFFFFFFFFFFFFFF AND DUP2 MSTORE PUSH1 0x20 ADD SWAP1 DUP2 MSTORE PUSH1 0x20 ADD PUSH1 0x0 KECCAK256 DUP2 SWAP1 SSTORE POP DUP5 PUSH1 0x2 PUSH1 0x0 DUP9 PUSH20 0xFFFFFFFFFFFFFFFFFFFFFFFFFFFFFFFFFFFFFFFF AND PUSH20 0xFFFFFFFFFFFFFFFFFFFFFFFFFFFFFFFFFFFFFFFF AND DUP2 MSTORE PUSH1 0x20 ADD SWAP1 DUP2 MSTORE PUSH1 0x20 ADD PUSH1 0x0 KECCAK256 PUSH1 0x0 DUP3 DUP3 SLOAD PUSH2 0x1046 SWAP2 SWAP1 PUSH2 0x2FD7 JUMP JUMPDEST SWAP3 POP POP DUP2 SWAP1 SSTORE POP DUP6 PUSH20 0xFFFFFFFFFFFFFFFFFFFFFFFFFFFFFFFFFFFFFFFF AND CALLER PUSH20 0xFFFFFFFFFFFFFFFFFFFFFFFFFFFFFFFFFFFFFFFF AND PUSH32 0xDDF252AD1BE2C89B69C2B068FC378DAA952BA7F163C4A11628F55A4DF523B3EF DUP8 PUSH1 0x40 MLOAD PUSH2 0x10AA SWAP2 SWAP1 PUSH2 0x2967 JUMP JUMPDEST PUSH1 0x40 MLOAD DUP1 SWAP2 SUB SWAP1 LOG3 DUP6 PUSH20 0xFFFFFFFFFFFFFFFFFFFFFFFFFFFFFFFFFFFFFFFF AND PUSH4 0xA4C0ED36 CALLER DUP8 DUP8 DUP8 PUSH1 0x40 MLOAD DUP6 PUSH4 0xFFFFFFFF AND PUSH1 0xE0 SHL DUP2 MSTORE PUSH1 0x4 ADD PUSH2 0x10F1 SWAP5 SWAP4 SWAP3 SWAP2 SWAP1 PUSH2 0x307A JUMP JUMPDEST PUSH1 0x20 PUSH1 0x40 MLOAD DUP1 DUP4 SUB DUP2 PUSH1 0x0 DUP8 GAS CALL ISZERO DUP1 ISZERO PUSH2 0x1110 JUMPI RETURNDATASIZE PUSH1 0x0 DUP1 RETURNDATACOPY RETURNDATASIZE PUSH1 0x0 REVERT JUMPDEST POP POP POP POP PUSH1 0x40 MLOAD RETURNDATASIZE PUSH1 0x1F NOT PUSH1 0x1F DUP3 ADD AND DUP3 ADD DUP1 PUSH1 0x40 MSTORE POP DUP2 ADD SWAP1 PUSH2 0x1134 SWAP2 SWAP1 PUSH2 0x30E6 JUMP JUMPDEST SWAP2 POP POP SWAP5 SWAP4 POP POP POP POP JUMP JUMPDEST PUSH1 0x0 PUSH1 0x6 PUSH1 0x0 CALLER PUSH20 0xFFFFFFFFFFFFFFFFFFFFFFFFFFFFFFFFFFFFFFFF AND PUSH20 0xFFFFFFFFFFFFFFFFFFFFFFFFFFFFFFFFFFFFFFFF AND DUP2 MSTORE PUSH1 0x20 ADD SWAP1 DUP2 MSTORE PUSH1 0x20 ADD PUSH1 0x0 KECCAK256 PUSH1 0x0 SWAP1 SLOAD SWAP1 PUSH2 0x100 EXP SWAP1 DIV PUSH1 0xFF AND PUSH2 0x11CD JUMPI PUSH1 0x40 MLOAD PUSH32 0x8C379A000000000000000000000000000000000000000000000000000000000 DUP2 MSTORE PUSH1 0x4 ADD PUSH2 0x11C4 SWAP1 PUSH2 0x315F JUMP JUMPDEST PUSH1 0x40 MLOAD DUP1 SWAP2 SUB SWAP1 REVERT JUMPDEST PUSH2 0x11D7 DUP4 DUP4 PUSH2 0x2297 JUMP JUMPDEST PUSH1 0x1 SWAP1 POP SWAP3 SWAP2 POP POP JUMP JUMPDEST PUSH1 0xB PUSH1 0x0 SWAP1 SLOAD SWAP1 PUSH2 0x100 EXP SWAP1 DIV PUSH20 0xFFFFFFFFFFFFFFFFFFFFFFFFFFFFFFFFFFFFFFFF AND DUP2 JUMP JUMPDEST PUSH1 0x0 DUP5 TIMESTAMP GT ISZERO PUSH2 0x124C JUMPI PUSH1 0x40 MLOAD PUSH32 0x8C379A000000000000000000000000000000000000000000000000000000000 DUP2 MSTORE PUSH1 0x4 ADD PUSH2 0x1243 SWAP1 PUSH2 0x31CB JUMP JUMPDEST PUSH1 0x40 MLOAD DUP1 SWAP2 SUB SWAP1 REVERT JUMPDEST PUSH1 0x0 PUSH32 0x42CE63790C28229C123925D83266E77C04D28784552AB68B350A9003226CBD59 DUP10 DUP10 DUP10 PUSH1 0xD PUSH1 0x0 DUP15 PUSH20 0xFFFFFFFFFFFFFFFFFFFFFFFFFFFFFFFFFFFFFFFF AND PUSH20 0xFFFFFFFFFFFFFFFFFFFFFFFFFFFFFFFFFFFFFFFF AND DUP2 MSTORE PUSH1 0x20 ADD SWAP1 DUP2 MSTORE PUSH1 0x20 ADD PUSH1 0x0 KECCAK256 PUSH1 0x0 DUP2 SLOAD DUP1 SWAP3 SWAP2 SWAP1 PUSH2 0x12C2 SWAP1 PUSH2 0x31EB JUMP JUMPDEST SWAP2 SWAP1 POP SSTORE DUP11 PUSH1 0x40 MLOAD PUSH1 0x20 ADD PUSH2 0x12DC SWAP7 SWAP6 SWAP5 SWAP4 SWAP3 SWAP2 SWAP1 PUSH2 0x3234 JUMP JUMPDEST PUSH1 0x40 MLOAD PUSH1 0x20 DUP2 DUP4 SUB SUB DUP2 MSTORE SWAP1 PUSH1 0x40 MSTORE DUP1 MLOAD SWAP1 PUSH1 0x20 ADD KECCAK256 SWAP1 POP PUSH2 0x1301 DUP10 DUP3 DUP8 DUP8 DUP8 PUSH2 0x23E0 JUMP JUMPDEST DUP1 PUSH2 0x1315 JUMPI POP PUSH2 0x1314 DUP10 DUP3 DUP8 DUP8 DUP8 PUSH2 0x24F6 JUMP JUMPDEST JUMPDEST PUSH2 0x131E JUMPI PUSH1 0x0 DUP1 REVERT JUMPDEST PUSH1 0x0 PUSH20 0xFFFFFFFFFFFFFFFFFFFFFFFFFFFFFFFFFFFFFFFF AND DUP9 PUSH20 0xFFFFFFFFFFFFFFFFFFFFFFFFFFFFFFFFFFFFFFFF AND EQ ISZERO DUP1 PUSH2 0x1386 JUMPI POP ADDRESS PUSH20 0xFFFFFFFFFFFFFFFFFFFFFFFFFFFFFFFFFFFFFFFF AND DUP9 PUSH20 0xFFFFFFFFFFFFFFFFFFFFFFFFFFFFFFFFFFFFFFFF AND EQ ISZERO JUMPDEST PUSH2 0x138F JUMPI PUSH1 0x0 DUP1 REVERT JUMPDEST PUSH1 0x0 PUSH1 0x2 PUSH1 0x0 DUP12 PUSH20 0xFFFFFFFFFFFFFFFFFFFFFFFFFFFFFFFFFFFFFFFF AND PUSH20 0xFFFFFFFFFFFFFFFFFFFFFFFFFFFFFFFFFFFFFFFF AND DUP2 MSTORE PUSH1 0x20 ADD SWAP1 DUP2 MSTORE PUSH1 0x20 ADD PUSH1 0x0 KECCAK256 SLOAD SWAP1 POP DUP8 DUP2 LT ISZERO PUSH2 0x1416 JUMPI PUSH1 0x40 MLOAD PUSH32 0x8C379A000000000000000000000000000000000000000000000000000000000 DUP2 MSTORE PUSH1 0x4 ADD PUSH2 0x140D SWAP1 PUSH2 0x2FB7 JUMP JUMPDEST PUSH1 0x40 MLOAD DUP1 SWAP2 SUB SWAP1 REVERT JUMPDEST DUP8 DUP2 PUSH2 0x1422 SWAP2 SWAP1 PUSH2 0x2F11 JUMP JUMPDEST PUSH1 0x2 PUSH1 0x0 DUP13 PUSH20 0xFFFFFFFFFFFFFFFFFFFFFFFFFFFFFFFFFFFFFFFF AND PUSH20 0xFFFFFFFFFFFFFFFFFFFFFFFFFFFFFFFFFFFFFFFF AND DUP2 MSTORE PUSH1 0x20 ADD SWAP1 DUP2 MSTORE PUSH1 0x20 ADD PUSH1 0x0 KECCAK256 DUP2 SWAP1 SSTORE POP DUP8 PUSH1 0x2 PUSH1 0x0 DUP12 PUSH20 0xFFFFFFFFFFFFFFFFFFFFFFFFFFFFFFFFFFFFFFFF AND PUSH20 0xFFFFFFFFFFFFFFFFFFFFFFFFFFFFFFFFFFFFFFFF AND DUP2 MSTORE PUSH1 0x20 ADD SWAP1 DUP2 MSTORE PUSH1 0x20 ADD PUSH1 0x0 KECCAK256 PUSH1 0x0 DUP3 DUP3 SLOAD PUSH2 0x14B4 SWAP2 SWAP1 PUSH2 0x2FD7 JUMP JUMPDEST SWAP3 POP POP DUP2 SWAP1 SSTORE POP DUP9 PUSH20 0xFFFFFFFFFFFFFFFFFFFFFFFFFFFFFFFFFFFFFFFF AND DUP11 PUSH20 0xFFFFFFFFFFFFFFFFFFFFFFFFFFFFFFFFFFFFFFFF AND PUSH32 0xDDF252AD1BE2C89B69C2B068FC378DAA952BA7F163C4A11628F55A4DF523B3EF DUP11 PUSH1 0x40 MLOAD PUSH2 0x1518 SWAP2 SWAP1 PUSH2 0x2967 JUMP JUMPDEST PUSH1 0x40 MLOAD DUP1 SWAP2 SUB SWAP1 LOG3 PUSH1 0x1 SWAP3 POP POP POP SWAP8 SWAP7 POP POP POP POP POP POP POP JUMP JUMPDEST PUSH2 0x1539 PUSH2 0x20D6 JUMP JUMPDEST PUSH20 0xFFFFFFFFFFFFFFFFFFFFFFFFFFFFFFFFFFFFFFFF AND CALLER PUSH20 0xFFFFFFFFFFFFFFFFFFFFFFFFFFFFFFFFFFFFFFFF AND EQ PUSH2 0x15A6 JUMPI PUSH1 0x40 MLOAD PUSH32 0x8C379A000000000000000000000000000000000000000000000000000000000 DUP2 MSTORE PUSH1 0x4 ADD PUSH2 0x159D SWAP1 PUSH2 0x2E30 JUMP JUMPDEST PUSH1 0x40 MLOAD DUP1 SWAP2 SUB SWAP1 REVERT JUMPDEST PUSH1 0x0 PUSH20 0xFFFFFFFFFFFFFFFFFFFFFFFFFFFFFFFFFFFFFFFF AND DUP2 PUSH20 0xFFFFFFFFFFFFFFFFFFFFFFFFFFFFFFFFFFFFFFFF AND EQ ISZERO PUSH2 0x1616 JUMPI PUSH1 0x40 MLOAD PUSH32 0x8C379A000000000000000000000000000000000000000000000000000000000 DUP2 MSTORE PUSH1 0x4 ADD PUSH2 0x160D SWAP1 PUSH2 0x32E1 JUMP JUMPDEST PUSH1 0x40 MLOAD DUP1 SWAP2 SUB SWAP1 REVERT JUMPDEST DUP1 PUSH1 0xB PUSH1 0x0 PUSH2 0x100 EXP DUP2 SLOAD DUP2 PUSH20 0xFFFFFFFFFFFFFFFFFFFFFFFFFFFFFFFFFFFFFFFF MUL NOT AND SWAP1 DUP4 PUSH20 0xFFFFFFFFFFFFFFFFFFFFFFFFFFFFFFFFFFFFFFFF AND MUL OR SWAP1 SSTORE POP PUSH1 0x5 SLOAD TIMESTAMP PUSH2 0x1665 SWAP2 SWAP1 PUSH2 0x2FD7 JUMP JUMPDEST PUSH1 0xC DUP2 SWAP1 SSTORE POP POP JUMP JUMPDEST PUSH1 0x5 SLOAD DUP2 JUMP JUMPDEST PUSH1 0x2 PUSH1 0x20 MSTORE DUP1 PUSH1 0x0 MSTORE PUSH1 0x40 PUSH1 0x0 KECCAK256 PUSH1 0x0 SWAP2 POP SWAP1 POP SLOAD DUP2 JUMP JUMPDEST PUSH1 0xD PUSH1 0x20 MSTORE DUP1 PUSH1 0x0 MSTORE PUSH1 0x40 PUSH1 0x0 KECCAK256 PUSH1 0x0 SWAP2 POP SWAP1 POP SLOAD DUP2 JUMP JUMPDEST PUSH1 0x7 DUP2 DUP2 SLOAD DUP2 LT PUSH2 0x16B4 JUMPI PUSH1 0x0 DUP1 REVERT JUMPDEST SWAP1 PUSH1 0x0 MSTORE PUSH1 0x20 PUSH1 0x0 KECCAK256 ADD PUSH1 0x0 SWAP2 POP SLOAD SWAP1 PUSH2 0x100 EXP SWAP1 DIV PUSH20 0xFFFFFFFFFFFFFFFFFFFFFFFFFFFFFFFFFFFFFFFF AND DUP2 JUMP JUMPDEST PUSH1 0xC SLOAD DUP2 JUMP JUMPDEST PUSH1 0x0 PUSH2 0x16F3 PUSH2 0x20D6 JUMP JUMPDEST SWAP1 POP SWAP1 JUMP JUMPDEST PUSH1 0x9 PUSH1 0x0 SWAP1 SLOAD SWAP1 PUSH2 0x100 EXP SWAP1 DIV PUSH20 0xFFFFFFFFFFFFFFFFFFFFFFFFFFFFFFFFFFFFFFFF AND DUP2 JUMP JUMPDEST PUSH1 0x1 DUP1 SLOAD PUSH2 0x172B SWAP1 PUSH2 0x2DB2 JUMP JUMPDEST DUP1 PUSH1 0x1F ADD PUSH1 0x20 DUP1 SWAP2 DIV MUL PUSH1 0x20 ADD PUSH1 0x40 MLOAD SWAP1 DUP2 ADD PUSH1 0x40 MSTORE DUP1 SWAP3 SWAP2 SWAP1 DUP2 DUP2 MSTORE PUSH1 0x20 ADD DUP3 DUP1 SLOAD PUSH2 0x1757 SWAP1 PUSH2 0x2DB2 JUMP JUMPDEST DUP1 ISZERO PUSH2 0x17A4 JUMPI DUP1 PUSH1 0x1F LT PUSH2 0x1779 JUMPI PUSH2 0x100 DUP1 DUP4 SLOAD DIV MUL DUP4 MSTORE SWAP2 PUSH1 0x20 ADD SWAP2 PUSH2 0x17A4 JUMP JUMPDEST DUP3 ADD SWAP2 SWAP1 PUSH1 0x0 MSTORE PUSH1 0x20 PUSH1 0x0 KECCAK256 SWAP1 JUMPDEST DUP2 SLOAD DUP2 MSTORE SWAP1 PUSH1 0x1 ADD SWAP1 PUSH1 0x20 ADD DUP1 DUP4 GT PUSH2 0x1787 JUMPI DUP3 SWAP1 SUB PUSH1 0x1F AND DUP3 ADD SWAP2 JUMPDEST POP POP POP POP POP DUP2 JUMP JUMPDEST PUSH1 0x0 PUSH1 0x6 PUSH1 0x0 CALLER PUSH20 0xFFFFFFFFFFFFFFFFFFFFFFFFFFFFFFFFFFFFFFFF AND PUSH20 0xFFFFFFFFFFFFFFFFFFFFFFFFFFFFFFFFFFFFFFFF AND DUP2 MSTORE PUSH1 0x20 ADD SWAP1 DUP2 MSTORE PUSH1 0x20 ADD PUSH1 0x0 KECCAK256 PUSH1 0x0 SWAP1 SLOAD SWAP1 PUSH2 0x100 EXP SWAP1 DIV PUSH1 0xFF AND PUSH2 0x183A JUMPI PUSH1 0x40 MLOAD PUSH32 0x8C379A000000000000000000000000000000000000000000000000000000000 DUP2 MSTORE PUSH1 0x4 ADD PUSH2 0x1831 SWAP1 PUSH2 0x315F JUMP JUMPDEST PUSH1 0x40 MLOAD DUP1 SWAP2 SUB SWAP1 REVERT JUMPDEST PUSH1 0x0 PUSH20 0xFFFFFFFFFFFFFFFFFFFFFFFFFFFFFFFFFFFFFFFF AND DUP4 PUSH20 0xFFFFFFFFFFFFFFFFFFFFFFFFFFFFFFFFFFFFFFFF AND EQ ISZERO PUSH2 0x18AA JUMPI PUSH1 0x40 MLOAD PUSH32 0x8C379A000000000000000000000000000000000000000000000000000000000 DUP2 MSTORE PUSH1 0x4 ADD PUSH2 0x18A1 SWAP1 PUSH2 0x32E1 JUMP JUMPDEST PUSH1 0x40 MLOAD DUP1 SWAP2 SUB SWAP1 REVERT JUMPDEST PUSH2 0x18B4 DUP4 DUP4 PUSH2 0x260C JUMP JUMPDEST PUSH1 0x1 SWAP1 POP SWAP3 SWAP2 POP POP JUMP JUMPDEST PUSH1 0x60 PUSH1 0x7 DUP1 SLOAD DUP1 PUSH1 0x20 MUL PUSH1 0x20 ADD PUSH1 0x40 MLOAD SWAP1 DUP2 ADD PUSH1 0x40 MSTORE DUP1 SWAP3 SWAP2 SWAP1 DUP2 DUP2 MSTORE PUSH1 0x20 ADD DUP3 DUP1 SLOAD DUP1 ISZERO PUSH2 0x1942 JUMPI PUSH1 0x20 MUL DUP3 ADD SWAP2 SWAP1 PUSH1 0x0 MSTORE PUSH1 0x20 PUSH1 0x0 KECCAK256 SWAP1 JUMPDEST DUP2 PUSH1 0x0 SWAP1 SLOAD SWAP1 PUSH2 0x100 EXP SWAP1 DIV PUSH20 0xFFFFFFFFFFFFFFFFFFFFFFFFFFFFFFFFFFFFFFFF AND PUSH20 0xFFFFFFFFFFFFFFFFFFFFFFFFFFFFFFFFFFFFFFFF AND DUP2 MSTORE PUSH1 0x20 ADD SWAP1 PUSH1 0x1 ADD SWAP1 DUP1 DUP4 GT PUSH2 0x18F8 JUMPI JUMPDEST POP POP POP POP POP SWAP1 POP SWAP1 JUMP JUMPDEST PUSH1 0x0 DUP1 PUSH20 0xFFFFFFFFFFFFFFFFFFFFFFFFFFFFFFFFFFFFFFFF AND DUP4 PUSH20 0xFFFFFFFFFFFFFFFFFFFFFFFFFFFFFFFFFFFFFFFF AND EQ ISZERO DUP1 PUSH2 0x19B5 JUMPI POP ADDRESS PUSH20 0xFFFFFFFFFFFFFFFFFFFFFFFFFFFFFFFFFFFFFFFF AND DUP4 PUSH20 0xFFFFFFFFFFFFFFFFFFFFFFFFFFFFFFFFFFFFFFFF AND EQ ISZERO JUMPDEST PUSH2 0x19BE JUMPI PUSH1 0x0 DUP1 REVERT JUMPDEST PUSH1 0x0 PUSH1 0x2 PUSH1 0x0 CALLER PUSH20 0xFFFFFFFFFFFFFFFFFFFFFFFFFFFFFFFFFFFFFFFF AND PUSH20 0xFFFFFFFFFFFFFFFFFFFFFFFFFFFFFFFFFFFFFFFF AND DUP2 MSTORE PUSH1 0x20 ADD SWAP1 DUP2 MSTORE PUSH1 0x20 ADD PUSH1 0x0 KECCAK256 SLOAD SWAP1 POP DUP3 DUP2 LT ISZERO PUSH2 0x1A45 JUMPI PUSH1 0x40 MLOAD PUSH32 0x8C379A000000000000000000000000000000000000000000000000000000000 DUP2 MSTORE PUSH1 0x4 ADD PUSH2 0x1A3C SWAP1 PUSH2 0x2FB7 JUMP JUMPDEST PUSH1 0x40 MLOAD DUP1 SWAP2 SUB SWAP1 REVERT JUMPDEST DUP3 DUP2 PUSH2 0x1A51 SWAP2 SWAP1 PUSH2 0x2F11 JUMP JUMPDEST PUSH1 0x2 PUSH1 0x0 CALLER PUSH20 0xFFFFFFFFFFFFFFFFFFFFFFFFFFFFFFFFFFFFFFFF AND PUSH20 0xFFFFFFFFFFFFFFFFFFFFFFFFFFFFFFFFFFFFFFFF AND DUP2 MSTORE PUSH1 0x20 ADD SWAP1 DUP2 MSTORE PUSH1 0x20 ADD PUSH1 0x0 KECCAK256 DUP2 SWAP1 SSTORE POP DUP3 PUSH1 0x2 PUSH1 0x0 DUP7 PUSH20 0xFFFFFFFFFFFFFFFFFFFFFFFFFFFFFFFFFFFFFFFF AND PUSH20 0xFFFFFFFFFFFFFFFFFFFFFFFFFFFFFFFFFFFFFFFF AND DUP2 MSTORE PUSH1 0x20 ADD SWAP1 DUP2 MSTORE PUSH1 0x20 ADD PUSH1 0x0 KECCAK256 PUSH1 0x0 DUP3 DUP3 SLOAD PUSH2 0x1AE3 SWAP2 SWAP1 PUSH2 0x2FD7 JUMP JUMPDEST SWAP3 POP POP DUP2 SWAP1 SSTORE POP DUP4 PUSH20 0xFFFFFFFFFFFFFFFFFFFFFFFFFFFFFFFFFFFFFFFF AND CALLER PUSH20 0xFFFFFFFFFFFFFFFFFFFFFFFFFFFFFFFFFFFFFFFF AND PUSH32 0xDDF252AD1BE2C89B69C2B068FC378DAA952BA7F163C4A11628F55A4DF523B3EF DUP6 PUSH1 0x40 MLOAD PUSH2 0x1B47 SWAP2 SWAP1 PUSH2 0x2967 JUMP JUMPDEST PUSH1 0x40 MLOAD DUP1 SWAP2 SUB SWAP1 LOG3 PUSH1 0x1 SWAP2 POP POP SWAP3 SWAP2 POP POP JUMP JUMPDEST PUSH1 0x6 PUSH1 0x20 MSTORE DUP1 PUSH1 0x0 MSTORE PUSH1 0x40 PUSH1 0x0 KECCAK256 PUSH1 0x0 SWAP2 POP SLOAD SWAP1 PUSH2 0x100 EXP SWAP1 DIV PUSH1 0xFF AND DUP2 JUMP JUMPDEST PUSH1 0xA SLOAD DUP2 JUMP JUMPDEST PUSH1 0x0 DUP4 PUSH1 0xE PUSH1 0x0 CALLER PUSH20 0xFFFFFFFFFFFFFFFFFFFFFFFFFFFFFFFFFFFFFFFF AND PUSH20 0xFFFFFFFFFFFFFFFFFFFFFFFFFFFFFFFFFFFFFFFF AND DUP2 MSTORE PUSH1 0x20 ADD SWAP1 DUP2 MSTORE PUSH1 0x20 ADD PUSH1 0x0 KECCAK256 PUSH1 0x0 DUP8 PUSH20 0xFFFFFFFFFFFFFFFFFFFFFFFFFFFFFFFFFFFFFFFF AND PUSH20 0xFFFFFFFFFFFFFFFFFFFFFFFFFFFFFFFFFFFFFFFF AND DUP2 MSTORE PUSH1 0x20 ADD SWAP1 DUP2 MSTORE PUSH1 0x20 ADD PUSH1 0x0 KECCAK256 DUP2 SWAP1 SSTORE POP DUP5 PUSH20 0xFFFFFFFFFFFFFFFFFFFFFFFFFFFFFFFFFFFFFFFF AND CALLER PUSH20 0xFFFFFFFFFFFFFFFFFFFFFFFFFFFFFFFFFFFFFFFF AND PUSH32 0x8C5BE1E5EBEC7D5BD14F71427D1E84F3DD0314C0F7B2291E5B200AC8C7C3B925 DUP7 PUSH1 0x40 MLOAD PUSH2 0x1C60 SWAP2 SWAP1 PUSH2 0x2967 JUMP JUMPDEST PUSH1 0x40 MLOAD DUP1 SWAP2 SUB SWAP1 LOG3 DUP5 PUSH20 0xFFFFFFFFFFFFFFFFFFFFFFFFFFFFFFFFFFFFFFFF AND PUSH3 0xBA451F CALLER DUP7 DUP7 DUP7 PUSH1 0x40 MLOAD DUP6 PUSH4 0xFFFFFFFF AND PUSH1 0xE0 SHL DUP2 MSTORE PUSH1 0x4 ADD PUSH2 0x1CA6 SWAP5 SWAP4 SWAP3 SWAP2 SWAP1 PUSH2 0x307A JUMP JUMPDEST PUSH1 0x20 PUSH1 0x40 MLOAD DUP1 DUP4 SUB DUP2 PUSH1 0x0 DUP8 GAS CALL ISZERO DUP1 ISZERO PUSH2 0x1CC5 JUMPI RETURNDATASIZE PUSH1 0x0 DUP1 RETURNDATACOPY RETURNDATASIZE PUSH1 0x0 REVERT JUMPDEST POP POP POP POP PUSH1 0x40 MLOAD RETURNDATASIZE PUSH1 0x1F NOT PUSH1 0x1F DUP3 ADD AND DUP3 ADD DUP1 PUSH1 0x40 MSTORE POP DUP2 ADD SWAP1 PUSH2 0x1CE9 SWAP2 SWAP1 PUSH2 0x30E6 JUMP JUMPDEST SWAP1 POP SWAP5 SWAP4 POP POP POP POP JUMP JUMPDEST PUSH2 0x1CFB PUSH2 0x20D6 JUMP JUMPDEST PUSH20 0xFFFFFFFFFFFFFFFFFFFFFFFFFFFFFFFFFFFFFFFF AND CALLER PUSH20 0xFFFFFFFFFFFFFFFFFFFFFFFFFFFFFFFFFFFFFFFF AND EQ PUSH2 0x1D68 JUMPI PUSH1 0x40 MLOAD PUSH32 0x8C379A000000000000000000000000000000000000000000000000000000000 DUP2 MSTORE PUSH1 0x4 ADD PUSH2 0x1D5F SWAP1 PUSH2 0x2E30 JUMP JUMPDEST PUSH1 0x40 MLOAD DUP1 SWAP2 SUB SWAP1 REVERT JUMPDEST PUSH1 0x0 PUSH1 0x6 PUSH1 0x0 DUP4 PUSH20 0xFFFFFFFFFFFFFFFFFFFFFFFFFFFFFFFFFFFFFFFF AND PUSH20 0xFFFFFFFFFFFFFFFFFFFFFFFFFFFFFFFFFFFFFFFF AND DUP2 MSTORE PUSH1 0x20 ADD SWAP1 DUP2 MSTORE PUSH1 0x20 ADD PUSH1 0x0 KECCAK256 PUSH1 0x0 PUSH2 0x100 EXP DUP2 SLOAD DUP2 PUSH1 0xFF MUL NOT AND SWAP1 DUP4 ISZERO ISZERO MUL OR SWAP1 SSTORE POP POP JUMP JUMPDEST DUP4 TIMESTAMP GT ISZERO PUSH2 0x1E06 JUMPI PUSH1 0x40 MLOAD PUSH32 0x8C379A000000000000000000000000000000000000000000000000000000000 DUP2 MSTORE PUSH1 0x4 ADD PUSH2 0x1DFD SWAP1 PUSH2 0x31CB JUMP JUMPDEST PUSH1 0x40 MLOAD DUP1 SWAP2 SUB SWAP1 REVERT JUMPDEST PUSH1 0x0 PUSH32 0x6E71EDAE12B1B97F4D1F60370FEF10105FA2FAAE0126114A169C64845D6126C9 DUP9 DUP9 DUP9 PUSH1 0xD PUSH1 0x0 DUP14 PUSH20 0xFFFFFFFFFFFFFFFFFFFFFFFFFFFFFFFFFFFFFFFF AND PUSH20 0xFFFFFFFFFFFFFFFFFFFFFFFFFFFFFFFFFFFFFFFF AND DUP2 MSTORE PUSH1 0x20 ADD SWAP1 DUP2 MSTORE PUSH1 0x20 ADD PUSH1 0x0 KECCAK256 PUSH1 0x0 DUP2 SLOAD DUP1 SWAP3 SWAP2 SWAP1 PUSH2 0x1E7C SWAP1 PUSH2 0x31EB JUMP JUMPDEST SWAP2 SWAP1 POP SSTORE DUP10 PUSH1 0x40 MLOAD PUSH1 0x20 ADD PUSH2 0x1E96 SWAP7 SWAP6 SWAP5 SWAP4 SWAP3 SWAP2 SWAP1 PUSH2 0x3234 JUMP JUMPDEST PUSH1 0x40 MLOAD PUSH1 0x20 DUP2 DUP4 SUB SUB DUP2 MSTORE SWAP1 PUSH1 0x40 MSTORE DUP1 MLOAD SWAP1 PUSH1 0x20 ADD KECCAK256 SWAP1 POP PUSH2 0x1EBB DUP9 DUP3 DUP7 DUP7 DUP7 PUSH2 0x23E0 JUMP JUMPDEST DUP1 PUSH2 0x1ECF JUMPI POP PUSH2 0x1ECE DUP9 DUP3 DUP7 DUP7 DUP7 PUSH2 0x24F6 JUMP JUMPDEST JUMPDEST PUSH2 0x1ED8 JUMPI PUSH1 0x0 DUP1 REVERT JUMPDEST DUP6 PUSH1 0xE PUSH1 0x0 DUP11 PUSH20 0xFFFFFFFFFFFFFFFFFFFFFFFFFFFFFFFFFFFFFFFF AND PUSH20 0xFFFFFFFFFFFFFFFFFFFFFFFFFFFFFFFFFFFFFFFF AND DUP2 MSTORE PUSH1 0x20 ADD SWAP1 DUP2 MSTORE PUSH1 0x20 ADD PUSH1 0x0 KECCAK256 PUSH1 0x0 DUP10 PUSH20 0xFFFFFFFFFFFFFFFFFFFFFFFFFFFFFFFFFFFFFFFF AND PUSH20 0xFFFFFFFFFFFFFFFFFFFFFFFFFFFFFFFFFFFFFFFF AND DUP2 MSTORE PUSH1 0x20 ADD SWAP1 DUP2 MSTORE PUSH1 0x20 ADD PUSH1 0x0 KECCAK256 DUP2 SWAP1 SSTORE POP DUP7 PUSH20 0xFFFFFFFFFFFFFFFFFFFFFFFFFFFFFFFFFFFFFFFF AND DUP9 PUSH20 0xFFFFFFFFFFFFFFFFFFFFFFFFFFFFFFFFFFFFFFFF AND PUSH32 0x8C5BE1E5EBEC7D5BD14F71427D1E84F3DD0314C0F7B2291E5B200AC8C7C3B925 DUP9 PUSH1 0x40 MLOAD PUSH2 0x1FB6 SWAP2 SWAP1 PUSH2 0x2967 JUMP JUMPDEST PUSH1 0x40 MLOAD DUP1 SWAP2 SUB SWAP1 LOG3 POP POP POP POP POP POP POP POP JUMP JUMPDEST PUSH2 0x1FD0 PUSH2 0x20D6 JUMP JUMPDEST PUSH20 0xFFFFFFFFFFFFFFFFFFFFFFFFFFFFFFFFFFFFFFFF AND CALLER PUSH20 0xFFFFFFFFFFFFFFFFFFFFFFFFFFFFFFFFFFFFFFFF AND EQ PUSH2 0x203D JUMPI PUSH1 0x40 MLOAD PUSH32 0x8C379A000000000000000000000000000000000000000000000000000000000 DUP2 MSTORE PUSH1 0x4 ADD PUSH2 0x2034 SWAP1 PUSH2 0x2E30 JUMP JUMPDEST PUSH1 0x40 MLOAD DUP1 SWAP2 SUB SWAP1 REVERT JUMPDEST PUSH1 0xC SLOAD TIMESTAMP LT ISZERO PUSH2 0x204C JUMPI PUSH1 0x0 DUP1 REVERT JUMPDEST PUSH1 0xB PUSH1 0x0 SWAP1 SLOAD SWAP1 PUSH2 0x100 EXP SWAP1 DIV PUSH20 0xFFFFFFFFFFFFFFFFFFFFFFFFFFFFFFFFFFFFFFFF AND PUSH1 0x8 PUSH1 0x0 PUSH2 0x100 EXP DUP2 SLOAD DUP2 PUSH20 0xFFFFFFFFFFFFFFFFFFFFFFFFFFFFFFFFFFFFFFFF MUL NOT AND SWAP1 DUP4 PUSH20 0xFFFFFFFFFFFFFFFFFFFFFFFFFFFFFFFFFFFFFFFF AND MUL OR SWAP1 SSTORE POP JUMP JUMPDEST PUSH1 0xE PUSH1 0x20 MSTORE DUP2 PUSH1 0x0 MSTORE PUSH1 0x40 PUSH1 0x0 KECCAK256 PUSH1 0x20 MSTORE DUP1 PUSH1 0x0 MSTORE PUSH1 0x40 PUSH1 0x0 KECCAK256 PUSH1 0x0 SWAP2 POP SWAP2 POP POP SLOAD DUP2 JUMP JUMPDEST PUSH1 0x0 PUSH1 0xC SLOAD TIMESTAMP LT PUSH2 0x210B JUMPI PUSH1 0xB PUSH1 0x0 SWAP1 SLOAD SWAP1 PUSH2 0x100 EXP SWAP1 DIV PUSH20 0xFFFFFFFFFFFFFFFFFFFFFFFFFFFFFFFFFFFFFFFF AND SWAP1 POP PUSH2 0x2131 JUMP JUMPDEST PUSH1 0x8 PUSH1 0x0 SWAP1 SLOAD SWAP1 PUSH2 0x100 EXP SWAP1 DIV PUSH20 0xFFFFFFFFFFFFFFFFFFFFFFFFFFFFFFFFFFFFFFFF AND SWAP1 POP JUMPDEST SWAP1 JUMP JUMPDEST PUSH1 0x8 PUSH1 0x0 SWAP1 SLOAD SWAP1 PUSH2 0x100 EXP SWAP1 DIV PUSH20 0xFFFFFFFFFFFFFFFFFFFFFFFFFFFFFFFFFFFFFFFF AND DUP2 JUMP JUMPDEST PUSH2 0x2162 PUSH2 0x20D6 JUMP JUMPDEST PUSH20 0xFFFFFFFFFFFFFFFFFFFFFFFFFFFFFFFFFFFFFFFF AND CALLER PUSH20 0xFFFFFFFFFFFFFFFFFFFFFFFFFFFFFFFFFFFFFFFF AND EQ PUSH2 0x21CF JUMPI PUSH1 0x40 MLOAD PUSH32 0x8C379A000000000000000000000000000000000000000000000000000000000 DUP2 MSTORE PUSH1 0x4 ADD PUSH2 0x21C6 SWAP1 PUSH2 0x2E30 JUMP JUMPDEST PUSH1 0x40 MLOAD DUP1 SWAP2 SUB SWAP1 REVERT JUMPDEST PUSH1 0x0 PUSH20 0xFFFFFFFFFFFFFFFFFFFFFFFFFFFFFFFFFFFFFFFF AND DUP2 PUSH20 0xFFFFFFFFFFFFFFFFFFFFFFFFFFFFFFFFFFFFFFFF AND EQ ISZERO PUSH2 0x223F JUMPI PUSH1 0x40 MLOAD PUSH32 0x8C379A000000000000000000000000000000000000000000000000000000000 DUP2 MSTORE PUSH1 0x4 ADD PUSH2 0x2236 SWAP1 PUSH2 0x32E1 JUMP JUMPDEST PUSH1 0x40 MLOAD DUP1 SWAP2 SUB SWAP1 REVERT JUMPDEST DUP1 PUSH1 0x9 PUSH1 0x0 PUSH2 0x100 EXP DUP2 SLOAD DUP2 PUSH20 0xFFFFFFFFFFFFFFFFFFFFFFFFFFFFFFFFFFFFFFFF MUL NOT AND SWAP1 DUP4 PUSH20 0xFFFFFFFFFFFFFFFFFFFFFFFFFFFFFFFFFFFFFFFF AND MUL OR SWAP1 SSTORE POP PUSH1 0x5 SLOAD TIMESTAMP PUSH2 0x228E SWAP2 SWAP1 PUSH2 0x2FD7 JUMP JUMPDEST PUSH1 0xA DUP2 SWAP1 SSTORE POP POP JUMP JUMPDEST PUSH1 0x0 PUSH20 0xFFFFFFFFFFFFFFFFFFFFFFFFFFFFFFFFFFFFFFFF AND DUP3 PUSH20 0xFFFFFFFFFFFFFFFFFFFFFFFFFFFFFFFFFFFFFFFF AND EQ ISZERO PUSH2 0x2307 JUMPI PUSH1 0x40 MLOAD PUSH32 0x8C379A000000000000000000000000000000000000000000000000000000000 DUP2 MSTORE PUSH1 0x4 ADD PUSH2 0x22FE SWAP1 PUSH2 0x334D JUMP JUMPDEST PUSH1 0x40 MLOAD DUP1 SWAP2 SUB SWAP1 REVERT JUMPDEST DUP1 PUSH1 0x3 PUSH1 0x0 DUP3 DUP3 SLOAD PUSH2 0x2319 SWAP2 SWAP1 PUSH2 0x2FD7 JUMP JUMPDEST SWAP3 POP POP DUP2 SWAP1 SSTORE POP DUP1 PUSH1 0x2 PUSH1 0x0 DUP5 PUSH20 0xFFFFFFFFFFFFFFFFFFFFFFFFFFFFFFFFFFFFFFFF AND PUSH20 0xFFFFFFFFFFFFFFFFFFFFFFFFFFFFFFFFFFFFFFFF AND DUP2 MSTORE PUSH1 0x20 ADD SWAP1 DUP2 MSTORE PUSH1 0x20 ADD PUSH1 0x0 KECCAK256 PUSH1 0x0 DUP3 DUP3 SLOAD PUSH2 0x236F SWAP2 SWAP1 PUSH2 0x2FD7 JUMP JUMPDEST SWAP3 POP POP DUP2 SWAP1 SSTORE POP DUP2 PUSH20 0xFFFFFFFFFFFFFFFFFFFFFFFFFFFFFFFFFFFFFFFF AND PUSH1 0x0 PUSH20 0xFFFFFFFFFFFFFFFFFFFFFFFFFFFFFFFFFFFFFFFF AND PUSH32 0xDDF252AD1BE2C89B69C2B068FC378DAA952BA7F163C4A11628F55A4DF523B3EF DUP4 PUSH1 0x40 MLOAD PUSH2 0x23D4 SWAP2 SWAP1 PUSH2 0x2967 JUMP JUMPDEST PUSH1 0x40 MLOAD DUP1 SWAP2 SUB SWAP1 LOG3 POP POP JUMP JUMPDEST PUSH1 0x0 DUP1 PUSH32 0x0 DUP7 PUSH1 0x40 MLOAD PUSH1 0x20 ADD PUSH2 0x2416 SWAP3 SWAP2 SWAP1 PUSH2 0x33E5 JUMP JUMPDEST PUSH1 0x40 MLOAD PUSH1 0x20 DUP2 DUP4 SUB SUB DUP2 MSTORE SWAP1 PUSH1 0x40 MSTORE DUP1 MLOAD SWAP1 PUSH1 0x20 ADD KECCAK256 SWAP1 POP PUSH1 0x0 PUSH1 0x1 DUP3 DUP8 DUP8 DUP8 PUSH1 0x40 MLOAD PUSH1 0x0 DUP2 MSTORE PUSH1 0x20 ADD PUSH1 0x40 MSTORE PUSH1 0x40 MLOAD PUSH2 0x2453 SWAP5 SWAP4 SWAP3 SWAP2 SWAP1 PUSH2 0x341C JUMP JUMPDEST PUSH1 0x20 PUSH1 0x40 MLOAD PUSH1 0x20 DUP2 SUB SWAP1 DUP1 DUP5 SUB SWAP1 DUP6 GAS STATICCALL ISZERO DUP1 ISZERO PUSH2 0x2475 JUMPI RETURNDATASIZE PUSH1 0x0 DUP1 RETURNDATACOPY RETURNDATASIZE PUSH1 0x0 REVERT JUMPDEST POP POP POP PUSH1 0x20 PUSH1 0x40 MLOAD SUB MLOAD SWAP1 POP PUSH1 0x0 PUSH20 0xFFFFFFFFFFFFFFFFFFFFFFFFFFFFFFFFFFFFFFFF AND DUP2 PUSH20 0xFFFFFFFFFFFFFFFFFFFFFFFFFFFFFFFFFFFFFFFF AND EQ ISZERO DUP1 ISZERO PUSH2 0x24E9 JUMPI POP DUP8 PUSH20 0xFFFFFFFFFFFFFFFFFFFFFFFFFFFFFFFFFFFFFFFF AND DUP2 PUSH20 0xFFFFFFFFFFFFFFFFFFFFFFFFFFFFFFFFFFFFFFFF AND EQ JUMPDEST SWAP3 POP POP POP SWAP6 SWAP5 POP POP POP POP POP JUMP JUMPDEST PUSH1 0x0 DUP1 PUSH32 0x0 DUP7 PUSH1 0x40 MLOAD PUSH1 0x20 ADD PUSH2 0x252C SWAP3 SWAP2 SWAP1 PUSH2 0x34AD JUMP JUMPDEST PUSH1 0x40 MLOAD PUSH1 0x20 DUP2 DUP4 SUB SUB DUP2 MSTORE SWAP1 PUSH1 0x40 MSTORE DUP1 MLOAD SWAP1 PUSH1 0x20 ADD KECCAK256 SWAP1 POP PUSH1 0x0 PUSH1 0x1 DUP3 DUP8 DUP8 DUP8 PUSH1 0x40 MLOAD PUSH1 0x0 DUP2 MSTORE PUSH1 0x20 ADD PUSH1 0x40 MSTORE PUSH1 0x40 MLOAD PUSH2 0x2569 SWAP5 SWAP4 SWAP3 SWAP2 SWAP1 PUSH2 0x341C JUMP JUMPDEST PUSH1 0x20 PUSH1 0x40 MLOAD PUSH1 0x20 DUP2 SUB SWAP1 DUP1 DUP5 SUB SWAP1 DUP6 GAS STATICCALL ISZERO DUP1 ISZERO PUSH2 0x258B JUMPI RETURNDATASIZE PUSH1 0x0 DUP1 RETURNDATACOPY RETURNDATASIZE PUSH1 0x0 REVERT JUMPDEST POP POP POP PUSH1 0x20 PUSH1 0x40 MLOAD SUB MLOAD SWAP1 POP PUSH1 0x0 PUSH20 0xFFFFFFFFFFFFFFFFFFFFFFFFFFFFFFFFFFFFFFFF AND DUP2 PUSH20 0xFFFFFFFFFFFFFFFFFFFFFFFFFFFFFFFFFFFFFFFF AND EQ ISZERO DUP1 ISZERO PUSH2 0x25FF JUMPI POP DUP8 PUSH20 0xFFFFFFFFFFFFFFFFFFFFFFFFFFFFFFFFFFFFFFFF AND DUP2 PUSH20 0xFFFFFFFFFFFFFFFFFFFFFFFFFFFFFFFFFFFFFFFF AND EQ JUMPDEST SWAP3 POP POP POP SWAP6 SWAP5 POP POP POP POP POP JUMP JUMPDEST PUSH1 0x0 PUSH20 0xFFFFFFFFFFFFFFFFFFFFFFFFFFFFFFFFFFFFFFFF AND DUP3 PUSH20 0xFFFFFFFFFFFFFFFFFFFFFFFFFFFFFFFFFFFFFFFF AND EQ ISZERO PUSH2 0x267C JUMPI PUSH1 0x40 MLOAD PUSH32 0x8C379A000000000000000000000000000000000000000000000000000000000 DUP2 MSTORE PUSH1 0x4 ADD PUSH2 0x2673 SWAP1 PUSH2 0x3556 JUMP JUMPDEST PUSH1 0x40 MLOAD DUP1 SWAP2 SUB SWAP1 REVERT JUMPDEST DUP1 PUSH1 0x2 PUSH1 0x0 DUP5 PUSH20 0xFFFFFFFFFFFFFFFFFFFFFFFFFFFFFFFFFFFFFFFF AND PUSH20 0xFFFFFFFFFFFFFFFFFFFFFFFFFFFFFFFFFFFFFFFF AND DUP2 MSTORE PUSH1 0x20 ADD SWAP1 DUP2 MSTORE PUSH1 0x20 ADD PUSH1 0x0 KECCAK256 PUSH1 0x0 DUP3 DUP3 SLOAD PUSH2 0x26CB SWAP2 SWAP1 PUSH2 0x2F11 JUMP JUMPDEST SWAP3 POP POP DUP2 SWAP1 SSTORE POP DUP1 PUSH1 0x3 PUSH1 0x0 DUP3 DUP3 SLOAD PUSH2 0x26E4 SWAP2 SWAP1 PUSH2 0x2F11 JUMP JUMPDEST SWAP3 POP POP DUP2 SWAP1 SSTORE POP PUSH1 0x0 PUSH20 0xFFFFFFFFFFFFFFFFFFFFFFFFFFFFFFFFFFFFFFFF AND DUP3 PUSH20 0xFFFFFFFFFFFFFFFFFFFFFFFFFFFFFFFFFFFFFFFF AND PUSH32 0xDDF252AD1BE2C89B69C2B068FC378DAA952BA7F163C4A11628F55A4DF523B3EF DUP4 PUSH1 0x40 MLOAD PUSH2 0x2749 SWAP2 SWAP1 PUSH2 0x2967 JUMP JUMPDEST PUSH1 0x40 MLOAD DUP1 SWAP2 SUB SWAP1 LOG3 POP POP JUMP JUMPDEST PUSH1 0x0 DUP2 SWAP1 POP SWAP2 SWAP1 POP JUMP JUMPDEST PUSH2 0x2768 DUP2 PUSH2 0x2755 JUMP JUMPDEST DUP3 MSTORE POP POP JUMP JUMPDEST PUSH1 0x0 PUSH1 0x20 DUP3 ADD SWAP1 POP PUSH2 0x2783 PUSH1 0x0 DUP4 ADD DUP5 PUSH2 0x275F JUMP JUMPDEST SWAP3 SWAP2 POP POP JUMP JUMPDEST PUSH1 0x0 DUP2 MLOAD SWAP1 POP SWAP2 SWAP1 POP JUMP JUMPDEST PUSH1 0x0 DUP3 DUP3 MSTORE PUSH1 0x20 DUP3 ADD SWAP1 POP SWAP3 SWAP2 POP POP JUMP JUMPDEST PUSH1 0x0 JUMPDEST DUP4 DUP2 LT ISZERO PUSH2 0x27C3 JUMPI DUP1 DUP3 ADD MLOAD DUP2 DUP5 ADD MSTORE PUSH1 0x20 DUP2 ADD SWAP1 POP PUSH2 0x27A8 JUMP JUMPDEST DUP4 DUP2 GT ISZERO PUSH2 0x27D2 JUMPI PUSH1 0x0 DUP5 DUP5 ADD MSTORE JUMPDEST POP POP POP POP JUMP JUMPDEST PUSH1 0x0 PUSH1 0x1F NOT PUSH1 0x1F DUP4 ADD AND SWAP1 POP SWAP2 SWAP1 POP JUMP JUMPDEST PUSH1 0x0 PUSH2 0x27F4 DUP3 PUSH2 0x2789 JUMP JUMPDEST PUSH2 0x27FE DUP2 DUP6 PUSH2 0x2794 JUMP JUMPDEST SWAP4 POP PUSH2 0x280E DUP2 DUP6 PUSH1 0x20 DUP7 ADD PUSH2 0x27A5 JUMP JUMPDEST PUSH2 0x2817 DUP2 PUSH2 0x27D8 JUMP JUMPDEST DUP5 ADD SWAP2 POP POP SWAP3 SWAP2 POP POP JUMP JUMPDEST PUSH1 0x0 PUSH1 0x20 DUP3 ADD SWAP1 POP DUP2 DUP2 SUB PUSH1 0x0 DUP4 ADD MSTORE PUSH2 0x283C DUP2 DUP5 PUSH2 0x27E9 JUMP JUMPDEST SWAP1 POP SWAP3 SWAP2 POP POP JUMP JUMPDEST PUSH1 0x0 DUP1 REVERT JUMPDEST PUSH1 0x0 DUP1 REVERT JUMPDEST PUSH1 0x0 PUSH20 0xFFFFFFFFFFFFFFFFFFFFFFFFFFFFFFFFFFFFFFFF DUP3 AND SWAP1 POP SWAP2 SWAP1 POP JUMP JUMPDEST PUSH1 0x0 PUSH2 0x2879 DUP3 PUSH2 0x284E JUMP JUMPDEST SWAP1 POP SWAP2 SWAP1 POP JUMP JUMPDEST PUSH2 0x2889 DUP2 PUSH2 0x286E JUMP JUMPDEST DUP2 EQ PUSH2 0x2894 JUMPI PUSH1 0x0 DUP1 REVERT JUMPDEST POP JUMP JUMPDEST PUSH1 0x0 DUP2 CALLDATALOAD SWAP1 POP PUSH2 0x28A6 DUP2 PUSH2 0x2880 JUMP JUMPDEST SWAP3 SWAP2 POP POP JUMP JUMPDEST PUSH1 0x0 DUP2 SWAP1 POP SWAP2 SWAP1 POP JUMP JUMPDEST PUSH2 0x28BF DUP2 PUSH2 0x28AC JUMP JUMPDEST DUP2 EQ PUSH2 0x28CA JUMPI PUSH1 0x0 DUP1 REVERT JUMPDEST POP JUMP JUMPDEST PUSH1 0x0 DUP2 CALLDATALOAD SWAP1 POP PUSH2 0x28DC DUP2 PUSH2 0x28B6 JUMP JUMPDEST SWAP3 SWAP2 POP POP JUMP JUMPDEST PUSH1 0x0 DUP1 PUSH1 0x40 DUP4 DUP6 SUB SLT ISZERO PUSH2 0x28F9 JUMPI PUSH2 0x28F8 PUSH2 0x2844 JUMP JUMPDEST JUMPDEST PUSH1 0x0 PUSH2 0x2907 DUP6 DUP3 DUP7 ADD PUSH2 0x2897 JUMP JUMPDEST SWAP3 POP POP PUSH1 0x20 PUSH2 0x2918 DUP6 DUP3 DUP7 ADD PUSH2 0x28CD JUMP JUMPDEST SWAP2 POP POP SWAP3 POP SWAP3 SWAP1 POP JUMP JUMPDEST PUSH1 0x0 DUP2 ISZERO ISZERO SWAP1 POP SWAP2 SWAP1 POP JUMP JUMPDEST PUSH2 0x2937 DUP2 PUSH2 0x2922 JUMP JUMPDEST DUP3 MSTORE POP POP JUMP JUMPDEST PUSH1 0x0 PUSH1 0x20 DUP3 ADD SWAP1 POP PUSH2 0x2952 PUSH1 0x0 DUP4 ADD DUP5 PUSH2 0x292E JUMP JUMPDEST SWAP3 SWAP2 POP POP JUMP JUMPDEST PUSH2 0x2961 DUP2 PUSH2 0x28AC JUMP JUMPDEST DUP3 MSTORE POP POP JUMP JUMPDEST PUSH1 0x0 PUSH1 0x20 DUP3 ADD SWAP1 POP PUSH2 0x297C PUSH1 0x0 DUP4 ADD DUP5 PUSH2 0x2958 JUMP JUMPDEST SWAP3 SWAP2 POP POP JUMP JUMPDEST PUSH1 0x0 DUP1 PUSH1 0x0 PUSH1 0x60 DUP5 DUP7 SUB SLT ISZERO PUSH2 0x299B JUMPI PUSH2 0x299A PUSH2 0x2844 JUMP JUMPDEST JUMPDEST PUSH1 0x0 PUSH2 0x29A9 DUP7 DUP3 DUP8 ADD PUSH2 0x2897 JUMP JUMPDEST SWAP4 POP POP PUSH1 0x20 PUSH2 0x29BA DUP7 DUP3 DUP8 ADD PUSH2 0x2897 JUMP JUMPDEST SWAP3 POP POP PUSH1 0x40 PUSH2 0x29CB DUP7 DUP3 DUP8 ADD PUSH2 0x28CD JUMP JUMPDEST SWAP2 POP POP SWAP3 POP SWAP3 POP SWAP3 JUMP JUMPDEST PUSH1 0x0 PUSH1 0xFF DUP3 AND SWAP1 POP SWAP2 SWAP1 POP JUMP JUMPDEST PUSH2 0x29EB DUP2 PUSH2 0x29D5 JUMP JUMPDEST DUP3 MSTORE POP POP JUMP JUMPDEST PUSH1 0x0 PUSH1 0x20 DUP3 ADD SWAP1 POP PUSH2 0x2A06 PUSH1 0x0 DUP4 ADD DUP5 PUSH2 0x29E2 JUMP JUMPDEST SWAP3 SWAP2 POP POP JUMP JUMPDEST PUSH1 0x0 DUP1 REVERT JUMPDEST PUSH1 0x0 DUP1 REVERT JUMPDEST PUSH1 0x0 DUP1 REVERT JUMPDEST PUSH1 0x0 DUP1 DUP4 PUSH1 0x1F DUP5 ADD SLT PUSH2 0x2A31 JUMPI PUSH2 0x2A30 PUSH2 0x2A0C JUMP JUMPDEST JUMPDEST DUP3 CALLDATALOAD SWAP1 POP PUSH8 0xFFFFFFFFFFFFFFFF DUP2 GT ISZERO PUSH2 0x2A4E JUMPI PUSH2 0x2A4D PUSH2 0x2A11 JUMP JUMPDEST JUMPDEST PUSH1 0x20 DUP4 ADD SWAP2 POP DUP4 PUSH1 0x1 DUP3 MUL DUP4 ADD GT ISZERO PUSH2 0x2A6A JUMPI PUSH2 0x2A69 PUSH2 0x2A16 JUMP JUMPDEST JUMPDEST SWAP3 POP SWAP3 SWAP1 POP JUMP JUMPDEST PUSH1 0x0 DUP1 PUSH1 0x0 DUP1 PUSH1 0x60 DUP6 DUP8 SUB SLT ISZERO PUSH2 0x2A8B JUMPI PUSH2 0x2A8A PUSH2 0x2844 JUMP JUMPDEST JUMPDEST PUSH1 0x0 PUSH2 0x2A99 DUP8 DUP3 DUP9 ADD PUSH2 0x2897 JUMP JUMPDEST SWAP5 POP POP PUSH1 0x20 PUSH2 0x2AAA DUP8 DUP3 DUP9 ADD PUSH2 0x28CD JUMP JUMPDEST SWAP4 POP POP PUSH1 0x40 DUP6 ADD CALLDATALOAD PUSH8 0xFFFFFFFFFFFFFFFF DUP2 GT ISZERO PUSH2 0x2ACB JUMPI PUSH2 0x2ACA PUSH2 0x2849 JUMP JUMPDEST JUMPDEST PUSH2 0x2AD7 DUP8 DUP3 DUP9 ADD PUSH2 0x2A1B JUMP JUMPDEST SWAP3 POP SWAP3 POP POP SWAP3 SWAP6 SWAP2 SWAP5 POP SWAP3 POP JUMP JUMPDEST PUSH2 0x2AEE DUP2 PUSH2 0x286E JUMP JUMPDEST DUP3 MSTORE POP POP JUMP JUMPDEST PUSH1 0x0 PUSH1 0x20 DUP3 ADD SWAP1 POP PUSH2 0x2B09 PUSH1 0x0 DUP4 ADD DUP5 PUSH2 0x2AE5 JUMP JUMPDEST SWAP3 SWAP2 POP POP JUMP JUMPDEST PUSH2 0x2B18 DUP2 PUSH2 0x29D5 JUMP JUMPDEST DUP2 EQ PUSH2 0x2B23 JUMPI PUSH1 0x0 DUP1 REVERT JUMPDEST POP JUMP JUMPDEST PUSH1 0x0 DUP2 CALLDATALOAD SWAP1 POP PUSH2 0x2B35 DUP2 PUSH2 0x2B0F JUMP JUMPDEST SWAP3 SWAP2 POP POP JUMP JUMPDEST PUSH2 0x2B44 DUP2 PUSH2 0x2755 JUMP JUMPDEST DUP2 EQ PUSH2 0x2B4F JUMPI PUSH1 0x0 DUP1 REVERT JUMPDEST POP JUMP JUMPDEST PUSH1 0x0 DUP2 CALLDATALOAD SWAP1 POP PUSH2 0x2B61 DUP2 PUSH2 0x2B3B JUMP JUMPDEST SWAP3 SWAP2 POP POP JUMP JUMPDEST PUSH1 0x0 DUP1 PUSH1 0x0 DUP1 PUSH1 0x0 DUP1 PUSH1 0x0 PUSH1 0xE0 DUP9 DUP11 SUB SLT ISZERO PUSH2 0x2B86 JUMPI PUSH2 0x2B85 PUSH2 0x2844 JUMP JUMPDEST JUMPDEST PUSH1 0x0 PUSH2 0x2B94 DUP11 DUP3 DUP12 ADD PUSH2 0x2897 JUMP JUMPDEST SWAP8 POP POP PUSH1 0x20 PUSH2 0x2BA5 DUP11 DUP3 DUP12 ADD PUSH2 0x2897 JUMP JUMPDEST SWAP7 POP POP PUSH1 0x40 PUSH2 0x2BB6 DUP11 DUP3 DUP12 ADD PUSH2 0x28CD JUMP JUMPDEST SWAP6 POP POP PUSH1 0x60 PUSH2 0x2BC7 DUP11 DUP3 DUP12 ADD PUSH2 0x28CD JUMP JUMPDEST SWAP5 POP POP PUSH1 0x80 PUSH2 0x2BD8 DUP11 DUP3 DUP12 ADD PUSH2 0x2B26 JUMP JUMPDEST SWAP4 POP POP PUSH1 0xA0 PUSH2 0x2BE9 DUP11 DUP3 DUP12 ADD PUSH2 0x2B52 JUMP JUMPDEST SWAP3 POP POP PUSH1 0xC0 PUSH2 0x2BFA DUP11 DUP3 DUP12 ADD PUSH2 0x2B52 JUMP JUMPDEST SWAP2 POP POP SWAP3 SWAP6 SWAP9 SWAP2 SWAP5 SWAP8 POP SWAP3 SWAP6 POP JUMP JUMPDEST PUSH1 0x0 PUSH1 0x20 DUP3 DUP5 SUB SLT ISZERO PUSH2 0x2C1F JUMPI PUSH2 0x2C1E PUSH2 0x2844 JUMP JUMPDEST JUMPDEST PUSH1 0x0 PUSH2 0x2C2D DUP5 DUP3 DUP6 ADD PUSH2 0x2897 JUMP JUMPDEST SWAP2 POP POP SWAP3 SWAP2 POP POP JUMP JUMPDEST PUSH1 0x0 PUSH1 0x20 DUP3 DUP5 SUB SLT ISZERO PUSH2 0x2C4C JUMPI PUSH2 0x2C4B PUSH2 0x2844 JUMP JUMPDEST JUMPDEST PUSH1 0x0 PUSH2 0x2C5A DUP5 DUP3 DUP6 ADD PUSH2 0x28CD JUMP JUMPDEST SWAP2 POP POP SWAP3 SWAP2 POP POP JUMP JUMPDEST PUSH1 0x0 DUP2 MLOAD SWAP1 POP SWAP2 SWAP1 POP JUMP JUMPDEST PUSH1 0x0 DUP3 DUP3 MSTORE PUSH1 0x20 DUP3 ADD SWAP1 POP SWAP3 SWAP2 POP POP JUMP JUMPDEST PUSH1 0x0 DUP2 SWAP1 POP PUSH1 0x20 DUP3 ADD SWAP1 POP SWAP2 SWAP1 POP JUMP JUMPDEST PUSH2 0x2C98 DUP2 PUSH2 0x286E JUMP JUMPDEST DUP3 MSTORE POP POP JUMP JUMPDEST PUSH1 0x0 PUSH2 0x2CAA DUP4 DUP4 PUSH2 0x2C8F JUMP JUMPDEST PUSH1 0x20 DUP4 ADD SWAP1 POP SWAP3 SWAP2 POP POP JUMP JUMPDEST PUSH1 0x0 PUSH1 0x20 DUP3 ADD SWAP1 POP SWAP2 SWAP1 POP JUMP JUMPDEST PUSH1 0x0 PUSH2 0x2CCE DUP3 PUSH2 0x2C63 JUMP JUMPDEST PUSH2 0x2CD8 DUP2 DUP6 PUSH2 0x2C6E JUMP JUMPDEST SWAP4 POP PUSH2 0x2CE3 DUP4 PUSH2 0x2C7F JUMP JUMPDEST DUP1 PUSH1 0x0 JUMPDEST DUP4 DUP2 LT ISZERO PUSH2 0x2D14 JUMPI DUP2 MLOAD PUSH2 0x2CFB DUP9 DUP3 PUSH2 0x2C9E JUMP JUMPDEST SWAP8 POP PUSH2 0x2D06 DUP4 PUSH2 0x2CB6 JUMP JUMPDEST SWAP3 POP POP PUSH1 0x1 DUP2 ADD SWAP1 POP PUSH2 0x2CE7 JUMP JUMPDEST POP DUP6 SWAP4 POP POP POP POP SWAP3 SWAP2 POP POP JUMP JUMPDEST PUSH1 0x0 PUSH1 0x20 DUP3 ADD SWAP1 POP DUP2 DUP2 SUB PUSH1 0x0 DUP4 ADD MSTORE PUSH2 0x2D3B DUP2 DUP5 PUSH2 0x2CC3 JUMP JUMPDEST SWAP1 POP SWAP3 SWAP2 POP POP JUMP JUMPDEST PUSH1 0x0 DUP1 PUSH1 0x40 DUP4 DUP6 SUB SLT ISZERO PUSH2 0x2D5A JUMPI PUSH2 0x2D59 PUSH2 0x2844 JUMP JUMPDEST JUMPDEST PUSH1 0x0 PUSH2 0x2D68 DUP6 DUP3 DUP7 ADD PUSH2 0x2897 JUMP JUMPDEST SWAP3 POP POP PUSH1 0x20 PUSH2 0x2D79 DUP6 DUP3 DUP7 ADD PUSH2 0x2897 JUMP JUMPDEST SWAP2 POP POP SWAP3 POP SWAP3 SWAP1 POP JUMP JUMPDEST PUSH32 0x4E487B7100000000000000000000000000000000000000000000000000000000 PUSH1 0x0 MSTORE PUSH1 0x22 PUSH1 0x4 MSTORE PUSH1 0x24 PUSH1 0x0 REVERT JUMPDEST PUSH1 0x0 PUSH1 0x2 DUP3 DIV SWAP1 POP PUSH1 0x1 DUP3 AND DUP1 PUSH2 0x2DCA JUMPI PUSH1 0x7F DUP3 AND SWAP2 POP JUMPDEST PUSH1 0x20 DUP3 LT DUP2 EQ ISZERO PUSH2 0x2DDE JUMPI PUSH2 0x2DDD PUSH2 0x2D83 JUMP JUMPDEST JUMPDEST POP SWAP2 SWAP1 POP JUMP JUMPDEST PUSH32 0x416E7973776170563345524332303A20464F5242494444454E00000000000000 PUSH1 0x0 DUP3 ADD MSTORE POP JUMP JUMPDEST PUSH1 0x0 PUSH2 0x2E1A PUSH1 0x19 DUP4 PUSH2 0x2794 JUMP JUMPDEST SWAP2 POP PUSH2 0x2E25 DUP3 PUSH2 0x2DE4 JUMP JUMPDEST PUSH1 0x20 DUP3 ADD SWAP1 POP SWAP2 SWAP1 POP JUMP JUMPDEST PUSH1 0x0 PUSH1 0x20 DUP3 ADD SWAP1 POP DUP2 DUP2 SUB PUSH1 0x0 DUP4 ADD MSTORE PUSH2 0x2E49 DUP2 PUSH2 0x2E0D JUMP JUMPDEST SWAP1 POP SWAP2 SWAP1 POP JUMP JUMPDEST PUSH32 0x416E7973776170563345524332303A2072657175657374206578636565647320 PUSH1 0x0 DUP3 ADD MSTORE PUSH32 0x616C6C6F77616E63650000000000000000000000000000000000000000000000 PUSH1 0x20 DUP3 ADD MSTORE POP JUMP JUMPDEST PUSH1 0x0 PUSH2 0x2EAC PUSH1 0x29 DUP4 PUSH2 0x2794 JUMP JUMPDEST SWAP2 POP PUSH2 0x2EB7 DUP3 PUSH2 0x2E50 JUMP JUMPDEST PUSH1 0x40 DUP3 ADD SWAP1 POP SWAP2 SWAP1 POP JUMP JUMPDEST PUSH1 0x0 PUSH1 0x20 DUP3 ADD SWAP1 POP DUP2 DUP2 SUB PUSH1 0x0 DUP4 ADD MSTORE PUSH2 0x2EDB DUP2 PUSH2 0x2E9F JUMP JUMPDEST SWAP1 POP SWAP2 SWAP1 POP JUMP JUMPDEST PUSH32 0x4E487B7100000000000000000000000000000000000000000000000000000000 PUSH1 0x0 MSTORE PUSH1 0x11 PUSH1 0x4 MSTORE PUSH1 0x24 PUSH1 0x0 REVERT JUMPDEST PUSH1 0x0 PUSH2 0x2F1C DUP3 PUSH2 0x28AC JUMP JUMPDEST SWAP2 POP PUSH2 0x2F27 DUP4 PUSH2 0x28AC JUMP JUMPDEST SWAP3 POP DUP3 DUP3 LT ISZERO PUSH2 0x2F3A JUMPI PUSH2 0x2F39 PUSH2 0x2EE2 JUMP JUMPDEST JUMPDEST DUP3 DUP3 SUB SWAP1 POP SWAP3 SWAP2 POP POP JUMP JUMPDEST PUSH32 0x416E7973776170563345524332303A207472616E7366657220616D6F756E7420 PUSH1 0x0 DUP3 ADD MSTORE PUSH32 0x657863656564732062616C616E63650000000000000000000000000000000000 PUSH1 0x20 DUP3 ADD MSTORE POP JUMP JUMPDEST PUSH1 0x0 PUSH2 0x2FA1 PUSH1 0x2F DUP4 PUSH2 0x2794 JUMP JUMPDEST SWAP2 POP PUSH2 0x2FAC DUP3 PUSH2 0x2F45 JUMP JUMPDEST PUSH1 0x40 DUP3 ADD SWAP1 POP SWAP2 SWAP1 POP JUMP JUMPDEST PUSH1 0x0 PUSH1 0x20 DUP3 ADD SWAP1 POP DUP2 DUP2 SUB PUSH1 0x0 DUP4 ADD MSTORE PUSH2 0x2FD0 DUP2 PUSH2 0x2F94 JUMP JUMPDEST SWAP1 POP SWAP2 SWAP1 POP JUMP JUMPDEST PUSH1 0x0 PUSH2 0x2FE2 DUP3 PUSH2 0x28AC JUMP JUMPDEST SWAP2 POP PUSH2 0x2FED DUP4 PUSH2 0x28AC JUMP JUMPDEST SWAP3 POP DUP3 PUSH32 0xFFFFFFFFFFFFFFFFFFFFFFFFFFFFFFFFFFFFFFFFFFFFFFFFFFFFFFFFFFFFFFFF SUB DUP3 GT ISZERO PUSH2 0x3022 JUMPI PUSH2 0x3021 PUSH2 0x2EE2 JUMP JUMPDEST JUMPDEST DUP3 DUP3 ADD SWAP1 POP SWAP3 SWAP2 POP POP JUMP JUMPDEST PUSH1 0x0 DUP3 DUP3 MSTORE PUSH1 0x20 DUP3 ADD SWAP1 POP SWAP3 SWAP2 POP POP JUMP JUMPDEST DUP3 DUP2 DUP4 CALLDATACOPY PUSH1 0x0 DUP4 DUP4 ADD MSTORE POP POP POP JUMP JUMPDEST PUSH1 0x0 PUSH2 0x3059 DUP4 DUP6 PUSH2 0x302D JUMP JUMPDEST SWAP4 POP PUSH2 0x3066 DUP4 DUP6 DUP5 PUSH2 0x303E JUMP JUMPDEST PUSH2 0x306F DUP4 PUSH2 0x27D8 JUMP JUMPDEST DUP5 ADD SWAP1 POP SWAP4 SWAP3 POP POP POP JUMP JUMPDEST PUSH1 0x0 PUSH1 0x60 DUP3 ADD SWAP1 POP PUSH2 0x308F PUSH1 0x0 DUP4 ADD DUP8 PUSH2 0x2AE5 JUMP JUMPDEST PUSH2 0x309C PUSH1 0x20 DUP4 ADD DUP7 PUSH2 0x2958 JUMP JUMPDEST DUP2 DUP2 SUB PUSH1 0x40 DUP4 ADD MSTORE PUSH2 0x30AF DUP2 DUP5 DUP7 PUSH2 0x304D JUMP JUMPDEST SWAP1 POP SWAP6 SWAP5 POP POP POP POP POP JUMP JUMPDEST PUSH2 0x30C3 DUP2 PUSH2 0x2922 JUMP JUMPDEST DUP2 EQ PUSH2 0x30CE JUMPI PUSH1 0x0 DUP1 REVERT JUMPDEST POP JUMP JUMPDEST PUSH1 0x0 DUP2 MLOAD SWAP1 POP PUSH2 0x30E0 DUP2 PUSH2 0x30BA JUMP JUMPDEST SWAP3 SWAP2 POP POP JUMP JUMPDEST PUSH1 0x0 PUSH1 0x20 DUP3 DUP5 SUB SLT ISZERO PUSH2 0x30FC JUMPI PUSH2 0x30FB PUSH2 0x2844 JUMP JUMPDEST JUMPDEST PUSH1 0x0 PUSH2 0x310A DUP5 DUP3 DUP6 ADD PUSH2 0x30D1 JUMP JUMPDEST SWAP2 POP POP SWAP3 SWAP2 POP POP JUMP JUMPDEST PUSH32 0x416E7973776170563445524332303A20464F5242494444454E00000000000000 PUSH1 0x0 DUP3 ADD MSTORE POP JUMP JUMPDEST PUSH1 0x0 PUSH2 0x3149 PUSH1 0x19 DUP4 PUSH2 0x2794 JUMP JUMPDEST SWAP2 POP PUSH2 0x3154 DUP3 PUSH2 0x3113 JUMP JUMPDEST PUSH1 0x20 DUP3 ADD SWAP1 POP SWAP2 SWAP1 POP JUMP JUMPDEST PUSH1 0x0 PUSH1 0x20 DUP3 ADD SWAP1 POP DUP2 DUP2 SUB PUSH1 0x0 DUP4 ADD MSTORE PUSH2 0x3178 DUP2 PUSH2 0x313C JUMP JUMPDEST SWAP1 POP SWAP2 SWAP1 POP JUMP JUMPDEST PUSH32 0x416E7973776170563345524332303A2045787069726564207065726D69740000 PUSH1 0x0 DUP3 ADD MSTORE POP JUMP JUMPDEST PUSH1 0x0 PUSH2 0x31B5 PUSH1 0x1E DUP4 PUSH2 0x2794 JUMP JUMPDEST SWAP2 POP PUSH2 0x31C0 DUP3 PUSH2 0x317F JUMP JUMPDEST PUSH1 0x20 DUP3 ADD SWAP1 POP SWAP2 SWAP1 POP JUMP JUMPDEST PUSH1 0x0 PUSH1 0x20 DUP3 ADD SWAP1 POP DUP2 DUP2 SUB PUSH1 0x0 DUP4 ADD MSTORE PUSH2 0x31E4 DUP2 PUSH2 0x31A8 JUMP JUMPDEST SWAP1 POP SWAP2 SWAP1 POP JUMP JUMPDEST PUSH1 0x0 PUSH2 0x31F6 DUP3 PUSH2 0x28AC JUMP JUMPDEST SWAP2 POP PUSH32 0xFFFFFFFFFFFFFFFFFFFFFFFFFFFFFFFFFFFFFFFFFFFFFFFFFFFFFFFFFFFFFFFF DUP3 EQ ISZERO PUSH2 0x3229 JUMPI PUSH2 0x3228 PUSH2 0x2EE2 JUMP JUMPDEST JUMPDEST PUSH1 0x1 DUP3 ADD SWAP1 POP SWAP2 SWAP1 POP JUMP JUMPDEST PUSH1 0x0 PUSH1 0xC0 DUP3 ADD SWAP1 POP PUSH2 0x3249 PUSH1 0x0 DUP4 ADD DUP10 PUSH2 0x275F JUMP JUMPDEST PUSH2 0x3256 PUSH1 0x20 DUP4 ADD DUP9 PUSH2 0x2AE5 JUMP JUMPDEST PUSH2 0x3263 PUSH1 0x40 DUP4 ADD DUP8 PUSH2 0x2AE5 JUMP JUMPDEST PUSH2 0x3270 PUSH1 0x60 DUP4 ADD DUP7 PUSH2 0x2958 JUMP JUMPDEST PUSH2 0x327D PUSH1 0x80 DUP4 ADD DUP6 PUSH2 0x2958 JUMP JUMPDEST PUSH2 0x328A PUSH1 0xA0 DUP4 ADD DUP5 PUSH2 0x2958 JUMP JUMPDEST SWAP8 SWAP7 POP POP POP POP POP POP POP JUMP JUMPDEST PUSH32 0x416E7973776170563345524332303A2061646472657373283078302900000000 PUSH1 0x0 DUP3 ADD MSTORE POP JUMP JUMPDEST PUSH1 0x0 PUSH2 0x32CB PUSH1 0x1C DUP4 PUSH2 0x2794 JUMP JUMPDEST SWAP2 POP PUSH2 0x32D6 DUP3 PUSH2 0x3295 JUMP JUMPDEST PUSH1 0x20 DUP3 ADD SWAP1 POP SWAP2 SWAP1 POP JUMP JUMPDEST PUSH1 0x0 PUSH1 0x20 DUP3 ADD SWAP1 POP DUP2 DUP2 SUB PUSH1 0x0 DUP4 ADD MSTORE PUSH2 0x32FA DUP2 PUSH2 0x32BE JUMP JUMPDEST SWAP1 POP SWAP2 SWAP1 POP JUMP JUMPDEST PUSH32 0x45524332303A206D696E7420746F20746865207A65726F206164647265737300 PUSH1 0x0 DUP3 ADD MSTORE POP JUMP JUMPDEST PUSH1 0x0 PUSH2 0x3337 PUSH1 0x1F DUP4 PUSH2 0x2794 JUMP JUMPDEST SWAP2 POP PUSH2 0x3342 DUP3 PUSH2 0x3301 JUMP JUMPDEST PUSH1 0x20 DUP3 ADD SWAP1 POP SWAP2 SWAP1 POP JUMP JUMPDEST PUSH1 0x0 PUSH1 0x20 DUP3 ADD SWAP1 POP DUP2 DUP2 SUB PUSH1 0x0 DUP4 ADD MSTORE PUSH2 0x3366 DUP2 PUSH2 0x332A JUMP JUMPDEST SWAP1 POP SWAP2 SWAP1 POP JUMP JUMPDEST PUSH1 0x0 DUP2 SWAP1 POP SWAP3 SWAP2 POP POP JUMP JUMPDEST PUSH32 0x1901000000000000000000000000000000000000000000000000000000000000 PUSH1 0x0 DUP3 ADD MSTORE POP JUMP JUMPDEST PUSH1 0x0 PUSH2 0x33AE PUSH1 0x2 DUP4 PUSH2 0x336D JUMP JUMPDEST SWAP2 POP PUSH2 0x33B9 DUP3 PUSH2 0x3378 JUMP JUMPDEST PUSH1 0x2 DUP3 ADD SWAP1 POP SWAP2 SWAP1 POP JUMP JUMPDEST PUSH1 0x0 DUP2 SWAP1 POP SWAP2 SWAP1 POP JUMP JUMPDEST PUSH2 0x33DF PUSH2 0x33DA DUP3 PUSH2 0x2755 JUMP JUMPDEST PUSH2 0x33C4 JUMP JUMPDEST DUP3 MSTORE POP POP JUMP JUMPDEST PUSH1 0x0 PUSH2 0x33F0 DUP3 PUSH2 0x33A1 JUMP JUMPDEST SWAP2 POP PUSH2 0x33FC DUP3 DUP6 PUSH2 0x33CE JUMP JUMPDEST PUSH1 0x20 DUP3 ADD SWAP2 POP PUSH2 0x340C DUP3 DUP5 PUSH2 0x33CE JUMP JUMPDEST PUSH1 0x20 DUP3 ADD SWAP2 POP DUP2 SWAP1 POP SWAP4 SWAP3 POP POP POP JUMP JUMPDEST PUSH1 0x0 PUSH1 0x80 DUP3 ADD SWAP1 POP PUSH2 0x3431 PUSH1 0x0 DUP4 ADD DUP8 PUSH2 0x275F JUMP JUMPDEST PUSH2 0x343E PUSH1 0x20 DUP4 ADD DUP7 PUSH2 0x29E2 JUMP JUMPDEST PUSH2 0x344B PUSH1 0x40 DUP4 ADD DUP6 PUSH2 0x275F JUMP JUMPDEST PUSH2 0x3458 PUSH1 0x60 DUP4 ADD DUP5 PUSH2 0x275F JUMP JUMPDEST SWAP6 SWAP5 POP POP POP POP POP JUMP JUMPDEST PUSH32 0x19457468657265756D205369676E6564204D6573736167653A0A333200000000 PUSH1 0x0 DUP3 ADD MSTORE POP JUMP JUMPDEST PUSH1 0x0 PUSH2 0x3497 PUSH1 0x1C DUP4 PUSH2 0x336D JUMP JUMPDEST SWAP2 POP PUSH2 0x34A2 DUP3 PUSH2 0x3461 JUMP JUMPDEST PUSH1 0x1C DUP3 ADD SWAP1 POP SWAP2 SWAP1 POP JUMP JUMPDEST PUSH1 0x0 PUSH2 0x34B8 DUP3 PUSH2 0x348A JUMP JUMPDEST SWAP2 POP PUSH2 0x34C4 DUP3 DUP6 PUSH2 0x33CE JUMP JUMPDEST PUSH1 0x20 DUP3 ADD SWAP2 POP PUSH2 0x34D4 DUP3 DUP5 PUSH2 0x33CE JUMP JUMPDEST PUSH1 0x20 DUP3 ADD SWAP2 POP DUP2 SWAP1 POP SWAP4 SWAP3 POP POP POP JUMP JUMPDEST PUSH32 0x45524332303A206275726E2066726F6D20746865207A65726F20616464726573 PUSH1 0x0 DUP3 ADD MSTORE PUSH32 0x7300000000000000000000000000000000000000000000000000000000000000 PUSH1 0x20 DUP3 ADD MSTORE POP JUMP JUMPDEST PUSH1 0x0 PUSH2 0x3540 PUSH1 0x21 DUP4 PUSH2 0x2794 JUMP JUMPDEST SWAP2 POP PUSH2 0x354B DUP3 PUSH2 0x34E4 JUMP JUMPDEST PUSH1 0x40 DUP3 ADD SWAP1 POP SWAP2 SWAP1 POP JUMP JUMPDEST PUSH1 0x0 PUSH1 0x20 DUP3 ADD SWAP1 POP DUP2 DUP2 SUB PUSH1 0x0 DUP4 ADD MSTORE PUSH2 0x356F DUP2 PUSH2 0x3533 JUMP JUMPDEST SWAP1 POP SWAP2 SWAP1 POP JUMP INVALID LOG2 PUSH5 0x6970667358 0x22 SLT KECCAK256 0xD8 ADDMOD 0xC2 0xBC 0x2D 0xBA CALLDATALOAD NOT DUP5 PUSH5 0xD40DB25B10 PUSH4 0xC577D356 CALLVALUE DUP11 PUSH26 0x4AB0AA5E0D03C69AB664736F6C634300080B0033000000000000 "
				},
				"gasEstimates": {
					"creation": {
						"codeDepositCost": "2748000",
						"executionCost": "infinite",
						"totalCost": "infinite"
					},
					"external": {
						"DOMAIN_SEPARATOR()": "infinite",
						"PERMIT_TYPEHASH()": "419",
						"TRANSFER_TYPEHASH()": "376",
						"allowance(address,address)": "infinite",
						"applyMinter()": "83928",
						"applyVault()": "33054",
						"approve(address,uint256)": "infinite",
						"approveAndCall(address,uint256,bytes)": "infinite",
						"balanceOf(address)": "2925",
						"burn(address,uint256)": "infinite",
						"decimals()": "infinite",
						"delay()": "2518",
						"delayMinter()": "2474",
						"delayVault()": "2497",
						"getAllMinters()": "infinite",
						"isMinter(address)": "2978",
						"mint(address,uint256)": "infinite",
						"minters(uint256)": "5002",
						"mpc()": "4743",
						"name()": "infinite",
						"nonces(address)": "2947",
						"owner()": "4780",
						"pendingMinter()": "2626",
						"pendingVault()": "2626",
						"permit(address,address,uint256,uint256,uint8,bytes32,bytes32)": "infinite",
						"revokeMinter(address)": "29239",
						"setMinter(address)": "infinite",
						"setVault(address)": "infinite",
						"symbol()": "infinite",
						"totalSupply()": "2483",
						"transfer(address,uint256)": "infinite",
						"transferAndCall(address,uint256,bytes)": "infinite",
						"transferFrom(address,address,uint256)": "infinite",
						"transferWithPermit(address,address,uint256,uint256,uint8,bytes32,bytes32)": "infinite",
						"vault()": "2624"
					},
					"internal": {
						"_burn(address,uint256)": "infinite",
						"_mint(address,uint256)": "infinite",
						"verifyEIP712(address,bytes32,uint8,bytes32,bytes32)": "infinite",
						"verifyPersonalSign(address,bytes32,uint8,bytes32,bytes32)": "infinite"
					}
				},
				"methodIdentifiers": {
					"DOMAIN_SEPARATOR()": "3644e515",
					"PERMIT_TYPEHASH()": "30adf81f",
					"TRANSFER_TYPEHASH()": "00bf26f4",
					"allowance(address,address)": "dd62ed3e",
					"applyMinter()": "0d707df8",
					"applyVault()": "d93f2445",
					"approve(address,uint256)": "095ea7b3",
					"approveAndCall(address,uint256,bytes)": "cae9ca51",
					"balanceOf(address)": "70a08231",
					"burn(address,uint256)": "9dc29fac",
					"decimals()": "313ce567",
					"delay()": "6a42b8f8",
					"delayMinter()": "c3081240",
					"delayVault()": "87689e28",
					"getAllMinters()": "a045442c",
					"isMinter(address)": "aa271e1a",
					"mint(address,uint256)": "40c10f19",
					"minters(uint256)": "8623ec7b",
					"mpc()": "f75c2664",
					"name()": "06fdde03",
					"nonces(address)": "7ecebe00",
					"owner()": "8da5cb5b",
					"pendingMinter()": "91c5df49",
					"pendingVault()": "52113ba7",
					"permit(address,address,uint256,uint256,uint8,bytes32,bytes32)": "d505accf",
					"revokeMinter(address)": "cfbd4885",
					"setMinter(address)": "fca3b5aa",
					"setVault(address)": "6817031b",
					"symbol()": "95d89b41",
					"totalSupply()": "18160ddd",
					"transfer(address,uint256)": "a9059cbb",
					"transferAndCall(address,uint256,bytes)": "4000aea0",
					"transferFrom(address,address,uint256)": "23b872dd",
					"transferWithPermit(address,address,uint256,uint256,uint8,bytes32,bytes32)": "605629d6",
					"vault()": "fbfa77cf"
				}
			},
			"storageLayout": {
				"storage": [
					{
						"astId": 357,
						"contract": "contracts/Solid.sol:AnyswapV6ERC20",
						"label": "name",
						"offset": 0,
						"slot": "0",
						"type": "t_string_storage"
					},
					{
						"astId": 359,
						"contract": "contracts/Solid.sol:AnyswapV6ERC20",
						"label": "symbol",
						"offset": 0,
						"slot": "1",
						"type": "t_string_storage"
					},
					{
						"astId": 380,
						"contract": "contracts/Solid.sol:AnyswapV6ERC20",
						"label": "balanceOf",
						"offset": 0,
						"slot": "2",
						"type": "t_mapping(t_address,t_uint256)"
					},
					{
						"astId": 382,
						"contract": "contracts/Solid.sol:AnyswapV6ERC20",
						"label": "_totalSupply",
						"offset": 0,
						"slot": "3",
						"type": "t_uint256"
					},
					{
						"astId": 384,
						"contract": "contracts/Solid.sol:AnyswapV6ERC20",
						"label": "_init",
						"offset": 0,
						"slot": "4",
						"type": "t_bool"
					},
					{
						"astId": 391,
						"contract": "contracts/Solid.sol:AnyswapV6ERC20",
						"label": "delay",
						"offset": 0,
						"slot": "5",
						"type": "t_uint256"
					},
					{
						"astId": 395,
						"contract": "contracts/Solid.sol:AnyswapV6ERC20",
						"label": "isMinter",
						"offset": 0,
						"slot": "6",
						"type": "t_mapping(t_address,t_bool)"
					},
					{
						"astId": 398,
						"contract": "contracts/Solid.sol:AnyswapV6ERC20",
						"label": "minters",
						"offset": 0,
						"slot": "7",
						"type": "t_array(t_address)dyn_storage"
					},
					{
						"astId": 400,
						"contract": "contracts/Solid.sol:AnyswapV6ERC20",
						"label": "vault",
						"offset": 0,
						"slot": "8",
						"type": "t_address"
					},
					{
						"astId": 402,
						"contract": "contracts/Solid.sol:AnyswapV6ERC20",
						"label": "pendingMinter",
						"offset": 0,
						"slot": "9",
						"type": "t_address"
					},
					{
						"astId": 404,
						"contract": "contracts/Solid.sol:AnyswapV6ERC20",
						"label": "delayMinter",
						"offset": 0,
						"slot": "10",
						"type": "t_uint256"
					},
					{
						"astId": 406,
						"contract": "contracts/Solid.sol:AnyswapV6ERC20",
						"label": "pendingVault",
						"offset": 0,
						"slot": "11",
						"type": "t_address"
					},
					{
						"astId": 408,
						"contract": "contracts/Solid.sol:AnyswapV6ERC20",
						"label": "delayVault",
						"offset": 0,
						"slot": "12",
						"type": "t_uint256"
					},
					{
						"astId": 635,
						"contract": "contracts/Solid.sol:AnyswapV6ERC20",
						"label": "nonces",
						"offset": 0,
						"slot": "13",
						"type": "t_mapping(t_address,t_uint256)"
					},
					{
						"astId": 643,
						"contract": "contracts/Solid.sol:AnyswapV6ERC20",
						"label": "allowance",
						"offset": 0,
						"slot": "14",
						"type": "t_mapping(t_address,t_mapping(t_address,t_uint256))"
					}
				],
				"types": {
					"t_address": {
						"encoding": "inplace",
						"label": "address",
						"numberOfBytes": "20"
					},
					"t_array(t_address)dyn_storage": {
						"base": "t_address",
						"encoding": "dynamic_array",
						"label": "address[]",
						"numberOfBytes": "32"
					},
					"t_bool": {
						"encoding": "inplace",
						"label": "bool",
						"numberOfBytes": "1"
					},
					"t_mapping(t_address,t_bool)": {
						"encoding": "mapping",
						"key": "t_address",
						"label": "mapping(address => bool)",
						"numberOfBytes": "32",
						"value": "t_bool"
					},
					"t_mapping(t_address,t_mapping(t_address,t_uint256))": {
						"encoding": "mapping",
						"key": "t_address",
						"label": "mapping(address => mapping(address => uint256))",
						"numberOfBytes": "32",
						"value": "t_mapping(t_address,t_uint256)"
					},
					"t_mapping(t_address,t_uint256)": {
						"encoding": "mapping",
						"key": "t_address",
						"label": "mapping(address => uint256)",
						"numberOfBytes": "32",
						"value": "t_uint256"
					},
					"t_string_storage": {
						"encoding": "bytes",
						"label": "string",
						"numberOfBytes": "32"
					},
					"t_uint256": {
						"encoding": "inplace",
						"label": "uint256",
						"numberOfBytes": "32"
					}
				}
			},
			"userdoc": {
				"kind": "user",
				"methods": {},
				"version": 1
			}
		}
	}
}